:020000040000FA
:060000009AEF0DF0120062
:0A0006000100AE1B000023040000FF
:0400100004000000E8
:0C00140046EC05F0FB0EDBCFF3FFDB0633
:10002000F35000090AE094EC05F0FA0EFFEC05F03D
:10003000F3E1151CF1E1010E01D0000E75EF05F0A2
:1000400046EC05F03B0EE12402E3E168E652E16E86
:10005000010EDB6A020EDB6AF90EDBCFF6FFFA0E49
:10006000DBCFF7FFFB0EDBCFF8FF0800F550DF6EAC
:10007000DF5002E199EF04F0250EDF5C02E08CEF27
:1000800004F0030EDB6A040EDB6A050EDB6A060E63
:10009000DB6A070EDB6AAEEC04F02D0EDF5C0CE0D1
:1000A0002B0EDF5C09E0200EDF5C06E0230EDF5C38
:1000B00003E0300EDF5C1AE1DF50300A14E0130A6F
:1000C0000FE0030A0AE00B0A05E0060AE4E1030E6A
:1000D000DB80E1D7030EDB82DED7030EDB84DBD7C8
:1000E000030EDB86D8D7030EDB88D5D72A0EDF5C5C
:1000F0001BE1AAEC04F0F8EC04F010E0030EDB8046
:1001000006680768130EDBCF0BF0140EDBCF0CF084
:100110003CEC08F0040E04C0DBFF03D0130EE1EC4E
:1001200004F0AEEC04F00BD0090EDB6A4FEC05F0E6
:1001300003E0C3EC05F0FAD7090EE1EC04F0030E7E
:10014000DBB0DB982E0EDF5C1BE1AEEC04F02A0E78
:10015000DF5C0BE1AAEC04F0F8EC04F003E1130E11
:1001600033EC05F0AEEC04F00BD0090EDB6A4FEC7B
:1001700005F003E0C3EC05F0FAD7090E33EC05F007
:10018000680EDF5C07E1AEEC04F0680EDF5C1DE199
:10019000030E18D0740EDF5C17E07A0EDF5C14E0FB
:1001A000480EDF5C06E0540EDF5C03E05A0EDF5CB5
:1001B00002E1020E07D06C0EDF5C03E06A0EDF5C2A
:1001C00004E1010E86EC05F0C9DBDF506E0A01E1A7
:1001D0007FD31E0A01E192D1200A01E18FD13F0AAB
:1001E00001E149D11A0A01E146D10D0A01E143D1E9
:1001F000200A01E140D13A0A01E13DD1200A01E1A2
:100200003AD1260A01E135D10D0A01E132D11A0AAB
:1002100001E1D9D0200A4AE0300A1FE0460A0EE088
:10022000250A01E083D3D950F90FE96EFF0EDA20D9
:10023000EA6E010EEE5E000EEE5AEE5A94EC05F0F8
:10024000250EE66E95DB03E1151C01E169D390EC08
:1002500005F001E26BD3DB2A69D3080EDB6A040EDA
:10026000DB50010806E2040EDB0458EC05F0DB501D
:100270008BDB080EDB5009E0030EDB50010B05E1C0
:1002800072DB01E04DD3080EDB6A64DBEFCFDFFFEA
:1002900008EC06F003E1151C01E142D390EC05F0F7
:1002A00001E3DB2A60DB01E141D33AD3070EDB50E7
:1002B00002080FE1D4EC05F0030E9BEC05F00E0EE6
:1002C000EECFDBFF0F0EEECFDBFF100EEECFDBFF2E
:1002D00020D0F70EDBCF17F0F80EDBCF18F0020EB0
:1002E000175E000E185AF70E17C0DBFFF80E18C085
:1002F000DBFF17C0E9FF18C0EAFF8BEC05F0166AB8
:100300000E0E14C0DBFF0F0E15C0DBFF100E16C063
:10031000DBFF0E0EDBCFE6FF0F0EDBCFE6FF100E8E
:10032000DBCFE6FFDDEC0BF0E552E552E552130EB4
:1003300005C0DBFF140E06C0DBFF060EDB5005E038
:10034000130ECFEC05F001E26ADBF3EC05F002E2FC
:10035000130E37DBB6EC05F006E0040ECFEC05F02B
:1003600002E2050E2EDB030EDBB005D0FCDA01E065
:10037000D7D2080EDB6A090EDB6A0E0EDBCFF6FF62
:100380000F0EDBCFF7FF100EDBCFF8FF0800F550A4
:10039000DF6EDF5014E0F9EC05F011E208EC06F036
:1003A00003E1151C01E1BCD2BBDB01E3DB2A090E32
:1003B000DB2AD9500E0FE96E000ECBDBE7D7D3DA7C
:1003C00001E1B4D2ADD2C6DA110EEECFDBFF120ED0
:1003D000EDCFDBFF110EDBCFE6FF120EDBCFE6FF2A
:1003E000CFEC0BF0E552E552130EF3CFDBFF140E0A
:1003F000F4CFDBFF060EDB5004E0130ED0DB01E28E
:100400000EDBF3EC05F002E2130EDBDAAFDB05E006
:10041000040EC5DB02E2050ED4DA030EDBB005D014
:10042000A2DA01E07DD2080EDB6A090EDB6A110E4A
:10043000DBCFE9FF120EDBCFEAFFEFCFDFFFDF50AC
:1004400014E0D7DB12E2E4DB03E1151C01E168D222
:1004500067DB01E3DB2A090EDB2A110EDB2ADBCF87
:10046000E9FF120EE8E3DB2AE6D77DDA01E15ED28E
:1004700057D2030EDB8E070EDB0410E195DB040E72
:100480005ADB0A0EEECFDBFF0B0EEECFDBFF0C0EBE
:10049000EECFDBFF0D0EEECFDBFF6CD0070EDB5097
:1004A00003082CE1030EDBAE0DD0B2DA020E76DAD1
:1004B000EFCF14F0156A166A176A14AE39D01568B2
:1004C000166835D0F70EDBCF15F0F80EDBCF16F03F
:1004D000020E155E000E165AF70E15C0DBFFF80E61
:1004E00016C0DBFF15C0E9FF16C0EAFFEFCF14F01E
:1004F0000A0E14C0DBFF0B0EDB6A38D0070EDB5090
:10050000020809E1030EDBAE04D059DB16AE10D0B1
:100510000ED055DB0DD0030EDBAE12D079DA020E11
:100520003DDAF9DA166A176A15AE02D0166817684E
:10053000E2DA0C0E16C0DBFF0D0E17C0DBFF1AD07F
:10054000F70EDBCF16F0F80EDBCF17F0020E165EBB
:10055000000E175AF70E16C0DBFFF80E17C0DBFFB0
:1005600016C0E9FF17C0EAFFD6DAC5DA0C0EDB6A5F
:100570000D0EDB6A060EDB5005E1010EF36E050E73
:10058000F3CFDBFF150EDB6A160EDB6AD950370F8F
:10059000146E000EDA20156E390E14C0DBFF3A0E11
:1005A00015C0DBFF380EDB6A080EDB6A0A0EAEDA16
:1005B000DF50780A12E0200A10E0280A0CE0200A36
:1005C0000AE03F0A06E00D0A02E0200A08E1020EF6
:1005D00005D0080E03D0080EDF26100E97DA030EA2
:1005E000DBBE02D0DB92DB94DB50800B24E08ADAA6
:1005F000D890030EEB50000A08E6000EEE5C000EE9
:10060000EE58000EEE58000EEE5815E213DA0968A7
:100610000A680B680C6897EC0BF00A0E00C0DBFF51
:100620000B0E01C0DBFF0C0E02C0DBFF0D0E03C082
:10063000DBFF2D0E08D0030EDBA202D02B0E03D061
:10064000DBA408D0200EF36E170EF3CFDBFF150EE0
:10065000DB2A02D0170EDB6A050EDB5003E1B7D9A7
:1006600001E189D0980E146E1B0E156E000E166EE9
:10067000070EDBCF17F0186A196A1A6A17C009F05B
:1006800018C00AF019C00BF01AC00CF0D3D94AEC0C
:100690000CF014500024F36E15500120F46E165027
:1006A0000220F86EF4CFF7FFF3CFF6FF0800090E33
:1006B000F5CFDBFF580EDF5C0FE1610EF36E090E24
:1006C0007BD90AE3200E146E090EDBCFE7FF14502E
:1006D000E75E090EE7CFDBFF070EDBCF14F0156AEC
:1006E000166A176A0FDA14C009F015C00AF016C0AE
:1006F0000BF017C00CF0EECF04F0EECF05F0EECF0C
:1007000006F0EFCF07F04AEC0CF007C0EDFF06C093
:10071000EDFF05C0EDFF04C0EFFF390EDBCFE9FFB1
:10072000DB063A0EDBCFEAFF01E2DB06090EDBCF88
:10073000EFFF150EDB2A4BD995E1030EDBA61DD08A
:100740006F0EDF5C06E1C1D918E3150EDB285BDA1A
:1007500014D0780EDF5C09E0580EDF5C06E0620E14
:10076000DF5C03E0420EDF5C08E1020EF36E160E62
:10077000F3CFDBFF02D0150EDB6A030EDB50100B4C
:100780000EE0040EDBCF14F0050EDB50D8801454BD
:1007900006E2060EDB5003E1040EDB5034DA95D995
:1007A0000AE2050EDBCFE7FF150EDB50E75E050E14
:1007B000E7CFDBFF02D0050EDB6A040EDBCF14F0BF
:1007C000160E45D9D880145414E2160EDBCFE6FF7E
:1007D000150EDBCFE6FF040EDBCFE6FF050EDB5088
:1007E000E552E75CE552D880E754E552D880E754FB
:1007F0005FD9030EDB50010B0BE1080EDB5008E064
:10080000B2D801E08DD0080EDB50BED8080EDB6AEE
:10081000170EDB5007E088D9170EF1D903E1151C3C
:1008200001E17ED0160EDB5016E07ED9300EE66E6A
:100830009FD802E1151C74E077D9DFCFE6FF55ECB5
:100840000BF0E552E552E552F4CF15F00001F31C30
:1008500002E1151C65E0050EDBCF14F0160EDB502F
:10086000D880145409E2050EDBCFE7FF160EDB50EB
:10087000E75E050EE7CFDBFF300EE66E050ECBD947
:100880004FE1390EDB2ADBCFE9FF3A0E01E3DB2A29
:10089000DBCFEAFF090EEFCFDBFFDB500EE044D9E0
:1008A000090EADD902E1151C3BE0390EDB2ADBCF86
:1008B000E9FF3A0EEDE3DB2AEBD755D831E1160E0E
:1008C000DBCFE6FF080EC3D8E552E7245DD82ED073
:1008D000070EDB50030A1CE0010A14E0030A07E0DC
:1008E0007BD9DBCFEEFF020EDBCFEDFF1FD0F5D8BB
:1008F000196A17AE02D0186819682CD8BCD819C06C
:10090000EEFF14D0EAD817BE186824D8B4D80ED099
:1009100063D9DBCFEFFF0AD07BD905E1151C03E1DA
:10092000F368F46810D0FCD801E3DB2A79D935EFFD
:1009300000F0010EDBCF14F0020EDBCF15F014C077
:10094000F3FF15C0F4FF3B0EE15C02E2E16AE55201
:10095000E16ECBD029D9020E9BEF05F061D90800DA
:10096000F550DF6E1200200EE66E080E0BEF06F05B
:1009700055EC0BF0E552E552E552F3CF14F0F4CF0D
:1009800015F00001F31C1200146E156AD950010F06
:100990004DD91450EE261550ED221200185E000EAF
:1009A000195AF70E18C0DBFFF80E19C0DBFF18C08C
:1009B000E9FF19C0EAFF1200DBCFF4FFF350F45C4B
:1009C0001200DB50E76E040EE7CFDBFF12000A0EC9
:1009D000DBCF14F00B0EDBCF15F00C0EDBCF16F0D7
:1009E0000D0EDBCF17F01450151016101710120053
:1009F000130EEECFDBFF140EEDCFDBFF130EDBCFBC
:100A000014F0140EDBCF15F00001800E1514120047
:100A1000F70EDBCF18F0F80EDBCF19F01200050E41
:100A2000DB50E66ED950130F01D9E552E750EE6E58
:100A3000ED6A12000A0EDBCF04F00B0EDBCF05F0DF
:100A40000C0EDBCF06F00D0EDBCF07F01200DBCF74
:100A5000E6FF150EDBCFE6FF050EDB50E552E7247F
:100A6000E552E7241200DB50CED8010EF36E060EDD
:100A7000F3CFDBFF1200EE50EFCFEAFFE96E16C0B6
:100A8000EEFF17C0EEFF18C0EEFF1200D9CFE6FF51
:100A9000DACFE6FFE1CFD9FFE2CFDAFF1200DFCFF6
:100AA000E6FFE66A68EC0DF0E552E552F3501200FD
:100AB000E76E080EE7CFDBFF1200EECF14F0EECFAB
:100AC00015F0EFCF16F0176A1200050EDBCF14F009
:100AD000150EDB50D88014541200010EDBCF16F037
:100AE000020EDBCF17F0186A1200E552E5CFDAFFED
:100AF000E7CFD9FF12000A0E14C0DBFF0B0E15C0A2
:100B0000DBFF1200D9500A0F16EF06F0F36E070E46
:100B1000F3CFDBFF1200EECF14F0EFCF15F0120091
:100B2000010EDB2A020E1200FC0EDBCFE6FFFD0EEB
:100B3000DBCFE6FF1200145E000E155AF70E14C04C
:100B4000DBFFF80E15C0DBFF14C0E9FF15C0EAFF9C
:100B50001200DA20EA6EEF2AEECFF6FF000EEF2247
:100B6000EECFF7FFEF22EECFF8FF1200040EDBCF3F
:100B7000E6FF130EDB50E552E75C9ADFDB5004DF43
:100B8000060EDB501200090EDB500A0DF350DF2475
:100B9000D00FE76E090EE7CFDBFFAEEF04F0DB50BE
:100BA000F36E050EDCEF04F0F70EDBCF14F0F80E59
:100BB000DBCF15F01200DFCFE6FFB8EF04F028DF3F
:100BC000030EECDE5DEF05F00AEC00F0E552E552B5
:100BD000E552E55200091200BDDEEE50EFCFEAFF0C
:100BE000E96E010E1200130EDB50F36E040EDCEF03
:100BF00004F0040EDB50F36E090EDCEF04F0DBCFE3
:100C0000E6FFB8EF04F0E76E050EE7CFDBFF12005A
:100C10008BDFDBEF05F0DBCFE6FF86DFE4EF05F0EF
:100C2000D950F90FE96EFF0EA9EF05F0E96E000E3D
:060C3000DA20EA6E12005A
:0A0C36000F9E08D00F9E07AE05D0F8
:100C4000066C071EE86A07220F8E07C001F006C077
:100C500000F0136A126A8E0E026E036AD2EF07F07A
:100C60000F6A0EEC08F026EC08F00FB6B6EF07F0AE
:100C70000FA205D00FBAB6EF07F0BDEF07F00FBA1D
:100C8000C9EF07F00FA005D00FB8B6EF07F0C9EF16
:100C900007F00FB8BDEF07F0036A7F0E0824026E5D
:100CA000E86A03220D50025EE86A035A1A0E106EBB
:100CB000086A126A136A006A016A0A50055E0B50DC
:100CC000065A0C50075A000E085A09E70A50052622
:100CD0000B5006220C500722000E082201D0128A67
:100CE000D8900536063607360836D89012361336B1
:100CF00000360136102EE1D7075006100510D8A493
:100D0000128AD2EF07F00F6A0EEC08F026EC08F01A
:100D10000FB6B6EF07F00FA205D00FB8B6EF07F089
:100D2000BDEF07F00FAA05D00FB0B6EF07F0BDEF8B
:100D300007F00FB002D00FA802D0C9EF07F0036A86
:100D40000D500824026EE86A03227E0E025EE86AF5
:100D5000035A126A136A006A016A0C500702F4CF40
:100D600001F0F3CF00F00B500702F3501326F450BC
:100D70000022000E01220C500602F3501326F450FC
:100D80000022000E01220A500702F3501226F450EE
:100D90001322000E002201220B500602F3501226ED
:100DA000F4501322000E002201220C500502F350D1
:100DB0001226F4501322000E002201220A500602CD
:100DC000F4501226000E1322002201220B500502BD
:100DD000F4501226000E132200220122D2EF07F057
:100DE0000D7E0F6A0EEC08F026EC08F00FB6B6EF99
:100DF00007F00FA20AD00FAA03D00FBEB6EF07F07C
:100E00000FA4C2EF07F0BFEF07F00FAA05D00FAC99
:100E1000C2EF07F0BFEF07F00FA00AD00FA808D06D
:100E20000FBE04D00FA402D0CBEF07F0CFEF07F036
:100E3000126A036A0D50085C116E10E305C013F0CE
:100E400006C000F007C001F008C010F00AC005F0AD
:100E50000BC006F00CC007F00F3A09D00AC013F01F
:100E60000BC000F00CC001F00DC010F0116C0F9E13
:100E70000FBC0F8E10C002F00FB0FEEF07F01A0E7D
:100E80001160FEEF07F0026A086A0FA408D0056C33
:100E9000061E071E081EE86A0622072208220FAC5B
:100EA00008D0136C001E011E021EE86A00220122F7
:100EB0000222046A115207E0083407320632053272
:100EC0000432112EF9D70550132606500022075080
:100ED00001220850022204C012F00F9E02AE0BD075
:100EE000126C131E001E011E021EE86A132200224D
:100EF000012202220F8E02A006D0D88001320032D9
:100F000013321232102A10C002F0D2EF07F00F6A2B
:100F10000EEC08F00FB691EF07F00FA20ED00FB451
:100F200005D07F0E076EFF0E066E1FD0800E076E77
:100F3000066A1BD0076A066A18D00FB0FBD78F0E5F
:100F40000860EDD77E0E0864F5D78E0E085C05E0CC
:100F5000D89007320632082AF8D70FA406D0066CBC
:100F6000071EE86A072207AEE5D712007F0E086E5B
:100F7000FF0E076E066E056E12007F0E0FBEFF0E8F
:100F8000086E02D07F0E086E800E076E066A056A34
:100F9000F3D70FAE04D0800E086E076AF7D7086A41
:100FA000076AF4D70150001013101210F8E003BEC6
:100FB000F0D701BE0CD002500310EBE0D8901236EF
:100FC0001336003601360206D8A00306F2D70350C6
:100FD000D4E10228D2E012AE11D07F0E121402E149
:100FE00013A00CD0132AE86A0022012207E3D8805C
:100FF000013200321332022A0228BFE00250C9E057
:1010000013C005F000C006F00134076E0230086E10
:101010000732089E0FBE088EBCEF07F00736083671
:1010200002E30F840F7E06E10F80086A076A066AF2
:10103000056A1200082803E0D88007321200D89011
:10104000073202E10F8212000F8612000C360D36B5
:1010500002E30F8C0F7E06E10F880D6A0C6A0B6AA3
:101060000A6A12000D2803E0D8800C321200D890D2
:101070000C32EAE10F8A120007C013F006C012F02A
:1010800006500B02F4CF05F0F3CF04F007500C022A
:10109000F4CF07F0F3CF06F00B02F3500526F4501F
:1010A0000622E86A072212500C02F3500526F4507B
:1010B0000622E86A07220CAE62EF08F01250065EC4
:1010C0001350075A13AE000C0B50065E0C50075A13
:0210D000000C12
:0E10D200ECD9020EE126DE6ADD6A938A8A9A64
:1010E000939A300ED3D9938A0A0ED0D98150200B0F
:1010F000200A01E0010E146E156A14BE156814C0B2
:10110000DEFF15C0DDFF146E020EE15C02E2E16A53
:10111000E552E16E1450CFD1C9D9E652DF6ADFCF74
:1011200014F0080EE76E1418E8AE02D0E73402D0CF
:10113000E750145C19E28A9A939A010EA7D9FE0E21
:10114000DB50010BE8B0938AE8A0939A050E9ED974
:10115000938A020E9BD9FE0EDB407F0BE76EFE0EDC
:10116000E7CFDBFFDF2ADBD7E552A5D1D9CFE6FFFA
:10117000E1CFD9FF030EE126DE6ADD6A020EDB6AEB
:10118000020EDBCF14F0080EE76E1418E8AE02D0A2
:10119000E73402D0E750145C2EE28A9A939A00005A
:1011A0000000938A00000000000000000000000022
:1011B000000000008150200B01E0010EF36E020ED2
:1011C000DB5004E0D890F336E806FCE1F350166EED
:1011D000176ADE501610146EDD501710156E14C00D
:1011E000DEFF15C0DDFF050EE66EB6EC0DF0E55234
:1011F000020EDB2AC5D7DF5000D0146E030EE15C6F
:1012000002E2E16AE552E16E1450E552E7CFD9FF00
:1012100012000000000000000000000000000000BC
:10122000000000000000000000000000000000D0EE
:101230001200050EE66E7AEC0DF0E55212000F0E6C
:10124000E66E7AEC0DF0E5521200280EE66E08EC20
:101250000BF0E55234D9FEE1E66A02EC0CF0E552FF
:101260002ED9FEE10F0EE66E91EC0CF0E55227D977
:10127000FEE1060EE66E91EC0CF0E55220D9FEE19F
:10128000120027DF0C0E07D9E66A46DFE55221DFA0
:10129000AC0E01D969EF08F009D90A0EE126DE6A21
:1012A000DD6A020EDB6A030EDB6A040EDB6A050EE2
:1012B000DB6A060EDB6A070EDB6A080EDB6A090EC4
:1012C000DB6A080EDBCF14F0090EDBCF15F0D890E7
:1012D000155004E6C80E145C000E155829E2EE0EF7
:1012E000DAD8220ED8D8F5DEAA0ED5D83FDF146E94
:1012F000156A14BE156814C0DEFF15C0DDFFE9DEF7
:10130000020EDBCF16F0030EDBCF17F0DE501624F3
:10131000146EDD501720156E020E14C0DBFF030E95
:1013200015C0DBFF080EDB2A090ECBE3DB2AC9D789
:10133000020EDBCF06F0030EDBCF07F01DEC06F04C
:101340009AD8480E0C6E430E0D6E30EC06F0040E6B
:1013500005C0DBFF050E06C0DBFF060E07C0DBFF86
:10136000070E08C0DBFF040EDBCF14F0050EDBCF49
:1013700015F0060EDBCF16F0070EDBCF17F014C00A
:1013800004F015C005F016C006F017C007F00A0EED
:10139000E15C02E2E16AE552E16E8DD07DDF04C0DE
:1013A00023F405C024F406C025F407C026F404C0C5
:1013B00005F075D887EC07F006C001F407C002F409
:1013C0001DEC06F005C018F006C019F007C01AF0B1
:1013D00008C01BF005C00AF006C00BF007C00CF0F7
:1013E00008C00DF023C405F05AD8F0EC06F043D83D
:1013F000C80E0C6E420E0D6E83EC06F087EC07F003
:1014000006C003F407C004F406C0E6FF07C0E6FF09
:1014100001C4E6FF02C4E6FF8F0E146E1B0E156EAC
:10142000166A14C0E6FFE66E16C0E6FF050EE66E0D
:10143000040EE66E63EC0AF0176E090EE15E1750BB
:10144000E66A02EC0CF0E552820EE66E1B0EE66ECA
:10145000F8EC0CF0E552E552050EE66E040EE66E71
:101460001AEC0DF0E552E55299D70BDFEEDE96DF70
:1014700026D8FEE1120005C014F006C015F007C022
:1014800016F008C017F00A6A0B6A1200E66EB6EC96
:101490000DF0E5521200E66E3FDEE552120024C464
:1014A00006F025C407F026C408F01200D9CFE6FFE5
:1014B000E1CFD9FF1200E552E7CFD9FF120052EC7D
:0614C0000DF0000912000E
:0A14C600D9CFE6FFDACFE6FFE1CF51
:1014D000D9FFE2CFDAFFE652E652E652E652D950A1
:1014E000F90F146EFF0EDA20156E020E14C0DBFF2A
:1014F000030E15C0DBFF020EDBCFE6FF030EDBCFD2
:10150000E6FFF90EDBCFE6FFFA0EDBCFE6FFFB0EC0
:10151000DBCFE6FFD950FC0FE66EFF0EDA20E66E59
:1015200020EC00F0146E070EE15C02E2E16AE55285
:10153000E16E1450F3CFDEFFF4CFDDFFFC0EDBCF06
:10154000E9FFFD0EDBCFEAFFEF6ADECF14F0DDCF5F
:1015500015F014C0F3FF15C0F4FF040EE15C02E2C5
:10156000E16AE552E16EE552E5CFDAFFE7CFD9FF58
:02157000120067
:0E157200060EF66E000EF76E000EF86E040107
:101580000900F5501E6F0900F5501F6F03E11E673B
:1015900001D03DD00900F550196F0900F5501A6FC0
:1015A0000900F5501B6F09000900F550E96E0900AC
:1015B000F550EA6E090009000900F5501C6F09009A
:1015C000F5501D6F09000900F6CF20F4F7CF21F484
:1015D000F8CF22F419C4F6FF1AC4F7FF1BC4F8FFB2
:1015E00004011C5302E11D5307E00900F550EE6EA3
:1015F0001C07F8E21D07F9D720C4F6FF21C4F7FF46
:1016000022C4F8FF04011E07000E1F5BBFD71200A3
:10161000D9CFE6FFE1CFD9FF0F0E8316951695942B
:10162000959295908C948C928C901FEC09F0300ED2
:1016300033D8050EE66E3BEC0DF0E552300E2CD89B
:10164000010EE66E3BEC0DF0E552320E25D829D89E
:10165000FEE127D8FEE1FE0EDBCFE6FF91EC0CF0B9
:10166000E5521FD8FEE1080E17D81BD8FEE10F0E79
:1016700013D817D8FEE1010E0FD813D8FEE1040EDF
:101680000BD80FD8FEE1800EE66E02EC0CF0E552AE
:10169000E552E7CFD9FF1200E66E91EC0CF0E5526F
:0A16A000120052EC0DF000091200D8
:0616AA00D9CFE6FFDACF04
:1016B000E6FFE1CFD9FFE2CFDAFFFB0EDBCF14F07C
:1016C000FC0EDBCF15F00001800E15141AE1FB0EA5
:1016D000DBCFE9FFFC0EDBCFEAFFEECFF3FFEDCF70
:1016E000F4FFEE2A000EEF22F3CFE9FFF4CFEAFF7A
:1016F000FD0EDBCFEFFFEF50156AF36E15C0F4FF60
:1017000010D0FB0EDB50FE0806E1FD0EDBCFE6FF3E
:10171000A8EC0DF005D0FD0EDBCFE6FFD5EC0DF00B
:0E172000E552E552E5CFDAFFE7CFD9FF120020
:02172E00045065
:101730000902F3CF00F0F4CF01F00A02F3500126C2
:10174000000EF420026E04500B02F3500226000E2D
:10175000F420036E04500C02F350032605500902D6
:10176000F3500126F4500222000E032205500A0213
:10177000F3500226F450032205500B02F3500326C7
:1017800006500902F3500226F450032206500A02C2
:0E179000F350032607500902F35003261200FF
:02179E00FE0E3D
:1017A000E3CFE9FFFF0EE3CFEAFFF36AF46AEE52FC
:1017B00003E0F34AF42AFBD71200FF0EE3CFF8FF51
:1017C000E552FF0EE3CFF7FFE552FF0EE3CFF6FF42
:1017D000E552E66AE66AE66A0900F55209E0FD0E9E
:1017E000E32A05E1FE0EE32A02E1FF0EE32AF4D725
:1017F000FD0EE3CF05F0FE0EE3CF06F0FF0EE3CFC4
:0418000007F01200DB
:0C180400D9CFE6FFE1CFD9FF0F0E9516FB
:101810008316FE0EDB508009F00B83128C948C92A1
:101820000ED80F0E8316FE0EDB38F00BF00B831272
:1018300006D8F00E9512E552E7CFD9FF120009EC59
:0C18400009F08C8009EC09F08C9012007B
:04184C00D9CFE6FF0B
:10185000E1CFD9FF0F0E95168316FE0EDB5040091F
:10186000F00B83128C948C920ED80F0E8316FE0E02
:10187000DB38F00BF00B831206D8F00E9512E55210
:10188000E7CFD9FF120009EC09F08C8009EC09F0D0
:041890008C90120026
:0C189400036A026A016A006A200EE76E17
:1018A000D89004360536063607360036013602363D
:1018B00003360950005C0A5001580B5002580C5076
:1018C000035809E30950005E0A50015A0B50025AAE
:0C18D0000C50035A042AE72EE4D7120043
:0418DC00D9CFE6FF7B
:1018E000E1CFD9FF0F0E95168316FE0EDB50F00BDD
:1018F00083128C828C940ED80F0E8316FE0EDB386A
:10190000F00BF00B831206D8F00E9512E552E7CFDC
:10191000D9FF120009EC09F08C8009EC09F08C90D9
:021920001200B3
:0E192200D9CFE6FFE1CFD9FF0F0E9516831641
:10193000FE0EDB50F00B83128C948C920ED80F0E9F
:101940008316FE0EDB38F00BF00B831206D8F00E78
:101950009512E552E7CFD9FF120009EC09F08C800F
:0819600009EC09F08C90120063
:08196800D9CFE6FFE1CFD9FF62
:10197000E6528C848C8209EC09F08C8009EC09F029
:10198000F00E8314DF6E8C9009EC09F08C8009EC6A
:1019900009F083380F0B0F0BDF128C908C928C9414
:0C19A000DF50E552E552E7CFD9FF1200FE
:0419AC00D9CFE6FFAA
:1019B000E1CFD9FFE6528C848C9209EC09F08C803F
:1019C00009EC09F0F00E8314DF6E8C9009EC09F03D
:1019D0008C8009EC09F083380F0B0F0BDF128C9011
:1019E0008C947F0EDF14E552E552E7CFD9FF120049
:1019F000D9CFE6FFE1CFD9FF14D80FE052EC0DF0BC
:101A00000009FCE10ED8E66E6EEC0CF0E552FD0E1E
:101A1000DB2AFE0EF1E3DB2AEFD7E552E7CFD9FF51
:101A20001200FD0EDBCFF6FFFE0EDBCFF7FF080046
:041A3000F55012005B
:0C1A3400D9CFE6FFE1CFD9FF14D80FE0B6
:101A400052EC0DF00009FCE10ED8E66E6EEC0CF0E5
:101A5000E552FD0EDB2AFE0EF1E3DB2AEFD7E5525D
:101A6000E7CFD9FF1200FD0EDBCFE9FFFE0EDBCF83
:061A7000EAFFEF50120036
:0A1A7600FF0EE3501D6EEF0E01D0CD
:101A8000F30EE76EE72E42EF0DF00C0E1C6EE76AC8
:101A9000E72E48EF0DF01C2E47EF0DF01D2E40EF06
:041AA0000DF0120033
:0C1AA4008C848C9209EC09F08C8009EC19
:101AB00009F083AE02D003D8010C01D8000C8C9041
:101AC00009EC09F08C8009EC09F08C908C941200E0
:101AD000F36AF46AFF0EE124E96EFF0EE220EA6E7B
:101AE000ED6607D02F0EEF6404D03A0EEF6001D000
:041AF000F32A1200C3
:0C1AF400FF0EE3501D6E480E01D04C0E9A
:101B0000E76EE72EFED7E76AE72EFED71D2EF7D742
:041B100000001200BF
:0C1B1400000EF36E00EE00F0060E01D88B
:101B20001200EA6002D0EE6AFCD7F350E9601200BE
:041B3000EE6AFCD786
:0C1B340013EE81F023EE81F0F86A0F9CA4
:101B4000B9EC0AF0D6EC0DF035EC0AF0FBD7120038
:101B5000FF0EE350ACBA04D0AF6AAB8EAC8A949C53
:0C1B6000ACA2FED7AD6EF36EF46A12006A
:041B6C00FF0EE35035
:101B7000E84E1200000000D000D000D0E82EFAD7C6
:021B8000120051
:0E1B820074656D706572617475726520002562
:081B900033642E25303464009B
:081B98003031323334353637A9
:091BA00038396162636465660076
:021BAA00120027
:021BAC00120025
:021BAE00000035
:021BB000000033
:00000001FF
