:020000040000FA
:06000000A4EF03F0120062
:020006000000F8
:0600080045EF00F01200BC
:02000E000000F0
:1000100000000000000000000000000000000000E0
:100020000000000000000000000000D01200050EDB
:10003000E66E74EC03F0E55212000F0EE66E74ECFF
:1000400003F0E5521200836A956A280EE66E7DEC95
:1000500001F0E55284EC03F00009FCE1E66A33ECC0
:1000600002F0E552060EE66ECEEC02F0E55284ECAC
:1000700003F00009FCE10F0EE66ECEEC02F0E55253
:1000800084EC03F00009FCE11200DACFE4FFE2CFD8
:10009000DAFFE9CFE4FFEACFE4FFF6CFE4FFF7CFE2
:1000A000E4FFF5CFE4FFF3CFE4FFF4CFE4FFFACFB2
:1000B000E4FF00EE03F0020EE80403E3EECFE4FFFA
:1000C000FBD700EE07F0000EE80403E3EECFE4FFF9
:1000D000FBD7E652F29EF2A2E0D0F2988350080BD2
:1000E00001E0010E080DF3CF02F08250100B01E089
:1000F000010E016E8250200B01E0010EE824006E1B
:100100008250400B01E0010E040DF3500024012445
:10011000022400018D6F8E6B00000F0E00018D19FF
:1001200001E18E5101E199D00E0E00018D1901E11E
:100130008E5101E18ED00D0E00018D1901E18E511D
:1001400001E183D00C0E00018D1901E18E5101E116
:1001500078D00B0E00018D1901E18E516EE00A0E70
:1001600000018D1901E18E5164E0090E00018D1925
:1001700001E18E515AE0080E00018D1901E18E5106
:1001800050E0070E00018D1901E18E5146E0060E88
:1001900000018D1901E18E513CE0050E00018D1921
:1001A00001E18E5132E0040E00018D1901E18E5102
:1001B00028E0030E00018D1901E18E511EE0020EB0
:1001C00000018D1901E18E5114E0010E00018D191D
:1001D00001E18E510AE000018D5101E18E5101E0F3
:1001E00040D00001310E8A6F40D00001320E8A6F7C
:1001F0003CD00001330E8A6F38D00001410E8A6F67
:1002000034D00001340E8A6F30D00001350E8A6F71
:100210002CD00001360E8A6F28D00001420E8A6F62
:1002200024D00001370E8A6F20D00001380E8A6F6B
:100230001CD00001390E8A6F18D00001430E8A6F5E
:1002400014D00001300E8A6F10D00001460E8A6F64
:100250000CD00001450E8A6F08D00001440E8A6F51
:1002600004D000013F0E8A6F00D084EC03F0000937
:1002700001E0FBD78AC0E6FFA8EC02F0E552DDDE24
:1002800084EC03F0000901E0FBD7E66A33EC02F0EE
:10029000E552F292F288F28E00D0E55200EE06F0BE
:1002A000000EE80403E3E5CFEDFFFBD700EE04F01A
:1002B000020EE80403E3E5CFEDFFFBD7E5CFFAFF3D
:1002C000E5CFF4FFE5CFF3FFE5CFF5FFE5CFF7FF8F
:1002D000E5CFF6FFE5CFEAFFE5CFE9FFE5CFDAFFAF
:1002E0001100B1DED08EF18CF288F28CF28E938008
:0A02F000948C948A94889586FFD7B9
:0602FA00D9CFE6FFE1CFC1
:10030000D9FF0F0E831695169594959295908C941F
:100310008C928C901DEC00F0300EE66ECEEC02F06C
:10032000E552050EE66E5DEC03F0E552300EE66E2A
:10033000CEEC02F0E552010EE66E5DEC03F0E55204
:10034000320EE66ECEEC02F0E55284EC03F00009CA
:10035000FCE184EC03F00009FCE1FE0EDBCFE6FFDC
:10036000CEEC02F0E55284EC03F00009FCE1080E4B
:10037000E66ECEEC02F0E55284EC03F00009FCE1FD
:100380000F0EE66ECEEC02F0E55284EC03F00009AD
:10039000FCE1010EE66ECEEC02F0E55284EC03F0D7
:1003A0000009FCE1040EE66ECEEC02F0E55284ECAE
:1003B00003F00009FCE1800EE66E33EC02F0E5523A
:0803C000E552E7CFD9FF12005E
:0803C800060EF66E000EF76E42
:1003D000000EF86E00010900F550856F0900F55018
:1003E000866F03E1856701D03DD00900F550806F2D
:1003F0000900F550816F0900F550826F090009006E
:10040000F550E96E0900F550EA6E0900090009008F
:10041000F550836F0900F550846F09000900F6CF8D
:1004200087F0F7CF88F0F8CF89F080C0F6FF81C061
:10043000F7FF82C0F8FF0001835302E1845307E015
:100440000900F550EE6E8307F8E28407F9D787C0FC
:10045000F6FF88C0F7FF89C0F8FF00018507000E8E
:06046000865BBFD712000D
:0A046600D9CFE6FFE1CFD9FF0F0E5A
:1004700095168316FE0EDB508009F00B83128C94C8
:100480008C9207EC00F08C8007EC00F08C900F0E43
:100490008316FE0EDB38F00BF00B831207EC00F036
:1004A0008C8007EC00F08C90F00E9512E552E7CFAF
:0404B000D9FF12005E
:0C04B400D9CFE6FFE1CFD9FF0F0E95165F
:1004C0008316FE0EDB504009F00B83128C948C9245
:1004D00007EC00F08C8007EC00F08C900F0E831678
:1004E000FE0EDB38F00BF00B831207EC00F08C8073
:1004F00007EC00F08C90F00E9512E552E7CFD9FF93
:020500001200E7
:0E050200D9CFE6FFE1CFD9FFFD0EDBCFF6FF2C
:10051000FE0EDBCFF7FF0800F55016E084EC03F089
:100520000009FCE1FD0EDBCFF6FFFE0EDBCFF7FF8F
:100530000800F550E66EA8EC02F0E552FD0EDB2A4D
:10054000FE0EE3E3DB2AE1D7E552E7CFD9FF120045
:10055000D9CFE6FFE1CFD9FF0F0E95168316FE0E19
:10056000DB50F00B83128C828C9407EC00F08C80B3
:1005700007EC00F08C900F0E8316FE0EDB38F00BAC
:10058000F00B831207EC00F08C8007EC00F08C90ED
:0C059000F00E9512E552E7CFD9FF1200E3
:04059C00D9CFE6FFCE
:1005A000E1CFD9FF0F0E95168316FE0EDB50F00B30
:1005B00083128C948C9207EC00F08C8007EC00F096
:1005C0008C900F0E8316FE0EDB38F00BF00B8312AF
:1005D00007EC00F08C8007EC00F08C90F00E951288
:0805E000E552E7CFD9FF12003C
:0805E800D9CFE6FFE1CFD9FFF6
:1005F000FD0EDBCFE9FFFE0EDBCFEAFFEF5015E08B
:1006000084EC03F00009FCE1FD0EDBCFE9FFFE0EF8
:10061000DBCFEAFFEF50E66EA8EC02F0E552FD0EEC
:10062000DB2AFE0EE5E3DB2AE3D7E552E7CFD9FF6D
:020630001200B6
:0E063200D9CFE6FFE1CFD9FFE6528C848C824F
:1006400007EC00F08C8007EC00F0F00E8314DF6EF6
:100650008C9007EC00F08C8007EC00F083380F0BD7
:100660000F0BDF128C908C928C94DF50E552E55288
:06067000E7CFD9FF1200E4
:0A067600D9CFE6FFE1CFD9FFE6522D
:100680008C848C9207EC00F08C8007EC00F0F00E6C
:100690008314DF6E8C9007EC00F08C8007EC00F088
:1006A00083380F0B0F0BDF128C908C947F0EDF14AE
:0A06B000E552E552E7CFD9FF120032
:0606BA00FF0EE350066E86
:1006C000EF0E01D0F30EE76EE72E64EF03F00C0E91
:1006D000056EE76AE72E6AEF03F0052E69EF03F077
:0806E000062E62EF03F0120088
:0806E800FF0EE350066E480E00
:1006F00001D04C0EE76EE72EFED7E76AE72EFED755
:08070000062EF7D700001200DD
:080708008C848C9207EC00F0D8
:100710008C8007EC00F08C9007EC00F08C8007ECEC
:0807200000F08C908C94000C99
:08072800000EF36E00EE00F07C
:10073000060E01D81200EA6002D0EE6AFCD7F35030
:08074000E9601200EE6AFCD72B
:0807480015EE00F025EE00F0B3
:10075000F86A049CE4EC01F0B2EC03F071EC01F0F7
:04076000FBD71200B1
:02076400120081
:020000040030CA
:0100010022DC
:010003000EEE
:010006008178
:00000001FF
