:020000040000FA
:0600000054EF16F012009F
:020006001200E6
:0600080014EF0EF01200DF
:02000E00BD6AC9
:020010001200DC
:020012001200DA
:040014000D000100DA
:0600180051EF0EF0120092
:02001E000400DC
:10002000112D000001040000220000000B2D000033
:100030004504000006000000072D000059040000E0
:10004000040000001400000055040000040000003B
:1000500064EC05F0FB0EDBCFF3FFDB06F350000989
:100060000AE0B2EC05F0FA0E1DEC06F0F3E1151C07
:10007000F1E1010E01D0000E93EF05F064EC05F004
:100080003B0EE12402E3E168E652E16E010EDB6A19
:10009000020EDB6AF90EDBCFF6FFFA0EDBCFF7FFBD
:1000A000FB0EDBCFF8FF0800F550DF6EDF5002E1FA
:1000B000B7EF04F0250EDF5C02E0AAEF04F0030EB8
:1000C000DB6A040EDB6A050EDB6A060EDB6A070ECE
:1000D000DB6ACCEC04F02D0EDF5C0CE02B0EDF5C59
:1000E00009E0200EDF5C06E0230EDF5C03E0300E4B
:1000F000DF5C1AE1DF50300A14E0130A0FE0030A54
:100100000AE00B0A05E0060AE4E1030EDB80E1D712
:10011000030EDB82DED7030EDB84DBD7030EDB8628
:10012000D8D7030EDB88D5D72A0EDF5C1BE1C8ECDD
:1001300004F016EC05F010E0030EDB800868096897
:10014000130EDBCF0DF0140EDBCF0EF0E6EC07F054
:10015000040E06C0DBFF03D0130EFFEC04F0CCEC62
:1001600004F00BD0090EDB6A6DEC05F003E0E1EC66
:1001700005F0FAD7090EFFEC04F0030EDBB0DB98B4
:100180002E0EDF5C1BE1CCEC04F02A0EDF5C0BE1F1
:10019000C8EC04F016EC05F003E1130E51EC05F089
:1001A000CCEC04F00BD0090EDB6A6DEC05F003E03B
:1001B000E1EC05F0FAD7090E51EC05F0680EDF5CB2
:1001C00007E1CCEC04F0680EDF5C1DE1030E18D0F3
:1001D000740EDF5C17E07A0EDF5C14E0480EDF5C23
:1001E00006E0540EDF5C03E05A0EDF5C02E1020E13
:1001F00007D06C0EDF5C03E06A0EDF5C04E1010EE9
:10020000A4EC05F0C9DBDF506E0A01E17FD31E0AC2
:1002100001E192D1200A01E18FD13F0A01E149D1E8
:100220001A0A01E146D10D0A01E143D1200A01E198
:1002300040D13A0A01E13DD1200A01E13AD1260A32
:1002400001E135D10D0A01E132D11A0A01E1D9D01B
:10025000200A4AE0300A1FE0460A0EE0250A01E0C3
:1002600083D3D950F90FE96EFF0EDA20EA6E010E42
:10027000EE5E000EEE5AEE5AB2EC05F0250EE66E7A
:1002800095DB03E1151C01E169D3AEEC05F001E259
:100290006BD3DB2A69D3080EDB6A040EDB5001083E
:1002A00006E2040EDB0476EC05F0DB508BDB080E77
:1002B000DB5009E0030EDB50010B05E172DB01E0CE
:1002C0004DD3080EDB6A64DBEFCFDFFF26EC06F0D0
:1002D00003E1151C01E142D3AEEC05F001E3DB2A9A
:1002E00060DB01E141D33AD3070EDB5002080FE196
:1002F000F2EC05F0030EB9EC05F00E0EEECFDBFFCD
:100300000F0EEECFDBFF100EEECFDBFF20D0F70E8F
:10031000DBCF17F0F80EDBCF18F0020E175E000EE1
:10032000185AF70E17C0DBFFF80E18C0DBFF17C016
:10033000E9FF18C0EAFFA9EC05F0166A0E0E14C01A
:10034000DBFF0F0E15C0DBFF100E16C0DBFF0E0E1D
:10035000DBCFE6FF0F0EDBCFE6FF100EDBCFE6FFB5
:1003600091EC12F0E552E552E552130E07C0DBFFA7
:10037000140E08C0DBFF060EDB5005E0130EEDEC9B
:1003800005F001E26ADB11EC06F002E2130E37DB46
:10039000D4EC05F006E0040EEDEC05F002E2050EEB
:1003A0002EDB030EDBB005D0FCDA01E0D7D2080E5D
:1003B000DB6A090EDB6A0E0EDBCFF6FF0F0EDBCF1A
:1003C000F7FF100EDBCFF8FF0800F550DF6EDF50AF
:1003D00014E017EC06F011E226EC06F003E1151C20
:1003E00001E1BCD2BBDB01E3DB2A090EDB2AD950D9
:1003F0000E0FE96E000ECBDBE7D7D3DA01E1B4D202
:10040000ADD2C6DA110EEECFDBFF120EEDCFDBFF61
:10041000110EDBCFE6FF120EDBCFE6FF83EC12F00E
:10042000E552E552130EF3CFDBFF140EF4CFDBFFE2
:10043000060EDB5004E0130ED0DB01E20EDB11EC04
:1004400006F002E2130EDBDAAFDB05E0040EC5DBDB
:1004500002E2050ED4DA030EDBB005D0A2DA01E029
:100460007DD2080EDB6A090EDB6A110EDBCFE9FFD5
:10047000120EDBCFEAFFEFCFDFFFDF5014E0D7DB58
:1004800012E2E4DB03E1151C01E168D267DB01E362
:10049000DB2A090EDB2A110EDB2ADBCFE9FF120E65
:1004A000E8E3DB2AE6D77DDA01E15ED257D2030E1C
:1004B000DB8E070EDB0410E195DB040E5ADB0A0E1F
:1004C000EECFDBFF0B0EEECFDBFF0C0EEECFDBFF34
:1004D0000D0EEECFDBFF6CD0070EDB5003082CE1D6
:1004E000030EDBAE0DD0B2DA020E76DAEFCF14F0E7
:1004F000156A166A176A14AE39D01568166835D0B1
:10050000F70EDBCF15F0F80EDBCF16F0020E155EFE
:10051000000E165AF70E15C0DBFFF80E16C0DBFFF3
:1005200015C0E9FF16C0EAFFEFCF14F00A0E14C0A1
:10053000DBFF0B0EDB6A38D0070EDB50020809E147
:10054000030EDBAE04D059DB16AE10D00ED055DB57
:100550000DD0030EDBAE12D079DA020E3DDAF9DAF5
:10056000166A176A15AE02D016681768E2DA0C0E22
:1005700016C0DBFF0D0E17C0DBFF1AD0F70EDBCF66
:1005800016F0F80EDBCF17F0020E165E000E175AAB
:10059000F70E16C0DBFFF80E17C0DBFF16C0E9FF31
:1005A00017C0EAFFD6DAC5DA0C0EDB6A0D0EDB6A7D
:1005B000060EDB5005E1010EF36E050EF3CFDBFFF7
:1005C000150EDB6A160EDB6AD950370F146E000E5B
:1005D000DA20156E390E14C0DBFF3A0E15C0DBFFB2
:1005E000380EDB6A080EDB6A0A0EAEDADF50780AD4
:1005F00012E0200A10E0280A0CE0200A0AE03F0A74
:1006000006E00D0A02E0200A08E1020E05D0080EFD
:1006100003D0080EDF26100E97DA030EDBBE02D0E1
:10062000DB92DB94DB50800B24E08ADAD890030E57
:10063000EB50000A08E6000EEE5C000EEE58000ECD
:10064000EE58000EEE5815E213DA0B680C680D68D0
:100650000E6845EC13F00A0E02C0DBFF0B0E03C060
:10066000DBFF0C0E04C0DBFF0D0E05C0DBFF2D0E03
:1006700008D0030EDBA202D02B0E03D0DBA408D0DF
:10068000200EF36E170EF3CFDBFF150EDB2A02D020
:10069000170EDB6A050EDB5003E1B7D901E189D003
:1006A000F60E146E2C0E156E000E166E070EDBCFB6
:1006B00017F0186A196A1A6A17C00BF018C00CF004
:1006C00019C00DF01AC00EF0D3D923EC14F0145059
:1006D0000224F36E15500320F46E16500420F86EB9
:1006E000F4CFF7FFF3CFF6FF0800090EF5CFDBFFDD
:1006F000580EDF5C0FE1610EF36E090E7BD90AE341
:10070000200E146E090EDBCFE7FF1450E75E090ED2
:10071000E7CFDBFF070EDBCF14F0156A166A176A06
:100720000FDA14C00BF015C00CF016C00DF017C096
:100730000EF0EECF06F0EECF07F0EECF08F0EFCFE1
:1007400009F023EC14F009C0EDFF08C0EDFF07C06D
:10075000EDFF06C0EFFF390EDBCFE9FFDB063A0EF7
:10076000DBCFEAFF01E2DB06090EDBCFEFFF150E60
:10077000DB2A4BD995E1030EDBA61DD06F0EDF5CA3
:1007800006E1C1D918E3150EDB285BDA14D0780E28
:10079000DF5C09E0580EDF5C06E0620EDF5C03E020
:1007A000420EDF5C08E1020EF36E160EF3CFDBFFA4
:1007B00002D0150EDB6A030EDB50100B0EE0040EA8
:1007C000DBCF14F0050EDB50D880145406E2060E81
:1007D000DB5003E1040EDB5034DA95D90AE2050E52
:1007E000DBCFE7FF150EDB50E75E050EE7CFDBFF43
:1007F00002D0050EDB6A040EDBCF14F0160E45D9CD
:10080000D880145414E2160EDBCFE6FF150EDBCFB2
:10081000E6FF040EDBCFE6FF050EDB50E552E75C9A
:10082000E552D880E754E552D880E7545FD9030EEB
:10083000DB50010B0BE1080EDB5008E0B2D801E001
:100840008DD0080EDB50BED8080EDB6A170EDB50C9
:1008500007E088D9170EF1D903E1151C01E17ED01C
:10086000160EDB5016E07ED9300EE66E9FD802E100
:10087000151C74E077D9DFCFE6FF03EC13F0E552E7
:10088000E552E552F4CF15F00001F31C02E1151C0E
:1008900065E0050EDBCF14F0160EDB50D880145443
:1008A00009E2050EDBCFE7FF160EDB50E75E050E13
:1008B000E7CFDBFF300EE66E050ECBD94FE1390EE8
:1008C000DB2ADBCFE9FF3A0E01E3DB2ADBCFEAFFCD
:1008D000090EEFCFDBFFDB500EE044D9090EADD996
:1008E00002E1151C3BE0390EDB2ADBCFE9FF3A0EB3
:1008F000EDE3DB2AEBD755D831E1160EDBCFE6FF6F
:10090000080EC3D8E552E7245DD82ED0070EDB5081
:10091000030A1CE0010A14E0030A07E07BD9DBCFDD
:10092000EEFF020EDBCFEDFF1FD0F5D8196A17AE30
:1009300002D0186819682CD8BCD819C0EEFF14D0A2
:10094000EAD817BE186824D8B4D80ED063D9DBCF44
:10095000EFFF0AD07BD905E1151C03E1F368F468C9
:1009600010D0FCD801E3DB2A79D953EF00F0010E57
:10097000DBCF14F0020EDBCF15F014C0F3FF15C06F
:10098000F4FF3B0EE15C02E2E16AE552E16ECBD09E
:1009900029D9020EB9EF05F061D90800F550DF6ED4
:1009A0001200200EE66E080E29EF06F003EC13F09D
:1009B000E552E552E552F3CF14F0F4CF15F0000103
:1009C000F31C1200146E156AD950010F4DD9145042
:1009D000EE261550ED221200185E000E195AF70E81
:1009E00018C0DBFFF80E19C0DBFF18C0E9FF19C003
:1009F000EAFF1200DBCFF4FFF350F45C1200DB508F
:100A0000E76E040EE7CFDBFF12000A0EDBCF14F017
:100A10000B0EDBCF15F00C0EDBCF16F00D0EDBCF7F
:100A200017F014501510161017101200130EEECFF9
:100A3000DBFF140EEDCFDBFF130EDBCF14F0140E33
:100A4000DBCF15F00001800E15141200F70EDBCF7E
:100A500018F0F80EDBCF19F01200050EDB50E66E31
:100A6000D950130F01D9E552E750EE6EED6A12002E
:100A70000A0EDBCF06F00B0EDBCF07F00C0EDBCF40
:100A800008F00D0EDBCF09F01200DBCFE6FF150EEC
:100A9000DBCFE6FF050EDB50E552E724E552E72405
:100AA0001200DB50CED8010EF36E060EF3CFDBFF43
:100AB0001200EE50EFCFEAFFE96E16C0EEFF17C04E
:100AC000EEFF18C0EEFF1200D9CFE6FFDACFE6FF47
:100AD000E1CFD9FFE2CFDAFF1200DFCFE6FFE66A0F
:100AE00022EC16F0E552E552F3501200E76E080EC4
:100AF000E7CFDBFF1200EECF14F0EECF15F0EFCF13
:100B000016F0176A1200050EDBCF14F0150EDB503D
:100B1000D88014541200010EDBCF16F0020EDBCF8A
:100B200017F0186A1200E552E5CFDAFFE7CFD9FFD8
:100B300012000A0E14C0DBFF0B0E15C0DBFF120003
:100B4000D9500A0F34EF06F0F36E070EF3CFDBFF38
:100B50001200EECF14F0EFCF15F01200010EDB2AD9
:100B6000020E1200FC0EDBCFE6FFFD0EDBCFE6FF30
:100B70001200145E000E155AF70E14C0DBFFF80EBB
:100B800015C0DBFF14C0E9FF15C0EAFF1200DA2030
:100B9000EA6EEF2AEECFF6FF000EEF22EECFF7FF60
:100BA000EF22EECFF8FF1200040EDBCFE6FF130EAC
:100BB000DB50E552E75C9ADFDB5004DF060EDB50CA
:100BC0001200090EDB500A0DF350DF24D00FE76E40
:100BD000090EE7CFDBFFCCEF04F0DB50F36E050E20
:100BE000FAEF04F0F70EDBCF14F0F80EDBCF15F0C0
:100BF0001200DFCFE6FFD6EF04F028DF030EECDEB5
:100C00007BEF05F028EC00F0E552E552E552E552A5
:100C100000091200BDDEEE50EFCFEAFFE96E010ED3
:100C20001200130EDB50F36E040EFAEF04F0040E04
:100C3000DB50F36E090EFAEF04F0DBCFE6FFD6EFE0
:100C400004F0E76E050EE7CFDBFF12008BDFF9EF54
:100C500005F0DBCFE6FF86DF02EF06F0D950F90F93
:100C6000E96EFF0EC7EF05F0E96E000EDA20EA6EBE
:020C7000120070
:0E0C7200019E08D0019E09AE05D0086C091E37
:100C8000E86A0922018E09C003F008C002F0136A65
:100C9000126A8E0E046E056A03EF09F0019E0CD0F5
:100CA000019E09AE09D0066C071E081E091EE86ADF
:100CB000072208220922018E09C003F008C002F0B1
:100CC00007C013F006C012F09E0E046E056A03EF13
:100CD00009F00F7E016A3FEC09F057EC09F001B60C
:100CE000E7EF08F001A20AD001AA03D001BEE7EFA6
:100CF00008F001A4F3EF08F0F0EF08F001AA05D026
:100D000001ACF3EF08F0F0EF08F001A00AD001A861
:100D100008D001BE04D001A402D0FCEF08F000EF1F
:100D200009F0126A056A0F500A5C116E10E307C0E1
:100D300013F008C002F009C003F00AC010F00CC0A4
:100D400007F00DC008F00EC009F0013A09D00CC040
:100D500013F00DC002F00EC003F00FC010F0116CC4
:100D6000019E01BC018E10C004F001B02FEF09F00C
:100D70001A0E11602FEF09F0046A0A6A01A408D064
:100D8000076C081E091E0A1EE86A082209220A22A8
:100D900001AC08D0136C021E031E041EE86A022276
:100DA00003220422066A115207E00A34093208328B
:100DB00007320632112EF9D70750132608500222A7
:100DC000095003220A50042206C012F0019E04AE0C
:100DD0000BD0126C131E021E031E041EE86A13229F
:100DE000022203220422018E04A006D0D8800332FE
:100DF000023213321232102A10C004F003EF09F04D
:100E0000016A3FEC09F057EC09F001B6E7EF08F092
:100E100001A205D001BAE7EF08F0EEEF08F001BA41
:100E2000FAEF08F001A005D001B8E7EF08F0FAEFFB
:100E300008F001B8EEEF08F0056A7F0E0A24046E90
:100E4000E86A05220F50045EE86A055A1A0E106E11
:100E50000A6A126A136A026A036A0C50075E0D502E
:100E6000085A0E50095A000E0A5A09E70C50072674
:100E70000D5008220E500922000E0A2201D0128ABB
:100E8000D8900736083609360A36D8901236133607
:100E900002360336102EE1D7095008100710D8A4E7
:100EA000128A03EF09F0016A3FEC09F057EC09F0F0
:100EB00001B6E7EF08F001A205D001B8E7EF08F0AE
:100EC000EEEF08F001AA05D001B0E7EF08F0EEEF71
:100ED00008F001B002D001A802D0FAEF08F0056ACC
:100EE0000F500A24046EE86A05227E0E045EE86A4A
:100EF000055A126A136A026A036A0E500902F4CF95
:100F000003F0F3CF02F00D500902F3501326F45012
:100F10000222000E03220E500802F3501326F45052
:100F20000222000E03220C500902F3501226F45044
:100F30001322000E022203220D500802F350122643
:100F4000F4501322000E022203220E500702F35027
:100F50001226F4501322000E022203220C50080223
:100F6000F4501226000E1322022203220D50070213
:100F7000F4501226000E13220222032203EF09F07E
:100F8000006A0EAEC9EF07F00D6C0E1EE86A0E2265
:100F9000001E09AED1EF07F0086C091EE86A0922AD
:100FA000001EF6EC15F009BEE1EF07F000AE000CF4
:100FB000086C091EE86A0922046C051EE86A05220D
:100FC000000C00BED8EF07F00188FF0C09C013F039
:100FD00008C012F008500D02F4CF07F0F3CF06F06E
:100FE00009500E02F4CF09F0F3CF08F00D02F350D0
:100FF0000726F4500822E86A092212500E02F35024
:101000000726F4500822E86A09220EAE0CEF08F019
:101010001250085E1350095A13AE000C0D50085EB2
:101020000E50095A000C016A3FEC09F001B61DEFA1
:1010300008F001A20ED001B405D07F0E096EFF0E9C
:10104000086E1FD0800E096E086A1BD0096A086AF4
:1010500018D001B0FBD78F0E0A60EDD77E0E0A6460
:10106000F5D78E0E0A5C05E0D890093208320A2ABC
:10107000F8D701A406D0086C091EE86A092209AE57
:10108000E5D71200016A3FEC09F001B64CEF08F019
:1010900001A20FD001B407D07F0E096EFF0E086EBB
:1010A000076E066E25D0800E096E01D0096A000E0B
:1010B000F6D701B0FBD7066A9F0E0A60EBD77E0E0B
:1010C0000A64F4D79E0E0A5C07E0D8900932083211
:1010D000073206320A2AF6D701A40AD0066C071E88
:1010E000081E091EE86A07220822092209AEDED777
:1010F000120092EC08F001B6000C01B0010C000CDB
:1011000092EC08F001B6000C01B0000C01B4000C28
:10111000010C92EC08F001B6000C01B0000C01A427
:10112000000C010C016A3FEC09F057EC09F001B624
:10113000120001AE08D001A004D001A802D00180A5
:101140001200019012000F500A5C0BE10E50095C76
:1011500008E10D50085C05E10C50075C02E10180DC
:101160001200D8A002D0018E10D00A500FC00AF091
:101170000F6E09500EC009F00E6E08500DC008F039
:101180000D6E07500CC007F00C6E0F500A5C10E09B
:10119000FF0F09E0019001B403D001AE01841200F9
:1011A00001AE019412000F2AD8900E320D320C328B
:1011B0000C50075E0D50085A0E50095A09BEEAD766
:1011C000D8900736083609360A2EF8D7C8D77F0ECA
:1011D0000A6EFF0E096E086E076E12007F0E01BECA
:1011E000FF0E0A6E02D07F0E0A6E800E096E086A2C
:1011F000076AF3D701AE04D0800E0A6E096AF7D7EA
:101200000A6A096AF4D70350021013101210F8E0AA
:1012100005BEF0D703BE0CD004500510EBE0D8900B
:1012200012361336023603360406D8A00506F2D766
:101230000550D4E10428D2E012AE11D07F0E121472
:1012400002E113A00CD0132AE86A0222032207E36A
:10125000D880033202321332042A0428BFE004503B
:10126000C9E013C007F002C008F00334096E04306F
:101270000A6E09320A9E01BE0A8EEDEF08F00936A9
:101280000A3602E30184017E06E101800A6A096AE6
:10129000086A076A12000A2803E0D880093212009F
:1012A000D890093202E101821200018612000E3646
:1012B0000F3602E3018C017E06E101880F6A0E6A97
:1012C0000D6A0C6A12000F2803E0D8800E3212005B
:0A12D000D8900E32EAE1018A120004
:0612DA00C4D9020EE1265A
:1012E000DE6ADD6A938A8A9A939A300EABD9938A22
:1012F0000A0EA8D98150200B200A01E0010E146EBD
:10130000156A14BE156814C0DEFF15C0DDFF146E2B
:10131000020EE15C02E2E16AE552E16E1450A7D1EF
:10132000A1D9E652DF6ADFCF14F0080EE76E141879
:10133000E8AE02D0E73402D0E750145C19E28A9A92
:10134000939A010E7FD9FE0EDB50010BE8B0938A11
:10135000E8A0939A050E76D9938A020E73D9FE0EF1
:10136000DB407F0BE76EFE0EE7CFDBFFDF2ADBD72C
:10137000E5527DD1D9CFE6FFE1CFD9FF030EE126BB
:10138000DE6ADD6A020EDB6A020EDBCF14F0080EA5
:10139000E76E1418E8AE02D0E73402D0E750145CD0
:1013A0002EE28A9A939A00000000938A00000000BF
:1013B0000000000000000000000000008150200B31
:1013C00001E0010EF36E020EDB5004E0D890F3361C
:1013D000E806FCE1F350166E176ADE501610146E24
:1013E000DD501710156E14C0DEFF15C0DDFF050EB1
:1013F000E66E70EC16F0E552020EDB2AC5D7DF5020
:1014000000D0146E030EE15C02E2E16AE552E16E87
:101410001450E552E7CFD9FF12005FDF0C0E17D949
:10142000E66A7EDFE55259DFAC0E11D96DEF09F0A7
:1014300019D90A0EE126DE6ADD6A020EDB6A030EA6
:10144000DB6A040EDB6A050EDB6A060EDB6A070E3A
:10145000DB6A080EDB6A090EDB6A080EDBCF14F0CC
:10146000090EDBCF15F0D890155004E6650E145C1C
:10147000000E155829E2EE0EEAD8220EE8D82DDF2C
:10148000AA0EE5D877DF146E156A14BE156814C06D
:10149000DEFF15C0DDFF21DF020EDBCF16F0030EED
:1014A000DBCF17F0DE501624146EDD501720156EBA
:1014B000020E14C0DBFF030E15C0DBFF080EDB2A93
:1014C000090ECBE3DB2AC9D7020EDBCF08F0030EEF
:1014D000DBCF09F03BEC06F0AAD8CA0E0E6E420E26
:1014E0000F6E00EC07F0040E07C0DBFF050E08C00E
:1014F000DBFF060E09C0DBFF070E0AC0DBFF040E90
:10150000DBCF14F0050EDBCF15F0060EDBCF16F0A7
:10151000070EDBCF17F014C006F015C007F016C099
:1015200008F017C009F00A0EE15C02E2E16AE55238
:10153000E16E9DD07DDF06C059F407C05AF408C0A3
:101540005BF409C05CF406C007F085D813EC08F022
:1015500008C023F409C024F43BEC06F007C018F0DF
:1015600008C019F009C01AF00AC01BF007C00CF03F
:1015700008C00DF009C00EF00AC00FF059C407F002
:101580006AD869EC06F053D8C80E0E6E420E0F6E84
:1015900053EC07F013EC08F008C025F409C026F45A
:1015A00008C0E6FF09C0E6FF23C4E6FF24C4E6FF47
:1015B000E80E146E230E156E166A14C0E6FFE66E72
:1015C00016C0E6FF270EE66E040EE66E72EC11F012
:1015D000176E090EE15E1750500E4DD8D70EE66E0D
:1015E000230EE66EF4EC14F0E552E5520CEC16F026
:1015F0000009FCE1590E3FD8270EE66E040EE66E98
:1016000037EC15F0E552E5520CEC16F00009FCE160
:101610005E0E31D8D40EE66E230EE66EF4EC14F0B6
:10162000E552E5520CEC16F00009FCE1120007C08F
:1016300014F008C015F009C016F00AC017F00C6AC3
:101640000D6A1200E66E70EC16F0E5521200E66EBE
:1016500067DEE55212005AC408F05BC409F05CC4AE
:101660000AF01200D9CFE6FFE1CFD9FF1200E55210
:10167000E7CFD9FF1200E66EDBEC13F0E552120063
:10168000B50EE66E16EC15F0E5529F909D80A19088
:10169000A28047D19482850EE66EACEC13F0E55241
:1016A000120089D90CE18AD90AE1F6D808E1FAD802
:1016B0004BD9BFD8D7D853EC07F0A4EF0CF07BD9A7
:1016C0001DE07CD91BE1E8D819E1ECD846D9B1D8A6
:1016D000C0D853EC07F041D949D969D903E1EED814
:1016E000C1D8FED8EBD8BED862D903E13FD9B1D872
:1016F000F7D80C6A56D943D97BEF0CF05CD95EE081
:101700005DD95CE0C9D85AE1CDD842D992D859D92F
:1017100053EC07F03DD9D2D84AD902E15BD9F6D8CB
:1017200059D945D903E1CAD84CD9F0D828D942ECC7
:1017300008F050EC06F0B3D834D9DDD89CD837D9AE
:1017400013E113C40CF014C40DF015C40EF016C44C
:101750000FF00FC407F010C408F011C409F012C450
:101760000AF04BD916E108D086D880EC08F0010ABF
:1017700010E181D842D90DE1AAD80C6A12D96AECDD
:1017800006F007C01BF408C01CF409C01DF40AC011
:101790001EF404010B6B0C6B0D6B0E6B076B086B6F
:1017A000096B0A6B036B046B056B066B0F6B106B9D
:1017B000116B126B136B146B156B166B120001C45B
:1017C00014F002C415F0130E0D6E0E6A01C408F079
:1017D00002C409F0C0EC07F004C014F005C015F015
:1017E0000450051021E10ED972D880EC08F0010AEE
:1017F0001BE117C40CF018C40DF019C40EF01AC484
:101800000FF065D800EC07F04AD80D6AC80E0E6ECE
:10181000420E0F6E53EC07F007C01FF408C020F40F
:1018200009C021F40AC022F40401012B000E022396
:1018300078D001C408F002C409F03BEC06F0D4D81B
:1018400007C00CF008C00DF009C00EF00AC00FF080
:10185000120007C407F008C408F009C409F00AC45C
:101860000AF0120003C407F004C408F005C409F02C
:1018700006C40AF012000FC40CF010C40DF011C41D
:101880000EF012C40FF013C407F014C408F015C40E
:1018900009F016C40AF01200B5D893D8B8D0A4D86D
:1018A0000C6A12008DEC14F0F3CF14F0F4CF15F0A5
:1018B000F3CF08F0F4CF09F039EF06F007C40CF0CD
:1018C00008C40DF009C40EF00AC40FF012001BC4C6
:1018D00007F01CC408F01DC409F01EC40AF0120071
:1018E00069EC06F007C00FF408C010F409C011F449
:1018F0000AC012F412006AEC06F007C017F408C020
:1019000018F409C019F40AC01AF4120069EC06F0C0
:1019100007C013F408C014F409C015F40AC016F483
:101920001200DC0EE66E0B0EE66E58EC15F0E5527A
:10193000E5521200500E0D6E430E0E6E470E0F6EE6
:1019400080EC08F0010A120007C003F408C004F498
:1019500009C005F40AC006F4120007C007F408C065
:1019600008F409C009F40AC00AF4120003C40CF018
:1019700004C40DF005C40EF006C40FF0120017C425
:1019800007F018C408F019C409F01AC40AF01200CC
:1019900007C00BF408C00CF409C00DF40AC00EF423
:1019A00012000D6A800E0E6E3F0E0F6E120089EC53
:1019B00008F0010A120026D855DF29D023D849DFC4
:1019C00026D00BC407F00CC408F00DC409F00EC4F7
:1019D0000AF012000BC40CF00CC40DF00DC40EF094
:1019E0000EC40FF029EF0CF007C014F008C015F07A
:1019F00009C016F00AC017F0120069EC06F04FDFBC
:101A00009AEF0CF00C6A0D6A0E6A0F6A120079ECFC
:061A100008F0010A1200BB
:0A1A1600948E948C948A9488120038
:101A20008250800B0DE18250400B0AE18250200B66
:101A300007E18250100B04E1010E0401606F616B3D
:101A40008250800B0DE08250400B0AE08250200B48
:101A500007E18250100B04E1020E0401606F616B1C
:101A60008250800B0DE18250400B0AE08250200B27
:101A700007E18250100B04E1030E0401606F616BFB
:101A80008250800B0DE18250400B0AE18250200B06
:101A900007E08250100B04E1040E0401606F616BDB
:101AA0008250800B0DE08250400B0AE08250200BE8
:101AB00007E08250100B04E1050E0401606F616BBA
:101AC0008250800B0DE18250400B0AE08250200BC7
:101AD00007E08250100B04E1060E0401606F616B99
:101AE0008250800B0DE18250400B0AE18250200BA6
:101AF00007E18250100B04E0070E0401606F616B78
:101B00008250800B0DE08250400B0AE08250200B87
:101B100007E18250100B04E0080E0401606F616B56
:101B20008250800B0DE18250400B0AE08250200B66
:101B300007E18250100B04E0090E0401606F616B35
:101B40008250800B0CE18250400B09E18250200B47
:101B500006E08250100B03E00401606B616B825061
:101B6000800B0DE08250400B0AE18250200B07E110
:101B70008250100B04E10A0E0401606F616B825009
:101B8000800B0DE08250400B0AE18250200B07E0F1
:101B90008250100B04E10B0E0401606F616B8250E8
:101BA000800B0DE08250400B0AE18250200B07E1D0
:101BB0008250100B04E00C0E0401606F616B8250C8
:101BC000800B0DE08250400B0AE18250200B07E0B1
:101BD0008250100B04E00D0E0401606F616B8250A7
:101BE000800B0DE18250400B0AE08250200B07E091
:101BF0008250100B04E00E0E0401606F616B825086
:101C0000800B0DE08250400B0AE08250200B07E071
:101C10008250100B04E00F0E0401606F616B60C412
:081C2000F3FF61C4F4FF1200A0
:081C2800DFD800EE00F0140EFD
:101C3000E80403E3EECFE4FFFBD700EE14F0080E58
:101C4000E80403E3EECFE4FFFBD7E652F250040BC7
:101C500009E004010A0E551905E1565103E1F29419
:101C60001AEC11F0A150010B09E004010A0E5519FC
:101C700005E1565103E1A19051EC0BF0E55200EE65
:101C80001BF0080EE80403E3E5CFEDFFFBD700EE01
:101C900013F0140EE80403E3E5CFEDFFFBD7B9D84A
:101CA0001100D8CFE4FFE0CFE4FFE46E9DD800EE52
:101CB00000F0140EE80403E3EECFE4FFFBD700EEE0
:101CC00014F0080EE80403E3EECFE4FFFBD7E6527E
:101CD000F0A01AD0F090010EE66E6AEC14F0E55216
:101CE00010EC0DF0F3CF55F4F4CF56F45D0EE66E24
:101CF000040EE66EF3CFE6FFF4CFE6FF1CEC0FF028
:101D0000E552E552E552E552F0A203D0F0926DECB7
:101D100011F004010A0E551901E1565102E0000EBE
:101D200001D0010EE8B09E80E8A09E909EA003D056
:101D30009E90DFEC0BF0E55200EE1BF0080EE8047D
:101D400003E3E5CFEDFFFBD700EE13F0140EE8043C
:101D500003E3E5CFEDFFFBD75CD8E550E5CFE0FF2F
:101D6000E5CFD8FF1000F086F090F18AD08EF28C8B
:101D7000F28EF09C1200F7DF0BEC0DF0CDEC10F0C2
:101D80000DEC0AF064EC11F05EEC11F040EC0BF09D
:101D900004010D0E551905E1565103E1E3EC10F075
:101DA000F7D704010A0E55191EE156511CE1B6EC95
:101DB0000FF0DEEC0FF04AEC0BF09AEC0AF00401A5
:101DC000010E57190DE158510BE1BD0EE66EF00EF4
:101DD000E66E74EC15F0E552E5520401576B586B52
:101DE00014EC10F0DED71200DACFE4FFE2CFDAFF16
:101DF000E9CFE4FFEACFE4FFF6CFE4FFF7CFE4FF5B
:101E0000F5CFE4FFF3CFE4FFF4CFE4FFFACFE4FF34
:101E10001200E5CFFAFFE5CFF4FFE5CFF3FFE5CF02
:101E2000F5FFE5CFF7FFE5CFF6FFE5CFEAFFE5CF1A
:081E3000E9FFE5CFDAFF120023
:081E3800D9CFE6FFDACFE6FF87
:101E4000FA0EE3CFD9FFFB0EE3CFDAFFFD0EE3522C
:101E500009E72D0EDE6EFC0EE31EE32AFD0ED8B45C
:101E6000E306E31EE652E652E652FD0EE124E76E7B
:101E7000FF0EE220E46EE652F70EE3CFE6FFF70E28
:101E8000E3CFE6FF8CEC0FF0F90EE124E96EFF0ED4
:101E9000E220EA6E7CEC0FF00AE179EC0FF009E148
:101EA0007CEC0FF008E179EC0FF007E108D087EC4B
:101EB0000FF082EC0FF087EC0FF082EC0FF087EC64
:101EC0000FF0DE6AF90EE126FF0EE222FF0EE3CFED
:101ED000DAFFE552FF0EE3CFD9FFE552FC0EE12415
:101EE000E96EFF0EE220EA6EEECFF3FFEFCFF4FFD4
:101EF0001200EF380F0B1200EF500F0B02E1EE5201
:101F0000D8841200EF380F0B300FDE6E1200EE5047
:101F10000F0B300FDE6E1200FC0EE3CFE9FFFD0E5B
:101F2000E3CFEAFF100EE66EEE6AEE6AEF6AD89033
:101F3000FD0EE336FE0EE336ED36ED36EF36FF0EE0
:101F4000E30609E0ADEC0FF0EE52ADEC0FF0EE520F
:101F5000ADEC0FF0EDD7E56E1200030EEF24E8B6FE
:0C1F6000EF6E300EEF24E8BEEF6E000CB8
:041F6C00520EE66EBD
:101F7000040EE66E4EC4E6FF4FC4E6FF7DD8E66A67
:101F8000DBEC13F0E552220EE66E240E66D870D814
:101F9000FEE1090E68D8520EE66E040EE66E37ECCE
:101FA00015F0E552E55264D8FEE10C0E5CD81D0E2A
:101FB000E66E240E52D85CD8FEE11200500EE66E9A
:101FC000040EE66E1FC407F020C408F021C409F017
:101FD00022C40AF013EC08F008C014F009C015F090
:101FE00008C0E6FF09C0E6FF47D8400E3CD840D8FD
:101FF000FEE10F0EE66E240E30D83AD8FEE14B0E0D
:1020000032D8500EE66E040EE66E37EC15F0E5524F
:10201000E5522ED8FEE14E0E26D80C0EE66E240EAA
:102020001CD826D8FEE11200100E1DD8FB0EE66E5D
:10203000230E13D81DD8FEE1170E15D8F80EE66E44
:10204000230E0BD815D8FEE11A0E0DD8F10EE66E50
:10205000230E03D80DD8FEE11200E66EF4EC14F066
:10206000E552E5521200E66EDBEC13F0E552120089
:102070000CEC16F0000912001CEC0FF0E552E552D2
:06208000E552E5521200DA
:0A2086004AD8DECF14F0DDCF15F0CC
:1020900015340FE214500008000E15540AE2EE0E3B
:1020A00032D8EE0E30D8EE0E2ED851D8EDE2DB0647
:1020B000EBD7020EE15C02E2E16AE552E16EE55225
:1020C000E7CFD9FF12002AD8DECF14F0DDCF15F00C
:1020D00015340FE214500008000E15540AE2EE0EFB
:1020E00012D8BD0E10D89F0E0ED831D8EDE2DB0607
:1020F000EBD7020EE15C02E2E16AE552E16EE552E5
:10210000E7CFD9FF1200E66EC7EC15F0E552100ECE
:1021100023D807EC00F0100EACEF10F0D9CFE6FF9B
:10212000E1CFD9FF020EE126DE6ADD6A94943C0E0F
:10213000E66EE66A7DEC13F0E552E552060EE66EB9
:10214000ACEC15F0E552030EDE6EDD6A1200640E93
:1021500003D8DF06010E1200E66EDFEC15F0E55243
:0221600012006B
:0E21620000000000000000000000000000006F
:10217000000000000000000000000000000000D08F
:102180001200050EE66E34EC16F0E55212000F0E4A
:10219000E66E34EC16F0E55212003ED8FEE1280E51
:1021A000E66EB6EC12F0E55237D8FEE1280E38D8CC
:1021B00033D8FEE10F0E34D82FD8FEE1060E30D80A
:1021C0002BD8FEE11200E66ADBEC13F0E552C30EF9
:1021D000E66E230E1BD820D8FEE1400E26D8B20EA4
:1021E000E66E230E13D818D8FEE1100E1ED8A10EED
:1021F000E66E230E0BD810D8FEE1500E16D8900EC6
:10220000E66E230E03D808D8FEE11200E66EF4EC69
:1022100014F0E552E55212000CEC16F00009120021
:10222000E66E6AEC14F0E5521200E66EDBEC13F099
:04223000E552120061
:0C2234003C0E086E096A45C40DF046C45B
:102240000EF0E6EC07F006C047F407C048F40A0EAB
:102250000D6E0E6A06C008F007C009F0C0EC07F06A
:1022600008C047F409C048F408C04EF409C04FF450
:102270000401093407E247516E08000E485502E296
:1022800043EC10F00401476B486B456B466B030E43
:10229000E66EE66AE66A4B0EE66E040EE66E69ECE2
:1022A00012F0146E050EE15E14506A0EE66E670EB3
:1022B000E66E74EC15F0E552E5521200F088F092EB
:1022C000F09EF18893841200870EE66E90EC15F074
:1022D000E552F28AF184F29412000401452B000EBB
:0422E000462312007F
:0C22E400D9CFE6FFDACFE6FFE1CFD9FF4B
:1022F000E2CFDAFFE652E652E652E652D950F90F43
:10230000146EFF0EDA20156E020E14C0DBFF030EF2
:1023100015C0DBFF020EDBCFE6FF030EDBCFE6FFCF
:10232000F90EDBCFE6FFFA0EDBCFE6FFFB0EDBCFCD
:10233000E6FFD950FC0FE66EFF0EDA20E66E3EECAB
:1023400000F0146E070EE15C02E2E16AE552E16E14
:102350001450F3CFDEFFF4CFDDFFFC0EDBCFE9FF3F
:10236000FD0EDBCFEAFFEF6ADECF14F0DDCF15F014
:1023700014C0F3FF15C0F4FF040EE15C02E2E16A51
:10238000E552E16EE552E5CFDAFFE7CFD9FF120063
:102390005265636F72647320202020202020204328
:1023A0000053657420496E74657276616C732020E9
:1023B00042004C6976652052656164696E677320DE
:1023C0002041002D2D2D2D2D2D4D454E552D2D2DE2
:1023D0002D2D2D0020430054656D703A20202020C3
:1023E00020202020202020002533642E2530316439
:1023F00000206D672F644C00383500476C75633AD8
:1024000020202020202020202020200020250048DF
:1024100052563A20202020202020202000206270C8
:102420006D00505F526174653A20202020202020EA
:0324300020200069
:0C2434001E0EF66E000EF76E000EF86E25
:1024400004010900F550406F0900F550416F03E1A8
:10245000406701D03DD00900F5503B6F0900F550B1
:102460003C6F0900F5503D6F09000900F550E96E19
:102470000900F550EA6E090009000900F5503E6FA9
:102480000900F5503F6F09000900F6CF42F4F7CF7D
:1024900043F4F8CF44F43BC4F6FF3CC4F7FF3DC41B
:1024A000F8FF04013E5302E13F5307E00900F550F5
:1024B000EE6E3E07F8E23F07F9D742C4F6FF43C489
:1024C000F7FF44C4F8FF04014007000E415BBFD78B
:0224D0001200F8
:0E24D200FE0EE3CFE9FFFF0EE3CFEAFFE9CFF6
:1024E000F3FFEACFF4FFFB0EE35003E1FC0EE350F1
:1024F00009E0FB0EE30602E2FC0EE306FD0EE350EC
:10250000EE6EF1D71200FE0EE3CFE9FFFF0EE3CF30
:10251000EAFFF36AF46AEE5203E0F34AF42AFBD7C7
:102520001200FF0EE3CFF8FFE552FF0EE3CFF7FFF7
:10253000E552FF0EE3CFF6FFE552E66AE66AE66A89
:102540000900F55209E0FD0EE32A05E1FE0EE32A3B
:1025500002E1FF0EE32AF4D7FD0EE3CF07F0FE0EF3
:0C256000E3CF08F0FF0EE3CF09F01200FB
:04256C00D9CFE6FFDE
:10257000E1CFD9FF0F0E83169516959495929590FD
:102580008C948C928C90C7EC10F0300E33D8050EE2
:10259000E66EDFEC15F0E552300E2CD8010EE66E3B
:1025A000DFEC15F0E552320E25D829D8FEE127D808
:1025B000FEE1FE0EDBCFE6FF6AEC14F0E5521FD819
:1025C000FEE1080E17D81BD8FEE10F0E13D817D85E
:1025D000FEE1010E0FD813D8FEE1040E0BD80FD880
:1025E000FEE1800EE66EDBEC13F0E552E552E7CF3C
:1025F000D9FF1200E66E6AEC14F0E55212000CEC02
:0626000016F000091200B3
:0A260600D9CFE6FFDACFE6FFE1CFFF
:10261000D9FFE2CFDAFFFB0EDBCF14F0FC0EDBCFED
:1026200015F00001800E15141AE1FB0EDBCFE9FF57
:10263000FC0EDBCFEAFFEECFF3FFEDCFF4FFEE2A87
:10264000000EEF22F3CFE9FFF4CFEAFFFD0EDBCF60
:10265000EFFFEF50156AF36E15C0F4FF10D0FB0EBC
:10266000DB50FE0806E1FD0EDBCFE6FF62EC16F064
:1026700005D0FD0EDBCFE6FF03EC00F0E552E5529E
:0A268000E5CFDAFFE7CFD9FF120023
:06268A0006500B02F3CF25
:1026900002F0F4CF03F00C02F3500326000EF420F6
:1026A000046E06500D02F3500426000EF420056E51
:1026B00006500E02F350052607500B02F350032676
:1026C000F4500422000E052207500C02F350042699
:1026D000F450052207500D02F350052608500B0256
:1026E000F3500426F450052208500C02F35005263E
:0A26F00009500B02F35005261200FA
:0626FA00D9CFE6FFDACFA4
:10270000E6FFE1CFD9FFE2CFDAFFE652E652FC0E58
:10271000DBCF14F0FD0EDBCF15F0060ED89014368B
:102720001536E804FBE114C0DEFF15C0DDFF010E25
:10273000DB50BE6EDF50E840E8403F0B300B146EBC
:10274000CF0EBD141410BD6EE552E552E552E5CF33
:08275000DAFFE7CFD9FF120008
:08275800D9CFE6FFDACFE6FF5E
:10276000E1CFD9FFE2CFDAFFE652E652FD0EDB50B1
:102770000F0BBA6E050EF66EF76A300EF86E080093
:10278000F550010B03E0010EDB6802D0010EDB6A9D
:10279000FD0EDBAE02D0A190A080010EDB5002E066
:1027A000948201D09386E552E552E552E5CFDAFFF7
:0627B000E7CFD9FF120083
:0A27B600D9CFE6FFE1CFD9FF0F0EE7
:1027C00095168316FE0EDB508009F00B83128C9455
:1027D0008C920ED80F0E8316FE0EDB38F00BF00B2A
:1027E000831206D8F00E9512E552E7CFD9FF1200FA
:0E27F000B1EC10F08C80B1EC10F08C90120067
:0227FE00D9CF31
:10280000E6FFE1CFD9FF0F0E95168316FE0EDB50C3
:102810004009F00B83128C948C920ED80F0E831605
:10282000FE0EDB38F00BF00B831206D8F00E95127B
:10283000E552E7CFD9FF1200B1EC10F08C80B1EC7B
:0628400010F08C90120064
:0A284600056A046A036A026A200EA4
:10285000E76ED89006360736083609360236033654
:10286000043605360B50025C0C5003580D500458CA
:102870000E50055809E30B50025E0C50035A0D50E0
:0E288000045A0E50055A062AE72EE4D712001D
:02288E00D9CFA0
:10289000E6FFE1CFD9FF0F0E95168316FE0EDB5033
:1028A000F00B83128C828C940ED80F0E8316FE0EC2
:1028B000DB38F00BF00B831206D8F00E9512E552C0
:1028C000E7CFD9FF1200B1EC10F08C80B1EC10F022
:0428D0008C901200D6
:0C28D400D9CFE6FFE1CFD9FF0F0E95161B
:1028E0008316FE0EDB50F00B83128C948C920ED864
:1028F0000F0E8316FE0EDB38F00BF00B831206D89A
:10290000F00E9512E552E7CFD9FF1200B1EC10F0AE
:0A2910008C80B1EC10F08C901200E6
:06291A00D9CFE6FFDACF81
:10292000E6FFE1CFD9FFE2CFDAFFE652E65204013B
:102930006493A1B06483BB50DF6E010EBCCFDBFF9C
:10294000DECF14F0DDCF15F014C0F3FF15C0F4FF97
:10295000E552E552E552E5CFDAFFE7CFD9FF1200A5
:10296000D9CFE6FFE1CFD9FFE6528C848C82B1EC5F
:1029700010F08C80B1EC10F0F00E8314DF6E8C90B0
:10298000B1EC10F08C80B1EC10F083380F0B0F0B12
:10299000DF128C908C928C94DF50E552E552E7CF99
:0429A000D9FF120049
:0C29A400D9CFE6FFE1CFD9FFE6528C84CA
:1029B0008C92B1EC10F08C80B1EC10F0F00E83141E
:1029C000DF6E8C90B1EC10F08C80B1EC10F083389D
:1029D0000F0B0F0BDF128C908C947F0EDF14E552DF
:0829E000E552E7CFD9FF120018
:0829E800D9CFE6FFE1CFD9FFD2
:1029F00014D80FE00CEC16F00009FCE10ED8E66EDE
:102A000047EC14F0E552FD0EDB2AFE0EF1E3DB2A63
:102A1000EFD7E552E7CFD9FF1200FD0EDBCFF6FF6F
:0C2A2000FE0EDBCFF7FF0800F55012009F
:042A2C00D9CFE6FF19
:102A3000DACFE6FFE1CFD9FFE2CFDAFFFD0EDB50C0
:102A40007E0BCD6EFD0EDBAC02D0CD8E01D0CD9EC7
:102A5000CF6ACE6A9E90DBAE02D09D8001D09D9061
:0E2A6000CD80E552E5CFDAFFE7CFD9FF1200B7
:022A6E00D9CFBE
:102A7000E6FFE1CFD9FF14D80FE00CEC16F0000907
:102A8000FCE10ED8E66E47EC14F0E552FD0EDB2AB1
:102A9000FE0EF1E3DB2AEFD7E552E7CFD9FF1200B4
:102AA000FD0EDBCFE9FFFE0EDBCFEAFFEF50120099
:102AB000D9CFE6FFDACFE6FFE1CFD9FFE2CFDAFFE9
:102AC000E652E652FC0EDBCFDEFFDBCFDDFF010E70
:102AD000DB50CF6EDF50CE6EE552E552E552E5CFCA
:082AE000DAFFE7CFD9FF120075
:082AE800D9CFE6FFDACFE6FFCB
:102AF000E1CFD9FFE2CFDAFFE652E652FC0EDBCFA0
:102B0000DEFFDBCFDDFF010EDB50D76EDF50D66E70
:102B1000E552E552E552E5CFDAFFE7CFD9FF1200E3
:102B2000D9CFE6FFDACFE6FFE1CFD9FFE2CFDAFF78
:102B3000FD0EDB507F0BD56ED76AD66AF294FD0E80
:102B4000DBAE02D0F28A01D0F29AD58EE552E5CF03
:082B5000DAFFE7CFD9FF120004
:082B5800D9CFE6FFDACFE6FF5A
:102B6000E1CFD9FFE2CFDAFFFD0EDB50FB0BCA6EDF
:102B7000CC6A9E92FD0EDBAE02D09D8201D09D926A
:0E2B8000CA84E552E5CFDAFFE7CFD9FF120095
:022B8E00D9CF9D
:102B9000E6FFDACFE6FFE1CFD9FFE2CFDAFF0C0E96
:102BA000BD129494CA94FD0EDB50CB6ECA84E552DC
:0E2BB000E5CFDAFFE7CFD9FF120094941200B0
:022BBE00FF0E08
:102BC000E3501D6EEF0E01D0F30EE76EE72EE6EF39
:102BD00015F00C0E1C6EE76AE72EECEF15F01C2EBC
:0C2BE000EBEF15F01D2EE4EF15F01200D5
:042BEC00056A046A08
:102BF000100EE76ED89008360936043605360D50AB
:102C0000045C0E50055805E30D50045E0E50055A45
:082C1000082AE72EF0D712009C
:082C18008C848C92B1EC10F0E9
:102C20008C80B1EC10F083AE02D003D8010C01D837
:102C3000000C8C90B1EC10F08C80B1EC10F08C900A
:042C40008C9412005E
:0C2C4400F36AF46AFF0EE124E96EFF0E53
:102C5000E220EA6EED6607D02F0EEF6404D03A0E44
:082C6000EF6001D0F32A12001D
:082C6800FF0EE3501D6E480E43
:102C700001D04C0EE76EE72EFED7E76AE72EFED7AF
:082C80001D2EF7D70000120021
:082C8800000EF36E00EE00F0F7
:102C9000060E01D81200EA6002D0EE6AFCD7F350AB
:082CA000E9601200EE6AFCD7A6
:082CA80013EE81F023EE81F030
:102CB000F86A019C1AEC12F009EC00F0BBEC0EF083
:042CC000FBD712002C
:0C2CC400FF0EE350ACBA04D0AF6AAB8E38
:102CD000AC8A949CACA2FED7AD6EF36EF46A12007F
:102CE000FF0EE350E84E1200000000D000D000D0EC
:062CF000E82EFAD71200E5
:0A2CF60030313233343536373839C7
:072D00006162636465660077
:042D070000000000C8
:052D0B000000000000C3
:012D100000C2
:0F2D1100000000000000000000000000000000B3
:102D200000000000000000000000000000000000A3
:032D3000000000A0
:020000040030CA
:0100010022DC
:010003000EEE
:010006008178
:00000001FF
