:020000040000FA
:060000008CEF12F012006B
:020006001200E6
:0600080083EF0BF0120073
:02000E00D59E7D
:04001000F29A12004E
:04001400BD6A1200AF
:06001800B4EF0BF0120032
:02001E000300DD
:100020008225000023040000060000007E25000059
:100030002D040000040000007A25000029040000BF
:0400400004000000B8
:0C0044005EEC05F0FB0EDBCFF3FFDB06EB
:10005000F35000090AE0ACEC05F0FA0E17EC06F0DC
:10006000F3E1151CF1E1010E01D0000E8DEF05F05A
:100070005EEC05F03B0EE12402E3E168E652E16E3E
:10008000010EDB6A020EDB6AF90EDBCFF6FFFA0E19
:10009000DBCFF7FFFB0EDBCFF8FF0800F550DF6E7C
:1000A000DF5002E1B1EF04F0250EDF5C02E0A4EFC7
:1000B00004F0030EDB6A040EDB6A050EDB6A060E33
:1000C000DB6A070EDB6AC6EC04F02D0EDF5C0CE089
:1000D0002B0EDF5C09E0200EDF5C06E0230EDF5C08
:1000E00003E0300EDF5C1AE1DF50300A14E0130A3F
:1000F0000FE0030A0AE00B0A05E0060AE4E1030E3A
:10010000DB80E1D7030EDB82DED7030EDB84DBD797
:10011000030EDB86D8D7030EDB88D5D72A0EDF5C2B
:100120001BE1C2EC04F010EC05F010E0030EDB80E4
:1001300008680968130EDBCF0DF0140EDBCF0EF04C
:10014000C5EC07F0040E06C0DBFF03D0130EF9EC7C
:1001500004F0C6EC04F00BD0090EDB6A67EC05F086
:1001600003E0DBEC05F0FAD7090EF9EC04F0030E1E
:10017000DBB0DB982E0EDF5C1BE1C6EC04F02A0E30
:10018000DF5C0BE1C2EC04F010EC05F003E1130EB0
:100190004BEC05F0C6EC04F00BD0090EDB6A67EC03
:1001A00005F003E0DBEC05F0FAD7090E4BEC05F0A7
:1001B000680EDF5C07E1C6EC04F0680EDF5C1DE151
:1001C000030E18D0740EDF5C17E07A0EDF5C14E0CB
:1001D000480EDF5C06E0540EDF5C03E05A0EDF5C85
:1001E00002E1020E07D06C0EDF5C03E06A0EDF5CFA
:1001F00004E1010E9EEC05F0C9DBDF506E0A01E15F
:100200007FD31E0A01E192D1200A01E18FD13F0A7A
:1002100001E149D11A0A01E146D10D0A01E143D1B8
:10022000200A01E140D13A0A01E13DD1200A01E171
:100230003AD1260A01E135D10D0A01E132D11A0A7B
:1002400001E1D9D0200A4AE0300A1FE0460A0EE058
:10025000250A01E083D3D950F90FE96EFF0EDA20A9
:10026000EA6E010EEE5E000EEE5AEE5AACEC05F0B0
:10027000250EE66E95DB03E1151C01E169D3A8ECC0
:1002800005F001E26BD3DB2A69D3080EDB6A040EAA
:10029000DB50010806E2040EDB0470EC05F0DB50D5
:1002A0008BDB080EDB5009E0030EDB50010B05E190
:1002B00072DB01E04DD3080EDB6A64DBEFCFDFFFBA
:1002C00020EC06F003E1151C01E142D3A8EC05F097
:1002D00001E3DB2A60DB01E141D33AD3070EDB50B7
:1002E00002080FE1ECEC05F0030EB3EC05F00E0E86
:1002F000EECFDBFF0F0EEECFDBFF100EEECFDBFFFE
:1003000020D0F70EDBCF17F0F80EDBCF18F0020E7F
:10031000175E000E185AF70E17C0DBFFF80E18C054
:10032000DBFF17C0E9FF18C0EAFFA3EC05F0166A6F
:100330000E0E14C0DBFF0F0E15C0DBFF100E16C033
:10034000DBFF0E0EDBCFE6FF0F0EDBCFE6FF100E5E
:10035000DBCFE6FFD4EC0EF0E552E552E552130E8A
:1003600007C0DBFF140E08C0DBFF060EDB5005E004
:10037000130EE7EC05F001E26ADB0BEC06F002E29B
:10038000130E37DBCEEC05F006E0040EE7EC05F0CB
:1003900002E2050E2EDB030EDBB005D0FCDA01E035
:1003A000D7D2080EDB6A090EDB6A0E0EDBCFF6FF32
:1003B0000F0EDBCFF7FF100EDBCFF8FF0800F55074
:1003C000DF6EDF5014E011EC06F011E220EC06F0D5
:1003D00003E1151C01E1BCD2BBDB01E3DB2A090E02
:1003E000DB2AD9500E0FE96E000ECBDBE7D7D3DA4C
:1003F00001E1B4D2ADD2C6DA110EEECFDBFF120EA0
:10040000EDCFDBFF110EDBCFE6FF120EDBCFE6FFF9
:10041000C6EC0EF0E552E552130EF3CFDBFF140EDF
:10042000F4CFDBFF060EDB5004E0130ED0DB01E25D
:100430000EDB0BEC06F002E2130EDBDAAFDB05E0BD
:10044000040EC5DB02E2050ED4DA030EDBB005D0E4
:10045000A2DA01E07DD2080EDB6A090EDB6A110E1A
:10046000DBCFE9FF120EDBCFEAFFEFCFDFFFDF507C
:1004700014E0D7DB12E2E4DB03E1151C01E168D2F2
:1004800067DB01E3DB2A090EDB2A110EDB2ADBCF57
:10049000E9FF120EE8E3DB2AE6D77DDA01E15ED25E
:1004A00057D2030EDB8E070EDB0410E195DB040E42
:1004B0005ADB0A0EEECFDBFF0B0EEECFDBFF0C0E8E
:1004C000EECFDBFF0D0EEECFDBFF6CD0070EDB5067
:1004D00003082CE1030EDBAE0DD0B2DA020E76DAA1
:1004E000EFCF14F0156A166A176A14AE39D0156882
:1004F000166835D0F70EDBCF15F0F80EDBCF16F00F
:10050000020E155E000E165AF70E15C0DBFFF80E30
:1005100016C0DBFF15C0E9FF16C0EAFFEFCF14F0ED
:100520000A0E14C0DBFF0B0EDB6A38D0070EDB505F
:10053000020809E1030EDBAE04D059DB16AE10D081
:100540000ED055DB0DD0030EDBAE12D079DA020EE1
:100550003DDAF9DA166A176A15AE02D0166817681E
:10056000E2DA0C0E16C0DBFF0D0E17C0DBFF1AD04F
:10057000F70EDBCF16F0F80EDBCF17F0020E165E8B
:10058000000E175AF70E16C0DBFFF80E17C0DBFF80
:1005900016C0E9FF17C0EAFFD6DAC5DA0C0EDB6A2F
:1005A0000D0EDB6A060EDB5005E1010EF36E050E43
:1005B000F3CFDBFF150EDB6A160EDB6AD950370F5F
:1005C000146E000EDA20156E390E14C0DBFF3A0EE1
:1005D00015C0DBFF380EDB6A080EDB6A0A0EAEDAE6
:1005E000DF50780A12E0200A10E0280A0CE0200A06
:1005F0000AE03F0A06E00D0A02E0200A08E1020EC6
:1006000005D0080E03D0080EDF26100E97DA030E71
:10061000DBBE02D0DB92DB94DB50800B24E08ADA75
:10062000D890030EEB50000A08E6000EEE5C000EB8
:10063000EE58000EEE58000EEE5815E213DA0B6875
:100640000C680D680E680CEC10F00A0E02C0DBFF9F
:100650000B0E03C0DBFF0C0E04C0DBFF0D0E05C04C
:10066000DBFF2D0E08D0030EDBA202D02B0E03D031
:10067000DBA408D0200EF36E170EF3CFDBFF150EB0
:10068000DB2A02D0170EDB6A050EDB5003E1B7D977
:1006900001E189D0660E146E250E156E000E166EE1
:1006A000070EDBCF17F0186A196A1A6A17C00BF029
:1006B00018C00CF019C00DF01AC00EF0D3D9BBEC65
:1006C00010F014500224F36E15500320F46E1650EF
:1006D0000420F86EF4CFF7FFF3CFF6FF0800090E01
:1006E000F5CFDBFF580EDF5C0FE1610EF36E090EF4
:1006F0007BD90AE3200E146E090EDBCFE7FF1450FE
:10070000E75E090EE7CFDBFF070EDBCF14F0156ABB
:10071000166A176A0FDA14C00BF015C00CF016C079
:100720000DF017C00EF0EECF06F0EECF07F0EECFD3
:1007300008F0EFCF09F0BBEC10F009C0EDFF08C0E6
:10074000EDFF07C0EDFF06C0EFFF390EDBCFE9FF7D
:10075000DB063A0EDBCFEAFF01E2DB06090EDBCF58
:10076000EFFF150EDB2A4BD995E1030EDBA61DD05A
:100770006F0EDF5C06E1C1D918E3150EDB285BDAEA
:1007800014D0780EDF5C09E0580EDF5C06E0620EE4
:10079000DF5C03E0420EDF5C08E1020EF36E160E32
:1007A000F3CFDBFF02D0150EDB6A030EDB50100B1C
:1007B0000EE0040EDBCF14F0050EDB50D88014548D
:1007C00006E2060EDB5003E1040EDB5034DA95D965
:1007D0000AE2050EDBCFE7FF150EDB50E75E050EE4
:1007E000E7CFDBFF02D0050EDB6A040EDBCF14F08F
:1007F000160E45D9D880145414E2160EDBCFE6FF4E
:10080000150EDBCFE6FF040EDBCFE6FF050EDB5057
:10081000E552E75CE552D880E754E552D880E754CA
:100820005FD9030EDB50010B0BE1080EDB5008E033
:10083000B2D801E08DD0080EDB50BED8080EDB6ABE
:10084000170EDB5007E088D9170EF1D903E1151C0C
:1008500001E17ED0160EDB5016E07ED9300EE66E3A
:100860009FD802E1151C74E077D9DFCFE6FF8EEC4C
:100870000FF0E552E552E552F4CF15F00001F31CFC
:1008800002E1151C65E0050EDBCF14F0160EDB50FF
:10089000D880145409E2050EDBCFE7FF160EDB50BB
:1008A000E75E050EE7CFDBFF300EE66E050ECBD917
:1008B0004FE1390EDB2ADBCFE9FF3A0E01E3DB2AF9
:1008C000DBCFEAFF090EEFCFDBFFDB500EE044D9B0
:1008D000090EADD902E1151C3BE0390EDB2ADBCF56
:1008E000E9FF3A0EEDE3DB2AEBD755D831E1160EDE
:1008F000DBCFE6FF080EC3D8E552E7245DD82ED043
:10090000070EDB50030A1CE0010A14E0030A07E0AB
:100910007BD9DBCFEEFF020EDBCFEDFF1FD0F5D88A
:10092000196A17AE02D0186819682CD8BCD819C03B
:10093000EEFF14D0EAD817BE186824D8B4D80ED069
:1009400063D9DBCFEFFF0AD07BD905E1151C03E1AA
:10095000F368F46810D0FCD801E3DB2A79D94DEFB5
:1009600000F0010EDBCF14F0020EDBCF15F014C047
:10097000F3FF15C0F4FF3B0EE15C02E2E16AE552D1
:10098000E16ECBD029D9020EB3EF05F061D9080092
:10099000F550DF6E1200200EE66E080E23EF06F013
:1009A0008EEC0FF0E552E552E552F3CF14F0F4CFA0
:1009B00015F00001F31C1200146E156AD950010FD6
:1009C0004DD91450EE261550ED221200185E000E7F
:1009D000195AF70E18C0DBFFF80E19C0DBFF18C05C
:1009E000E9FF19C0EAFF1200DBCFF4FFF350F45C1B
:1009F0001200DB50E76E040EE7CFDBFF12000A0E99
:100A0000DBCF14F00B0EDBCF15F00C0EDBCF16F0A6
:100A10000D0EDBCF17F01450151016101710120022
:100A2000130EEECFDBFF140EEDCFDBFF130EDBCF8B
:100A300014F0140EDBCF15F00001800E1514120017
:100A4000F70EDBCF18F0F80EDBCF19F01200050E11
:100A5000DB50E66ED950130F01D9E552E750EE6E28
:100A6000ED6A12000A0EDBCF06F00B0EDBCF07F0AB
:100A70000C0EDBCF08F00D0EDBCF09F01200DBCF40
:100A8000E6FF150EDBCFE6FF050EDB50E552E7244F
:100A9000E552E7241200DB50CED8010EF36E060EAD
:100AA000F3CFDBFF1200EE50EFCFEAFFE96E16C086
:100AB000EEFF17C0EEFF18C0EEFF1200D9CFE6FF21
:100AC000DACFE6FFE1CFD9FFE2CFDAFF1200DFCFC6
:100AD000E6FFE66A5AEC12F0E552E552F3501200D6
:100AE000E76E080EE7CFDBFF1200EECF14F0EECF7B
:100AF00015F0EFCF16F0176A1200050EDBCF14F0D9
:100B0000150EDB50D88014541200010EDBCF16F006
:100B1000020EDBCF17F0186A1200E552E5CFDAFFBC
:100B2000E7CFD9FF12000A0E14C0DBFF0B0E15C071
:100B3000DBFF1200D9500A0F2EEF06F0F36E070EFE
:100B4000F3CFDBFF1200EECF14F0EFCF15F0120061
:100B5000010EDB2A020E1200FC0EDBCFE6FFFD0EBB
:100B6000DBCFE6FF1200145E000E155AF70E14C01C
:100B7000DBFFF80E15C0DBFF14C0E9FF15C0EAFF6C
:100B80001200DA20EA6EEF2AEECFF6FF000EEF2217
:100B9000EECFF7FFEF22EECFF8FF1200040EDBCF0F
:100BA000E6FF130EDB50E552E75C9ADFDB5004DF13
:100BB000060EDB501200090EDB500A0DF350DF2445
:100BC000D00FE76E090EE7CFDBFFC6EF04F0DB5076
:100BD000F36E050EF4EF04F0F70EDBCF14F0F80E11
:100BE000DBCF15F01200DFCFE6FFD0EF04F028DFF7
:100BF000030EECDE75EF05F022EC00F0E552E55255
:100C0000E552E55200091200BDDEEE50EFCFEAFFDB
:100C1000E96E010E1200130EDB50F36E040EF4EFBA
:100C200004F0040EDB50F36E090EF4EF04F0DBCF9A
:100C3000E6FFD0EF04F0E76E050EE7CFDBFF120012
:100C40008BDFF3EF05F0DBCFE6FF86DFFCEF05F08F
:100C5000D950F90FE96EFF0EC1EF05F0E96E000EF5
:060C6000DA20EA6E12002A
:0A0C6600019E08D0019E09AE05D0E2
:100C7000086C091EE86A0922018E09C003F008C049
:100C800002F0136A126A8E0E046E056A3DEF08F0D8
:100C9000016A79EC08F091EC08F001B621EF08F058
:100CA00001A205D001BA21EF08F028EF08F001BA3F
:100CB00034EF08F001A005D001B821EF08F034EFBF
:100CC00008F001B828EF08F0056A7F0E0A24046EC8
:100CD000E86A05220F50045EE86A055A1A0E106E83
:100CE0000A6A126A136A026A036A0C50075E0D50A0
:100CF000085A0E50095A000E0A5A09E70C500726E6
:100D00000D5008220E500922000E0A2201D0128A2C
:100D1000D8900736083609360A36D8901236133678
:100D200002360336102EE1D7095008100710D8A458
:100D3000128A3DEF08F0016A79EC08F091EC08F0B6
:100D400001B621EF08F001A205D001B821EF08F0AB
:100D500028EF08F001AA05D001B021EF08F028EF34
:100D600008F001B002D001A802D034EF08F0056A03
:100D70000F500A24046EE86A05227E0E045EE86ABB
:100D8000055A126A136A026A036A0E500902F4CF06
:100D900003F0F3CF02F00D500902F3501326F45084
:100DA0000222000E03220E500802F3501326F450C4
:100DB0000222000E03220C500902F3501226F450B6
:100DC0001322000E022203220D500802F3501226B5
:100DD000F4501322000E022203220E500702F35099
:100DE0001226F4501322000E022203220C50080295
:100DF000F4501226000E1322022203220D50070285
:100E0000F4501226000E1322022203223DEF08F0B6
:100E10000F7E016A79EC08F091EC08F001B621EF41
:100E200008F001A20AD001AA03D001BE21EF08F008
:100E300001A42DEF08F02AEF08F001AA05D001ACBB
:100E40002DEF08F02AEF08F001A00AD001A808D081
:100E500001BE04D001A402D036EF08F03AEF08F04A
:100E6000126A056A0F500A5C116E10E307C013F096
:100E700008C002F009C003F00AC010F00CC007F06F
:100E80000DC008F00EC009F0013A09D00CC013F0F3
:100E90000DC002F00EC003F00FC010F0116C019EE7
:100EA00001BC018E10C004F001B069EF08F01A0E09
:100EB000116069EF08F0046A0A6A01A408D0076C9F
:100EC000081E091E0A1EE86A082209220A2201AC2D
:100ED00008D0136C021E031E041EE86A02220322BD
:100EE0000422066A115207E00A3409320832073236
:100EF0000632112EF9D70750132608500222095046
:100F000003220A50042206C012F0019E04AE0BD048
:100F1000126C131E021E031E041EE86A1322022214
:100F200003220422018E04A006D0D88003320232AC
:100F300013321232102A10C004F03DEF08F0006A9C
:100F40000EAEA8EF07F00D6C0E1EE86A0E22001E12
:100F500009AEB0EF07F0086C091EE86A0922001E0E
:100F60002EEC12F009BEC0EF07F000AE000C086CCA
:100F7000091EE86A0922046C051EE86A0522000CB5
:100F800000BEB7EF07F00188FF0C09C013F008C0DE
:100F900012F008500D02F4CF07F0F3CF06F009501D
:100FA0000E02F4CF09F0F3CF08F00D02F35007263C
:100FB000F4500822E86A092212500E02F350072664
:100FC000F4500822E86A09220EAEEBEF07F0125047
:100FD000085E1350095A13AE000C0D50085E0E50F7
:100FE000095A000C016A79EC08F001B6FCEF07F031
:100FF00001A20ED001B405D07F0E096EFF0E086E5F
:101000001FD0800E096E086A1BD0096A086A18D0C2
:1010100001B0FBD78F0E0A60EDD77E0E0A64F5D7BC
:101020008E0E0A5C05E0D890093208320A2AF8D7F9
:1010300001A406D0086C091EE86A092209AEE5D7AA
:1010400012007F0E0A6EFF0E096E086E076E120008
:101050007F0E01BEFF0E0A6E02D07F0E0A6E800E5A
:10106000096E086A076AF3D701AE04D0800E0A6ED3
:10107000096AF7D70A6A096AF4D7035002101310F5
:101080001210F8E005BEF0D703BE0CD004500510D6
:10109000EBE0D89012361336023603360406D8A099
:1010A0000506F2D70550D4E10428D2E012AE11D0E3
:1010B0007F0E121402E113A00CD0132AE86A022258
:1010C000032207E3D880033202321332042A0428B1
:1010D000BFE00450C9E013C007F002C008F00334B9
:1010E000096E04300A6E09320A9E01BE0A8E27EF8D
:1010F00008F009360A3602E30184017E06E1018028
:101100000A6A096A086A076A12000A2803E0D88096
:1011100009321200D890093202E1018212000186E0
:1011200012000E360F3602E3018C017E06E10188C3
:101130000F6A0E6A0D6A0C6A12000F2803E0D8804D
:0E1140000E321200D8900E32EAE1018A12003F
:02114E00C4D902
:10115000020EE126DE6ADD6A938A8A9A939A300E3D
:10116000ABD9938A0A0EA8D98150200B200A01E03E
:10117000010E146E156A14BE156814C0DEFF15C08A
:10118000DDFF146E020EE15C02E2E16AE552E16EFF
:101190001450A7D1A1D9E652DF6ADFCF14F0080EB0
:1011A000E76E1418E8AE02D0E73402D0E750145CC2
:1011B00019E28A9A939A010E7FD9FE0EDB50010B39
:1011C000E8B0938AE8A0939A050E76D9938A020E26
:1011D00073D9FE0EDB407F0BE76EFE0EE7CFDBFF21
:1011E000DF2ADBD7E5527DD1D9CFE6FFE1CFD9FFAA
:1011F000030EE126DE6ADD6A020EDB6A020EDBCF39
:1012000014F0080EE76E1418E8AE02D0E73402D0EE
:10121000E750145C2EE28A9A939A00000000938AA9
:1012200000000000000000000000000000000000BE
:101230008150200B01E0010EF36E020EDB5004E042
:10124000D890F336E806FCE1F350166E176ADE50CC
:101250001610146EDD501710156E14C0DEFF15C089
:10126000DDFF050EE66EA8EC12F0E552020EDB2A59
:10127000C5D7DF5000D0146E030EE15C02E2E16AD4
:10128000E552E16E1450E552E7CFD9FF12005FDF5F
:101290000C0E17D9E66A7EDFE55259DFAC0E11D984
:1012A000A7EF08F019D90A0EE126DE6ADD6A020E00
:1012B000DB6A030EDB6A040EDB6A050EDB6A060ED0
:1012C000DB6A070EDB6A080EDB6A090EDB6A080EB2
:1012D000DBCF14F0090EDBCF15F0D890155004E6E3
:1012E000C80E145C000E155829E2EE0EEAD8220E44
:1012F000E8D82DDFAA0EE5D877DF146E156A14BE84
:10130000156814C0DEFF15C0DDFF21DF020EDBCF44
:1013100016F0030EDBCF17F0DE501624146EDD50EE
:101320001720156E020E14C0DBFF030E15C0DBFF85
:10133000080EDB2A090ECBE3DB2AC9D7020EDBCF6E
:1013400008F0030EDBCF09F035EC06F0AAD8480E02
:101350000E6E430E0F6E48EC06F0040E07C0DBFF66
:10136000050E08C0DBFF060E09C0DBFF070E0AC032
:10137000DBFF040EDBCF14F0050EDBCF15F0060EFD
:10138000DBCF16F0070EDBCF17F014C006F015C048
:1013900007F016C008F017C009F00A0EE15C02E27F
:1013A000E16AE552E16E9DD07DDF06C02DF407C0F5
:1013B0002EF408C02FF409C030F406C007F085D819
:1013C000F2EC07F008C001F409C002F435EC06F0B5
:1013D00007C018F008C019F009C01AF00AC01BF0C5
:1013E00007C00CF008C00DF009C00EF00AC00FF0E5
:1013F0002DC407F06AD808EC07F053D8C80E0E6E5B
:10140000420E0F6E9BEC06F0F2EC07F008C003F4FE
:1014100009C004F408C0E6FF09C0E6FF01C4E6FF06
:1014200002C4E6FFF80E146E1F0E156E166A14C085
:10143000E6FFE66E16C0E6FF050EE66E040EE66EEB
:1014400007EC0EF0176E090EE15E1750500E4DD8E6
:10145000E70EE66E1F0EE66E69EC11F0E552E552FE
:1014600044EC12F00009FCE1590E3FD8050EE66E7F
:10147000040EE66E8BEC11F0E552E55244EC12F0EE
:101480000009FCE15E0E31D8E40EE66E1F0EE66E3A
:1014900069EC11F0E552E55244EC12F00009FCE170
:1014A000120007C014F008C015F009C016F00AC0F9
:1014B00017F00C6A0D6A1200E66EA8EC12F0E55205
:1014C0001200E66E67DEE55212002EC408F02FC44B
:1014D00009F030C40AF01200D9CFE6FFE1CFD9FFFE
:1014E0001200E552E7CFD9FF1200E66E73EC10F060
:0414F000E5521200AF
:0C14F400948E948C948A9488120082508C
:10150000800B0DE18250400B0AE18250200B07E175
:101510008250100B04E1010E0401376F386B8250CA
:10152000800B0DE08250400B0AE08250200B07E157
:101530008250100B04E1020E0401376F386B8250A9
:10154000800B0DE18250400B0AE08250200B07E136
:101550008250100B04E1030E0401376F386B825088
:10156000800B0DE18250400B0AE18250200B07E016
:101570008250100B04E1040E0401376F386B825067
:10158000800B0DE08250400B0AE08250200B07E0F8
:101590008250100B04E1050E0401376F386B825046
:1015A000800B0DE18250400B0AE08250200B07E0D7
:1015B0008250100B04E1060E0401376F386B825025
:1015C000800B0DE18250400B0AE18250200B07E1B5
:1015D0008250100B04E0070E0401376F386B825005
:1015E000800B0DE08250400B0AE08250200B07E197
:1015F0008250100B04E0080E0401376F386B8250E4
:10160000800B0DE18250400B0AE08250200B07E175
:101610008250100B04E0090E0401376F386B8250C2
:10162000800B0CE18250400B09E18250200B06E058
:101630008250100B03E00401376B386B8250800B33
:101640000DE08250400B0AE18250200B07E18250EE
:10165000100B04E10A0E0401376F386B8250800BC7
:101660000DE08250400B0AE18250200B07E08250CF
:10167000100B04E10B0E0401376F386B8250800BA6
:101680000DE08250400B0AE18250200B07E18250AE
:10169000100B04E00C0E0401376F386B8250800B86
:1016A0000DE08250400B0AE18250200B07E082508F
:1016B000100B04E00D0E0401376F386B8250800B65
:1016C0000DE18250400B0AE08250200B07E082506F
:1016D000100B04E00E0E0401376F386B8250800B44
:1016E0000DE08250400B0AE08250200B07E0825050
:1016F000100B04E00F0E0401376F386B37C4F3FF93
:0617000038C4F4FF1200E2
:0A170600B3D800EE00F0140EE80462
:1017100003E3EECFE4FFFBD700EE14F0080EE8047D
:1017200003E3EECFE4FFFBD7E652F250040B09E0EF
:1017300004010A0E291905E12A5103E15FEC0CF0BE
:10174000F294E55200EE1BF0080EE80403E3E5CF47
:10175000EDFFFBD700EE13F0140EE80403E3E5CF32
:10176000EDFFFBD799D81100D8CFE4FFE0CFE4FF1D
:10177000E46E7DD800EE00F0140EE80403E3EECF33
:10178000E4FFFBD700EE14F0080EE80403E3EECF0D
:10179000E4FFFBD7E652F0A019D0010EE66E02EC92
:1017A00011F0E5527FEC0AF0F3CF29F4F4CF2AF4DC
:1017B000310EE66E040EE66EF3CFE6FFF4CFE6FFE1
:1017C00004EC0DF0E552E552E552E552F090F0A23E
:1017D00002D0E8EC0CF0F092E55200EE1BF0080E9F
:1017E000E80403E3E5CFEDFFFBD700EE13F0140EA2
:1017F000E80403E3E5CFEDFFFBD74ED8E550E5CF96
:10180000E0FFE5CFD8FF1000F086F090F18AD08E8F
:10181000F28CF28EF09C1200F7DF7AEC0AF0BAEC50
:101820000DF047EC09F0DFEC0CF0D9EC0CF0040102
:101830000D0E29190EE12A510CE1D0EC0DF0040136
:101840002B512C11F4E1010E2B6F2C6B07EC00F0E7
:10185000EED70A0E29190AE12A5108E1D4EC09F061
:10186000EDEC0CF004012B6B2C6BF3D71200DACFEC
:10187000E4FFE2CFDAFFE9CFE4FFEACFE4FFF6CFFF
:10188000E4FFF7CFE4FFF5CFE4FFF3CFE4FFF4CFBD
:10189000E4FFFACFE4FF1200E5CFFAFFE5CFF4FF53
:1018A000E5CFF3FFE5CFF5FFE5CFF7FFE5CFF6FF97
:0E18B000E5CFEAFFE5CFE9FFE5CFDAFF120052
:0218BE003C0EDE
:1018C000086E096A23C40DF024C40EF0C5EC07F0BD
:1018D00006C025F407C026F40A0E0D6E0E6A06C077
:1018E00008F007C009F09FEC07F008C025F409C014
:1018F00026F485D808C0E6FF09C0E6FF04EC0DF029
:10190000E552E552E552E552E66A73EC10F0E55215
:10191000060EE66E200EE66E69EC11F0E552E55219
:1019200044EC12F00009FCE1090EE66E73EC10F0D5
:10193000E55265D88BEC11F0E552E55244EC12F01B
:101940000009FCE10C0EE66E73EC10F0E552010E9E
:10195000E66E200EE66E69EC11F0E552E55244ECBD
:1019600012F00009FCE1040126350AE225516E0857
:10197000000E265505E2030EE66E46EC0FF0E5522A
:101980000401256B266B236B246B030EE66EE66A5F
:10199000E66A35D8ACEC0EF0146E050EE15E14501C
:1019A0006A0EE66E670EE66EACEC11F0E552E5529B
:1019B0001200F088F092F09EF18893841200870E56
:1019C000E66EC8EC11F0E552F28AF184F29412004E
:1019D0000401232B000E242312000401010E2B19F5
:1019E0000DE12C510BE1BD0EE66EF00EE66EACEC97
:1019F00011F0E552E55204012B6B2C6B1200340EF2
:081A0000E66E040EE66E120012
:081A0800D9CFE6FFDACFE6FFBB
:101A1000FA0EE3CFD9FFFB0EE3CFDAFFFD0EE35260
:101A200009E72D0EDE6EFC0EE31EE32AFD0ED8B490
:101A3000E306E31EE652E652E652FD0EE124E76EAF
:101A4000FF0EE220E46EE652F70EE3CFE6FFF70E5C
:101A5000E3CFE6FF74EC0DF0F90EE124E96EFF0E22
:101A6000E220EA6E64EC0DF00AE161EC0DF009E1B0
:101A700064EC0DF008E161EC0DF007E108D06FECCB
:101A80000DF06AEC0DF06FEC0DF06AEC0DF06FEC00
:101A90000DF0DE6AF90EE126FF0EE222FF0EE3CF23
:101AA000DAFFE552FF0EE3CFD9FFE552FC0EE12449
:101AB000E96EFF0EE220EA6EEECFF3FFEFCFF4FF08
:101AC0001200EF380F0B1200EF500F0B02E1EE5235
:101AD000D8841200EF380F0B300FDE6E1200EE507C
:101AE0000F0B300FDE6E1200FC0EE3CFE9FFFD0E90
:101AF000E3CFEAFF100EE66EEE6AEE6AEF6AD89068
:101B0000FD0EE336FE0EE336ED36ED36EF36FF0E14
:101B1000E30609E095EC0DF0EE5295EC0DF0EE5277
:101B200095EC0DF0EDD7E56E1200030EEF24E8B64C
:0C1B3000EF6E300EEF24E8BEEF6E000CEC
:041B3C0000000000A5
:101B40000000000000000000000000000000000095
:101B5000000000000000000000D01200050EE66E3C
:101B60006CEC12F0E55212000F0EE66E6CEC12F007
:101B7000E55212003ED8FEE1280EE66EF9EC0EF0BA
:101B8000E55237D8FEE1280E38D833D8FEE10F0EE3
:101B900034D82FD8FEE1060E30D82BD8FEE1120043
:101BA000E66A73EC10F0E552D30EE66E1F0E1BD8FA
:101BB00020D8FEE1400E26D8C20EE66E1F0E13D8C6
:101BC00018D8FEE1100E1ED8B10EE66E1F0E0BD80F
:101BD00010D8FEE1500E16D8A00EE66E1F0E03D8E8
:101BE00008D8FEE11200E66E69EC11F0E552E5520C
:101BF000120044EC12F000091200E66E02EC11F043
:0E1C0000E5521200E66E73EC10F0E552120091
:021C0E00D9CF2C
:101C1000E6FFDACFE6FFE1CFD9FFE2CFDAFFE65207
:101C2000E652E652E652D950F90F146EFF0EDA2052
:101C3000156E020E14C0DBFF030E15C0DBFF020E93
:101C4000DBCFE6FF030EDBCFE6FFF90EDBCFE6FFCF
:101C5000FA0EDBCFE6FFFB0EDBCFE6FFD950FC0F21
:101C6000E66EFF0EDA20E66E38EC00F0146E070E1A
:101C7000E15C02E2E16AE552E16E1450F3CFDEFF6F
:101C8000F4CFDDFFFC0EDBCFE9FFFD0EDBCFEAFF7B
:101C9000EF6ADECF14F0DDCF15F014C0F3FF15C0EE
:101CA000F4FF040EE15C02E2E16AE552E16EE55206
:0A1CB000E5CFDAFFE7CFD9FF1200FD
:061CBA001E0EF66E000E86
:101CC000F76E000EF86E04010900F5501E6F090052
:101CD000F5501F6F03E11E6701D03DD00900F5509C
:101CE000196F0900F5501A6F0900F5501B6F0900B4
:101CF0000900F550E96E0900F550EA6E0900090087
:101D00000900F5501C6F0900F5501D6F090009000E
:101D1000F6CF20F4F7CF21F4F8CF22F419C4F6FF60
:101D20001AC4F7FF1BC4F8FF04011C5302E11D5342
:101D300007E00900F550EE6E1C07F8E21D07F9D721
:101D400020C4F6FF21C4F7FF22C4F8FF04011E07D8
:081D5000000E1F5BBFD712005B
:081D5800FE0EE3CFE9FFFF0ED0
:101D6000E3CFEAFFE9CFF3FFEACFF4FFFB0EE35046
:101D700003E1FC0EE35009E0FB0EE30602E2FC0E79
:101D8000E306FD0EE350EE6EF1D71200FE0EE3CF38
:101D9000E9FFFF0EE3CFEAFFF36AF46AEE5203E0D5
:101DA000F34AF42AFBD71200FF0EE3CFF8FFE55207
:101DB000FF0EE3CFF7FFE552FF0EE3CFF6FFE5524C
:101DC000E66AE66AE66A0900F55209E0FD0EE32AD2
:101DD00005E1FE0EE32A02E1FF0EE32AF4D7FD0E31
:101DE000E3CF07F0FE0EE3CF08F0FF0EE3CF09F0DC
:021DF0001200DF
:0E1DF200D9CFE6FFE1CFD9FF0F0E831695166D
:101E00009594959295908C948C928C90B4EC0DF066
:101E1000300E33D8050EE66E17EC12F0E552300E98
:101E20002CD8010EE66E17EC12F0E552320E25D8D2
:101E300029D8FEE127D8FEE1FE0EDBCFE6FF02EC5B
:101E400011F0E5521FD8FEE1080E17D81BD8FEE1AD
:101E50000F0E13D817D8FEE1010E0FD813D8FEE1EC
:101E6000040E0BD80FD8FEE1800EE66E73EC10F076
:101E7000E552E552E7CFD9FF1200E66E02EC11F011
:0C1E8000E552120044EC12F000091200C0
:041E8C00D9CFE6FFC5
:101E9000E1CFD9FF9494320EE66EE66A44EC10F07E
:101EA000E552E552060EE66EE4EC11F0E55225D857
:101EB00015341AE214500008000E155415E218D813
:101EC00017D816D8C80EE66E17EC12F0E55215D8E2
:101ED0001406000E155AFD0E14C0DBFFFE0E15C0D1
:101EE000DBFF0AEC00F0E3D7E552E7CFD9FF1200A1
:101EF000EE0E0AD8010E84EF0FF0FD0EDBCF14F0CA
:101F0000FE0EDBCF15F01200E66EFFEC11F0E5528D
:0C1F1000100EE66E17EC12F0E552120005
:041F1C00D9CFE6FF34
:101F2000DACFE6FFE1CFD9FFE2CFDAFFFB0EDBCF5E
:101F300014F0FC0EDBCF15F00001800E15141AE131
:101F4000FB0EDBCFE9FFFC0EDBCFEAFFEECFF3FFAA
:101F5000EDCFF4FFEE2A000EEF22F3CFE9FFF4CF2E
:101F6000EAFFFD0EDBCFEFFFEF50156AF36E15C0F1
:101F7000F4FF10D0FB0EDB50FE0806E1FD0EDBCFB8
:101F8000E6FF9AEC12F005D0FD0EDBCFE6FF03EC86
:101F900000F0E552E552E5CFDAFFE7CFD9FF1200B6
:101FA0005265636F7264732020202020202020431C
:101FB0000053657420496E74657276616C732020DD
:101FC00042004C6976652052656164696E677320D2
:101FD0002041002D2D2D2D2D2D4D454E552D2D2DD6
:101FE0002D2D2D0020430054656D703A20202020B7
:101FF00020202020202020002533642E253031642D
:10200000002062706D00505F526174653A2020209C
:072010002020202020200009
:0820180006500B02F3CF02F0A9
:10202000F4CF03F00C02F3500326000EF420046EEC
:1020300006500D02F3500426000EF420056E0650E3
:102040000E02F350052607500B02F3500326F450FE
:102050000422000E052207500C02F3500426F4500F
:10206000052207500D02F350052608500B02F350CD
:102070000426F450052208500C02F350052609509E
:082080000B02F35005261200CB
:08208800D9CFE6FFDACFE6FF35
:10209000E1CFD9FFE2CFDAFFE652E652FC0EDBCF0A
:1020A00014F0FD0EDBCF15F0060ED8901436153661
:1020B000E804FBE114C0DEFF15C0DDFF010EDB50BC
:1020C000BE6EDF50E840E8403F0B300B146ECF0E81
:1020D000BD141410BD6EE552E552E552E5CFDAFFAE
:0620E000E7CFD9FF12005A
:0A20E600D9CFE6FFE1CFD9FF0F0EBE
:1020F00095168316FE0EDB508009F00B83128C942C
:102100008C920ED80F0E8316FE0EDB38F00BF00B00
:10211000831206D8F00E9512E552E7CFD9FF1200D0
:0E2120009EEC0DF08C809EEC0DF08C90120069
:02212E00D9CF07
:10213000E6FFE1CFD9FF0F0E95168316FE0EDB509A
:102140004009F00B83128C948C920ED80F0E8316DC
:10215000FE0EDB38F00BF00B831206D8F00E951252
:10216000E552E7CFD9FF12009EEC0DF08C809EEC7B
:062170000DF08C9012003E
:0A217600056A046A036A026A200E7B
:10218000E76ED8900636073608360936023603362B
:10219000043605360B50025C0C5003580D500458A1
:1021A0000E50055809E30B50025E0C50035A0D50B7
:0E21B000045A0E50055A062AE72EE4D71200F4
:0221BE00D9CF77
:1021C000E6FFE1CFD9FF0F0E95168316FE0EDB500A
:1021D000F00B83128C828C940ED80F0E8316FE0E99
:1021E000DB38F00BF00B831206D8F00E9512E55297
:1021F000E7CFD9FF12009EEC0DF08C809EEC0DF025
:042200008C901200AC
:0C220400D9CFE6FFE1CFD9FF0F0E9516F1
:102210008316FE0EDB50F00B83128C948C920ED83A
:102220000F0E8316FE0EDB38F00BF00B831206D870
:10223000F00E9512E552E7CFD9FF12009EEC0DF09B
:0A2240008C809EEC0DF08C901200D3
:06224A00D9CFE6FFE1CF51
:10225000D9FFE6528C848C829EEC0DF08C809EEC33
:102260000DF0F00E8314DF6E8C909EEC0DF08C80E0
:102270009EEC0DF083380F0B0F0BDF128C908C92BD
:0E2280008C94DF50E552E552E7CFD9FF1200F3
:02228E00D9CFA6
:10229000E6FFE1CFD9FFE6528C848C929EEC0DF0E4
:1022A0008C809EEC0DF0F00E8314DF6E8C909EEC13
:1022B0000DF08C809EEC0DF083380F0B0F0BDF12AE
:1022C0008C908C947F0EDF14E552E552E7CFD9FF56
:0222D0001200FA
:0E22D200D9CFE6FFE1CFD9FF14D80FE044ECDE
:1022E00012F00009FCE10ED8E66EDFEC10F0E552CA
:1022F000FD0EDB2AFE0EF1E3DB2AEFD7E552E7CF36
:10230000D9FF1200FD0EDBCFF6FFFE0EDBCFF7FF8D
:062310000800F550120068
:0A231600D9CFE6FFE1CFD9FF14D8BC
:102320000FE044EC12F00009FCE10ED8E66EDFECA1
:1023300010F0E552FD0EDB2AFE0EF1E3DB2AEFD7AB
:10234000E552E7CFD9FF1200FD0EDBCFE9FFFE0E0D
:08235000DBCFEAFFEF501200A1
:08235800D9CFE6FFDACFE6FF62
:10236000E1CFD9FFE2CFDAFFE652E652FC0EDBCF37
:10237000DEFFDBCFDDFF010EDB50D76EDF50D66E08
:10238000E552E552E552E5CFDAFFE7CFD9FF12007B
:10239000D9CFE6FFDACFE6FFE1CFD9FFE2CFDAFF10
:1023A000FD0EDB507F0BD56ED76AD66AF294FD0E18
:1023B000DBAE02D0F28A01D0F29AD58EE552E5CF9B
:0823C000DAFFE7CFD9FF12009C
:0823C800D9CFE6FFDACFE6FFF2
:1023D000E1CFD9FFE2CFDAFFFD0EDB50FB0BCA6E77
:1023E000CC6A9E92FD0EDBAE02D09D8201D09D9202
:0E23F000CA84E552E5CFDAFFE7CFD9FF12002D
:0223FE00D9CF35
:10240000E6FFDACFE6FFE1CFD9FFE2CFDAFF0C0E2D
:10241000BD129494CA94FD0EDB50CB6ECA84E55273
:0E242000E5CFDAFFE7CFD9FF12009494120047
:02242E00FF0E9F
:10243000E3501D6EEF0E01D0F30EE76EE72E1EEF98
:1024400012F00C0E1C6EE76AE72E24EF12F01C2E21
:0C24500023EF12F01D2E1CEF12F0120002
:04245C00056A046A9F
:10246000100EE76ED89008360936043605360D5042
:10247000045C0E50055805E30D50045E0E50055ADD
:08248000082AE72EF0D7120034
:082488008C848C929EEC0DF097
:102490008C809EEC0DF083AE02D003D8010C01D8E5
:1024A000000C8C909EEC0DF08C809EEC0DF08C90CE
:0424B0008C941200F6
:0C24B400F36AF46AFF0EE124E96EFF0EEB
:1024C000E220EA6EED6607D02F0EEF6404D03A0EDC
:0824D000EF6001D0F32A1200B5
:0824D800FF0EE3501D6E480EDB
:1024E00001D04C0EE76EE72EFED7E76AE72EFED747
:0824F0001D2EF7D700001200B9
:0824F800000EF36E00EE00F08F
:10250000060E01D81200EA6002D0EE6AFCD7F35042
:08251000E9601200EE6AFCD73D
:0825180013EE81F023EE81F0C7
:10252000F86A019C5DEC0EF0BCEC12F00CEC0CF0C7
:04253000FBD71200C3
:0C253400FF0EE350ACBA04D0AF6AAB8ECF
:10254000AC8A949CACA2FED7AD6EF36EF46A120016
:10255000FF0EE350E84E1200000000D000D000D083
:06256000E82EFAD712007C
:0A256600303132333435363738395E
:07257000616263646566000F
:0225780012004F
:04257A000D0001004F
:02257E0000005B
:02258000000059
:0625820000000000000053
:020000040030CA
:0100010022DC
:010003000EEE
:010006008178
:00000001FF
