:020000040000FA
:060000007EEF11F012007A
:0A00060001006023000080000000EC
:0400100043000000A9
:0C00140046EC05F0FB0EDBCFF3FFDB0633
:10002000F35000090AE094EC05F0FA0EFFEC05F03D
:10003000F3E1151CF1E1010E01D0000E75EF05F0A2
:1000400046EC05F03B0EE12402E3E168E652E16E86
:10005000010EDB6A020EDB6AF90EDBCFF6FFFA0E49
:10006000DBCFF7FFFB0EDBCFF8FF0800F550DF6EAC
:10007000DF5002E199EF04F0250EDF5C02E08CEF27
:1000800004F0030EDB6A040EDB6A050EDB6A060E63
:10009000DB6A070EDB6AAEEC04F02D0EDF5C0CE0D1
:1000A0002B0EDF5C09E0200EDF5C06E0230EDF5C38
:1000B00003E0300EDF5C1AE1DF50300A14E0130A6F
:1000C0000FE0030A0AE00B0A05E0060AE4E1030E6A
:1000D000DB80E1D7030EDB82DED7030EDB84DBD7C8
:1000E000030EDB86D8D7030EDB88D5D72A0EDF5C5C
:1000F0001BE1AAEC04F0F8EC04F010E0030EDB8046
:1001000008680968130EDBCF0DF0140EDBCF0EF07C
:10011000ACEC0DF0040E06C0DBFF03D0130EE1ECD7
:1001200004F0AEEC04F00BD0090EDB6A4FEC05F0E6
:1001300003E0C3EC05F0FAD7090EE1EC04F0030E7E
:10014000DBB0DB982E0EDF5C1BE1AEEC04F02A0E78
:10015000DF5C0BE1AAEC04F0F8EC04F003E1130E11
:1001600033EC05F0AEEC04F00BD0090EDB6A4FEC7B
:1001700005F003E0C3EC05F0FAD7090E33EC05F007
:10018000680EDF5C07E1AEEC04F0680EDF5C1DE199
:10019000030E18D0740EDF5C17E07A0EDF5C14E0FB
:1001A000480EDF5C06E0540EDF5C03E05A0EDF5CB5
:1001B00002E1020E07D06C0EDF5C03E06A0EDF5C2A
:1001C00004E1010E86EC05F0C9DBDF506E0A01E1A7
:1001D0007FD31E0A01E192D1200A01E18FD13F0AAB
:1001E00001E149D11A0A01E146D10D0A01E143D1E9
:1001F000200A01E140D13A0A01E13DD1200A01E1A2
:100200003AD1260A01E135D10D0A01E132D11A0AAB
:1002100001E1D9D0200A4AE0300A1FE0460A0EE088
:10022000250A01E083D3D950F90FE96EFF0EDA20D9
:10023000EA6E010EEE5E000EEE5AEE5A94EC05F0F8
:10024000250EE66E95DB03E1151C01E169D390EC08
:1002500005F001E26BD3DB2A69D3080EDB6A040EDA
:10026000DB50010806E2040EDB0458EC05F0DB501D
:100270008BDB080EDB5009E0030EDB50010B05E1C0
:1002800072DB01E04DD3080EDB6A64DBEFCFDFFFEA
:1002900008EC06F003E1151C01E142D390EC05F0F7
:1002A00001E3DB2A60DB01E141D33AD3070EDB50E7
:1002B00002080FE1D4EC05F0030E9BEC05F00E0EE6
:1002C000EECFDBFF0F0EEECFDBFF100EEECFDBFF2E
:1002D00020D0F70EDBCF17F0F80EDBCF18F0020EB0
:1002E000175E000E185AF70E17C0DBFFF80E18C085
:1002F000DBFF17C0E9FF18C0EAFF8BEC05F0166AB8
:100300000E0E14C0DBFF0F0E15C0DBFF100E16C063
:10031000DBFF0E0EDBCFE6FF0F0EDBCFE6FF100E8E
:10032000DBCFE6FF6DEC0FF0E552E552E552130E20
:1003300007C0DBFF140E08C0DBFF060EDB5005E034
:10034000130ECFEC05F001E26ADBF3EC05F002E2FC
:10035000130E37DBB6EC05F006E0040ECFEC05F02B
:1003600002E2050E2EDB030EDBB005D0FCDA01E065
:10037000D7D2080EDB6A090EDB6A0E0EDBCFF6FF62
:100380000F0EDBCFF7FF100EDBCFF8FF0800F550A4
:10039000DF6EDF5014E0F9EC05F011E208EC06F036
:1003A00003E1151C01E1BCD2BBDB01E3DB2A090E32
:1003B000DB2AD9500E0FE96E000ECBDBE7D7D3DA7C
:1003C00001E1B4D2ADD2C6DA110EEECFDBFF120ED0
:1003D000EDCFDBFF110EDBCFE6FF120EDBCFE6FF2A
:1003E0005FEC0FF0E552E552130EF3CFDBFF140E76
:1003F000F4CFDBFF060EDB5004E0130ED0DB01E28E
:100400000EDBF3EC05F002E2130EDBDAAFDB05E006
:10041000040EC5DB02E2050ED4DA030EDBB005D014
:10042000A2DA01E07DD2080EDB6A090EDB6A110E4A
:10043000DBCFE9FF120EDBCFEAFFEFCFDFFFDF50AC
:1004400014E0D7DB12E2E4DB03E1151C01E168D222
:1004500067DB01E3DB2A090EDB2A110EDB2ADBCF87
:10046000E9FF120EE8E3DB2AE6D77DDA01E15ED28E
:1004700057D2030EDB8E070EDB0410E195DB040E72
:100480005ADB0A0EEECFDBFF0B0EEECFDBFF0C0EBE
:10049000EECFDBFF0D0EEECFDBFF6CD0070EDB5097
:1004A00003082CE1030EDBAE0DD0B2DA020E76DAD1
:1004B000EFCF14F0156A166A176A14AE39D01568B2
:1004C000166835D0F70EDBCF15F0F80EDBCF16F03F
:1004D000020E155E000E165AF70E15C0DBFFF80E61
:1004E00016C0DBFF15C0E9FF16C0EAFFEFCF14F01E
:1004F0000A0E14C0DBFF0B0EDB6A38D0070EDB5090
:10050000020809E1030EDBAE04D059DB16AE10D0B1
:100510000ED055DB0DD0030EDBAE12D079DA020E11
:100520003DDAF9DA166A176A15AE02D0166817684E
:10053000E2DA0C0E16C0DBFF0D0E17C0DBFF1AD07F
:10054000F70EDBCF16F0F80EDBCF17F0020E165EBB
:10055000000E175AF70E16C0DBFFF80E17C0DBFFB0
:1005600016C0E9FF17C0EAFFD6DAC5DA0C0EDB6A5F
:100570000D0EDB6A060EDB5005E1010EF36E050E73
:10058000F3CFDBFF150EDB6A160EDB6AD950370F8F
:10059000146E000EDA20156E390E14C0DBFF3A0E11
:1005A00015C0DBFF380EDB6A080EDB6A0A0EAEDA16
:1005B000DF50780A12E0200A10E0280A0CE0200A36
:1005C0000AE03F0A06E00D0A02E0200A08E1020EF6
:1005D00005D0080E03D0080EDF26100E97DA030EA2
:1005E000DBBE02D0DB92DB94DB50800B24E08ADAA6
:1005F000D890030EEB50000A08E6000EEE5C000EE9
:10060000EE58000EEE58000EEE5815E213DA0B68A5
:100610000C680D680E6827EC0FF00A0E02C0DBFFB5
:100620000B0E03C0DBFF0C0E04C0DBFF0D0E05C07C
:10063000DBFF2D0E08D0030EDBA202D02B0E03D061
:10064000DBA408D0200EF36E170EF3CFDBFF150EE0
:10065000DB2A02D0170EDB6A050EDB5003E1B7D9A7
:1006600001E189D04A0E146E230E156E000E166E2F
:10067000070EDBCF17F0186A196A1A6A17C00BF059
:1006800018C00CF019C00DF01AC00EF0D3D978ECD8
:1006900010F014500224F36E15500320F46E16501F
:1006A0000420F86EF4CFF7FFF3CFF6FF0800090E31
:1006B000F5CFDBFF580EDF5C0FE1610EF36E090E24
:1006C0007BD90AE3200E146E090EDBCFE7FF14502E
:1006D000E75E090EE7CFDBFF070EDBCF14F0156AEC
:1006E000166A176A0FDA14C00BF015C00CF016C0AA
:1006F0000DF017C00EF0EECF06F0EECF07F0EECF04
:1007000008F0EFCF09F078EC10F009C0EDFF08C059
:10071000EDFF07C0EDFF06C0EFFF390EDBCFE9FFAD
:10072000DB063A0EDBCFEAFF01E2DB06090EDBCF88
:10073000EFFF150EDB2A4BD995E1030EDBA61DD08A
:100740006F0EDF5C06E1C1D918E3150EDB285BDA1A
:1007500014D0780EDF5C09E0580EDF5C06E0620E14
:10076000DF5C03E0420EDF5C08E1020EF36E160E62
:10077000F3CFDBFF02D0150EDB6A030EDB50100B4C
:100780000EE0040EDBCF14F0050EDB50D8801454BD
:1007900006E2060EDB5003E1040EDB5034DA95D995
:1007A0000AE2050EDBCFE7FF150EDB50E75E050E14
:1007B000E7CFDBFF02D0050EDB6A040EDBCF14F0BF
:1007C000160E45D9D880145414E2160EDBCFE6FF7E
:1007D000150EDBCFE6FF040EDBCFE6FF050EDB5088
:1007E000E552E75CE552D880E754E552D880E754FB
:1007F0005FD9030EDB50010B0BE1080EDB5008E064
:10080000B2D801E08DD0080EDB50BED8080EDB6AEE
:10081000170EDB5007E088D9170EF1D903E1151C3C
:1008200001E17ED0160EDB5016E07ED9300EE66E6A
:100830009FD802E1151C74E077D9DFCFE6FFE5EC25
:100840000EF0E552E552E552F4CF15F00001F31C2D
:1008500002E1151C65E0050EDBCF14F0160EDB502F
:10086000D880145409E2050EDBCFE7FF160EDB50EB
:10087000E75E050EE7CFDBFF300EE66E050ECBD947
:100880004FE1390EDB2ADBCFE9FF3A0E01E3DB2A29
:10089000DBCFEAFF090EEFCFDBFFDB500EE044D9E0
:1008A000090EADD902E1151C3BE0390EDB2ADBCF86
:1008B000E9FF3A0EEDE3DB2AEBD755D831E1160E0E
:1008C000DBCFE6FF080EC3D8E552E7245DD82ED073
:1008D000070EDB50030A1CE0010A14E0030A07E0DC
:1008E0007BD9DBCFEEFF020EDBCFEDFF1FD0F5D8BB
:1008F000196A17AE02D0186819682CD8BCD819C06C
:10090000EEFF14D0EAD817BE186824D8B4D80ED099
:1009100063D9DBCFEFFF0AD07BD905E1151C03E1DA
:10092000F368F46810D0FCD801E3DB2A79D935EFFD
:1009300000F0010EDBCF14F0020EDBCF15F014C077
:10094000F3FF15C0F4FF3B0EE15C02E2E16AE55201
:10095000E16ECBD029D9020E9BEF05F061D90800DA
:10096000F550DF6E1200200EE66E080E0BEF06F05B
:10097000E5EC0EF0E552E552E552F3CF14F0F4CF7A
:1009800015F00001F31C1200146E156AD950010F06
:100990004DD91450EE261550ED221200185E000EAF
:1009A000195AF70E18C0DBFFF80E19C0DBFF18C08C
:1009B000E9FF19C0EAFF1200DBCFF4FFF350F45C4B
:1009C0001200DB50E76E040EE7CFDBFF12000A0EC9
:1009D000DBCF14F00B0EDBCF15F00C0EDBCF16F0D7
:1009E0000D0EDBCF17F01450151016101710120053
:1009F000130EEECFDBFF140EEDCFDBFF130EDBCFBC
:100A000014F0140EDBCF15F00001800E1514120047
:100A1000F70EDBCF18F0F80EDBCF19F01200050E41
:100A2000DB50E66ED950130F01D9E552E750EE6E58
:100A3000ED6A12000A0EDBCF06F00B0EDBCF07F0DB
:100A40000C0EDBCF08F00D0EDBCF09F01200DBCF70
:100A5000E6FF150EDBCFE6FF050EDB50E552E7247F
:100A6000E552E7241200DB50CED8010EF36E060EDD
:100A7000F3CFDBFF1200EE50EFCFEAFFE96E16C0B6
:100A8000EEFF17C0EEFF18C0EEFF1200D9CFE6FF51
:100A9000DACFE6FFE1CFD9FFE2CFDAFF1200DFCFF6
:100AA000E6FFE66A4CEC11F0E552E552F350120015
:100AB000E76E080EE7CFDBFF1200EECF14F0EECFAB
:100AC00015F0EFCF16F0176A1200050EDBCF14F009
:100AD000150EDB50D88014541200010EDBCF16F037
:100AE000020EDBCF17F0186A1200E552E5CFDAFFED
:100AF000E7CFD9FF12000A0E14C0DBFF0B0E15C0A2
:100B0000DBFF1200D9500A0F16EF06F0F36E070E46
:100B1000F3CFDBFF1200EECF14F0EFCF15F0120091
:100B2000010EDB2A020E1200FC0EDBCFE6FFFD0EEB
:100B3000DBCFE6FF1200145E000E155AF70E14C04C
:100B4000DBFFF80E15C0DBFF14C0E9FF15C0EAFF9C
:100B50001200DA20EA6EEF2AEECFF6FF000EEF2247
:100B6000EECFF7FFEF22EECFF8FF1200040EDBCF3F
:100B7000E6FF130EDB50E552E75C9ADFDB5004DF43
:100B8000060EDB501200090EDB500A0DF350DF2475
:100B9000D00FE76E090EE7CFDBFFAEEF04F0DB50BE
:100BA000F36E050EDCEF04F0F70EDBCF14F0F80E59
:100BB000DBCF15F01200DFCFE6FFB8EF04F028DF3F
:100BC000030EECDE5DEF05F00AEC00F0E552E552B5
:100BD000E552E55200091200BDDEEE50EFCFEAFF0C
:100BE000E96E010E1200130EDB50F36E040EDCEF03
:100BF00004F0040EDB50F36E090EDCEF04F0DBCFE3
:100C0000E6FFB8EF04F0E76E050EE7CFDBFF12005A
:100C10008BDFDBEF05F0DBCFE6FF86DFE4EF05F0EF
:100C2000D950F90FE96EFF0EA9EF05F0E96E000E3D
:060C3000DA20EA6E12005A
:0A0C3600D9CFE6FFE1CFD9FF020E8F
:100C4000E126DE6ADD6A938A8A9A939A300EE66E0E
:100C50009AEC11F0E552938A180EE66E9AEC11F0B8
:100C6000E5528150200B200A01E0010E146E156A36
:100C700014BE156814C0DEFF15C0DDFFDF50146E12
:100C8000020EE15C02E2E16AE552E16E1450E552C7
:100C9000E7CFD9FF1200D9CFE6FFE1CFD9FFE65267
:100CA000DF6ADFCF14F0080EE76E1418E8AE02D04A
:100CB000E73402D0E750145C22E28A9A939A010E3C
:100CC000E66E9AEC11F0E552FE0EDB50010BE8B037
:100CD000938AE8A0939A050EE66E9AEC11F0E5521D
:100CE000938A020EE66E9AEC11F0E552FE0EDB409E
:100CF0007F0BE76EFE0EE7CFDBFFDF2AD2D7E55290
:100D0000E552E7CFD9FF1200D9CFE6FFE1CFD9FFF7
:100D1000020EE126DF6A010EDB6A010EDBCF14F062
:100D2000080EE76E1418E8AE02D0E73402D0E750A0
:100D3000145C24E28A9A939A00000000938A0000CF
:100D400000000000000000000000000000008150D2
:100D5000200B01E0010EF36E010EDB5004E0D89091
:100D6000F336E806FCE1F350DF10DF6E050EE66EA9
:100D70009AEC11F0E552010EDB2ACFD7DF5000D0FC
:100D8000146E020EE15C02E2E16AE552E16E14507B
:100D9000E552E7CFD9FF120000000000000000007C
:100DA0000000000000000000000000000000000043
:100DB0000000000000000000000000001200050E0E
:100DC000E66E5EEC11F0E55212000F0EE66E5EEC80
:100DD00011F0E5521200280EE66ED9EC0DF0E55246
:100DE00004EC11F00009FCE1060EE66E2DEC10F0AB
:100DF000E55204EC11F00009FCE11200E66A92EC05
:100E00000FF0E55204EC11F00009FCE1C50EE66EAE
:100E1000000EE66E53EC10F0E552E55204EC11F0D2
:100E20000009FCE1120007DFCC0EE66E34DFE5526C
:100E30004E0EE66E30DFE552E66A2DDFE552E66AD9
:100E40002ADFE5525F0EE66E26DFE5521200F3DE82
:100E5000CC0EE66E20DFE552440EE66E1CDFE55256
:100E6000280EE66E1FEC11F0E552E5DECC0EE66EC4
:100E700012DFE552BE0EE66E0EDFE55245DF0001E1
:100E8000C36F42DF0001C46F12000001C3390F0BB2
:100E90000001816F826B0001C439F00B0001836F88
:100EA000846BE8508111856F84518211866F120026
:100EB0000001C3A118D00C6A0D6A800E0E6E3D0EA3
:100EC0000F6E93C007F094C008F095C009F096C06B
:100ED0000AF05DEC0BF007C093F008C094F009C075
:100EE00095F00AC096F00001C3A317D00C6A0D6AF2
:100EF0000E6A3E0E0F6E93C007F094C008F095C0C6
:100F000009F096C00AF05DEC0BF007C093F008C042
:100F100094F009C095F00AC096F00001C3A518D05E
:100F20000C6A0D6A800E0E6E3E0E0F6E93C007F0B7
:100F300094C008F095C009F096C00AF05DEC0BF083
:100F400007C093F008C094F009C095F00AC096F06D
:100F50000001C3A717D00C6A0D6A0E6A3F0E0F6E10
:100F600093C007F094C008F095C009F096C00AF04D
:100F70005DEC0BF007C093F008C094F009C095F049
:100F80000AC096F00C6A0D6A7A0E0E6E440E0F6E51
:100F900093C007F094C008F095C009F096C00AF01D
:100FA00046EC0CF0F7EC0CF008C087F009C088F0B4
:100FB0001200D9CFE6FFE1CFD9FFFD0EDBCF8BF0DA
:100FC000FE0EDBCF8CF0640E0D6E0E6A8BC008F047
:100FD0008CC009F0B3EC0CF008C08BF009C08CF0A9
:100FE000FD0EDBCF14F0FE0EDBCF15F0640E086EA5
:100FF000096A8BC00DF08CC00EF0D9EC0CF000012A
:101000000650145C8D6F075015588E6F0A0E0D6ECA
:101010000E6A8DC008F08EC009F036EC11F008C0E1
:101020008DF009C08EF0FD0EDBCF16F0FE0EDBCF8B
:1010300017F0640E086E096A8BC00DF08CC00EF0BC
:10104000D9EC0CF00650165C146E07501758156E4C
:101050000A0E086E096A8DC00DF08EC00EF0D9EC34
:101060000CF000010650145C8F6F07501558906FFC
:10107000050E8F5D000E905903E38D2B000E8E231D
:10108000050E8D5D000E8E5903E38B2B000E8C2315
:101090008BC0A3F08CC0A4F08BC0F3FF8CC0F4FF16
:1010A000E552E7CFD9FF1200F80E0001C415000188
:1010B000896F8A6BE8508A110FE18051E66EE66A0B
:1010C000A1C0E6FFA2C0E6FF9FC0E6FFA0C0E6FF0A
:1010D000700E146E210E0ED08051E66EE66A8BC043
:1010E000E6FF8CC0E6FF85C0E6FF86C0E6FF610E26
:1010F000146E210E156E166A14C0E6FFE66E16C059
:10110000E6FFC50EE66E000EE66E40EC0EF0176EC2
:101110000B0EE15E175012000001936B946B956B00
:10112000966B856B866B876B886B896B8A6B1200FD
:101130000001916B926B77DE0001050E911901E1C0
:10114000925161E084DEA1DEB3DE87C0E6FF88C095
:10115000E6FF2FDFE552E552F3CF87F0F4CF88F0BA
:10116000000185519B2786519C23F350A527F450FD
:10117000A623A63511E2A5510908000EA6550CE2DA
:101180009B2B000E9C23A5C09DF0A6C09EF00A0ECE
:101190009D5F000E9E5B04D0A5C09DF0A6C09EF092
:1011A000BBDF010EE66E2DEC10F0E55204EC11F001
:1011B0000009FCE191C0E6FF92C0E6FF580E146EF4
:1011C000210E156E166A14C0E6FFE66E16C0E6FF25
:1011D000C50EE66E000EE66E40EC0EF0176E070EC2
:1011E000E15E1750C50EE66E000EE66E53EC10F091
:1011F000E552E55204EC11F00009FCE10001912BED
:10120000000E922399D79DC008F09EC009F049ECCA
:101210000BF007C014F008C015F009C016F00AC0A2
:1012200017F091C01CF092C01DF00A0E1D02F3CF02
:101230001DF01C02F3CF1CF0F4501D26F3CF08F074
:101240001DC009F049EC0BF007C018F008C019F0F8
:1012500009C01AF00AC01BF007C00CF008C00DF05E
:1012600009C00EF00AC00FF014C007F015C008F056
:1012700016C009F017C00AF0F3EC0BF007C0A7F096
:1012800008C0A8F009C0A9F00AC0AAF09BC008F0E5
:101290009CC009F091C00DF092C00EF0B3EC0CF0C0
:1012A00049EC0BF007C0ABF008C0ACF009C0ADF0E2
:1012B0000AC0AEF0F7EC0CF008C0B5F009C0B6F00B
:1012C00049EC0BF007C014F008C015F009C016F087
:1012D0000AC017F007C00CF008C00DF009C00EF0EE
:1012E0000AC00FF0ABC007F0ACC008F0ADC009F009
:1012F000AEC00AF05CEC0BF007C0B7F008C0B8F065
:1013000009C0B9F00AC0BAF007C00CF008C00DF06F
:1013100009C00EF00AC00FF0A7C007F0A8C008F07F
:10132000A9C009F0AAC00AF05DEC0BF007C0AFF04D
:1013300008C0B0F009C0B1F00AC0B2F00C6A0D6A82
:101340007A0E0E6E440E0F6E46EC0CF0F7EC0CF0BD
:1013500008C0B3F009C0B4F0B5C097F0B6C098F0BB
:1013600008C099F009C09AF008C0E6FF09C0E6FF7E
:1013700020DEE552E552F3CF99F0F4CF9AF0120057
:101380000001BF2B000EC02385519B2786519C2353
:101390008751A5278851A623A63511E2A551090832
:1013A000000EA6550CE29B2B000E9C23A5C09DF0C1
:1013B000A6C09EF00A0E9D5F000E9E5B04D0A5C0E5
:1013C0009DF0A6C09EF09DC008F09EC009F049ECBB
:1013D0000BF007C014F008C015F009C016F00AC0E1
:1013E00017F0BFC01CF0C0C01DF00A0E1D02F3CFE5
:1013F0001DF01C02F3CF1CF0F4501D26F3CF08F0B3
:101400001DC009F049EC0BF007C018F008C019F036
:1014100009C01AF00AC01BF007C00CF008C00DF09C
:1014200009C00EF00AC00FF014C007F015C008F094
:1014300016C009F017C00AF0F3EC0BF007C0A7F0D4
:1014400008C0A8F009C0A9F00AC0AAF09BC008F023
:101450009CC009F0BFC00DF0C0C00EF0B3EC0CF0A2
:1014600049EC0BF007C0ABF008C0ACF009C0ADF020
:101470000AC0AEF0F7EC0CF008C0B5F009C0B6F049
:1014800049EC0BF007C014F008C015F009C016F0C5
:101490000AC017F007C00CF008C00DF009C00EF02C
:1014A0000AC00FF0ABC007F0ACC008F0ADC009F047
:1014B000AEC00AF05CEC0BF007C0B7F008C0B8F0A3
:1014C00009C0B9F00AC0BAF007C00CF008C00DF0AE
:1014D00009C00EF00AC00FF0A7C007F0A8C008F0BE
:1014E000A9C009F0AAC00AF05DEC0BF007C0AFF08C
:1014F00008C0B0F009C0B1F00AC0B2F00C6A0D6AC1
:101500007A0E0E6E440E0F6E46EC0CF0F7EC0CF0FB
:1015100008C0B3F009C0B4F0B5C09FF0B6C0A0F0E9
:1015200008C0A1F009C0A2F008C0E6FF09C0E6FFAC
:1015300040DDE552E552F3CFA1F0F4CFA2F0120066
:10154000400EE66E92EC0FF0E55204EC11F000094B
:10155000FCE199C0E6FF9AC0E6FF97C0E6FF98C09D
:10156000E6FF87C0E6FF88C0E6FF85C0E6FF86C0CD
:10157000E6FF480E146E210E156E166A14C0E6FFC3
:10158000E66E16C0E6FFC50EE66E000EE66E40EC97
:101590000EF0176E0D0EE15E1750C50EE66E000ED2
:1015A000E66E53EC10F0E552E552100EE66E92EC4A
:1015B0000FF0E55204EC11F00009FCE1BFC0E6FFBA
:1015C000C0C0E6FF3F0E146E210E156E166A14C0E1
:1015D000E6FFE66E16C0E6FFC50EE66E000EE66E8E
:1015E00040EC0EF0176E070EE15E1750C50EE66E6A
:1015F000000EE66E53EC10F0E552E552500EE66E2A
:1016000092EC0FF0E55204EC11F00009FCE19BC0F4
:10161000E6FF9CC0E6FF380E146E210E156E166AAA
:1016200014C0E6FFE66E16C0E6FFC50EE66E000EBD
:10163000E66E40EC0EF0176E070EE15E1750C50E19
:10164000E66E000EE66E53EC10F0E552E552120025
:10165000EBEC06F06DDD28DDFEEC06F071DF5CDD05
:1016600027EC07F012DC24DC87C0E6FF88C0E6FF29
:10167000A0DCE552E552F3CF87F0F4CF88F080DEAE
:0E16800013DDFEEC06F05CDFEAD7030012007B
:02168E00019EBB
:1016900008D0019E09AE05D0086C091EE86A09222F
:1016A000018E09C003F008C002F0136A126A8E0EA0
:1016B000046E056A42EF0DF00F7E016A7EEC0DF0BC
:1016C00096EC0DF001B626EF0DF001A20AD001AAAA
:1016D00003D001BE26EF0DF001A432EF0DF02FEF85
:1016E0000DF001AA05D001AC32EF0DF02FEF0DF097
:1016F00001A00AD001A808D001BE04D001A402D0E4
:101700003BEF0DF03FEF0DF0126A056A0F500A5CD7
:10171000116E10E307C013F008C002F009C003F017
:101720000AC010F00CC007F00DC008F00EC009F0A0
:10173000013A09D00CC013F00DC002F00EC003F046
:101740000FC010F0116C019E01BC018E10C004F09E
:1017500001B06EEF0DF01A0E11606EEF0DF0046A1D
:101760000A6A01A408D0076C081E091E0A1EE86A4E
:10177000082209220A2201AC08D0136C021E031EA3
:10178000041EE86A022203220422066A115207E0BC
:101790000A340932083207320632112EF9D70750BF
:1017A000132608500222095003220A50042206C0C0
:1017B00012F0019E04AE0BD0126C131E021E031E0B
:1017C000041EE86A1322022203220422018E04A0CE
:1017D00006D0D8800332023213321232102A10C0DF
:1017E00004F042EF0DF0016A7EEC0DF096EC0DF086
:1017F00001B626EF0DF001A205D001BA26EF0DF0DB
:101800002DEF0DF001BA39EF0DF001A005D001B8B0
:1018100026EF0DF039EF0DF001B82DEF0DF0056A50
:101820007F0E0A24046EE86A05220F50045EE86AFF
:10183000055A1A0E106E0A6A126A136A026A036A5D
:101840000C50075E0D50085A0E50095A000E0A5AE5
:1018500009E70C5007260D5008220E500922000EF1
:101860000A2201D0128AD8900736083609360A367D
:10187000D8901236133602360336102EE1D70950AF
:1018800008100710D8A4128A42EF0DF0016A7EEC0E
:101890000DF096EC0DF001B626EF0DF001A205D08B
:1018A00001B826EF0DF02DEF0DF001AA05D001B023
:1018B00026EF0DF02DEF0DF001B002D001A802D0FF
:1018C00039EF0DF0056A0F500A24046EE86A05220C
:1018D0007E0E045EE86A055A126A136A026A036A97
:1018E0000E500902F4CF03F0F3CF02F00D500902BD
:1018F000F3501326F4500222000E03220E50080269
:10190000F3501326F4500222000E03220C50090259
:10191000F3501226F4501322000E022203220D501F
:101920000802F3501226F4501322000E0222032262
:101930000E500702F3501226F4501322000E02221A
:1019400003220C500802F4501226000E1322022229
:1019500003220D500702F4501226000E1322022219
:10196000032242EF0DF0006A0EAEBCEF0CF00D6CDE
:101970000E1EE86A0E22001E09AEC4EF0CF0086CC1
:10198000091EE86A0922001E36EC11F009BED4EFE8
:101990000CF000AE000C086C091EE86A0922046C09
:1019A000051EE86A0522000C00BECBEF0CF0018892
:1019B000FF0C08C012F008500D02F4CF07F0F3CF6F
:1019C00006F009500E02F4CF09F0F3CF08F00D0233
:1019D000F3500726F4500822E86A092212500E023A
:1019E000F3500726F4500822E86A0922000C016A25
:1019F0007EEC0DF001B601EF0DF001A20ED001B4A6
:101A000005D07F0E096EFF0E086E1FD0800E096E86
:101A1000086A1BD0096A086A18D001B0FBD78F0E7C
:101A20000A60EDD77E0E0A64F5D78E0E0A5C05E0DB
:101A3000D890093208320A2AF8D701A406D0086CD7
:101A4000091EE86A092209AEE5D712007F0E0A6E68
:101A5000FF0E096E086E076E12007F0E01BEFF0EAC
:101A60000A6E02D07F0E0A6E800E096E086A076A3F
:101A7000F3D701AE04D0800E0A6E096AF7D70A6A5E
:101A8000096AF4D70350021013101210F8E005BED3
:101A9000F0D703BE0CD004500510EBE0D8901236FE
:101AA0001336023603360406D8A00506F2D70550D1
:101AB000D4E10428D2E012AE11D07F0E121402E15C
:101AC00013A00CD0132AE86A0222032207E3D8806D
:101AD000033202321332042A0428BFE00450C9E062
:101AE00013C007F002C008F00334096E04300A6E18
:101AF00009320A9E01BE0A8E2CEF0DF009360A3615
:101B000002E30184017E06E101800A6A096A086A2B
:101B1000076A12000A2803E0D88009321200D89020
:101B2000093202E101821200018612000E360F36E0
:101B300002E3018C017E06E101880F6A0E6A0D6ADC
:101B40000C6A12000F2803E0D8800E321200D890E1
:101B50000E32EAE1018A120009C013F008C012F047
:101B600008500D02F4CF07F0F3CF06F009500E0233
:101B7000F4CF09F0F3CF08F00D02F3500726F4502C
:101B80000822E86A092212500E02F3500726F45088
:101B90000822E86A09220EAED2EF0DF01250085E5C
:101BA0001350095A13AE000C0D50085E0E50095A1E
:021BB000000C27
:0E1BB200D9CFE6FFE1CFD9FF0F0E83169516AF
:101BC0009594959295908C948C928C90E5EC06F07F
:101BD000300EE66E2DEC10F0E552050EE66E1FECB1
:101BE00011F0E552300EE66E2DEC10F0E552010ECC
:101BF000E66E1FEC11F0E552320EE66E2DEC10F0A1
:101C0000E55204EC11F00009FCE104EC11F00009CC
:101C1000FCE1FE0EDBCFE6FF2DEC10F0E55204EC0C
:101C200011F00009FCE1080EE66E2DEC10F0E55213
:101C300004EC11F00009FCE10F0EE66E2DEC10F043
:101C4000E55204EC11F00009FCE1010EE66E2DEC0A
:101C500010F0E55204EC11F00009FCE1040EE66E10
:101C60002DEC10F0E55204EC11F00009FCE1800EBF
:101C7000E66E92EC0FF0E552E552E7CFD9FF120085
:101C8000D9CFE6FFDACFE6FFE1CFD9FFE2CFDAFF27
:101C9000E652E652E652E652D950F90F146EFF0EA4
:101CA000DA20156E020E14C0DBFF030E15C0DBFF39
:101CB000020EDBCFE6FF030EDBCFE6FFF90EDBCF34
:101CC000E6FFFA0EDBCFE6FFFB0EDBCFE6FFD950D7
:101CD000FC0FE66EFF0EDA20E66E20EC00F0146ECC
:101CE000070EE15C02E2E16AE552E16E1450F3CFC7
:101CF000DEFFF4CFDDFFFC0EDBCFE9FFFD0EDBCF17
:101D0000EAFFEF6ADECF14F0DDCF15F014C0F3FF69
:101D100015C0F4FF040EE15C02E2E16AE552E16EF7
:0C1D2000E552E5CFDAFFE7CFD9FF120053
:041D2C00060EF66E3B
:101D3000000EF76E000EF86E00010900F550DE6F20
:101D40000900F550DF6F03E1DE6701D03DD00900E7
:101D5000F550D96F0900F550DA6F0900F550DB6FC7
:101D600009000900F550E96E0900F550EA6E090016
:101D700009000900F550DC6F0900F550DD6F09001E
:101D80000900F6CFE0F0F7CFE1F0F8CFE2F0D9C0EC
:101D9000F6FFDAC0F7FFDBC0F8FF0001DC5302E119
:101DA000DD5307E00900F550EE6EDC07F8E2DD07D1
:101DB000F9D7E0C0F6FFE1C0F7FFE2C0F8FF00018D
:0A1DC000DE07000EDF5BBFD7120044
:061DCA00D9CFE6FFDACFDD
:101DD000E6FFE1CFD9FFE2CFDAFFFB0EDBCF14F055
:101DE000FC0EDBCF15F00001800E15141AE1FB0E7E
:101DF000DBCFE9FFFC0EDBCFEAFFEECFF3FFEDCF49
:101E0000F4FFEE2A000EEF22F3CFE9FFF4CFEAFF52
:101E1000FD0EDBCFEFFFEF50156AF36E15C0F4FF38
:101E200010D0FB0EDB50FE0806E1FD0EDBCFE6FF17
:101E30008CEC11F005D0FD0EDBCFE6FFAEEC11F01F
:0E1E4000E552E552E5CFDAFFE7CFD9FF1200F9
:021E4E0006503C
:101E50000B02F3CF02F0F4CF03F00C02F350032691
:101E6000000EF420046E06500D02F3500426000EFE
:101E7000F420056E06500E02F350052607500B02A3
:101E8000F3500326F4500422000E052207500C02E2
:101E9000F3500426F450052207500D02F350052696
:101EA00008500B02F3500426F450052208500C028F
:0E1EB000F350052609500B02F35005261200D0
:021EBE00FE0E16
:101EC000E3CFE9FFFF0EE3CFEAFFF36AF46AEE52D5
:101ED00003E0F34AF42AFBD71200FF0EE3CFF8FF2A
:101EE000E552FF0EE3CFF7FFE552FF0EE3CFF6FF1B
:101EF000E552E66AE66AE66A0900F55209E0FD0E77
:101F0000E32A05E1FE0EE32A02E1FF0EE32AF4D7FD
:101F1000FD0EE3CF07F0FE0EE3CF08F0FF0EE3CF98
:041F200009F01200B2
:0C1F2400D9CFE6FFE1CFD9FF0F0E9516D4
:101F30008316FE0EDB508009F00B83128C948C927A
:101F4000CCEC06F08C80CCEC06F08C900F0E831657
:101F5000FE0EDB38F00BF00B8312CCEC06F08C801D
:101F6000CCEC06F08C90F00E9512E552E7CFD9FF3D
:021F700012005D
:0E1F7200D9CFE6FFE1CFD9FF0F0E95168316EB
:101F8000FE0EDB504009F00B83128C948C92CCEC4B
:101F900006F08C80CCEC06F08C900F0E8316FE0EB3
:101FA000DB38F00BF00B8312CCEC06F08C80CCEC21
:101FB00006F08C90F00E9512E552E7CFD9FF120093
:101FC000D9CFE6FFE1CFD9FFFD0EDBCFF6FFFE0E46
:101FD000DBCFF7FF0800F55016E004EC11F0000924
:101FE000FCE1FD0EDBCFF6FFFE0EDBCFF7FF0800B6
:101FF000F550E66E07EC10F0E552FD0EDB2AFE0E02
:0E200000E3E3DB2AE1D7E552E7CFD9FF120078
:02200E00D9CF28
:10201000E6FFE1CFD9FF0F0E95168316FE0EDB50BB
:10202000F00B83128C828C94CCEC06F08C80CCEC80
:1020300006F08C900F0E8316FE0EDB38F00BF00BC3
:102040008312CCEC06F08C80CCEC06F08C90F00E79
:0A2050009512E552E7CFD9FF120008
:06205A00D9CFE6FFE1CF43
:10206000D9FF0F0E95168316FE0EDB50F00B831270
:102070008C948C92CCEC06F08C80CCEC06F08C909E
:102080000F0E8316FE0EDB38F00BF00B8312CCEC38
:1020900006F08C80CCEC06F08C90F00E9512E55298
:0620A000E7CFD9FF12009A
:0A20A600D9CFE6FFE1CFD9FFFD0E10
:1020B000DBCFE9FFFE0EDBCFEAFFEF5015E004ECCB
:1020C00011F00009FCE1FD0EDBCFE9FFFE0EDBCFD6
:1020D000EAFFEF50E66E07EC10F0E552FD0EDB2A4A
:1020E000FE0EE5E3DB2AE3D7E552E7CFD9FF120086
:1020F000056A046A036A026A200EE76ED890063603
:1021000007360836093602360336043605360B50D4
:10211000025C0C5003580D5004580E50055809E34A
:102120000B50025E0C50035A0D50045A0E50055AC3
:08213000062AE72EE4D7120095
:0821380053756D3A2564004364
:102140006F756E743A256400543A25642E25642C0C
:10215000413A25642E25640054696D653A20256452
:102160000054656D703A2D25642E25642563430067
:0F21700054656D703A2B25642E2564256343005A
:10218000D9CFE6FFE1CFD9FFE6528C848C82CCEC2C
:1021900006F08C80CCEC06F0F00E8314DF6E8C9091
:1021A000CCEC06F08C80CCEC06F083380F0B0F0BD8
:1021B000DF128C908C928C94DF50E552E552E7CF81
:0421C000D9FF120031
:0C21C400D9CFE6FFE1CFD9FFE6528C84B2
:1021D0008C92CCEC06F08C80CCEC06F0F00E8314E4
:1021E000DF6E8C90CCEC06F08C80CCEC06F0833863
:1021F0000F0B0F0BDF128C908C947F0EDF14E552C7
:08220000E552E7CFD9FF1200FF
:082208008C848C92CCEC06F0F2
:102210008C80CCEC06F083AE09D08C90CCEC06F030
:102220008C80CCEC06F08C908C94010C8C90CCECD7
:0E22300006F08C80CCEC06F08C908C94000CA8
:02223E00FF0E91
:10224000E3501F6EEF0E01D0F30EE76EE72E26EF80
:1022500011F00C0E1E6EE76AE72E2CEF11F01E2E09
:0C2260002BEF11F01F2E24EF11F01200E4
:04226C00056A046A91
:10227000100EE76ED89008360936043605360D5034
:10228000045C0E50055805E30D50045E0E50055ACF
:08229000082AE72EF0D7120026
:08229800F36AF46AFF0EE12471
:1022A000E96EFF0EE220EA6EED6607D02F0EEF64B6
:0C22B00004D03A0EEF6001D0F32A1200B7
:0422BC00FF0EE350DE
:1022C0001F6E480E01D04C0EE76EE72EFED7E76A70
:0C22D000E72EFED71F2EF7D700001200EB
:0422DC00000EF36E8F
:1022E00000EE00F0060E01D81200EA6002D0EE6A9D
:0C22F000FCD7F350E9601200EE6AFCD746
:0422FC0015EE00F0EB
:1023000025EE00F0F86A019C96EC0EF0AFEC11F0AF
:0823100028EC0BF0FBD71200D2
:08231800FF0EE350ACBA04D043
:10232000AF6AAB8EAC8A949CACA2FED7AD6EF36E56
:04233000F46A120039
:0C233400FF0EE350E84E1200000000D045
:0A23400000D000D0E82EFAD71200FA
:06234A003031323334355E
:0B23500036373839616263646566004F
:02235C0012006D
:02235E0012006B
:10236000DF0000000000000000000000000000008E
:10237000000000000000000000000000000000005D
:10238000000000000000000000000000000000004D
:102390000000000000000000000000000000000538
:0323A0000000003A
:020000040030CA
:0100010021DD
:010003000EEE
:010006008178
:00000001FF
