:020000040000FA
:060000003DEF02F01200CA
:020006000000F8
:080008000F9E08D00F9E07AE09
:1000100005D0066C071EE86A07220F8E07C001F0A4
:1000200006C000F0136A126A8E0E026E036AD1EFE8
:1000300000F00F6A0DEC01F025EC01F00FB6B5EF02
:1000400000F00FA205D00FB8B5EF00F0BCEF00F044
:100050000FAA05D00FB0B5EF00F0BCEF00F00FB065
:1000600002D00FA802D0C8EF00F0036A0D50082498
:10007000026EE86A03227E0E025EE86A035A126A82
:10008000136A006A016A0C500702F4CF01F0F3CF43
:1000900000F00B500702F3501326F4500022000E1C
:1000A00001220C500602F3501326F4500022000ED9
:1000B00001220A500702F3501226F4501322000EB8
:1000C000002201220B500602F3501226F450132294
:1000D000000E002201220C500502F3501226F450AB
:1000E0001322000E002201220A500602F4501226AA
:1000F000000E1322002201220B500502F45012269A
:10010000000E132200220122D1EF00F00F6A0DEC45
:1001100001F00FB690EF00F00FA20ED00FB405D093
:100120007F0E076EFF0E066E1FD0800E076E066AEA
:100130001BD0076A066A18D00FB0FBD78F0E086075
:10014000EDD77E0E0864F5D78E0E085C05E0D890DA
:1001500007320632082AF8D70FA406D0066C071E0D
:10016000E86A072207AEE5D712007F0E086EFF0E81
:10017000076E066E056E12007F0E0FBEFF0E086E34
:1001800002D07F0E086E800E076E066A056AF3D7EE
:100190000FAE04D0800E086E076AF7D7086A076AA8
:1001A000F4D70150001013101210F8E003BEF0D77E
:1001B00001BE0CD002500310EBE0D890123613367B
:1001C000003601360206D8A00306F2D70350D4E168
:1001D0000228D2E012AE11D07F0E121402E113A059
:1001E0000CD0132AE86A0022012207E3D8800132EA
:1001F00000321332022A0228BFE00250C9E013C0C5
:1002000005F000C006F00134076E0230086E0732B8
:10021000089E0FBE088EBBEF00F00736083602E3DB
:100220000F840F7E06E10F80086A076A066A056A76
:100230001200082803E0D88007321200D890073255
:1002400002E10F8212000F8612000C360D3602E317
:100250000F8C0F7E06E10F880D6A0C6A0B6A0A6A22
:1002600012000D2803E0D8800C321200D8900C3216
:06027000EAE10F8A120012
:0A027600070EE66E8E0EE66E09EC30
:1002800002F0E552E552010EE66E4BEC02F0E5524B
:1002900067EC02F05FEC02F0000901E0FBD756ECDE
:1002A00002F0F3CF8AF0F4CF8BF0980E146E6E0E3E
:1002B000156ED20E166E3E0E176E8AC006F08BC0FB
:1002C00007F006EC00F005C018F006C019F007C0F2
:1002D0001AF008C01BF018C00AF019C00BF01AC0C1
:1002E0000CF01BC00DF014C005F015C006F016C0D0
:1002F00007F017C008F019EC00F086EC00F006C01B
:100300008CF007C08DF08D0E146E970E156E6E0E6C
:10031000166E3E0E176E8CC006F08DC007F006EC10
:1003200000F005C018F006C019F007C01AF008C0A8
:100330001BF018C00AF019C00BF01AC00CF01BC05B
:100340000DF014C005F015C006F016C007F017C078
:1003500008F019EC00F086EC00F006C08EF007C043
:100360008FF064EC02F0010EE66E4BEC02F0E55209
:040370000300120074
:0C037400060EF66E000EF76E000EF86E1E
:1003800000010900F550856F0900F550866F03E103
:10039000856701D03DD00900F550806F0900F55008
:1003A000816F0900F550826F09000900F550E96E70
:1003B0000900F550EA6E090009000900F550836F45
:1003C0000900F550846F09000900F6CF87F0F7CFD8
:1003D00088F0F8CF89F080C0F6FF81C0F7FF82C0B7
:1003E000F8FF0001835302E1845307E00900F55050
:1003F000EE6E8307F8E28407F9D787C0F6FF88C05E
:10040000F7FF89C0F8FF00018507000E865BBFD7A4
:020410001200D8
:0E041200D9CFE6FFDACFE6FFE1CFD9FFE2CF88
:10042000DAFFC26AFD0EDB50C16EFC0EDB50380BEA
:10043000146EFD0EDB50040DF350C00B1410C26E91
:10044000FC0EDBAE03D09E9C9D8CF28CC280E552EC
:0A045000E5CFDAFFE7CFD9FF120075
:06045A00000EF36E00EE3F
:1004600000F0060E01D81200EA6002D0EE6AFCD756
:0A047000F350E9601200EE6AFCD7B9
:06047A0015EE00F025EE76
:1004800000F0F86A0F9CBAEC01F069EC02F03BEC6A
:0604900001F0FBD7120091
:0A049600FF0EE350E84E12000000D4
:0C04A00000D000D000D0E82EFAD71200E7
:0404AC00C450176EB3
:0E04B000166AC3501610F36E17C0F4FF120048
:0204BE00C2502A
:0804C000040B01E0010E120023
:0604C800C2909D9C120091
:0204CE00C284E6
:0204D000120018
:0204D200120016
:020000040030CA
:0100010021DD
:010003000EEE
:010006008178
:00000001FF
