:020000040000FA
:060000007BEF01F012008D
:020006000000F8
:080008008082010EE66E89EC16
:1000100001F0E5528092010EE66E89EC01F0E552A6
:100020001200D9CFE6FFE1CFD9FF020EE126DE6A4A
:10003000DD6ADECF00F0DDCF01F0D890015004E69C
:10004000100E005C000E01581DE2FD0EDBCF02F029
:10005000FE0EDBCF03F0DF5002C000F003C001F062
:1000600005E0D89001320032E804FBE1010E0014F3
:10007000E8B08080E8A08090C7DFDF2A010ED9E3D6
:10008000DB2AD7D7020EE15C02E2E16AE552E16EBB
:10009000E552E7CFD9FF12008396040EE66E97EC87
:1000A00001F0E552838612008386828612008296D2
:1000B00012001200D9CFE6FFE1CFD9FF800EE76E24
:1000C000FD0EDBCF00F0E75000160050E8B0828054
:1000D000E8A08290400EE76EFD0EDBCF00F0E75007
:1000E0000016016A0050E8B08484E8A08494200ED1
:1000F000E76EFD0EDBCF00F0FE0EE7500016016A42
:100100000050E8B08482E8A08492100EE76EFD0EE5
:10011000DBCF00F0FE0EE7500016016A0050E8B099
:100120008480E8A08490080EE76EFD0EDBCF00F01F
:10013000FE0EE7500016016A0050E8B0808AE8A081
:10014000809A040EE76EFD0EDBCF00F0FE0EE75046
:100150000016016A0050E8B08088E8A08098020E7E
:10016000E76EFD0EDBCF00F0FE0EE7500016016AD1
:100170000050E8B08086E8A08096010EE76EFD0E84
:10018000DBCF00F0FE0EE7500016016A0050E8B029
:100190008084E8A08094E552E7CFD9FF1200AA0E30
:1001A000E66EE66A87DFE552E552550EE66EE66ECC
:1001B00038DFE552E55270DF550EE66EE66A7ADF0B
:1001C000E552E552AA0EE66EE66E2BDFE552E552E9
:1001D00063DFA00EE66EE66A6DDFE552E552550E6E
:1001E000E66EE66E1EDFE552E5524CEF00F0D9CF29
:1001F000E6FFE552E7CFD9FF1200D9CFE6FFE1CF06
:10020000D9FFCDDFFB0EDBCFE6FFFC0EDBCFE6FF39
:10021000FD0EDBCFE6FFFE0EDBCFE6FFE8DFE552AB
:10022000E552E552E552E552E7CFD9FF120002D878
:0802300003001200926A1200A3
:08023800060EF66E000EF76ED3
:10024000000EF86E00010900F550856F0900F550A9
:10025000866F03E1856701D03DD00900F550806FBE
:100260000900F550816F0900F550826F09000900FF
:10027000F550E96E0900F550EA6E09000900090021
:10028000F550836F0900F550846F09000900F6CF1F
:1002900087F0F7CF88F0F8CF89F080C0F6FF81C0F3
:1002A000F7FF82C0F8FF0001835302E1845307E0A7
:1002B0000900F550EE6E8307F8E28407F9D787C08E
:1002C000F6FF88C0F7FF89C0F8FF00018507000E20
:0602D000865BBFD712009F
:0A02D600000EF36E00EE00F0060EBD
:1002E00001D81200EA6002D0EE6AFCD7F350E96050
:0602F0001200EE6AFCD7CB
:0A02F60015EE00F025EE00F0F86AA6
:10030000059C1CEC01F0A2EC01F017EC01F0FBD70E
:020310001200D9
:0E031200FF0EE350066E1B0E00D001D0200E31
:0E032000E76EE72EFED7062EFAD700D01200A9
:02032E00FF0EC0
:10033000E350E84E1200000000D000D000D0E82EBC
:04034000FAD71200D6
:020344001200A5
:020000040030CA
:0100010021DD
:010003000EEE
:010006008178
:00000001FF
