:020000040000FA
:060000000BEF03F01200FB
:020006000000F8
:080008008082010EE66E19EC86
:1000100003F0E5528092010EE66E19EC03F0E55212
:100020001200D9CFE6FFE1CFD9FF020EE126DE6A4A
:10003000DD6ADECF14F0DDCF15F0D890155004E660
:10004000100E145C000E15581DE2FD0EDBCF16F0ED
:10005000FE0EDBCF17F0DF5016C014F017C015F0FE
:1000600005E0D89015321432E804FBE1010E1414B7
:10007000E8B08080E8A08090C7DFDF2A010ED9E3D6
:10008000DB2AD7D7020EE15C02E2E16AE552E16EBB
:10009000E552E7CFD9FF1200D9CFE6FFE1CFD9FF74
:1000A000160EE126DE6ADD6A020EDB6A030EDB6AEB
:1000B0008050040B01E0010EE66ED950060FE96E88
:1000C000DACFEAFFE552E750EE6EED6A8050080B9A
:1000D00001E0010EE66ED950080FE96EDACFEAFFB3
:1000E000E552E750EE6EED6A8050100B01E0010E14
:1000F000E66ED9500A0FE96EDACFEAFFE552E75013
:10010000EE6EED6A8050200B01E0010EE66ED950D4
:100110000C0FE96EDACFEAFFE552E750EE6EED6ABA
:100120008450010BE66ED9500E0FE96EDACFEAFF6C
:10013000E552E750EE6EED6A8450020B01E0010ECD
:10014000E66ED950100FE96EDACFEAFFE552E750BC
:10015000EE6EED6A8450040B01E0010EE66ED9509C
:10016000120FE96EDACFEAFFE552E750EE6EED6A64
:100170008250010BE66ED950140FE96EDACFEAFF18
:10018000E552E750EE6EED6A010EF36E040EF3CF0A
:10019000DBFF050EDB6A040EDBCF14F0050EDBCFB0
:1001A00015F0153404E214508008000E155440E395
:1001B000D950060F186EDACF19F0020E086E096AD0
:1001C000DBCF0DF0030EDBCF0EF0CEEC02F01850BB
:1001D0000624E96E19500720EA6EEECF16F0EFCF35
:1001E00017F016C008F017C009F0040EDBCF0DF0B1
:1001F000050EDBCF0EF0CEEC02F007C015F0D9CF24
:10020000E9FFDACFEAFF0650EE261550ED22020E86
:10021000DB2A030E01E3DB2AD950040FE96EDACFA3
:10022000EAFF010ED890EE36ED36E806FBE1B3D7D3
:10023000DECF14F0DDCF15F014C0F3FF15C0F4FFCE
:10024000160EE15C02E2E16AE552E16EE552E7CFAB
:10025000D9FF1200D9CFE6FFE1CFD9FFFD0EDB5069
:10026000800B02E1000E01D0010EE8B08280E8A010
:100270008290FD0EDB50400B02E1000E01D0010E1A
:10028000E8B08484E8A08494FD0EDB50200B02E1EA
:10029000000E01D0010EE8B08482E8A08492FD0E29
:1002A000DB50100B02E1000E01D0010EE8B084809B
:1002B000E8A08490FD0EDB50080B02E1000E01D097
:1002C000010EE8B0808AE8A0809AFD0EDB50040B96
:1002D00002E1000E01D0010EE8B08088E8A080980D
:1002E000FD0EDB50020B02E1000E01D0010EE8B062
:1002F0008086E8A08096010EE76EFD0EDBCF14F03D
:10030000FE0EE7501416156A1450E8B08084E8A079
:100310008094E552E7CFD9FF1200839600008386D0
:1003200000D01200D9CFE6FFE1CFD9FFFB0EDBCF23
:10033000E6FFFC0EDBCFE6FF8DDFE552E552FD0E5A
:10034000DBCFE6FFFE0EDBCFE6FF6BDEE552E552CC
:10035000E4DFE552E7CFD9FF1200D9CFE6FFE1CFC6
:10036000D9FF020EE126DE6ADD6A8386829694DE7C
:10037000F3CFDEFFF4CFDDFF020EE15C02E2E16AC3
:10038000E552E16EE552E7CFD9FF1200AA0EE66E04
:10039000E66A60DFE552E552550EE66EE66E41DE36
:1003A000E552E552BADF550EE66EE66A53DFE552D6
:1003B000E552AA0EE66EE66E34DEE552E552ADDF9A
:1003C000A00EE66EE66A46DFE552E552550EE66E91
:1003D000E66E27DEE552E5528DEF01F0D9CFE6FF5C
:1003E000E1CFD9FF83868286AA0EE66EE66A32DF07
:1003F000E552E552550EE66E550EE66E12DEE552FA
:10040000E5528BDF550EE66EE66A24DFE552E552D3
:10041000AA0EE66E2A0EE66E04DEE552E5527DDF98
:10042000800EE66EE66A16DFE552E552550EE66E80
:10043000550EE66EF6DDE552E5526FDFAA0EE66E6A
:10044000E66A08DFE552E552550EE66E550EE66E99
:10045000E8DDE552E55261DF550EE66EE66AFADE4A
:10046000E552E552AA0EE66E2A0EE66EDADDE55298
:10047000E55253DF300EE66EE66AECDEE552E552F9
:10048000FD0EDBCFE6FFFE0EDBCFE6FFCADDE55259
:10049000E55243DF020EE66E27EC03F0E552000062
:1004A000000000000000000000D0E552E7CFD9FFB7
:1004B0001200D9CFE6FFE1CFD9FF8386828666DFBF
:1004C000FB0EDBCFE6FFFC0EDBCFE6FFFD0EDBCF46
:1004D000E6FFFE0EDBCFE6FF25DFE552E552E552F3
:1004E000E552020EE66E27EC03F0E552E552E7CF47
:0E04F000D9FF120002D803001200926A120017
:0204FE00060EE8
:10050000F66E000EF76E000EF86E00010900F55051
:10051000856F0900F550866F03E1856701D03DD0F6
:100520000900F550806F0900F550816F0900F55002
:10053000826F09000900F550E96E0900F550EA6E76
:10054000090009000900F550836F0900F550846F18
:1005500009000900F6CF87F0F7CF88F0F8CF89F0CF
:1005600080C0F6FF81C0F7FF82C0F8FF000183530F
:1005700002E1845307E00900F550EE6E8307F8E2CC
:100580008407F9D787C0F6FF88C0F7FF89C0F8FF56
:0C05900000018507000E865BBFD712003B
:04059C0009C013F08F
:1005A00008C012F008500D02F4CF07F0F3CF06F0A8
:1005B00009500E02F4CF09F0F3CF08F00D02F3500A
:1005C0000726F4500822E86A092212500E02F3505E
:1005D0000726F4500822E86A09220EAEF4EF02F072
:1005E0001250085E1350095A13AE000C0D50085EED
:0605F0000E50095A000C38
:0A05F600000EF36E00EE00F0060E9A
:1006000001D81200EA6002D0EE6AFCD7F350E9602C
:060610001200EE6AFCD7A7
:0A06160015EE00F025EE00F0F86A82
:10062000019C7FEC02F032EC03F07AEC02F0FBD795
:020630001200B6
:0E063200FF0EE3501A6E1B0E00D001D0200EFA
:0E064000E76EE72EFED71A2EFAD700D0120072
:02064E00FF0E9D
:10065000E350E84E1200000000D000D000D0E82E99
:04066000FAD71200B3
:02066400120082
:020000040030CA
:0100010021DD
:010003000EEE
:010006008178
:00000001FF
