:020000040000FA
:06000000F7EF00F0120012
:020006000000F8
:080008008082010EE66E05EC9A
:1000100001F0E5528092010EE66E05EC01F0E5522A
:1000200012008084050EE66E05EC01F0E552809426
:100030001200D9CFE6FFE1CFD9FF020EE126DE6A3A
:10004000DD6ADECF00F0DDCF01F0D890015004E68C
:10005000100E005C000E01581DE2FD0EDBCF02F019
:10006000FE0EDBCF03F0DF5002C000F003C001F052
:1000700005E0D89001320032E804FBE1010E0014E3
:10008000E8B08080E8A08090BFDFDF2A010ED9E3CE
:10009000DB2AD7D7020EE15C02E2E16AE552E16EAB
:1000A000E552E7CFD9FF1200D9CFE6FFE1CFD9FF64
:1000B000020EE12624D8DE6ADD6ADECF00F0DDCF55
:1000C00001F0026A0234000E021807E6D880FF0E23
:1000D0000054FF0E0154000E0254EDE3DECFE6FFA4
:1000E000DDCFE6FFA6DFE552E552010EE66ED0EC6D
:1000F00000F0E552DF2A010EE0E3DB2ADED7926A48
:020100001200EB
:0E010200060EF66E000EF76E000EF86E00018F
:100110000900F550856F0900F550866F03E185678A
:1001200001D03DD00900F550806F0900F550816F76
:100130000900F550826F09000900F550E96E0900C9
:10014000F550EA6E090009000900F550836F0900B7
:10015000F550846F09000900F6CF87F0F7CF88F0DB
:10016000F8CF89F080C0F6FF81C0F7FF82C0F8FFAA
:100170000001835302E1845307E00900F550EE6E5D
:100180008307F8E28407F9D787C0F6FF88C0F7FF36
:1001900089C0F8FF00018507000E865BBFD71200FB
:1001A000FF0EE350076EEF0E01D0F30EE76EE72E61
:1001B000D7EF00F00C0E066EE76AE72EDDEF00F0D9
:0E01C000062EDCEF00F0072ED5EF00F0120047
:0201CE00000E21
:1001D000F36E00EE00F0060E01D81200EA6002D0C5
:0E01E000EE6AFCD7F350E9601200EE6AFCD71D
:0201EE0015EE0C
:1001F00000F025EE00F0F86A059C81EC00F013ECAD
:0A02000001F054EC00F0FBD71200EF
:06020A00FF0EE350076E39
:100210001B0E00D001D0200EE76EE72EFED7072E72
:06022000FAD700D0120025
:020226001200C4
:020000040030CA
:0100010021DD
:010003000EEE
:010006008178
:00000001FF
