:020000040000FA
:0600000099EF31F012003F
:080008009EA402D007EF29F0CD
:020010001200DC
:06003A00020069630000F2
:10004000730300000A00000058630000580300001A
:04005000110000009B
:0C005400D9CFE6FFDACFE6FFE1CFD9FFFD
:10006000E2CFDAFFE652E652E652370EE66EE66A75
:100070004DEC2AF0E552E552F3CFDEFFF4CFDDFF81
:10008000D9CFE9FFDACFEAFFEE50ED102FE0F70EFF
:10009000DBCFE6FFF80EDBCFE6FF4DEC2AF0E552B2
:1000A000E552F3CF0BF0F4CF0CF0DECFE9FFDDCF5C
:1000B000EAFF170EE926000EEA22F3CFEEFF0CC08E
:1000C000EDFFDECFE9FFDDCFEAFF170EE926000ED8
:1000D000EA22EE50ED100AE1DECFE6FFDDCFE6FFCB
:1000E000DCEC2BF0E552E552DE6ADD6AD9CFE9FFA0
:1000F000DACFEAFFEE50ED104BE0000EE66EE66A56
:10010000DECFE6FFDDCFE6FFF20EDBCFE6FFF30E3C
:10011000DBCFE6FFF40EDBCFE6FFF50EDBCFE6FF2D
:10012000F60EDBCFE6FFF70EDBCF0BF0F80EDBCFE2
:100130000CF00D6A0E6A0BC0E6FF0CC0E6FF0DC0A6
:10014000E6FF0EC0E6FFF90EDBCFE6FFFA0EDBCFCF
:10015000E6FFFB0EDBCFE6FFFC0EDBCFE6FFFD0E7E
:10016000DBCFE6FF21D80F6E120EE15C02E2E16AFE
:10017000E552E16E0F50DECFE6FFDDCFE6FFCCD9D2
:10018000E552E552010EF36E020EF3CFDBFF02D013
:10019000020EDB68DB50E552E552E552E552E5CF51
:1001A000DAFFE7CFD9FF1200D9CFE6FFDACFE6FFBB
:1001B000E1CFD9FFE2CFDAFFE652E652E652EE0E89
:1001C000DBCFE9FFEF0EDBCFEAFF170EE926000ECB
:1001D000EA22EECFDEFFEDCFDDFFF50EDBCF0DF037
:1001E000F60EDBCF0EF0F70EDBCF0FF0F80EDBCF05
:1001F00010F00D06000E0E5A0F5A105AEE0EDBCFFD
:10020000E9FFEF0EDBCFEAFF170EE926000EEA2228
:100210000D50EE240B6E0E50EE200C6EEE0EDBCF6A
:10022000E9FFEF0EDBCFEAFF290EE926000EEA22F6
:100230000BC0EEFF0CC0EDFFD950F90FE96EFF0EB9
:10024000DA20EA6EEE50ED1050E0020EDB6A100E7E
:10025000F36E020EDBCFF4FFF350F45C3AE2020ED1
:10026000DB50E76EF90EDBCFE9FFFA0EDBCFEAFFDA
:10027000E750E926000EEA22EF50E66EEE0EDBCFE5
:10028000E9FFEF0EDBCFEAFF190EE926000EEA22A6
:10029000E9CF0BF0EACF0CF0020EDB500F01E9249E
:1002A000E96E000EEA20EA6EE552E750EF6E020EAC
:1002B000DB50E76EF90EDBCFE9FFFA0EDBCFEAFF8A
:1002C000E750E926000EEA22EF5003E0020EDB2A97
:1002D000BED7EE0EDBCFE9FFEF0EDBCFEAFF190E44
:1002E000E926000EEA220F0E07D0EE0EDBCFE9FF63
:1002F000EF0EDBCFEAFF190EE926000EEA22EF6AC5
:10030000030EF36EF20EDBCFF4FFF350F45C05E363
:10031000020EF36EF20EF3CFDBFFEE0EDBCFE9FF42
:10032000EF0EDBCFEAFF160EE926000EEA22F20EF0
:10033000DBCFEFFFEE0EDBCFE9FFEF0EDBCFEAFF07
:100340002B0EE926000EEA22F20EDBCFEFFFEE0EB7
:10035000DBCFE9FFEF0EDBCFEAFF2C0EE926000E24
:10036000EA22EF6AEE0EDBCFE9FFEF0EDBCFEAFF0A
:10037000020EE926000EEA22E9CF0BF0EACF0CF0DC
:10038000E9CFE6FFEACFE6FFD4EC2EF0E552E552E6
:10039000EE0EDBCFE9FFEF0EDBCFEAFF0C0EE92616
:1003A000000EEA22E9CF0BF0EACF0CF0E9CFE6FF2E
:1003B000EACFE6FFD4EC2EF0E552E552EE0EDBCFAD
:1003C000E9FFEF0EDBCFEAFF020EE926000EEA227C
:1003D000060EE926000EEA22EE0EDBCFEEFFEF0E50
:1003E000DBCFEDFFF20EDB500B6E0C6A030ED880F4
:1003F0000B56000E0C56EE0EDBCFE9FFEF0EDBCFF7
:10040000EAFF0C0EE926000EEA220BC0EEFF0CC03C
:10041000EDFFEE0EDBCFE9FFEF0EDBCFEAFF0C0EB8
:10042000E926000EEA22060EE926000EEA22EE0E6A
:10043000DBCFEEFFEF0EDBCFEDFF020EDB6A050E2A
:10044000F36E020EDBCFF4FFF350F45C1CE2EE0E11
:10045000DBCFE9FFEF0EDBCFEAFF2D0EE926000E22
:10046000EA22E9CF0BF0EACF0CF0020EDB50020DCE
:10047000E950F324E96EEA50F420EA6EEE6AED6A80
:10048000020EDB2ADCD7F30EDBCFE6FFF40EDBCF68
:10049000E6FFFB0EDBCFE6FFFC0EDBCFE6FFFD0E3B
:1004A000DBCFE6FFDECFE6FFDDCFE6FF80EC25F019
:1004B0000D6E070EE15C02E2E16AE552E16E0D505D
:1004C000F3CF0BF0F4CF0CF0EE0EDBCFE9FFEF0E25
:1004D000DBCFEAFFF3CFEEFF0CC0EDFFD950F00FFA
:1004E000E96EFF0EDA20EA6EEE50ED100CE0F00E31
:1004F000DBCFE9FFF10EDBCFEAFFEE0EDBCFEEFF45
:10050000EF0EDBCFEDFFE552E552E552E552E5CFC8
:10051000DAFFE7CFD9FF1200D9CFE6FFDACFE6FF47
:10052000E1CFD9FFE2CFDAFFF250E66EF29E03018F
:100530005B2B0301585159110DE1FC0EDBCF58F331
:10054000FD0EDBCF59F303015B0503E1F7EC0EF081
:1005500000D020D003015F511DE158C3E9FF59C30A
:10056000EAFF160EEB500B6EFC0EDBCFE9FFFD0E23
:10057000DBCFEAFF160EE926000EEA22EF50D88004
:100580000B5407E3FC0EDBCF58F3FD0EDBCF59F322
:1005900000D000D00301632BFC0EDBCFE9FFFD0E82
:1005A000DBCFEAFF160EE926000EEA22EFCF0BF0B2
:1005B00003015E51D8800B540CE2FC0EDBCFE9FF47
:1005C000FD0EDBCFEAFF160EE926000EEA22EFCF82
:1005D0005EF3FC0EDBCFE9FFFD0EDBCFEAFF020E80
:1005E000E926000EEA22E9CF0BF0EACF0CF00BC0AF
:1005F000E6FF0CC0E6FFFC0EDBCFE9FFFD0EDBCF14
:10060000EAFF160EE926000EEA22EF50090DF3CF9D
:100610000DF0F4CF0EF0E40E0D26020E0E220DC0EA
:10062000E6FF0EC0E6FFECEC2EF0E552E552E55297
:10063000E552E552E7BEF28E03015F5118E058C360
:10064000E9FF59C3EAFF160EEB500B6EFC0EDBCF31
:10065000E9FFFD0EDBCFEAFF160EE926000EEA22C7
:10066000EF500B5C03E22DEC28F000D000D0E552F7
:10067000E5CFDAFFE7CFD9FF1200D9CFE6FFDACF17
:10068000E6FFE1CFD9FFE2CFDAFFE652E652F250C1
:10069000E66EF29ED950FC0FE96EFF0EDA20EA6E8C
:1006A000EE50ED1005E158C30BF059C30CF006D025
:1006B000FC0EDBCF0BF0FD0EDBCF0CF00BC0DEFF32
:1006C0000CC0DDFFDECFE9FFDDCFEAFF020EE92639
:1006D000000EEA22E9CF0BF0EACF0CF00BC0E6FFE8
:1006E0000CC0E6FF4AEC30F0E552E552000901E1AA
:1006F00000D0DECFE9FFDDCFEAFF0C0EE926000EC9
:10070000EA22080EE926000EEA22EE50ED1015E06E
:10071000DECFE9FFDDCFEAFF0C0EE926000EEA226C
:10072000E9CF0BF0EACF0CF00BC0E6FF0CC0E6FF00
:100730004AEC30F0E552E55200D00301632BDECFE6
:100740000BF0DDCF0CF0030158510B1802E15951A9
:100750000C181DE1DECFE9FFDDCFEAFF020EE9262E
:10076000000EEA22E9CF0BF0EACF0CF00BC0E6FF57
:100770000CC0E6FF1E0EE66E030EE66EECEC2EF0ED
:10078000E552E552E552E55203015A2B0CD0030124
:100790005B07DECFE6FFDDCFE6FF98EC0FF0E5521A
:1007A000E552C2EC0FF0E552E7BEF28E03015F5155
:1007B0000EE0DECF0BF0DDCF0CF0030158510B182B
:1007C00002E159510C1803E12DEC28F000D0E5525C
:1007D000E552E552E5CFDAFFE7CFD9FF1200D9CFD6
:1007E000E6FFDACFE6FFE1CFD9FFE2CFDAFF060E70
:1007F000E12402E3E168E652E16E030EDB6AB4DB5A
:10080000040E5CC3DBFF050E5DC3DBFFFA0EDBCF1E
:100810000DF0FB0EDBCF0EF0FC0EDBCFE9FFFD0E83
:10082000DBCFEAFF0D50EE240B6E0E50EE200BC016
:10083000DEFFDD6E040EDBCF0BF0050EDBCF0CF020
:10084000FC0EDBCFE9FFFD0EDBCFEAFFEECF0DF0B4
:10085000EFCF0EF00D500B5C0E500C5823E2DECFA4
:100860000BF0DDCF0CF0FC0EDBCFE9FFFD0EDBCF94
:10087000EAFFEECF0DF0EFCF0EF00D500B5C0E50F7
:100880000C5837E2DECF0FF0DDCF10F0040EDBCFD7
:1008900011F0050EDBCF12F00F50115C1050125802
:1008A00028E222D0DECF0BF0DDCF0CF0FC0EDBCF48
:1008B000E9FFFD0EDBCFEAFFEECF0DF0EFCF0EF03C
:1008C0000D500B5C0E500C580FE3DECF0FF0DDCF58
:1008D00010F0040EDBCF11F0050EDBCF12F00F503D
:1008E000115C1050125805E2010EF36E030EF3CFA7
:1008F000DBFFFC0EDBCFE9FFFD0EDBCFEAFFDECF37
:10090000EEFFDDCFEDFF030EDB5015E0E66ADECF34
:100910000DF0DDCF0EF0040EDB500D5C0B6E050EFE
:10092000DB500E580C6E0BC0E6FFE66EB1EC13F018
:10093000E552E552E5521BDBE76E020EE7CFDBFF27
:10094000DB5002E12DEC28F0060EE15C02E2E16AE8
:10095000E552E16EE552E5CFDAFFE7CFD9FF1200AD
:10096000D9CFE6FFDACFE6FFE1CFD9FFE2CFDAFF5A
:10097000E652DF6AD950FC0FE96EFF0EDA20EA6E0C
:10098000000ED880EE54000EED540FE2EDDAE66A68
:10099000FC0EDBCFE6FFFD0EDBCFE6FFB1EC13F084
:1009A000E552E552E552E3DADF6EDF5002E12DEC6D
:1009B00028F0E552E552E5CFDAFFE7CFD9FF120084
:1009C000D9CFE6FFDACFE6FFE1CFD9FFE2CFDAFFFA
:1009D000E652E652F250E66EF29ED950FC0FE96EF6
:1009E000FF0EDA20EA6EEE50ED1005E158C30BF071
:1009F00059C30CF006D0FC0EDBCF0BF0FD0EDBCFA5
:100A00000CF00BC0DEFF0CC0DDFFDECFE9FFDDCF59
:100A1000EAFF020EE926000EEA22E9CF0BF0EACF48
:100A20000CF00BC0E6FF0CC0E6FF4AEC30F0E552DC
:100A3000E552000901E100D0DECFE9FFDDCFEAFF9A
:100A40000C0EE926000EEA22080EE926000EEA2224
:100A5000EE50ED1015E0DECFE9FFDDCFEAFF0C0E22
:100A6000E926000EEA22E9CF0BF0EACF0CF00BC02A
:100A7000E6FF0CC0E6FF4AEC30F0E552E55200D04C
:100A8000DECFE9FFDDCFEAFF020EE926000EEA2203
:100A9000E9CF0BF0EACF0CF00BC0E6FF0CC0E6FF8D
:100AA000270EE66E030EE66EECEC2EF0E552E552F4
:100AB000E552E552E552E7BEF28E03015F5109E0CF
:100AC000F250E66EF29EC2EC0FF0E552E7BEF28EF7
:100AD00000D0DECF0BF0DDCF0CF0030158510B1826
:100AE00002E159510C1812E103015F5103E02DECB2
:100AF00028F00BD003015B510301275D04E10301E2
:100B0000586B596B02D079EC0AF000D0E552E552EF
:100B1000E552E5CFDAFFE7CFD9FF1200D9CFE6FFE4
:100B2000DACFE6FFE1CFD9FFE2CFDAFFE652E652B5
:100B3000E652DF6AFC0EDBCF06F0FD0EDBCF07F0DE
:100B4000DE5206C0DEFF07C0DDFFDD52010EDBCF47
:100B5000E9FF020EDBCFEAFFE926000EEA22080ECB
:100B6000E926000EEA22EECF0BF0EFCF0CF0270EB5
:100B70000B1805E1030E0C1802E1010E01D0000E66
:100B8000000935E0010EDBCFE9FF020EDBCFEAFF03
:100B90000C0EE926000EEA22080EE926000EEA22D3
:100BA000EECF0BF0EFCF0CF0150E0B1805E1030E96
:100BB0000C1802E1010E01D0000E000918E1010E2F
:100BC000DBCFE9FF020EDBCFEAFF0C0EE926000EB9
:100BD000EA22080EE926000EEA22EE50ED1002E1AC
:100BE000010E01D0000E000902E0010EDF6EDF50A1
:100BF000E552E552E552E552E5CFDAFFE7CFD9FFFE
:100C00001200D9CFE6FFDACFE6FFE1CFD9FFE2CF7E
:100C1000DAFFE652E652FC0EDBCFDEFFDBCFDDFF74
:100C2000DECF0BF0DDCF0CF0030158510B1802E1C1
:100C300059510C1801E187D0D9CFE9FFDACFEAFF8B
:100C4000EE50ED1001E17FD0F250E66EF29EDECF65
:100C5000E6FFDDCFE6FF62DFE552E55200096FE017
:100C6000DECFE9FFDDCFEAFF020EE926000EEA2221
:100C7000E9CF0BF0EACF0CF00BC0E6FF0CC0E6FFAB
:100C80004AEC30F0E552E552DECFE9FFDDCFEAFF76
:100C9000160EE926000EEA22EFCF0BF003015E519B
:100CA000D8800B540AE2DECFE9FFDDCFEAFF160E53
:100CB000E926000EEA22EFCF5EF3DECFE9FFDDCFBB
:100CC000EAFF020EE926000EEA22E9CF0BF0EACF96
:100CD0000CF00BC0E6FF0CC0E6FFDECFE9FFDDCF76
:100CE000EAFF160EE926000EEA22EF50090DF3CFB7
:100CF0000DF0F4CF0EF0E40E0D26020E0E220DC004
:100D0000E6FF0EC0E6FFECEC2EF0E552E552E552B0
:100D1000E552DECFE9FFDDCFEAFF160EE926000E31
:100D2000EA22EFCF0BF058C3E9FF59C3EAFF160ED2
:100D3000EB500B5C03E32DEC28F000D000D0E55223
:100D4000E7BEF28E00D0E552E552E552E5CFDAFF7C
:100D5000E7CFD9FF1200D9CFE6FFDACFE6FFE1CF28
:100D6000D9FFE2CFDAFFE652E652E652E652DF6AF8
:100D7000FC0EDBCF06F0FD0EDBCF07F0DE5206C027
:100D8000DEFF07C0DDFFDD52030EDB6A010EDBCFA5
:100D9000E6FF020EDBCFE6FFC1DEE552E5520009B9
:100DA00001E191D00301685172E1010EDBCFE9FF4F
:100DB000020EDBCFEAFF160EE926000EEA22EFCF85
:100DC0000BF058C3E9FF59C3EAFF160EEB500B5C5A
:100DD00002E3010EDF6E010EDBCFE9FF020EDBCF77
:100DE000EAFFE926000EEA22E9CF0BF0EACF0CF089
:100DF000E9CFE6FFEACFE6FF4AEC30F0E552E552F4
:100E0000010EDBCFE9FF020EDBCFEAFF160EE9266B
:100E1000000EEA22EFCF0BF003015E51D8800B5495
:100E20000CE2010EDBCFE9FF020EDBCFEAFF160E6C
:100E3000E926000EEA22EFCF5EF3010EDBCFE9FFD9
:100E4000020EDBCFEAFFE926000EEA22E9CF0BF023
:100E5000EACF0CF0E9CFE6FFEACFE6FF010EDBCFE9
:100E6000E9FF020EDBCFEAFF160EE926000EEA22AA
:100E7000EF50090DF3CF0DF0F4CF0EF0E40E0D2678
:100E8000020E0E220DC0E6FF0EC0E6FF16D0010EC8
:100E9000DBCFE9FF020EDBCFEAFF0C0EE926000EE6
:100EA000EA22E9CF0BF0EACF0CF0E9CFE6FFEACF78
:100EB000E6FF150EE66E030EE66EECEC2EF0E55244
:100EC000E552E552E552DF500B6E040EE15C02E2A2
:100ED000E16AE552E16E0B50E552E5CFDAFFE7CF6C
:100EE000D9FF1200D9CFE6FFDACFE6FFE1CFD9FF75
:100EF000E2CFDAFFE652660EE66E030EE66EE66AB3
:100F0000000EE66EE66A800EE66EE66A4E0EE66E4D
:100F1000630EE66E440EE66E1C0EE66E000EE66E86
:100F20002AEC00F00B6E0C0EE15C02E2E16AE55285
:100F3000E16E0B50DF6EDF040BE1F29E030164698A
:100F40006569010E5F6F5C6B5D6BBBEC27F00009A0
:100F5000E552E552E5CFDAFFE7CFD9FF1200F29E66
:100F600003015F6B2CEF28F00301682B1200D9CF2F
:100F7000E6FFDACFE6FFE1CFD9FFE2CFDAFFE652B4
:100F8000E652E652E652DE6ADD6A020EDB6AF25093
:100F9000E66EF29E030168070301685101E0CAD0C2
:100FA00003015B51000801E3C4D00301155102E1C4
:100FB000010E01D0000E000901E090D01AC3E9FF34
:100FC0001BC3EAFF060EE926000EEA22EECFDEFF83
:100FD000EDCFDDFFDECFE9FFDDCFEAFF0C0EE92626
:100FE000000EEA22E9CF0BF0EACF0CF00BC0E6FFCF
:100FF0000CC0E6FF4AEC30F0E552E552DECFE9FFE7
:10100000DDCFEAFF020EE926000EEA22E9CF0BF05F
:10101000EACF0CF00BC0E6FF0CC0E6FF4AEC30F064
:10102000E552E552DECFE9FFDDCFEAFF160EE926F5
:10103000000EEA22EFCF0BF003015E51D8800B5473
:101040000AE2DECFE9FFDDCFEAFF160EE926000E49
:10105000EA22EFCF5EF3DECFE9FFDDCFEAFF020E3B
:10106000E926000EEA22E9CF0BF0EACF0CF00BC024
:10107000E6FF0CC0E6FFDECFE9FFDDCFEAFF160E8C
:10108000E926000EEA22EF50090DF3CF0DF0F4CF60
:101090000EF0E40E0D26020E0E220DC0E6FF0EC06D
:1010A000E6FFECEC2EF0E552E552E552E552DECFDC
:1010B000E9FFDDCFEAFF160EE926000EEA22EFCFA8
:1010C0000BF058C3E9FF59C3EAFF160EEB500B5C57
:1010D00004E30301010E616F00D067D7D9CFE9FFA8
:1010E000DACFEAFFEE50ED1002E0C2EC0FF0030E93
:1010F00060C3DBFF030EDB50000810E2AFD800092D
:1011000004E00301010E616F00D0030EDB06030E45
:10111000DB500008F3E30301606B00D00301615171
:1011200008E0010EF36E020EF3CFDBFF2DEC28F08A
:1011300000D000D0E552E7BEF28E020EDB5000D0A8
:101140000B6E040EE15C02E2E16AE552E16E0B50C7
:10115000E552E5CFDAFFE7CFD9FF1200D9CFE6FF9E
:10116000DACFE6FFE1CFD9FFE2CFDAFFE652E6526F
:10117000F250E66EF29E5CC3DEFF5DC3DDFFE5521A
:10118000E7BEF28EDECF0BF0DDCF0CF00BC0F3FF2D
:101190000CC0F4FF00D0E552E552E552E5CFDAFF8E
:1011A000E7CFD9FF1200D9CFE6FFDACFE6FFE1CFD4
:1011B000D9FFE2CFDAFFE652E652E652020EDB6AD0
:1011C0005CC3DEFF5DC3DDFFDECF0BF0DDCF0CF0D7
:1011D0000BC0F3FF0CC0F4FFE552E552E552E552B7
:1011E000E5CFDAFFE7CFD9FF120003015B51120010
:1011F000D9CFE6FFDACFE6FFE1CFD9FFE2CFDAFFC2
:10120000E652E652D950FC0FE96EFF0EDA20EA6E84
:10121000EE50ED1005E158C30BF059C30CF006D0A9
:10122000FC0EDBCF0BF0FD0EDBCF0CF00BC0DEFFB6
:101230000CC0DDFFDECFE9FFDDCFEAFF190EE926A6
:10124000000EEA22E9CFF3FFEACFF4FFE552E552C0
:10125000E552E5CFDAFFE7CFD9FF1200D9CFE6FF9D
:10126000DACFE6FFE1CFD9FFE2CFDAFF090EE124C2
:1012700002E3E168E652E16E040EDB6A03016851A5
:1012800001E01ED1010E0C6A5C250B6E5D510C2233
:10129000050E0BC0DBFF060E0CC0DBFF050EDBCF1F
:1012A0005CF3060EDBCF5DF3D950050FE96E000E3F
:1012B000DA20EA6EEE50ED1013E1070E11C3DBFFEA
:1012C000080E12C3DBFF13C311F314C312F3070E8E
:1012D000DBCF13F3080EDBCF14F3622BC2EC0FF05D
:1012E000050EDBCF0BF0060EDBCF0CF003016451D3
:1012F0000B5C65510C5801E2E4D011C3E9FF12C345
:10130000EAFFEF50000902E1010E01D0000E0009D2
:1013100004E0030164696569D4D011C3E9FF12C315
:10132000EAFF030EE926000EEA22020EE926000E6D
:10133000EA22EE50EFCFEAFFE96E060EE926000E34
:10134000EA22EECFDEFFEDCFDDFFDECFE9FFDDCF1E
:10135000EAFF020EE926000EEA22020EEECFDBFFC4
:10136000030EEDCFDBFF050EDBCF0BF0060EDBCF60
:101370000CF0020EDBCF0DF0030EDBCF0EF00D50A4
:101380000B5C0E500C5807E2020EDBCF64F3030E29
:10139000DBCF65F396D0DECFE9FFDDCFEAFF020EAB
:1013A000E926000EEA22E9CF0BF0EACF0CF0E9CFF4
:1013B000E6FFEACFE6FF4AEC30F0E552E552DECF39
:1013C000E9FFDDCFEAFF0C0EE926000EEA22080E47
:1013D000E926000EEA22EE50ED1014E0DECFE9FF20
:1013E000DDCFEAFF0C0EE926000EEA22E9CF0BF072
:1013F000EACF0CF0E9CFE6FFEACFE6FF4AEC30F0A7
:10140000E552E552DECFE9FFDDCFEAFF160EE92611
:10141000000EEA22EFCF0BF003015E51D8800B548F
:101420000AE2DECFE9FFDDCFEAFF160EE926000E65
:10143000EA22EFCF5EF3DECFE9FFDDCFEAFF020E57
:10144000E926000EEA22E9CF0BF0EACF0CF0E9CF53
:10145000E6FFEACFE6FFDECFE9FFDDCFEAFF160EBB
:10146000E926000EEA22EF50090DF3CF0DF0F4CF7C
:101470000EF0E40E0D26020E0E220DC0E6FF0EC089
:10148000E6FFECEC2EF0E552E552E552E552DECFF8
:10149000E9FFDDCFEAFF160EE926000EEA22EFCFC4
:1014A0000BF058C3E9FF59C3EAFF160EEB500B5C73
:1014B00001E223D7010EF36E040EF3CFDBFF1DD73D
:1014C000602B0301615105E0010EF36E040EF3CFB2
:1014D000DBFF040EDB500B6E090EE15C02E2E16AF9
:1014E000E552E16E0B50E552E5CFDAFFE7CFD9FFC9
:1014F0001200D9CFE6FFDACFE6FFE1CFD9FFE2CF86
:10150000DAFFE652E652E6520301685103E0010EAB
:10151000616F94D0616B5EC3DFFFDF50090DF3CFC5
:10152000E9FFF4CFEAFFE40EE926020EEA22EF50CB
:1015300002E1010E01D0000E000902E0DF06EDD746
:10154000DF50090DF3CF0BF0F4CF0CF0E40E0B26B7
:10155000020E0C22010E0BC0DBFF020E0CC0DBFFE3
:10156000010EDBCFE9FF020EDBCFEAFFEE52EE50B9
:10157000EFCFEAFFE96E020EE926000EEA22EECF77
:101580000BF0EFCF0CF0010EDBCFE9FF020EDBCF4B
:10159000EAFFEE520BC0EEFF0CC0EDFF010EDBCFF9
:1015A000E9FF020EDBCFEAFFEE52EECF0BF0EFCFFA
:1015B0000CF0010EDBCFE9FF020EDBCFEAFF030EDA
:1015C000E926000EEA22EACF0EF0E9500B1821E1DD
:1015D0000E500C181EE1010EDBCFE9FF020EDBCF2F
:1015E000EAFFEE52EE50EFCFEAFFE96E020EE92677
:1015F000000EEA22EECF0BF0EFCF0CF0010EDBCFA6
:10160000E9FF020EDBCFEAFFEE520BC0EEFF0CC08B
:10161000EDFF010EDBCFE9FF020EDBCFEAFFEE525A
:10162000EE50EFCFEAFFE96E060EE926000EEA2241
:10163000EECF58F3EDCF59F3DFCF5EF3E552E5522D
:10164000E552E552E5CFDAFFE7CFD9FF1200D9CF57
:10165000E6FFDACFE6FFE1CFD9FFE2CFDAFF58C3EA
:10166000E9FF59C3EAFF0C0EE926000EEA22E9CF92
:101670000BF0EACF0CF0E9CFE6FFEACFE6FFFC0E75
:10168000DBCFE6FFFD0EDBCFE6FF6CEC2FF0E55283
:10169000E552E552E552010EE66EFA0EDBCFE6FFAB
:1016A000FB0EDBCFE6FFB1EC13F0E552E552E5525D
:1016B000E552E5CFDAFFE7CFD9FF1200D9CFE6FF39
:1016C000DACFE6FFE1CFD9FFE2CFDAFFFA0EDBCFC8
:1016D0000BF0FB0EDBCF0CF0800E0C1258C3E9FFB1
:1016E00059C3EAFF0C0EE926000EEA220BC0EEFFFA
:1016F0000CC0EDFF58C3E9FF59C3EAFF0C0EE92601
:10170000000EEA22E9CF0BF0EACF0CF0E9CFE6FFBA
:10171000EACFE6FFFC0EDBCFE6FFFD0EDBCFE6FFF8
:10172000ECEC2EF0E552E552E552E552010EE66E84
:10173000F80EDBCFE6FFF90EDBCFE6FFB1EC13F0DE
:10174000E552E552E552E552E5CFDAFFE7CFD9FFA2
:101750001200D9CFE6FFDACFE6FFE1CFD9FFE2CF23
:10176000DAFFE652E652E652FC0EDBCFE9FFFD0E51
:10177000DBCFEAFF030EE926000EEA22020EE9267D
:10178000000EEA22EE50EFCFEAFFE96E060EE926E0
:10179000000EEA22EECFDEFFEDCFDDFFDECFE9FF68
:1017A000DDCFEAFF0C0EE926000EEA22E9CF0BF0AE
:1017B000EACF0CF0E9CFE6FFEACFE6FF4AEC30F0E3
:1017C000E552E5520301685154E1DECFE9FFDDCF78
:1017D000EAFF020EE926000EEA22E9CF0BF0EACF7B
:1017E0000CF0E9CFE6FFEACFE6FF4AEC30F0E55235
:1017F000E552DECFE9FFDDCFEAFF160EE926000E47
:10180000EA22EFCF0BF003015E51D8800B540AE2BD
:10181000DECFE9FFDDCFEAFF160EE926000EEA2251
:10182000EFCF5EF3DECFE9FFDDCFEAFF020EE92660
:10183000000EEA22E9CF0BF0EACF0CF0E9CFE6FF89
:10184000EACFE6FFDECFE9FFDDCFEAFF160EE9269D
:10185000000EEA22EF50090DF3CF0DF0F4CF0EF099
:10186000E40E0D26020E0E220DC0E6FF0EC0E6FFAE
:1018700014D0DECFE9FFDDCFEAFF0C0EE926000E23
:10188000EA22E9CF0BF0EACF0CF0E9CFE6FFEACF8E
:10189000E6FF150EE66E030EE66EECEC2EF0E5525A
:1018A000E552E552E552DECFE9FFDDCFEAFF160E45
:1018B000E926000EEA22EFCF0BF058C3E9FF59C327
:1018C000EAFF160EEB50D8800B5409E2010EF36EBE
:1018D000020EF3CFDBFF0301010E616F02D0020E97
:1018E000DB6A020EDB50E552E552E552E552E5CFE8
:1018F000DAFFE7CFD9FF1200D9CFE6FFDACFE6FF54
:10190000E1CFD9FFE2CFDAFFE652E652FA0EDBCFA3
:101910000BF0FB0EDBCF0CF0800E0C12FC0EDBCFBD
:10192000E9FFFD0EDBCFEAFF0BC0EEFF0CC0EDFFC1
:10193000FC0EDBCFE9FFFD0EDBCFEAFF060EE9264A
:10194000000EEA22EECFDEFFEDCFDDFFFC0EDBCF97
:10195000E6FFFD0EDBCFE6FF4AEC30F0E552E55244
:10196000DECFE9FFDDCFEAFF020EE926000EEA2214
:10197000E9CF0BF0EACF0CF0E9CFE6FFEACFE6FFC4
:101980004AEC30F0E552E552DECFE9FFDDCFEAFF69
:10199000160EE926000EEA22EFCF0BF003015E518E
:1019A000D8800B540AE2DECFE9FFDDCFEAFF160E46
:1019B000E926000EEA22EFCF5EF3DECFE9FFDDCFAE
:1019C000EAFF020EE926000EEA22E9CF0BF0EACF89
:1019D0000CF0E9CFE6FFEACFE6FFDECFE9FFDDCF8F
:1019E000EAFF160EE926000EEA22EF50090DF3CFAA
:1019F0000DF0F4CF0EF0E40E0D26020E0E220DC0F7
:101A0000E6FF0EC0E6FFECEC2EF0E552E552E552A3
:101A1000E552DECFE9FFDDCFEAFF160EE926000E24
:101A2000EA22EFCF0BF058C3E9FF59C3EAFF160EC5
:101A3000EB50D8800B5403E20301010E616FE552B5
:101A4000E552E552E5CFDAFFE7CFD9FF1200D9CF53
:101A5000E6FFDACFE6FFE1CFD9FFE2CFDAFFF250BF
:101A6000E66EF29EFC0EDBCFE9FFFD0EDBCFEAFF58
:101A700062C3EFFFFC0EDBCFE9FFFD0EDBCFEAFF19
:101A8000EE525CC3EEFF5DC3EDFFE552E7BEF28EA2
:101A9000E552E5CFDAFFE7CFD9FF1200D9CFE6FF55
:101AA000DACFE6FFE1CFD9FFE2CFDAFFFC0EDBCFE2
:101AB000E9FFFD0EDBCFEAFF62C3EFFFFC0EDBCFD9
:101AC000E9FFFD0EDBCFEAFFEE525CC3EEFF5DC324
:101AD000EDFFE552E5CFDAFFE7CFD9FF1200D9CF0E
:101AE000E6FFDACFE6FFE1CFD9FFE2CFDAFFE65239
:101AF000E652E652E652E652F250E66EF29E010ED1
:101B00005CC3DBFF020E5DC3DBFF010EDBCF0DF01C
:101B1000020EDBCF0EF0FC0EDBCFE9FFFD0EDBCFBC
:101B2000EAFFEE52EE500D5C0B6EEE500E580C6E4E
:101B3000030E0BC0DBFF040E0CC0DBFFFA0EDBCF85
:101B4000E9FFFB0EDBCFEAFFFF0EEE1802E1FF0E0E
:101B5000ED1802E1DF6A5FD0FC0EDBCFE9FFFD0E7E
:101B6000DBCFEAFFEF500301625D1BE0010EDBCF2C
:101B70000BF0020EDBCF0CF0FC0EDBCFE9FFFD0E0D
:101B8000DBCFEAFFEECF0DF0EECF0EF0EFCF0FF090
:101B900000010E500B5C0F500C5803E3010EDF6E7A
:101BA0003AD0030EDBCF0BF0040EDBCF0CF0FA0EB5
:101BB000DBCFE9FFFB0EDBCFEAFFEECF0DF0EFCF7F
:101BC0000EF00D500B5C0E500C581BE2030EDBCFD9
:101BD0000BF0040EDBCF0CF0FA0EDBCFE9FFFB0EAF
:101BE000DBCFEAFF0B50EE5E0C50ED5AFC0EDBCF64
:101BF000E6FFFD0EDBCFE6FF51DFE552E552DF6A7F
:101C00000AD0FA0EDBCFE9FFFB0EDBCFEAFFEE6A6C
:101C1000ED6A010EDF6EE552E7BEF28EDF5000D0B6
:101C20000B6E050EE15C02E2E16AE552E16E0B50DB
:101C3000E552E5CFDAFFE7CFD9FF12000301010E2D
:101C4000616F1200D9CFE6FFDACFE6FFE1CFD9FF0F
:101C5000E2CFDAFF25D90201E4510108FBE22DECC5
:101C600028F0F8D7D9CFE6FFDACFE6FFE1CFD9FFEA
:101C7000E2CFDAFFE652E652FB0EDBCF0BF0050EA9
:101C8000E76E0B18E8AE02D0E73402D0E7500B5CE9
:101C900039E2D950FC0FE96EFF0EDA20EA6EEE5001
:101CA000ED1005E158C30BF059C30CF006D0FC0E43
:101CB000DBCF0BF0FD0EDBCF0CF00BC0DEFF0CC05A
:101CC000DDFFDECFE9FFDDCFEAFF2D0EE926000EB6
:101CD000EA22E9CF0BF0EACF0CF0FB0EDBCF0DF0E0
:101CE0000E6A0DBE0E68D8900D360E360B500D24C0
:101CF000E96E0C500E20EA6EF90EDBCFEEFFFA0E05
:101D0000DBCFEDFFE552E552E552E5CFDAFFE7CF55
:101D1000D9FF1200D9CFE6FFDACFE6FFE1CFD9FF36
:101D2000E2CFDAFFE652E652E652E652DE6ADD6ABA
:101D3000FB0EDBCF0BF0050EE76E0B18E8AE02D002
:101D4000E73402D0E7500B5C3CE2D950FC0FE96E5F
:101D5000FF0EDA20EA6EEE50ED1005E158C30BF0ED
:101D600059C30CF006D0FC0EDBCF0BF0FD0EDBCF21
:101D70000CF0020E0BC0DBFF030E0CC0DBFF020EEB
:101D8000DBCFE9FF030EDBCFEAFF2D0EE926000EC5
:101D9000EA22E9CF0BF0EACF0CF0FB0EDBCF0DF01F
:101DA0000E6A0DBE0E68D8900D360E360B500D24FF
:101DB000E96E0C500E20EA6EEECFDEFFEDCFDDFFB8
:101DC00002D0DE6ADD6ADECF0BF0DDCF0CF00BC097
:101DD000F3FF0CC0F4FF040EE15C02E2E16AE5529D
:101DE000E16EE552E5CFDAFFE7CFD9FF1200D9CF98
:101DF000E6FFDACFE6FFE1CFD9FFE2CFDAFFE65226
:101E0000DF6A030EDF5C14E2DF50090DF3CF0BF045
:101E1000F4CF0CF0E40E0B26020E0C220BC0E6FFF2
:101E20000CC0E6FF5AEC2EF0E552E552DF2AE9D766
:101E3000FF0EE66E020EE66E5AEC2EF0E552E5520B
:101E4000080EE66E030EE66E5AEC2EF0E552E552F1
:101E5000150EE66E030EE66E5AEC2EF0E552E552D4
:101E60001E0EE66E030EE66E5AEC2EF0E552E552BB
:101E7000270EE66E030EE66E5AEC2EF0E552E552A2
:101E80000301FF0E116F020E126F080E136F030E87
:101E9000146FE552E552E5CFDAFFE7CFD9FF120024
:101EA000D9CFE6FFDACFE6FFE1CFD9FFE2CFDAFF05
:101EB000E652E65203015A51000832E2F250E66E51
:101EC000F29E23C3E9FF24C3EAFF060EE926000EB3
:101ED000EA22EECFDEFFEDCFDDFFDECFE9FFDDCF83
:101EE000EAFF020EE926000EEA22E9CF0BF0EACF64
:101EF0000CF00BC0E6FF0CC0E6FF4AEC30F0E552F8
:101F0000E55203015B0703015A07E552E7BEF28E73
:101F1000DECFE6FFDDCFE6FF0BD8E552E552CAD7AC
:101F2000E552E552E552E5CFDAFFE7CFD9FF1200DF
:101F3000D9CFE6FFDACFE6FFE1CFD9FFE2CFDAFF74
:101F4000FC0EDBCFE9FFFD0EDBCFEAFF170EE92623
:101F5000000EEA22EECFE6FFEFCFE6FFDCEC2BF03F
:101F6000E552E552FC0EDBCFE6FFFD0EDBCFE6FFD0
:101F7000DCEC2BF0E552E552E552E5CFDAFFE7CF96
:101F8000D9FF1200D9CFE6FFDACFE6FFE1CFD9FFC4
:101F9000E2CFDAFFE652E65211C3E9FF12C3EAFFCD
:101FA000EF50000902E1010E01D0000E000904E02B
:101FB00003016469656924D011C3E9FF12C3EAFF14
:101FC000030EE926000EEA22020EE926000EEA229E
:101FD000EE50EFCFEAFFE96E060EE926000EEA2288
:101FE000EECFDEFFEDCFDDFFDECFE9FFDDCFEAFF95
:101FF000020EE926000EEA22EECF64F3EDCF65F380
:10200000E552E552E552E5CFDAFFE7CFD9FF1200FE
:10201000D9CFE6FFDACFE6FFE1CFD9FFE2CFDAFF93
:10202000E652E65258C3DEFF59C3DDFFDECF0BF0A8
:10203000DDCF0CF00BC0F3FF0CC0F4FFE552E5520E
:10204000E552E5CFDAFFE7CFD9FF1200D9CFE6FF9F
:10205000DACFE6FFE1CFD9FFE2CFDAFFE652E65270
:10206000E652FC0EDBCFDEFFDBCFDDFF020EDB6ACC
:10207000D950FC0FE96EFF0EDA20EA6EEE50ED103B
:1020800001E106D1DECFE9FFDDCFEAFF160EE9263A
:10209000000EEA22EFCF0BF058C3E9FF59C3EAFF65
:1020A000160EEB500B5C01E3DCD0DECFE9FFDDCF99
:1020B000EAFF0C0EE926000EEA22EECF0BF0EFCF7E
:1020C0000CF00B16800E0C160D6A0E6A0B500C10DD
:1020D0000D100E1019E158C3E9FF59C3EAFF160E9F
:1020E000EB500B6E0C6A030ED8800B56000E0C568C
:1020F000DECFE9FFDDCFEAFF0C0EE926000EEA2273
:102100000BC0EEFF0CC0EDFFDECFE9FFDDCFEAFF35
:10211000020EE926000EEA22080EE926000EEA2247
:10212000EECF0BF0EFCF0CF0DECFE9FFDDCFEAFF13
:10213000160EE926000EEA22EF50090DF3CF0DF03E
:10214000F4CF0EF0E40E0D26020E0E220D500B18E9
:1021500005E10E500C1802E1010E01D0000E00093D
:102160006DE0DECFE9FFDDCFEAFF020EE926000ECB
:10217000EA22E9CF0BF0EACF0CF0E9CFE6FFEACF95
:10218000E6FF4AEC30F0E552E552000958C3E9FF9A
:1021900059C3EAFF160EEB50E66EDECFE9FFDDCF46
:1021A000EAFF160EE926000EEA22E552E750EF6E2E
:1021B000DECFE9FFDDCFEAFF160EE926000EEA22A8
:1021C000EFCF0BF003015E51D8800B540AE2DECF53
:1021D000E9FFDDCFEAFF160EE926000EEA22EFCF77
:1021E0005EF3DECFE9FFDDCFEAFF020EE926000E47
:1021F000EA22E9CF0BF0EACF0CF0E9CFE6FFEACF15
:10220000E6FFDECFE9FFDDCFEAFF160EE926000E7E
:10221000EA22EF50090DF3CF0DF0F4CF0EF0E40EEB
:102220000D26020E0E220DC0E6FF0EC0E6FFECECFE
:102230002EF0E552E552E552E55225D058C3E9FFAC
:1022400059C3EAFF160EEB50E66EDECFE9FFDDCF95
:10225000EAFF160EE926000EEA22E552E750EF6E7D
:1022600012D0DECFE9FFDDCFEAFF2B0EE926000E0C
:10227000EA22EFCF0BF058C3E9FF59C3EAFF160E6D
:10228000EB500B5C05E2010EF36E020EF3CFDBFFA9
:10229000020EDB50E552E552E552E552E5CFDAFF9A
:1022A000E7CFD9FF1200D9CFE6FFDACFE6FFE1CFC3
:1022B000D9FFE2CFDAFFE652E652E652FC0EDBCF60
:1022C000DEFFDBCFDDFF020EDB6AD950FC0FE96ECB
:1022D000FF0EDA20EA6EEE50ED1001E1BAD0DECF4B
:1022E000E9FFDDCFEAFF2C0EE926000EEA22EF0619
:1022F000DECFE9FFDDCFEAFF160EE926000EEA2267
:10230000EFCF0BF0DECFE9FFDDCFEAFF2B0EE926A2
:10231000000EEA22EF500B5C01E19BD0DECFE9FF1B
:10232000DDCFEAFF2C0EE926000EEA22EF5001E095
:1023300090D0DECFE9FFDDCFEAFF020EE926000EE6
:10234000EA22E9CF0BF0EACF0CF0E9CFE6FFEACFC3
:10235000E6FF4AEC30F0E552E5520009DECFE9FF36
:10236000DDCFEAFF2B0EE926000EEA22EF50E66EE3
:10237000DECFE9FFDDCFEAFF160EE926000EEA22E6
:10238000E552E750EF6EDECFE9FFDDCFEAFF160E34
:10239000E926000EEA22EF500B6E0C6A030ED8807D
:1023A0000B56000E0C56DECFE9FFDDCFEAFF0C0E18
:1023B000E926000EEA220BC0EEFF0CC0EDFFDECFD7
:1023C000E9FFDDCFEAFF160EE926000EEA22EFCF85
:1023D0000BF003015E51D8800B540AE2DECFE9FF17
:1023E000DDCFEAFF160EE926000EEA22EFCF5EF3FC
:1023F000DECFE9FFDDCFEAFF020EE926000EEA227A
:10240000E9CF0BF0EACF0CF0E9CFE6FFEACFE6FF29
:10241000DECFE9FFDDCFEAFF160EE926000EEA2245
:10242000EF50090DF3CF0DF0F4CF0EF0E40E0D26B2
:10243000020E0E220DC0E6FF0EC0E6FFECEC2EF001
:10244000E552E552E552E552010EF36E020EF3CF6E
:10245000DBFF020EDB50E552E552E552E552E5CFD7
:10246000DAFFE7CFD9FF1200D9CFE6FFDACFE6FFD8
:10247000E1CFD9FFE2CFDAFFE652E652E652E6526A
:10248000E652FC0EDBCFDEFFDBCFDDFF010EF36E8D
:10249000040EF3CFDBFFD950FC0FE96EFF0EDA20FC
:1024A000EA6EEE50ED1001E1FFD0DECFE9FFDDCFA7
:1024B000EAFF2B0EE926000EEA22EFCF0BF0FB0E0F
:1024C000DB500B5C07E2FB0EDB50E76E030EE7CF41
:1024D000DBFF0BD0DECFE9FFDDCFEAFF2B0EE926D5
:1024E000000EEA22030EEFCFDBFFDECFE9FFDDCFE8
:1024F000EAFF160EE926000EEA22EFCF0BF0030EDC
:10250000DB500B5C01E1D0D0DECFE9FFDDCFEAFF8D
:102510002C0EE926000EEA22EFCF0BF0040EDB5062
:102520000B5C01E0C1D0DECFE9FFDDCFEAFF160E84
:10253000E926000EEA22020EEFCFDBFFDECFE9FF35
:10254000DDCFEAFF160EE926000EEA22030EDBCFEE
:10255000EFFFDECFE9FFDDCFEAFF0C0EE926000E2C
:10256000EA22EECF0BF0EFCF0CF00B16800E0C161C
:102570000D6A0E6A0B500C100D100E1015E1030EB3
:10258000DB500B6E0C6A030ED8800B56000E0C56F7
:10259000DECFE9FFDDCFEAFF0C0EE926000EEA22CE
:1025A0000BC0EEFF0CC0EDFFDECFE9FFDDCFEAFF91
:1025B000020EE926000EEA22080EE926000EEA22A3
:1025C000EECF0BF0EFCF0CF0020EDB50090DF3CF86
:1025D0000DF0F4CF0EF0E40E0D26020E0E220D507B
:1025E0000B1805E10E500C1802E1010E01D0000E8F
:1025F00000095AE0DECFE9FFDDCFEAFF020EE9264F
:10260000000EEA22E9CF0BF0EACF0CF0E9CFE6FFAB
:10261000EACFE6FF4AEC30F0E552E5520009DECFA2
:10262000E9FFDDCFEAFF160EE926000EEA22EFCF22
:102630000BF003015E51D8800B540AE2DECFE9FFB4
:10264000DDCFEAFF160EE926000EEA22EFCF5EF399
:10265000DECFE9FFDDCFEAFF020EE926000EEA2217
:10266000E9CF0BF0EACF0CF0E9CFE6FFEACFE6FFC7
:10267000DECFE9FFDDCFEAFF160EE926000EEA22E3
:10268000EF50090DF3CF0DF0F4CF0EF0E40E0D2650
:10269000020E0E220DC0E6FF0EC0E6FFECEC2EF09F
:1026A000E552E552E552E552050EE15C02E2E16ACF
:1026B000E552E16EE552E5CFDAFFE7CFD9FF120030
:1026C000D9CFE6FFDACFE6FFE1CFD9FFE2CFDAFFDD
:1026D000E652E65258C3E9FF59C3EAFF0C0EE92659
:1026E000000EEA22EECFDEFFEDCFDDFF58C3E9FF9B
:1026F00059C3EAFF160EEB500B6E0C6A030ED8801E
:102700000B56000E0C5658C3E9FF59C3EAFF0C0ED6
:10271000E926000EEA220BC0EEFF0CC0EDFFDECF73
:102720000BF0DDCF0CF00BC0F3FF0CC0F4FFE55253
:10273000E552E552E5CFDAFFE7CFD9FF12000301FA
:102740005851591109E058C3E9FF59C3EAFF2C0E4B
:10275000E926000EEA22EF2A58C3F3FF59C3F4FF1B
:102760001200D9CFE6FFDACFE6FFE1CFD9FFE2CF03
:10277000DAFFE652E652E652E652020E5CC3DBFF97
:10278000030E5DC3DBFF58C3E9FF59C3EAFF020E26
:10279000E926000EEA22E9CF0BF0EACF0CF0E9CFF0
:1027A000E6FFEACFE6FF4AEC30F0E552E5520009D9
:1027B000D950FC0FE96EFF0EDA20EA6EFF0EEE181C
:1027C0001DE1FF0EED181AE1FB0EDB5017E058C3B8
:1027D000E9FF59C3EAFF020EE926000EEA22E9CF1B
:1027E0000BF0EACF0CF0E9CFE6FFEACFE6FF270EC9
:1027F000E66E030EE66EECEC2EF042D0FC0EDBCF64
:102800000DF0FD0EDBCF0EF0020EDB500D240B6E33
:10281000030EDB500E200C6E0BC0DEFFDD6E58C3C6
:10282000E9FF59C3EAFF020EE926000EEA22DECFD5
:10283000EEFFDDCFEDFFDECF0BF0DDCF0CF0020EB3
:10284000DBCF0DF0030EDBCF0EF00D500B5C0E5006
:102850000C581BE258C3E9FF59C3EAFF020EE926F0
:10286000000EEA22E9CF0BF0EACF0CF0E9CFE6FF49
:10287000EACFE6FF13C3E6FF14C3E6FF6CEC2FF0CC
:10288000E552E552E552E55228D058C3E9FF59C355
:10289000EAFF020EE926000EEA22E9CF0BF0EACFAA
:1028A0000CF0E9CFE6FFEACFE6FF11C3E6FF12C363
:1028B000E6FF6CEC2FF0E552E552E552E552DECF33
:1028C0000BF0DDCF0CF0030164510B5C65510C582B
:1028D00004E2DECF64F3DDCF65F3040EE15C02E2D7
:1028E000E16AE552E16EE552E5CFDAFFE7CFD9FFC5
:0228F0001200D4
:0E28F200D9CFE6FFDACFE6FFE1CFD9FFE2CF84
:10290000DAFFE652E652FC0EDBCFDEFFDBCFDDFF67
:10291000F250E66EF29EDECFE9FFDDCFEAFF1C0E3D
:10292000E926000EEA22EFCF0FF0DECFE9FFDDCF80
:10293000EAFF1B0EE926000EEA22EF500F02F350C9
:102940000D6E0E6ADECFE9FFDDCFEAFF0D50EE24FB
:102950000B6E0E50EE200C6EDECFE9FFDDCFEAFFEE
:10296000040EE926000EEA220BC0EEFF0CC0EDFFBC
:10297000DECFE9FFDDCFEAFF1A0EE926000EEA22DC
:10298000EF6ADECFE9FFDDCFEAFFEECF0BF0EFCF4E
:102990000CF0DECFE9FFDDCFEAFF020EE926000EE4
:1029A000EA220BC0EEFF0CC0EDFFDECFE9FFDDCF6A
:1029B000EAFF1C0EE926000EEA22EFCF0FF0DECF71
:1029C000E9FFDDCFEAFF1B0EE926000EEA22EF0445
:1029D0000F02F3500D6E0E6ADECFE9FFDDCFEAFF86
:1029E0000D50EE240B6E0E50EE200C6EDECFE9FF84
:1029F000DDCFEAFF040EE926000EEA22020EE926E8
:102A0000000EEA220BC0EEFF0CC0EDFFDECFE9FFA7
:102A1000DDCFEAFF1D0EE926000EEA22EF68DECFC9
:102A2000E9FFDDCFEAFF1E0EE926000EEA22EF687D
:102A3000FB0EDB502AE1DECFE9FFDDCFEAFF080E17
:102A4000E926000EEA22EF5002E1010E01D0000E4D
:102A500000091AE1DECFE9FFDDCFEAFF080EE92623
:102A6000000EEA22E9CF0BF0EACF0CF00BC0E6FF34
:102A70000CC0E6FFA9EC0BF0E552E552000903E0BB
:102A80002DEC28F000D000D028D0DECFE9FFDDCF3C
:102A9000EAFF080EE926000EEA22E9CF0BF0EACFA2
:102AA0000CF00BC0E6FF0CC0E6FF5AEC2EF0E5522E
:102AB000E552DECFE9FFDDCFEAFF110EE926000E79
:102AC000EA22E9CF0BF0EACF0CF00BC0E6FF0CC016
:102AD000E6FF5AEC2EF0E552E552E552E7BEF28EE3
:102AE000010E00D0E552E552E552E5CFDAFFE7CF1F
:102AF000D9FF1200D9CFE6FFDACFE6FFE1CFD9FF49
:102B0000E2CFDAFF060EE12402E3E168E652E16E6D
:102B1000FC0EDB5005E1020EDB6A030EDB6A13D00C
:102B2000FC0EDBCFE6FFFD0EDB50E552E702F35073
:102B3000E66ED950020FE96E000EDA20EA6EE55219
:102B4000E750EE6EED6A020EDBCF0BF0030EDBCF2B
:102B50000CF01F0E0B26000E0C220BC0E6FF0CC063
:102B6000E6FF4DEC2AF0E552E552F3CFDEFFF4CF5D
:102B7000DDFFD9CFE9FFDACFEAFFEE50ED1030E00C
:102B8000D9CFE9FFDACFEAFF040EEECFDBFF050E67
:102B9000EDCFDBFFD950040FE96E000EDA20EA6EAC
:102BA0001F0EEE26000EED22DECFE6FFDDCFE6FFA4
:102BB000FB0EDBCFE6FF040EDBCFE6FF050EDBCF1F
:102BC000E6FFFC0EDBCFE6FFFD0EDBCFE6FF1CD8F9
:102BD0000B6E070EE15C02E2E16AE552E16E0B501A
:102BE000DECF0BF0DDCF0CF00BC0F3FF0CC0F4FF19
:102BF000060EE15C02E2E16AE552E16EE552E5CFE4
:102C0000DAFFE7CFD9FF1200D9CFE6FFDACFE6FF30
:102C1000E1CFD9FFE2CFDAFFFC0EDB500BE1F70E7C
:102C2000DBCFE9FFF80EDBCFEAFFF70EDBCFEEFFDD
:102C3000F80E0AD0F70EDBCFE9FFF80EDBCFEAFF84
:102C4000FA0EDBCFEEFFFB0EDBCFEDFFF70EDBCF97
:102C5000E9FFF80EDBCFEAFF1B0EE926000EEA22A1
:102C6000FD0EDBCFEFFFF70EDBCFE9FFF80EDBCF7A
:102C7000EAFF1C0EE926000EEA22FC0EDBCFEFFF76
:102C8000010EE66EF70EDBCFE6FFF80EDBCFE6FFB8
:102C900030DEE552E552E552E552E5CFDAFFE7CF07
:102CA000D9FF1200D9CFE6FFDACFE6FFE1CFD9FF97
:102CB000E2CFDAFFE150FC0FE96EFF0EE220EA6E90
:102CC000EE50ED1037E0FC0EDBCFE9FFFD0EDBCF61
:102CD000EAFF040EE926000EEA22EE6AED6AFC0E17
:102CE000DBCFE9FFFD0EDBCFEAFFEE6AED6AFC0EFB
:102CF000DBCFE9FFFD0EDBCFEAFF040EE926000E75
:102D0000EA22020EE926000EEA22EF6AE66AE66E81
:102D1000E66AE66EE66AFC0EDBCFE6FFFD0EDBCF71
:102D2000E6FF87D80B6E070EE15C02E2E16AE5522E
:102D3000E16E0B50E552E5CFDAFFE7CFD9FF120085
:102D4000D9CFE6FFDACFE6FFE1CFD9FFE2CFDAFF56
:102D5000E652E652E652E652010EF36E020EF3CF51
:102D6000DBFF030EDB6AFD0EDBCFE6FF030EDBCFDE
:102D7000E6FF020EDBCFE6FFBDDEE552E552E5528F
:102D8000F3CFDEFFF4CFDDFFDECFE6FFDDCFE6FFE2
:102D900089DFE552E552DECF0BF0DDCF0CF00BC042
:102DA000F3FF0CC0F4FF040EE15C02E2E16AE552BD
:102DB000E16EE552E5CFDAFFE7CFD9FF1200D9CFB8
:102DC000E6FFDACFE6FFE1CFD9FFE2CFDAFFE65246
:102DD000E652020EE66EE66AFD0EDBCFE6FF8ADE05
:102DE000E552E552E552F3CFDEFFF4CFDDFFD9CF58
:102DF000E9FFDACFEAFFEE50ED100BE0DECFE9FF9E
:102E0000DDCFEAFF1A0EE926000EEA22FC0EDBCF28
:102E1000EFFFDECF0BF0DDCF0CF00BC0F3FF0CC0EB
:102E2000F4FFE552E552E552E5CFDAFFE7CFD9FFEF
:102E30001200D9CFE6FFDACFE6FFE1CFD9FFE2CF2C
:102E4000DAFF070EE12402E3E168E652E16EDF6A91
:102E5000FC0EDBCF06F0FD0EDBCF07F0050E06C043
:102E6000DBFF060E07C0DBFFF250E66EF29E050E9A
:102E7000DBCFE9FF060EDBCFEAFF1A0EE926000ED4
:102E8000EA22EFCF0BF0050EDBCFE9FF060EDBCF1A
:102E9000EAFF1B0EE926000EEA22EF500B5C04E36A
:102EA000F70EDB50020856E1F70EDBCFE6FFFA0E15
:102EB000DBCFE6FFFB0EDBCFE6FF050EDBCFE6FF49
:102EC000060EDBCFE6FFBEEC20F00B6E050EE15CDC
:102ED00002E2E16AE552E16E0B50E76E010EE7CFC8
:102EE000DBFF050EDBCFE9FF060EDBCFEAFF110E9D
:102EF000E926000EEA22EF5002E1010E01D0000E99
:102F000000091CE1050EDBCFE9FF060EDBCFEAFF6F
:102F1000110EE926000EEA22E9CF0BF0EACF0CF001
:102F20000BC0E6FF0CC0E6FFA9EC0BF0E552E55242
:102F3000000903E02DEC28F000D006D0010EDB5094
:102F400003E02DEC28F000D0E552E7BEF28E010E32
:102F5000C5D01ED0D950F80FE96EFF0EDA20EA6E08
:102F6000EE50ED1006E1E552E7BEF28E000EB6D04F
:102F70000FD0DF500DE1D950020FE66E000EDA20BF
:102F8000E66E4EEC0DF0E552E552010EDF6E00D01C
:102F9000E552E7BEF28EB4EC07F0F250E66EF29E18
:102FA000050EDBCFE9FF060EDBCFEAFF1D0EE9269B
:102FB000000EEA22EF50FF080BE1050EDBCFE9FF20
:102FC000060EDBCFEAFF1D0EE926000EEA22EF6AAD
:102FD000050EDBCFE9FF060EDBCFEAFF1E0EE9266A
:102FE000000EEA22EF50FF080BE1050EDBCFE9FFF0
:102FF000060EDBCFEAFF1E0EE926000EEA22EF6A7C
:10300000E552E7BEF28ED950F80FE66EFF0EDA20D9
:10301000E66ED950020FE66E000EDA20E66E6FEC17
:103020000DF0E552E552E552E552000948E1050E82
:10303000DBCFE6FF060EDBCFE6FF25EC24F0E55202
:10304000E55200092FE0F80EDBCFE6FFF90EDBCFEB
:10305000E6FF050EDBCFE9FF060EDBCFEAFF080E29
:10306000E926000EEA22E9CF0BF0EACF0CF00BC004
:10307000E6FF0CC0E6FF27EC0BF0E552E552E55207
:10308000E552050EDBCFE6FF060EDBCFE6FF03ECD5
:1030900023F0E552E552B7EC07F0000902E12DEC10
:1030A00028F00CD0050EDBCFE6FF060EDBCFE6FFE7
:1030B00003EC23F0E552E552B7EC07F00ED0050E15
:1030C000DBCFE6FF060EDBCFE6FF03EC23F0E55295
:1030D000E552B7EC07F0000E01D0C6D60B6E070E16
:1030E000E15C02E2E16AE552E16E0B50E552E5CFA8
:1030F000DAFFE7CFD9FF1200D9CFE6FFDACFE6FF3C
:10310000E1CFD9FFE2CFDAFFE652E652E652E652CD
:10311000E652FC0EDBCF06F0FD0EDBCF07F0020E11
:1031200006C0DBFF030E07C0DBFF010EDB6A020EE9
:10313000DBCFE9FF030EDBCFEAFF1A0EE926000E14
:10314000EA22EFCF0BF0020EDBCFE9FF030EDBCF5D
:10315000EAFF1B0EE926000EEA22EF500B5C05E3A6
:10316000F70EDB50020801E077D0020EDBCFE9FF5B
:10317000030EDBCFEAFF1E0EE926000EEA22040E44
:10318000EFCFDBFFF70EDBCFE6FFFA0EDBCFE6FF7C
:10319000FB0EDBCFE6FF020EDBCFE6FF030EDBCF3D
:1031A000E6FFBEEC20F00B6E050EE15C02E2E16A88
:1031B000E552E16E0B50040EDB50FF083AE1020EBF
:1031C000DBCFE9FF030EDBCFEAFF110EE926000E8D
:1031D000EA22EF5002E1010E01D0000E000939E1B0
:1031E000020EDBCFE9FF030EDBCFEAFF110EE9266B
:1031F000000EEA22E9CF0BF0EACF0CF0E9CFE6FFB0
:10320000EACFE6FFA9EC0BF0E552E552000921E018
:10321000D950F80FE96EFF0EDA20EA6EEE50ED108D
:1032200018E0F80EDBCFE9FFF90EDBCFEAFF010E65
:103230000FD0040EDB28E66E020EDBCFE9FF030E93
:10324000DBCFEAFF1E0EE926000EEA22E552E75028
:10325000EF6E010EDF6E01D0DF6ADF500B6E050EE0
:10326000E15C02E2E16AE552E16E0B50E552E5CF26
:10327000DAFFE7CFD9FF1200D9CFE6FFDACFE6FFBA
:10328000E1CFD9FFE2CFDAFF060EE12402E3E168E5
:10329000E652E16EFC0EDBCF06F0FD0EDBCF07F051
:1032A000020E06C0DBFF030E07C0DBFF010EDB6A68
:1032B000020EDBCFE9FF030EDBCFEAFF1A0EE92691
:1032C000000EEA22040EEFCFDBFF020EDBCFE9FF98
:1032D000030EDBCFEAFF1B0EE926000EEA22EF50B9
:1032E000F36E040EDBCFF4FFF350F45C6EE2020EDB
:1032F000DBCFE9FF030EDBCFEAFF1E0EE926000E4F
:10330000EA22050EEFCFDBFF040EDB28E66E020E8D
:10331000DBCFE9FF030EDBCFEAFF1A0EE926000E32
:10332000EA22E552E750EF6E050EDB50FF083AE166
:10333000020EDBCFE9FF030EDBCFEAFF110EE92619
:10334000000EEA22EF5002E1010E01D0000E00094A
:1033500039E1020EDBCFE9FF030EDBCFEAFF110EEE
:10336000E926000EEA22E9CF0BF0EACF0CF0E9CF14
:10337000E6FFEACFE6FFA9EC0BF0E552E5520009C3
:1033800021E0D950FA0FE96EFF0EDA20EA6EEE5016
:10339000ED1018E0FA0EDBCFE9FFFB0EDBCFEAFF02
:1033A000010E0FD0050EDB28E66E020EDBCFE9FF23
:1033B000030EDBCFEAFF1E0EE926000EEA22E552DD
:1033C000E750EF6E010EDF6E01D0DF6ADF500B6E4B
:1033D000060EE15C02E2E16AE552E16E0B50E55255
:1033E000E5CFDAFFE7CFD9FF1200D9CFE6FFDACF7A
:1033F000E6FFE1CFD9FFE2CFDAFF070EE12402E3D7
:10340000E168E652E16EDF6AFC0EDBCF06F0FD0EEE
:10341000DBCF07F0040E06C0DBFF050E07C0DBFFA5
:10342000F250E66EF29E040EDBCFE9FF050EDBCF15
:10343000EAFF1A0EE926000EEA22060EEFCFDBFFA6
:10344000060EDB50000855E2FA0EDBCFE6FFFB0E5E
:10345000DBCFE6FF040EDBCFE6FF050EDBCFE6FF9A
:1034600054EC22F0E552E552E552E552060EDB043B
:10347000E66E040EDBCFE9FF050EDBCFEAFF1A0E86
:10348000E926000EEA22E552E750EF6E040EDBCF8C
:10349000E9FF050EDBCFEAFF080EE926000EEA225F
:1034A000EF5002E1010E01D0000E00091CE1040EF4
:1034B000DBCFE9FF050EDBCFEAFF080EE926000EA1
:1034C000EA22E9CF0BF0EACF0CF00BC0E6FF0CC00C
:1034D000E6FFA9EC0BF0E552E552000903E02DEC04
:1034E00028F000D000D0E552E7BEF28E010ED3D016
:1034F0001ED0D950F80FE96EFF0EDA20EA6EEE50BA
:10350000ED1006E1E552E7BEF28E000EC4D00FD0FA
:10351000DF500DE1D950010FE66E000EDA20E66EA5
:103520004EEC0DF0E552E552010EDF6E00D0E55293
:10353000E7BEF28EB4EC07F0F250E66EF29E040E97
:10354000DBCFE9FF050EDBCFEAFF1D0EE926000EFB
:10355000EA22EF50FF080BE1040EDBCFE9FF050E76
:10356000DBCFEAFF1D0EE926000EEA22EF6A040E09
:10357000DBCFE9FF050EDBCFEAFF1E0EE926000ECA
:10358000EA22EF50FF080BE1040EDBCFE9FF050E46
:10359000DBCFEAFF1E0EE926000EEA22EF6AE552B3
:1035A000E7BEF28ED950F80FE66EFF0EDA20E66E17
:1035B000D950010FE66E000EDA20E66E6FEC0DF0CA
:1035C000E552E552E552E552000949E1040EDBCF30
:1035D000E6FF050EDBCFE6FFCCEC23F0E552E5522B
:1035E000000930E0F80EDBCFE6FFF90EDBCFE6FF97
:1035F000040EDBCFE9FF050EDBCFEAFF110EE92653
:10360000000EEA22E9CF0BF0EACF0CF00BC0E6FF88
:103610000CC0E6FF27EC0BF0E552E552E552E5520F
:10362000040EDBCFE6FF050EDBCFE6FF03EC23F055
:10363000E552E552B7EC07F0000903E12DEC28F064
:1036400000D00CD0040EDBCFE6FF050EDBCFE6FF8B
:1036500003EC23F0E552E552B7EC07F01BD0040E63
:10366000DBCFE6FF050EDBCFE6FF03EC23F0E552F0
:10367000E552B7EC07F0040EDBCFE6FF050EDBCF1B
:10368000E6FFCCEC23F0E552E552000903E0000E22
:1036900002D000D0C5D60B6E070EE15C02E2E16AF3
:1036A000E552E16E0B50E552E5CFDAFFE7CFD9FFE7
:1036B0001200D9CFE6FFDACFE6FFE1CFD9FFE2CFA4
:1036C000DAFF090EE12402E3E168E652E16EDF6A07
:1036D000FC0EDBCF06F0FD0EDBCF07F0040E06C0BC
:1036E000DBFF050E07C0DBFF060EDB6AF250E66E5D
:1036F000F29E040EDBCFE9FF050EDBCFEAFF1A0EC8
:10370000E926000EEA22070EEFCFDBFF070EDB50A3
:10371000000861E2070EDB04E66E040EDBCFE9FF72
:10372000050EDBCFEAFF1A0EE926000EEA22E5526B
:10373000E750EF6E040EDBCFE9FF050EDBCFEAFFAB
:10374000EE50ED1015E19FEC13F0F3CF0BF0F4CF3A
:103750000CF0040EDBCFE9FF050EDBCFEAFF040E11
:10376000E926000EEA220BC0EEFF0CC0EDFF00D0F0
:10377000040EDBCFE9FF050EDBCFEAFF080EE926DA
:10378000000EEA22EF5002E1010E01D0000E000906
:103790001CE1040EDBCFE9FF050EDBCFEAFF080ECC
:1037A000E926000EEA22E9CF0BF0EACF0CF00BC0BD
:1037B000E6FF0CC0E6FFA9EC0BF0E552E55200096C
:1037C00003E02DEC28F000D000D0E552E7BEF28EE9
:1037D000010E25D11ED0D950FA0FE96EFF0EDA2066
:1037E000EA6EEE50ED1006E1E552E7BEF28E000EF5
:1037F00016D10FD0DF500DE1D950010FE66E000E4B
:10380000DA20E66E4EEC0DF0E552E552010EDF6E69
:1038100000D0E552E7BEF28EB4EC07F0F250E66E4F
:10382000F29E040EDBCFE9FF050EDBCFEAFF1D0E93
:10383000E926000EEA22EF50FF080BE1040EDBCF71
:10384000E9FF050EDBCFEAFF1D0EE926000EEA2296
:10385000EF6A040EDBCFE9FF050EDBCFEAFF1E0E99
:10386000E926000EEA22EF50FF080BE1040EDBCF41
:10387000E9FF050EDBCFEAFF1E0EE926000EEA2265
:10388000EF6AE552E7BEF28ED950FA0FE66EFF0EF0
:10389000DA20E66ED950010FE66E000EDA20E66EF1
:1038A0006FEC0DF0E552E552E552E55200096FE18B
:1038B000040EDBCFE6FF050EDBCFE6FFCCEC23F0FA
:1038C000E552E552000956E0040EDBCFE9FF050E94
:1038D000DBCFEAFFEE50ED101DE1F250E66EF29EF6
:1038E000040EDBCFE9FF050EDBCFEAFF040EE9266D
:1038F000000EEA22EECFE6FFEFCFE6FF26EC10F057
:10390000E552E552E76E060EE7CFDBFFE552E7BE74
:10391000F28E00D0FA0EDBCFE6FFFB0EDBCFE6FF28
:10392000040EDBCFE9FF050EDBCFEAFF110EE9261F
:10393000000EEA22E9CF0BF0EACF0CF00BC0E6FF55
:103940000CC0E6FF27EC0BF0E552E552E552E552DC
:10395000040EDBCFE6FF050EDBCFE6FF03EC23F022
:10396000E552E552B7EC07F0000903E12DEC28F031
:1039700000D00CD0040EDBCFE6FF050EDBCFE6FF58
:1039800003EC23F0E552E552B7EC07F047D0040E04
:10399000DBCFE6FF050EDBCFE6FF03EC23F0E552BD
:1039A000E552B7EC07F0040EDBCFE6FF050EDBCFE8
:1039B000E6FFCCEC23F0E552E55200092FE0060EBD
:1039C000DB5029E0F250E66EF29E040EDBCFE6FFFC
:1039D000050EDBCFE6FF97DBE552E552E76E080EFA
:1039E000E7CFDBFF080EDBCFE6FF040EDBCFE9FFFE
:1039F000050EDBCFEAFF040EE926000EEA22EECF29
:103A0000E6FFEFCFE6FF34EC12F0E552E552E55267
:103A1000E552E7BEF28E000E02D000D067D60B6EE4
:103A2000090EE15C02E2E16AE552E16E0B50E552FB
:103A3000E5CFDAFFE7CFD9FF1200D9CFE6FFDACF23
:103A4000E6FFE1CFD9FFE2CFDAFF090EE12402E37E
:103A5000E168E652E16EDF6AFC0EDBCF06F0FD0E98
:103A6000DBCF07F0060E06C0DBFF070E07C0DBFF4B
:103A7000F250E66EF29E060EDBCFE9FF070EDBCFBB
:103A8000EAFF1A0EE926000EEA22080EEFCFDBFF4E
:103A9000080EDB5000086DE2060EDBCFE9FF070ED3
:103AA000DBCFEAFF040EE926000EEA22020EE92629
:103AB000000EEA22040EEECFDBFF050EEDCFDBFF9A
:103AC000FA0EDBCFE6FFFB0EDBCFE6FF060EDBCF09
:103AD000E6FF070EDBCFE6FF54EC22F0E552E5529D
:103AE000E552E552060EDBCFE9FF070EDBCFEAFF1A
:103AF000040EE926000EEA22020EE926000EEA2252
:103B0000040EDBCFEEFF050EDBCFEDFF060EDBCFA5
:103B1000E9FF070EDBCFEAFF110EE926000EEA22CD
:103B2000EF5002E1010E01D0000E00091CE1060E6B
:103B3000DBCFE9FF070EDBCFEAFF110EE926000E0F
:103B4000EA22E9CF0BF0EACF0CF00BC0E6FF0CC085
:103B5000E6FFA9EC0BF0E552E552000903E02DEC7D
:103B600028F000D000D0E552E7BEF28E010ED3D08F
:103B70001ED0D950F80FE96EFF0EDA20EA6EEE5033
:103B8000ED1006E1E552E7BEF28E000EC4D00FD074
:103B9000DF500DE1D950010FE66E000EDA20E66E1F
:103BA0004EEC0DF0E552E552010EDF6E00D0E5520D
:103BB000E7BEF28EB4EC07F0F250E66EF29E060E0F
:103BC000DBCFE9FF070EDBCFEAFF1D0EE926000E73
:103BD000EA22EF50FF080BE1060EDBCFE9FF070EEC
:103BE000DBCFEAFF1D0EE926000EEA22EF6A060E81
:103BF000DBCFE9FF070EDBCFEAFF1E0EE926000E42
:103C0000EA22EF50FF080BE1060EDBCFE9FF070EBB
:103C1000DBCFEAFF1E0EE926000EEA22EF6AE5522C
:103C2000E7BEF28ED950F80FE66EFF0EDA20E66E90
:103C3000D950010FE66E000EDA20E66E6FEC0DF043
:103C4000E552E552E552E552000949E1060EDBCFA7
:103C5000E6FF070EDBCFE6FFCCEC23F0E552E552A2
:103C6000000930E0F80EDBCFE6FFF90EDBCFE6FF10
:103C7000060EDBCFE9FF070EDBCFEAFF110EE926C8
:103C8000000EEA22E9CF0BF0EACF0CF00BC0E6FF02
:103C90000CC0E6FF27EC0BF0E552E552E552E55289
:103CA000060EDBCFE6FF070EDBCFE6FF03EC23F0CB
:103CB000E552E552B7EC07F0000903E12DEC28F0DE
:103CC00000D00CD0060EDBCFE6FF070EDBCFE6FF01
:103CD00003EC23F0E552E552B7EC07F01BD0060EDB
:103CE000DBCFE6FF070EDBCFE6FF03EC23F0E55268
:103CF000E552B7EC07F0060EDBCFE6FF070EDBCF91
:103D0000E6FFCCEC23F0E552E552000903E0000E9B
:103D100002D000D0ADD60B6E090EE15C02E2E16A82
:103D2000E552E16E0B50E552E5CFDAFFE7CFD9FF60
:103D30001200D9CFE6FFDACFE6FFE1CFD9FFE2CF1D
:103D4000DAFF060EE12402E3E168E652E16EFC0EC2
:103D5000DBCF06F0FD0EDBCF07F0020E06C0DBFF67
:103D6000030E07C0DBFF010EDB6A020EDBCFE9FFAB
:103D7000030EDBCFEAFF1A0EE926000EEA22040E3C
:103D8000EFCFDBFFDB50000801E37FD0020EDBCF7B
:103D9000E9FF030EDBCFEAFF1D0EE926000EEA2243
:103DA000050EEFCFDBFFFA0EDBCFE6FFFB0EDBCF1E
:103DB000E6FF020EDBCFE6FF030EDBCFE6FF74DB90
:103DC000E552E552E552E552040EDB04E66E020EC2
:103DD000DBCFE9FF030EDBCFEAFF1A0EE926000E68
:103DE000EA22E552E750EF6E050EDB50FF083AE19C
:103DF000020EDBCFE9FF030EDBCFEAFF080EE92658
:103E0000000EEA22EF5002E1010E01D0000E00097F
:103E100039E1020EDBCFE9FF030EDBCFEAFF080E2C
:103E2000E926000EEA22E9CF0BF0EACF0CF0E9CF49
:103E3000E6FFEACFE6FFA9EC0BF0E552E5520009F8
:103E400021E0D950F80FE96EFF0EDA20EA6EEE504D
:103E5000ED1018E0F80EDBCFE9FFF90EDBCFEAFF3B
:103E6000010E0FD0050EDB28E66E020EDBCFE9FF58
:103E7000030EDBCFEAFF1D0EE926000EEA22E55213
:103E8000E750EF6E010EDF6E01D0DF6ADF500B6E80
:103E9000060EE15C02E2E16AE552E16E0B50E5528A
:103EA000E5CFDAFFE7CFD9FF1200D9CFE6FFDACFAF
:103EB000E6FFE1CFD9FFE2CFDAFF060EE12402E30D
:103EC000E168E652E16EFC0EDBCF06F0FD0EDBCFC3
:103ED00007F0040E06C0DBFF050E07C0DBFF010E76
:103EE000DB6A040EDBCFE9FF050EDBCFEAFF1A0E1B
:103EF000E926000EEA22EF5000083CE2040EDBCF78
:103F0000E9FF050EDBCFEAFF040EE926000EEA22E8
:103F1000020EE926000EEA22020EEECFDBFF030EB0
:103F2000EDCFDBFFFA0EDBCFE6FFFB0EDBCFE6FFCC
:103F3000040EDBCFE6FF050EDBCFE6FFB5DAE55278
:103F4000E552E552E552040EDBCFE9FF050EDBCF6B
:103F5000EAFF040EE926000EEA22020EE926000E10
:103F6000EA22020EDBCFEEFF030EDBCFEDFF010EE8
:103F7000DF6E01D0DF6ADF500B6E060EE15C02E2FD
:103F8000E16AE552E16E0B50E552E5CFDAFFE7CF8B
:103F9000D9FF1200D9CFE6FFDACFE6FFE1CFD9FF94
:103FA000E2CFDAFFE652F250E66EF29EFC0EDBCF75
:103FB000E9FFFD0EDBCFEAFF1A0EE926000EEA222A
:103FC000EFCFDFFFE552E7BEF28EDF5000D0E552C3
:103FD000E552E5CFDAFFE7CFD9FF1200D9CFE6FFF0
:103FE000DACFE6FFE1CFD9FFE2CFDAFFE652E652C1
:103FF000E652FC0EDBCF06F0FD0EDBCF07F0DE5203
:1040000006C0DEFF07C0DDFFDD52F250E66EF29E15
:10401000010EDBCFE9FF020EDBCFEAFF1B0EE92624
:10402000000EEA22EFCF0BF0010EDBCFE9FF020E0C
:10403000DBCFEAFF1A0EE926000EEA22EF500B5CF6
:10404000DF6EE552E7BEF28EDF5000D0E552E5525A
:10405000E552E552E5CFDAFFE7CFD9FF1200D9CF1D
:10406000E6FFDACFE6FFE1CFD9FFE2CFDAFFE65293
:10407000E652E652FC0EDBCF06F0FD0EDBCF07F07A
:10408000DE5206C0DEFF07C0DDFFDD52010EDBCFD2
:10409000E9FF020EDBCFEAFF1A0EE926000EEA2244
:1040A000EFCFDFFFDF50E552E552E552E552E5CFB5
:1040B000DAFFE7CFD9FF1200D9CFE6FFDACFE6FF6C
:1040C000E1CFD9FFE2CFDAFFE652E652FC0EDBCFBA
:1040D000DEFFDBCFDDFFDECFE6FFDDCFE6FF33EC3B
:1040E00025F0E552E552DECFE6FFDDCFE6FFDCEC62
:1040F0002BF0E552E552E552E552E552E5CFDAFF05
:10410000E7CFD9FF1200D9CFE6FFDACFE6FFE1CF44
:10411000D9FFE2CFDAFFE652FC0EDBCFE9FFFD0E5E
:10412000DBCFEAFF110EE926000EEA22EF5000086D
:104130001CE2030E0B6EFC0EDBCFE9FFFD0EDBCFA6
:10414000EAFF110EE926000EEA22030EE926000E10
:10415000EA22020EE926000EEA22EE50EFCFEAFF35
:10416000E96EEF500B5CDF6E01D0DF6ADF50E55285
:10417000E552E5CFDAFFE7CFD9FF1200D9CFE6FF4E
:10418000DACFE6FFE1CFD9FFE2CFDAFFE652E6521F
:10419000DF6AFC0EDBCFE9FFFD0EDBCFEAFF1A0E74
:1041A000E926000EEA22010EEFCFDBFFFC0EDBCF8B
:1041B000E9FFFD0EDBCFEAFF1C0EE926000EEA2226
:1041C000EF502AE1FC0EDBCFE9FFFD0EDBCFEAFF6B
:1041D000EE50ED1001E04FD1FC0EDBCFE9FFFD0EFC
:1041E000DBCFEAFF040EE926000EEA22EECFE6FF5F
:1041F000EFCFE6FF53EC11F0E552E552DF6EFC0E17
:10420000DBCFE9FFFD0EDBCFEAFF040EE926000E4F
:10421000EA22EE6AED6A2FD1F90EDB5001E083D07D
:10422000FC0EDBCFE9FFFD0EDBCFEAFF1C0EE9261B
:10423000000EEA22EF50E66EE66AFA0EDBCFE6FFEA
:10424000FB0EDBCFE6FFFC0EDBCFE9FFFD0EDBCF85
:10425000EAFF020EE926000EEA22EECFE6FFEFCFDC
:10426000E6FF3DEC31F00B6E060EE15C02E2E16A26
:10427000E552E16E0B50FC0EDBCFE9FFFD0EDBCF0C
:10428000EAFF1C0EE926000EEA22EF500B6E0C6AC4
:10429000FC0EDBCFE9FFFD0EDBCFEAFF020EE926C5
:1042A000000EEA220B50EE260C50ED22FC0EDBCF66
:1042B000E9FFFD0EDBCFEAFF020EE926000EEA223F
:1042C000EECF0BF0EFCF0CF0FC0EDBCFE9FFFD0ED5
:1042D000DBCFEAFF040EE926000EEA22EECF0DF056
:1042E000EECF0EF0EECF0FF00D500B5C0E500C58D1
:1042F00001E2C1D0FC0EDBCFE9FFFD0EDBCFEAFF10
:10430000EECF0BF0EFCF0CF0FC0EDBCFE9FFFD0E94
:10431000DBCFEAFF020EE926000EEA220BC0EEFF19
:104320000CC0EDFFA8D0FC0EDBCFE9FFFD0EDBCF0C
:10433000EAFF1C0EE926000EEA22EF50E66EE66A5E
:10434000FA0EDBCFE6FFFB0EDBCFE6FFFC0EDBCF8A
:10435000E9FFFD0EDBCFEAFF040EE926000EEA229C
:10436000020EE926000EEA22EECFE6FFEFCFE6FFCF
:104370003DEC31F00B6E060EE15C02E2E16AE552C3
:10438000E16E0B50FC0EDBCFE9FFFD0EDBCFEAFF49
:104390001C0EE926000EEA22EF500B6E0C6AFC0E92
:1043A000DBCFE9FFFD0EDBCFEAFF040EE926000EAE
:1043B000EA22020EE926000EEA220B50EE5E0C50B5
:1043C000ED5AFC0EDBCFE9FFFD0EDBCFEAFF040E5A
:1043D000E926000EEA22EECF0BF0EECF0CF0EECF86
:1043E0000DF0EFCF0EF0FC0EDBCFE9FFFD0EDBCFC3
:1043F000EAFFEECF0FF0EFCF10F00F500D5C105032
:104400000E582FE2FC0EDBCFE9FFFD0EDBCFEAFFFB
:104410001C0EE926000EEA22EF500D6E0E6AFC0E0D
:10442000DBCFE9FFFD0EDBCFEAFF040EE926000E2D
:10443000EA220D50EE5C0B6E0E50EE580C6EFC0E28
:10444000DBCFE9FFFD0EDBCFEAFF040EE926000E0D
:10445000EA22020EE926000EEA220BC0EEFF0CC093
:10446000EDFFF90EDB50020806E1010EDB500008FB
:1044700002E2010EDB06010EDB28E66EFC0EDBCF4E
:10448000E9FFFD0EDBCFEAFF1A0EE926000EEA2255
:10449000E552E750EF6EDF50E552E552E552E5CFC9
:1044A000DAFFE7CFD9FF1200D9CFE6FFDACFE6FF78
:1044B000E1CFD9FFE2CFDAFFFC0EDBCFE9FFFD0E43
:1044C000DBCFEAFF1C0EE926000EEA22EF5001E1E5
:1044D00094D0FC0EDBCFE9FFFD0EDBCFEAFF1C0E14
:1044E000E926000EEA22EF500B6E0C6AFC0EDBCFC1
:1044F000E9FFFD0EDBCFEAFF040EE926000EEA22FB
:10450000020EE926000EEA220B50EE260C50ED2298
:10451000FC0EDBCFE9FFFD0EDBCFEAFF040EE92640
:10452000000EEA22EECF0BF0EECF0CF0EECF0DF046
:10453000EFCF0EF0FC0EDBCFE9FFFD0EDBCFEAFF85
:10454000040EE926000EEA22EECF0FF0EECF10F0B7
:10455000EECF11F0EFCF12F000010F500D5C1050B4
:104560000E581CE3FC0EDBCFE9FFFD0EDBCFEAFFAC
:10457000EECF0BF0EFCF0CF0FC0EDBCFE9FFFD0E22
:10458000DBCFEAFF040EE926000EEA22020EE9263E
:10459000000EEA220BC0EEFF0CC0EDFFFC0EDBCFDD
:1045A000E9FFFD0EDBCFEAFF1C0EE926000EEA2232
:1045B000EF50E66EE66AFC0EDBCFE9FFFD0EDBCFC7
:1045C000EAFF040EE926000EEA22020EE926000E9A
:1045D000EA22EECFE6FFEFCFE6FFFA0EDBCFE6FFF3
:1045E000FB0EDBCFE6FF3DEC31F00B6E060EE15C1F
:1045F00002E2E16AE552E16E0B50E552E5CFDAFFE7
:10460000E7CFD9FF1200D9CFE6FFDACFE6FFE1CF3F
:10461000D9FFE2CFDAFFE652E652F250E66EF29EA2
:10462000FC0EDBCFE9FFFD0EDBCFEAFF1E0EE92615
:10463000000EEA22EFCFDFFFDFCF0BF0000EE76EB8
:104640000B18E8AE02D00B3403D0E750D8800B54DF
:1046500030E2FC0EDBCFE9FFFD0EDBCFEAFF110EEF
:10466000E926000EEA22EF5002E1010E01D0000E11
:1046700000091CE1FC0EDBCFE9FFFD0EDBCFEAFFFA
:10468000110EE926000EEA22E9CF0BF0EACF0CF07A
:104690000BC0E6FF0CC0E6FFA9EC0BF0E552E552BB
:1046A000000903E01EEC0EF000D001D002D0DF06BE
:1046B000C3D7FC0EDBCFE9FFFD0EDBCFEAFF1E0EFA
:1046C000E926000EEA22EF68E552E7BEF28EF250CC
:1046D000E66EF29EFC0EDBCFE9FFFD0EDBCFEAFFBC
:1046E0001D0EE926000EEA22010EEFCFDBFF010EC0
:1046F000DBCF0BF0000EE76E0B18E8AE02D00B34E8
:1047000003D0E750D8800B5431E2FC0EDBCFE9FF39
:10471000FD0EDBCFEAFF080EE926000EEA22EF507D
:1047200002E1010E01D0000E00091EE1FC0EDBCFFC
:10473000E9FFFD0EDBCFEAFF080EE926000EEA22B4
:10474000E9CF0BF0EACF0CF00BC0E6FF0CC0E6FFA0
:10475000A9EC0BF0E552E552000903E01EEC0EF067
:1047600000D0010EDB0601D001D0C1D7FC0EDBCF9B
:10477000E9FFFD0EDBCFEAFF1D0EE926000EEA225F
:10478000EF68E552E7BEF28EE552E552E552E5CF1D
:10479000DAFFE7CFD9FF1200D9CFE6FFDACFE6FF85
:1047A000E1CFD9FFE2CFDAFFE652F250E66EF29E99
:1047B000FC0EDBCFE9FFFD0EDBCFEAFF1A0EE92688
:1047C000000EEA22EF5003E1010EDF6E01D0DF6A36
:1047D000E552E7BEF28EDF5000D0E552E552E5CF5C
:1047E000DAFFE7CFD9FF1200D9CFE6FFDACFE6FF35
:1047F000E1CFD9FFE2CFDAFFE652E652E652FC0EF5
:10480000DBCF06F0FD0EDBCF07F0DE5206C0DEFF89
:1048100007C0DDFFDD52010EDBCFE9FF020EDBCF6B
:10482000EAFF1A0EE926000EEA22EF5003E1010E1C
:10483000DF6E01D0DF6ADF50E552E552E552E55206
:10484000E5CFDAFFE7CFD9FF1200D9CFE6FFDACF05
:10485000E6FFE1CFD9FFE2CFDAFFE652F250E66E93
:10486000F29EFC0EDBCFE9FFFD0EDBCFEAFF1A0E56
:10487000E926000EEA22EFCF0BF0FC0EDBCFE9FFBA
:10488000FD0EDBCFEAFF1B0EE926000EEA22EF50F9
:104890000B5C03E1010EDF6E01D0DF6AE552E7BE7B
:1048A000F28EDF5000D0E552E552E5CFDAFFE7CFD8
:1048B000D9FF1200D9CFE6FFDACFE6FFE1CFD9FF6B
:1048C000E2CFDAFFE652E652E652FC0EDBCF06F00C
:1048D000FD0EDBCF07F0DE5206C0DEFF07C0DDFFB6
:1048E000DD52010EDBCFE9FF020EDBCFEAFF1A0E2D
:1048F000E926000EEA22EFCF0BF0010EDBCFE9FF35
:10490000020EDBCFEAFF1B0EE926000EEA22EF5073
:104910000B5C03E1010EDF6E01D0DF6ADF50E55270
:10492000E552E552E552E5CFDAFFE7CFD9FF1200B5
:10493000D9CFE6FFDACFE6FFE1CFD9FFE2CFDAFF4A
:10494000E652DF6A0A0EDF5C34E2DF50040DF3CF7B
:10495000E9FFF4CFEAFF300EE926030EEA22EE501B
:10496000ED1025E1DF50040DF3CFE9FFF4CFEAFFAE
:10497000300EE926030EEA22FA0EDBCFEEFFFB0E25
:10498000DBCFEDFFDF50040DF3CFE9FFF4CFEAFFFB
:10499000300EE926030EEA22020EE926000EEA2274
:1049A000FC0EDBCFEEFFFD0EDBCFEDFF02D0DF2AEA
:1049B000C9D7E552E552E5CFDAFFE7CFD9FF1200BC
:1049C000D9CFE6FFDACFE6FFE1CFD9FFE2CFDAFFBA
:1049D000E652E652E652010EDB6A020EDB6ADF6A3D
:1049E0000A0EDF5C2DE2DF50040DF3CFE9FFF4CFB8
:1049F000EAFF300EE926030EEA22020EE926000E37
:104A0000EA22EECF0BF0EFCF0CF0FC0EDB500B18D0
:104A100015E1FD0EDB500C1811E1DF50040DF3CF52
:104A2000E9FFF4CFEAFF300EE926030EEA22010E79
:104A3000EECFDBFF020EEDCFDBFF02D0DF2AD0D7B7
:104A4000010EDBCF0BF0020EDBCF0CF00BC0F3FF3F
:104A50000CC0F4FFE552E552E552E552E5CFDAFF2E
:104A6000E7CFD9FF1200D9CFE6FFDACFE6FFE1CFDB
:104A7000D9FFE2CFDAFFE652DF6A0A0EDF5C39E2E5
:104A8000DF50040DF3CFE9FFF4CFEAFF300EE92643
:104A9000030EEA22020EE926000EEA22EECF0BF008
:104AA000EFCF0CF0FC0EDB500B1821E1FD0EDB50BC
:104AB0000C181DE1DF50040DF3CFE9FFF4CFEAFF3E
:104AC000300EE926030EEA22EE6AED6ADF50040D8D
:104AD000F3CFE9FFF4CFEAFF300EE926030EEA2216
:104AE000020EE926000EEA22EE6AED6A02D0DF2A03
:104AF000C4D7E552E552E5CFDAFFE7CFD9FF120080
:104B0000D9CFE6FFDACFE6FFE1CFD9FFE2CFDAFF78
:104B1000E652E652E652E652E652FC0EDBCFE9FFE1
:104B2000FD0EDBCFEAFF110EEF6EFC0EDB2AFD0E51
:104B300001E3DB2AFC0EDBCFE9FFFD0EDBCFEAFF52
:104B4000220EEF6EFC0EDB2AFD0E01E3DB2AFC0ECB
:104B5000DBCFE9FFFD0EDBCFEAFF330EEF6EFC0E7D
:104B6000DB2AFD0E01E3DB2AF70EDBCF0BF0F80E9C
:104B7000DBCF0CF0000E0BC0DFFF010E0CC0DBFF23
:104B8000020EDB6A030EDB6AD9CFE9FFDACFEAFF58
:104B9000EECF0BF0EECF0CF0EECF0DF00B50E66E3B
:104BA000FC0EDBCFE9FFFD0EDBCFEAFFE552E7505D
:104BB000EF6EFC0EDB2AFD0E01E3DB2AD9CFE9FF05
:104BC000DACFEAFF080EE76ED890030EEB32020E42
:104BD000EB32010EEB32EF32E706F6E1D9CFE9FF17
:104BE000DACFEAFFEECF0BF0EECF0CF0EECF0DF008
:104BF0000B50E66EFC0EDBCFE9FFFD0EDBCFEAFFCC
:104C0000E552E750EF6EFC0EDB2AFD0E01E3DB2AD6
:104C1000FC0EDBCFE9FFFD0EDBCFEAFF440EEF6EAB
:104C2000FC0EDB2AFD0E01E3DB2AFC0EDBCFE9FFE5
:104C3000FD0EDBCFEAFF660EEF6EFC0EDB2AFD0EEB
:104C400001E3DB2AFC0EDBCFE9FFFD0EDBCFEAFF41
:104C5000CC0EEF6EFC0EDB2AFD0E01E3DB2AFC0E10
:104C6000DBCFE9FFFD0EDBCFEAFFC00EEF6EFC0EDF
:104C7000DB2AFD0E01E3DB2AFC0EDBCFE9FFFD0E94
:104C8000DBCFEAFF110EEF6EFC0EDB2AFD0E01E317
:104C9000DB2AFC0EDBCFE9FFFD0EDBCFEAFF220EA5
:104CA000EF6EFC0EDB2AFD0E01E3DB2AFC0EDBCFF0
:104CB000E9FFFD0EDBCFEAFF330EEF6EFC0EDB2AC1
:104CC000FD0E01E3DB2AFC0EDBCFE9FFFD0EDBCF9F
:104CD000EAFF440EEF6EFC0EDB2AFD0E01E3DB2A39
:104CE000FC0EDBCFE9FFFD0EDBCFEAFF550EEF6ECA
:104CF000FC0EDB2AFD0E01E3DB2AFC0EDBCFE9FF15
:104D0000FD0EDBCFEAFF660EEF6EFC0EDB2AFD0E1A
:104D100001E3DB2AFC0EDBCFE9FFFD0EDBCFEAFF70
:104D2000EF6AFC0EDB2AFD0E01E3DB2AFC0EDBCF73
:104D3000E9FFFD0EDBCFEAFF880EEF6EFC0EDB2AEB
:104D4000FD0E01E3DB2AFC0EDBCFE9FFFD0EDBCF1E
:104D5000EAFF990EEF6EFC0EDB2AFD0E01E3DB2A63
:104D6000FC0EDBCFE9FFFD0EDBCFEAFFAA0EEF6EF4
:104D7000FC0EDB2AFD0E01E3DB2AFC0EDBCFE9FF94
:104D8000FD0EDBCFEAFFBB0EEF6EFC0EDB2AFD0E45
:104D900001E3DB2AFC0EDBCFE9FFFD0EDBCFEAFFF0
:104DA000EF6AFC0EDB2AFD0E01E3DB2AFC0EDBCFF3
:104DB000E9FFFD0EDBCFEAFFEF6AFC0EDB2AFD0EFA
:104DC00001E3DB2A040EDB6ADB50130815E3FC0E5B
:104DD000DBCFE9FFFD0EDBCFEAFF040EDBCFEFFFF9
:104DE000FC0EDBCFE9FFDB2AFD0EDBCFEAFF01E3A0
:104DF000DB2A040EDB2AE8D7FC0EDBCFE9FFFD0E31
:104E0000DBCFEAFF130EEF6EFC0EDB2AFD0E01E393
:104E1000DB2AFC0EDBCFE9FFFD0EDBCFEAFFEF6AFA
:104E2000FC0EDB2AFD0E01E3DB2AF90EDBCF0BF0D3
:104E3000FA0EDBCF0CF0FB0EDBCF0DF00E6A0BC0D1
:104E4000DFFF010E0CC0DBFF020E0DC0DBFF030E07
:104E50000EC0DBFFD9CFE9FFDACFEAFFEECF0BF0D0
:104E6000EECF0CF0EECF0DF00B50E66EFC0EDBCF6C
:104E7000E9FFFD0EDBCFEAFFE552E750EF6EFC0ED7
:104E8000DB2AFD0E01E3DB2AD9CFE9FFDACFEAFF07
:104E9000080EE76ED890030EEB32020EEB32010ED5
:104EA000EB32EF32E706F6E1D9CFE9FFDACFEAFFDE
:104EB000EECF0BF0EECF0CF0EECF0DF00B50E66E18
:104EC000FC0EDBCFE9FFFD0EDBCFEAFFE552E7503A
:104ED000EF6EFC0EDB2AFD0E01E3DB2AD9CFE9FFE2
:104EE000DACFEAFF080EE76ED890030EEB32020E1F
:104EF000EB32010EEB32EF32E706F6E1D9CFE9FFF4
:104F0000DACFEAFFEECF0BF0EECF0CF0EECF0DF0E4
:104F10000B50E66EFC0EDBCFE9FFFD0EDBCFEAFFA8
:104F2000E552E750EF6EFC0EDB2AFD0E01E3DB2AB3
:104F3000FC0EDBCFE9FFFD0EDBCFEAFF010EEF6ECB
:104F4000FC0EDB2AFD0E01E3DB2AFC0EDBCF0BF0AF
:104F5000FD0EDBCF0CF00BC0F3FF0CC0F4FF050E11
:104F6000E15C02E2E16AE552E16EE552E5CFDAFF8B
:104F7000E7CFD9FF12002ADA58C3E9FF59C3EAFF85
:104F8000EECFE1FFEECFE2FFE5CFE9FFE5CFE9FFAE
:104F9000FC6AE950FC5C08E20500E550FF6EE55054
:104FA000FE6EE550FD6EF5D7E5CFEAFFE5CFE9FFF0
:104FB000E5CFEDFFE5CFEDFFE5CFEDFFE5CFEDFF71
:104FC000E5CFEDFFE5CFEDFFE5CFEDFFE5CFEDFF61
:104FD000E5CFEDFFE5CFEDFFE5CFEDFFE5CFEDFF51
:104FE000E5CFEDFFE5CFEDFFE5CFEDFFE5CFEDFF41
:104FF000E5CFEDFFE5CFEDFFE5CFEDFFE5CFEFFF2F
:10500000E5CFFAFFE5CFFBFFE5CFF3FFE5CFF4FFF8
:10501000E5CFF6FFE5CFF7FFE5CFF8FFE5CFF5FFEA
:10502000E5CFEAFFE5CFE9FFE5CFDAFFE5CFD9FF2E
:10503000E5CFE0FFE5CFE8FFE8AE06D0E5CFD8FF4B
:10504000E5CFE8FF100005D0E5CFD8FFE5CFE8FFBA
:105050001200010E00D012001200E8CFE4FFD8CFFA
:10506000E4FFF2CFE8FF0009E8CFE4FFF29EE0CFD3
:10507000E4FFD9CFE4FFDACFE4FFE9CFE4FFEACFE2
:10508000E4FFF5CFE4FFF8CFE4FFF7CFE4FFF6CF7E
:10509000E4FFF4CFE4FFF3CFE4FFFBCFE4FFFACF6C
:1050A000E4FFE96AEA6AEECFE4FFEECFE4FFEECF79
:1050B000E4FFEECFE4FFEECFE4FFEECFE4FFEECF70
:1050C000E4FFEECFE4FFEECFE4FFEECFE4FFEECF60
:1050D000E4FFEECFE4FFEECFE4FFEECFE4FFEECF50
:1050E000E4FFEECFE4FFEECFE4FFEECFE4FFEECF40
:1050F000E4FFEFCFE4FFE9CFE4FFEACFE4FFFCCF2A
:10510000E9FFFC50000808E2FDCFE4FFFECFE4FF1A
:10511000FFCFE4FF0600F5D7E9CFE4FFE45258C320
:10512000E9FF59C3EAFFE1CFEEFFE2CFEEFF79ECF2
:105130000AF058C3E9FF59C3EAFFEECFE1FFEECF13
:10514000E2FFE5CFE9FFE5CFE9FFFC6AE950FC5C4F
:1051500008E20500E550FF6EE550FE6EE550FD6E7D
:10516000F5D7E5CFEAFFE5CFE9FFE5CFEDFFE5CFE6
:10517000EDFFE5CFEDFFE5CFEDFFE5CFEDFFE5CFAF
:10518000EDFFE5CFEDFFE5CFEDFFE5CFEDFFE5CF9F
:10519000EDFFE5CFEDFFE5CFEDFFE5CFEDFFE5CF8F
:1051A000EDFFE5CFEDFFE5CFEDFFE5CFEDFFE5CF7F
:1051B000EDFFE5CFEDFFE5CFEFFFE5CFFAFFE5CF60
:1051C000FBFFE5CFF3FFE5CFF4FFE5CFF6FFE5CF3B
:1051D000F7FFE5CFF8FFE5CFF5FFE5CFEAFFE5CF35
:1051E000E9FFE5CFDAFFE5CFD9FFE5CFE0FFE5CF77
:1051F000E8FFE8AE06D0E5CFD8FFE5CFE8FF100026
:1052000005D0E5CFD8FFE5CFE8FF12001200E8CFC8
:10521000E4FFD8CFE4FFF2CFE8FF8009E8CFE4FF56
:10522000F29EE0CFE4FFD9CFE4FFDACFE4FFE9CF8D
:10523000E4FFEACFE4FFF5CFE4FFF8CFE4FFF7CFD8
:10524000E4FFF6CFE4FFF4CFE4FFF3CFE4FFFBCFBE
:10525000E4FFFACFE4FFE96AEA6AEECFE4FFEECFBB
:10526000E4FFEECFE4FFEECFE4FFEECFE4FFEECFBE
:10527000E4FFEECFE4FFEECFE4FFEECFE4FFEECFAE
:10528000E4FFEECFE4FFEECFE4FFEECFE4FFEECF9E
:10529000E4FFEECFE4FFEECFE4FFEECFE4FFEECF8E
:1052A000E4FFEECFE4FFEFCFE4FFE9CFE4FFEACF86
:1052B000E4FFFCCFE9FFFC50000808E2FDCFE4FF6B
:1052C000FECFE4FFFFCFE4FF0600F5D7E9CFE4FF10
:1052D000E45258C3E9FF59C3EAFFE1CFEEFFE2CF42
:1052E000EEFF9E942EEC09F0000902E079EC0AF042
:1052F00058C3E9FF59C3EAFFEECFE1FFEECFE2FF6B
:10530000E5CFE9FFE5CFE9FFFC6AE950FC5C08E284
:105310000500E550FF6EE550FE6EE550FD6EF5D7D9
:10532000E5CFEAFFE5CFE9FFE5CFEDFFE5CFEDFF04
:10533000E5CFEDFFE5CFEDFFE5CFEDFFE5CFEDFFED
:10534000E5CFEDFFE5CFEDFFE5CFEDFFE5CFEDFFDD
:10535000E5CFEDFFE5CFEDFFE5CFEDFFE5CFEDFFCD
:10536000E5CFEDFFE5CFEDFFE5CFEDFFE5CFEDFFBD
:10537000E5CFEDFFE5CFEFFFE5CFFAFFE5CFFBFF90
:10538000E5CFF3FFE5CFF4FFE5CFF6FFE5CFF7FF7D
:10539000E5CFF8FFE5CFF5FFE5CFEAFFE5CFE9FF81
:1053A000E5CFDAFFE5CFD9FFE5CFE0FFE5CFE8FFB6
:1053B000E8AE06D0E5CFD8FFE5CFE8FF100005D076
:1053C000E5CFD8FFE5CFE8FF12001200D9CFE6FF06
:1053D000DACFE6FFE1CFD9FFE2CFDAFF090EE12411
:1053E00002E3E168E652E16EE80EDE6E030EDE6E69
:1053F000DE6ADD6ADD52DD52CF6ACE6AD9CFE9FFBF
:10540000DACFEAFF040EEECFDBFF050EEECFDBFFB7
:10541000060EEECFDBFF070EEECFDBFF040EDBCF79
:105420000BF0050E060E070E0B50BE6ED950040F82
:10543000E96E000EDA20EA6E080EE76ED890030ED1
:10544000EB32020EEB32010EEB32EF32E706F6E101
:10545000040EDBCF0BF0050EDBCF0CF0060EDBCF1E
:105460000DF0070EDBCF0EF00B50BF6EBD80BD827E
:10547000BD94BD869D84F28C8D0EE66E68EC31F095
:10548000E552090EE15C02E2E16AE552E16EE552A5
:0A549000E5CFDAFFE7CFD9FF1200E5
:06549A00D9CFE6FFDACFD6
:1054A000E6FFE1CFD9FFE2CFDAFF080EE12402E305
:1054B000E168E652E16E060EDB6A070EDB6AB4ECC9
:1054C00007F003017551761101E106DAFC0EDB509D
:1054D00003017B150B6EFD0EDB507C1500010C6E7D
:1054E0000B500C1001E050D1D950FC0FE96EFF0EAB
:1054F000DA20EA6E000ED880EE54000EED5427E25A
:10550000D950FC0FE96EFF0EDA20EA6E03017351E9
:10551000EE267451ED22FC0EDB50000B18E0000E5D
:10552000E76EFC0EDBCF0BF0FD0EE7500B160C6A9E
:10553000010ED8800B56000E0C56D950FC0FE96EA8
:10554000FF0EDA20EA6E0B50EE260C50ED22D950F9
:10555000FC0FE96EFF0EDA20EA6E000ED880EE54E2
:10556000000EED5401E310D1FC0EDBCF0BF0FD0E6D
:10557000DBCF0CF003010B50775D0C50785901E242
:1055800003D1D950020FE96EDACFEAFF000EEA220A
:10559000E00EEE6E020EED6EE0C2DEFFE1C2DDFF58
:1055A000DECFE9FFDDCFEAFF020EE926000EEA2298
:1055B000EECF0BF0EFCF0CF0FC0EDBCF0DF0FD0EBD
:1055C000DBCF0EF00D500B5C0E500C581AE2DECF04
:1055D000E9FFDDCFEAFFEE50ED1013E0D9CFE9FF90
:1055E000DACFEAFF020EEECFDBFF030EEDCFDBFFDB
:1055F000DECFE9FFDDCFEAFFEECFDEFFEDCFDDFF4F
:10560000CFD7DECF0BF0DDCF0CF0030175510B18B7
:1056100002E176510C1801E1B7D0020EDBCFE9FFB1
:10562000030EDBCFEAFF7351EE240B6E7451EE20B4
:105630000C6E060E0BC0DBFF070E0CC0DBFFDECFCF
:10564000E9FFDDCFEAFFEECF0BF0EECF0CF0020E5C
:10565000DBCFE9FF030EDBCFEAFF0BC0EEFF0CC090
:10566000EDFFDECFE9FFDDCFEAFF020EE926000EF7
:10567000EA22EECF0DF0EFCF0EF0FC0EDB500D5C0A
:105680000B6EFD0EDB500E580C6E73C30FF074C31F
:1056900010F0D8900F3610360B500F5C0C5010588D
:1056A0004BE2FC0EDBCF0DF0FD0EDBCF0EF0DE503B
:1056B0000D240B6EDD500E200C6E040E0BC0DBFFB4
:1056C000050E0CC0DBFFDECFE9FFDDCFEAFF020EE7
:1056D000E926000EEA22EECF0DF0EFCF0EF0FC0E21
:1056E000DB500D5C0B6EFD0EDB500E580C6E040E85
:1056F000DBCFE9FF050EDBCFEAFF020EE926000E45
:10570000EA220BC0EEFF0CC0EDFFDECFE9FFDDCFDC
:10571000EAFF020EE926000EEA22FC0EDBCFEEFFC6
:10572000FD0EDBCFEDFF040EDBCFE6FF050EDBCF7A
:10573000E6FFA8D9E552E552DECFE9FFDDCFEAFF6B
:10574000020EE926000EEA22EE500301775FEE50CA
:10575000785B7951775D7A51785904E277C379F3B0
:1057600078C37AF3DECFE9FFDDCFEAFF020EE92648
:10577000000EEA227B51EE127C51ED12DECFE9FFE2
:10578000DDCFEAFFEE6AED6AB7EC07F0060EDBCF7D
:105790000BF0070EDBCF0CF00BC0F3FF0CC0F4FFD7
:1057A000080EE15C02E2E16AE552E16EE552E5CF06
:1057B000DAFFE7CFD9FF1200D9CFE6FFDACFE6FF55
:1057C000E1CFD9FFE2CFDAFFE652E652E652E652E7
:1057D000FC0EDBCFDEFFDBCFDDFFD950FC0FE96E27
:1057E000FF0EDA20EA6EEE50ED105FE0D9CFE9FF50
:1057F000DACFEAFF03017351EE5E7451ED5AD9CF4F
:10580000E9FFDACFEAFF020EEECFDBFF030EEDCFAA
:10581000DBFF020EDBCFE9FF030EDBCFEAFF020E58
:10582000E926000EEA227B51EE140B6E7C51EE1439
:105830000C6E0B500C1039E0020EDBCFE9FF030EAB
:10584000DBCFEAFFEE50ED1030E17BC30BF07CC301
:105850000CF00B1E0C1E020EDBCFE9FF030EDBCF9C
:10586000EAFF020EE926000EEA220B50EE160C505B
:10587000ED16B4EC07F0020EDBCFE9FF030EDBCF31
:10588000EAFF020EE926000EEA22EE500301772716
:10589000EE507823020EDBCFE6FF030EDBCFE6FFF0
:1058A000F1D8E552E552B7EC07F0040EE15C02E2F4
:1058B000E16AE552E16EE552E5CFDAFFE7CFD9FFC5
:1058C000120077C3F3FF78C3F4FF120079C3F3FF2C
:1058D0007AC3F4FF12001200D9CFE6FFDACFE6FF59
:1058E000E1CFD9FFE2CFDAFF080EE12402E3E1685D
:1058F000E652E16E060EDB6A020EF36E070EF3CF80
:10590000DBFFD950040FE96EDACFEAFF000EEA227E
:10591000E00EEE6E000EED6E040EDB50000B18E094
:10592000D950040F000EDA20040EDBCF0BF0050E69
:10593000DBCF0CF0E00E0B5E000E0C5AD950060FB8
:10594000E96E000EDA20EA6E0B50EE5E0C50ED5A56
:10595000040EDBCF06F0050EDBCF07F0020E06C00B
:10596000DBFF030E07C0DBFF020EDBCFE0F2030E0E
:10597000DBCFE1F20201E26BE36B060EDBCF0DF051
:10598000070EDBCF0EF0020EDB500D240B6E030E64
:10599000DB500E200C6E040E0BC0DBFF050E0CC09E
:1059A000DBFFD950040FE96E000EDA20EA6E030126
:1059B0007351EE5E7451ED5AD950040F000EDA2087
:1059C000040EDBCF75F3050EDBCF76F375C3E9FF6D
:1059D00076C3EAFF020EE926000EEA22EE6AED6ABD
:1059E00075C3E9FF76C3EAFFEE6AED6A020EDBCF0C
:1059F000DEFFDBCFDDFF040EDBCF0DF0050EDBCFCE
:105A00000EF0DE500D5C0B6EDD500E580C6EDECFCE
:105A1000E9FFDDCFEAFF020EE926000EEA220BC005
:105A2000EEFF0CC0EDFFDECFE9FFDDCFEAFF75C36F
:105A3000EEFF76C3EDFFDECFE9FFDDCFEAFF020E1A
:105A4000E926000EEA22EECF79F3EDCF7AF3DECF2E
:105A5000E9FFDDCFEAFF020EE926000EEA22EECFD3
:105A600077F3EDCF78F37B6B800E7C6F080EE15CF3
:105A700002E2E16AE552E16EE552E5CFDAFFE7CFF7
:105A8000D9FF1200D9CFE6FFDACFE6FFE1CFD9FF89
:105A9000E2CFDAFFE652E652E652E652E00EDE6E62
:105AA000020EDD6EDECFE9FFDDCFEAFFEECF0BF0B9
:105AB000EFCF0CF0FC0EDBCF0DF0FD0EDBCF0EF0C8
:105AC0000D500B5C0E500C5809E2DECFE9FFDDCF24
:105AD000EAFFEECFDEFFEDCFDDFFE4D7D9CFE9FF60
:105AE000DACFEAFF020EEECFDBFF030EEDCFDBFFD6
