:020000040000FA
:06000000C4EF02F0120043
:020006001200E6
:060008006EEF00F0120093
:02000E000000F0
:06001000000000000000EA
:06001800C2EF00F012002F
:02001E000100DF
:0C0020000E0000008B040000080000002F
:04002C003C0E086E10
:10003000096A8BC40DF08CC40EF0D0EC01F006C040
:100040008DF407C08EF40A0E0D6E0E6A06C008F01D
:1000500007C009F0AAEC01F008C08DF409C08EF4C5
:10006000930EE66E040EE66E08C0E6FF09C0E6FFDA
:1000700010EC01F0E552E552E552E55204018D6BBA
:100080008E6B8B6B8C6B030EE66EE66AE66A930EE4
:10009000E66E040EE66E84EC02F0146E050EE15E70
:1000A00014506A0EE66E670EE66E4CEC02F0E552F6
:1000B000E5521200F088F092F09EF18893841200CD
:1000C000870EE66E68EC02F0E552F28AF184F29453
:1000D000120004018B2B000E8C231200DACFE4FFF8
:1000E000E2CFDAFFE9CFE4FFEACFE4FFF6CFE4FFA7
:1000F000F7CFE4FFF5CFE4FFF3CFE4FFF4CFE4FF65
:10010000FACFE4FF00EE00F0140EE80403E3EECFB4
:10011000E4FFFBD700EE14F0010EE80403E3EECF9A
:10012000E4FFFBD7E652F250040B08E00401010E95
:100130008F1904E1905102E179DFF294E55200EE6B
:1001400014F0010EE80403E3E5CFEDFFFBD700EE6A
:1001500013F0140EE80403E3E5CFEDFFFBD7E5CF82
:10016000FAFFE5CFF4FFE5CFF3FFE5CFF5FFE5CFED
:10017000F7FFE5CFF6FFE5CFEAFFE5CFE9FFE5CFF3
:10018000DAFF1100DACFE4FFE2CFDAFFE9CFE4FFD4
:10019000EACFE4FFF6CFE4FFF7CFE4FFF5CFE4FFCB
:1001A000F3CFE4FFF4CFE4FFFACFE4FF00EE00F07A
:1001B000140EE80403E3EECFE4FFFBD700EE14F0E7
:1001C000010EE80403E3EECFE4FFFBD7E652F0B202
:1001D00080DFF092E55200EE14F0010EE80403E334
:1001E000E5CFEDFFFBD700EE13F0140EE80403E3B8
:1001F000E5CFEDFFFBD7E5CFFAFFE5CFF4FFE5CF85
:10020000F3FFE5CFF5FFE5CFF7FFE5CFF6FFE5CF4D
:10021000EAFFE5CFE9FFE5CFDAFF11004BDFFFD7BB
:10022000D9CFE6FFDACFE6FFFA0EE3CFD9FFFB0E18
:10023000E3CFDAFFFD0EE35209E72D0EDE6EFC0E72
:10024000E31EE32AFD0ED8B4E306E31EE652E652AF
:10025000E652FD0EE124E76EFF0EE220E46EE65268
:10026000F70EE3CFE6FFF70EE3CFE6FF80EC01F0F9
:10027000F90EE124E96EFF0EE220EA6E70EC01F067
:100280000AE16DEC01F009E170EC01F008E16DECC0
:1002900001F007E108D07BEC01F076EC01F07BEC9B
:1002A00001F076EC01F07BEC01F0DE6AF90EE1265C
:1002B000FF0EE222FF0EE3CFDAFFE552FF0EE3CF9F
:1002C000D9FFE552FC0EE124E96EFF0EE220EA6E52
:1002D000EECFF3FFEFCFF4FF1200EF380F0B120059
:1002E000EF500F0B02E1EE52D8841200EF380F0BE3
:1002F000300FDE6E1200EE500F0B300FDE6E12006C
:10030000FC0EE3CFE9FFFD0EE3CFEAFF100EE66E31
:10031000EE6AEE6AEF6AD890FD0EE336FE0EE33623
:10032000ED36ED36EF36FF0EE30609E0A1EC01F005
:10033000EE52A1EC01F0EE52A1EC01F0EDD7E56E2A
:100340001200030EEF24E8B6EF6E300EEF24E8BE85
:04035000EF6E000C40
:0C035400006A0EAEB3EF01F00D6C0E1E3F
:10036000E86A0E22001E09AEBBEF01F0086C091E00
:10037000E86A0922001E9EEC02F009BECBEF01F0F4
:1003800000AE000C086C091EE86A0922046C051E08
:10039000E86A0522000C00BEC2EF01F00188FF0CE4
:1003A00009C013F008C012F008500D02F4CF07F096
:1003B000F3CF06F009500E02F4CF09F0F3CF08F0A6
:1003C0000D02F3500726F4500822E86A0922125061
:1003D0000E02F3500726F4500822E86A09220EAEF6
:1003E000F6EF01F01250085E1350095A13AE000CDC
:0A03F0000D50085E0E50095A000C73
:0603FA001E0EF66E000E5F
:10040000F76E000EF86E04010900F550866F0900C2
:10041000F550876F03E1866701D03DD00900F550A4
:10042000816F0900F550826F0900F550836F090054
:100430000900F550E96E0900F550EA6E090009005F
:100440000900F550846F0900F550856F0900090017
:10045000F6CF88F4F7CF89F4F8CF8AF481C4F6FF99
:1004600082C4F7FF83C4F8FF0401845302E185537B
:1004700007E00900F550EE6E8407F8E28507F9D72A
:1004800088C4F6FF89C4F7FF8AC4F8FF0401860711
:08049000000E875BBFD71200CC
:08049800D9CFE6FFDACFE6FF41
:1004A000E1CFD9FFE2CFDAFFE652E652FC0EDBCF16
:1004B000DEFFDBCFDDFF010EDB50D76EDF50D66EE7
:1004C000E552E552E552E5CFDAFFE7CFD9FF12005A
:1004D000D9CFE6FFDACFE6FFE1CFD9FFE2CFDAFFEF
:1004E000FD0EDB507F0BD56ED76AD66AF294FD0EF7
:1004F000DBAE02D0F28A01D0F29AD58EE552E5CF7A
:08050000DAFFE7CFD9FF12007A
:08050800FE0EE3CFE9FFFF0E38
:10051000E3CFEAFFE9CFF3FFEACFF4FFFB0EE350AE
:1005200003E1FC0EE35009E0FB0EE30602E2FC0EE1
:0C053000E306FD0EE350EE6EF1D7120062
:04053C00056A046ADE
:10054000100EE76ED89008360936043605360D5081
:10055000045C0E50055805E30D50045E0E50055A1C
:08056000082AE72EF0D7120073
:08056800000EF36E00EE00F03E
:10057000060E01D81200EA6002D0EE6AFCD7F350F2
:08058000E9601200EE6AFCD7ED
:0805880013EE81F023EE81F077
:10059000F86A019CFDEC01F003EC00F00EEC01F0B8
:0405A000FBD7120073
:020000040030CA
:0100010022DC
:010003000EEE
:010006008178
:00000001FF
