:020000040000FA
:06000000C9EF0BF0120035
:020006001200E6
:060008004DEF00F01200B4
:0600180020EF04F01200CD
:02001E000100DF
:0C002000BA1700000104000046000000B8
:04002C0000000000D0
:1000300000000000000000000000000000000000C0
:100040000000000000000000000000001200050E8B
:10005000E66EA9EC0BF0E55212000F0EE66EA9EC6D
:100060000BF0E5521200B50EE66E24EC0BF0E552F3
:100070009F909D80A190A280DC0EE66E0B0EE66E36
:1000800045EC0BF0E552E55212009482850EE66EC7
:10009000A8EC09F0E55233EF00F0DACFE4FFE2CF4D
:1000A000DAFFE9CFE4FFEACFE4FFF6CFE4FFF7CFD2
:1000B000E4FFF5CFE4FFF3CFE4FFF4CFE4FFFACFA2
:1000C000E4FF00EE00F0140EE80403E3EECFE4FFDB
:1000D000FBD700EE1FF0020EE80403E3EECFE4FFCF
:1000E000FBD7E652A1A087D3A1900C6A0D6A0E6AD5
:1000F0000F6A1FC407F020C408F021C409F022C40D
:100100000AF064EC07F0010A01E083D00C6A0D6A82
:100110000E6A0F6A23C407F024C408F025C409F04E
:1001200026C40AF064EC07F0010A73E10C6A0D6A58
:100130000E6A0F6A27C407F028C408F029C409F022
:100140002AC40AF064EC07F0010A63E1BDEC0AF08E
:10015000F3CF14F0F4CF15F0166A176A14C006F046
:1001600015C007F016C008F017C009F045EC05F0FF
:1001700007C00DF408C00EF409C00FF40AC010F453
:100180000BC419F40CC41AF40BC418F00CC419F005
:100190001A6A200E0C6EA10E0D6E070E0E6E18C0A0
:1001A00007F019C008F01AC009F0B5EC06F004C059
:1001B00018F005C019F006C01AF018C007F019C0F1
:1001C00008F01AC009F02DEC05F007C014F008C0C3
:1001D00015F009C016F00AC017F014C00CF015C0D5
:1001E0000DF016C00EF017C00FF01FC407F020C4AA
:1001F00008F021C409F022C40AF05FEC05F007C042
:100200001FF408C020F409C021F40AC022F4000041
:10021000F2D20C6A0D6A0E6A0F6A1FC407F020C47E
:1002200008F021C409F022C40AF064EC07F0010AC6
:1002300001E1F8D00C6A0D6A0E6A0F6A23C407F058
:1002400024C408F025C409F026C40AF064EC07F0C1
:10025000010A01E0E7D00C6A0D6A0E6A0F6A27C432
:1002600007F028C408F029C409F02AC40AF064EC95
:1002700007F0010A01E0D6D0BDEC0AF0F3CF14F08C
:10028000F4CF15F0166A176A14C006F015C007F00F
:1002900016C008F017C009F045EC05F007C011F4CE
:1002A00008C012F409C013F40AC014F40BC41BF400
:1002B0000CC41CF40BC418F00CC419F01A6A200EFC
:1002C0000C6EA10E0D6E070E0E6E18C007F019C051
:1002D00008F01AC009F0B5EC06F004C018F005C02B
:1002E00019F006C01AF018C007F019C008F01AC0BB
:1002F00009F02DEC05F007C014F008C015F009C096
:1003000016F00AC017F014C00CF015C00DF016C09E
:100310000EF017C00FF023C407F024C408F025C462
:1003200009F026C40AF05FEC05F007C023F408C00A
:1003300024F409C025F40AC026F41FC40CF020C41C
:100340000DF021C40EF022C40FF023C407F024C422
:1003500008F025C409F026C40AF074EC07F0010A7D
:100360001AE123C40CF024C40DF025C40EF026C4F9
:100370000FF01FC407F020C408F021C409F022C404
:100380000AF05EEC05F007C02BF408C02CF409C09D
:100390002DF40AC02EF423C40CF024C40DF025C49F
:1003A0000EF026C40FF01FC407F020C408F021C4CB
:1003B00009F022C40AF074EC07F0010A1AE11FC424
:1003C0000CF020C40DF021C40EF022C40FF023C4A1
:1003D00007F024C408F025C409F026C40AF05EEC36
:1003E00005F007C02BF408C02CF409C02DF40AC096
:1003F0002EF40C6A0D6A800E0E6E3F0E0F6E33C423
:1004000007F034C408F035C409F036C40AF05FECD4
:1004100005F007C033F408C034F409C035F40AC04D
:1004200036F4E9D10C6A0D6A0E6A0F6A1FC407F030
:1004300020C408F021C409F022C40AF064EC07F0DB
:10044000010A01E1D8D10C6A0D6A0E6A0F6A23C451
:1004500007F024C408F025C409F026C40AF064ECAF
:1004600007F0010A01E1C7D10C6A0D6A0E6A0F6A32
:1004700027C407F028C408F029C409F02AC40AF0E8
:1004800064EC07F0010A01E0B6D1BDEC0AF0F3CF4D
:1004900014F0F4CF15F0166A176A14C006F015C0F0
:1004A00007F016C008F017C009F045EC05F007C0CA
:1004B00015F408C016F409C017F40AC018F40BC4E8
:1004C0001DF40CC41EF40BC418F00CC419F01A6A05
:1004D000200E0C6EA10E0D6E070E0E6E18C007F0EA
:1004E00019C008F01AC009F0B5EC06F004C018F005
:1004F00005C019F006C01AF018C007F019C008F0BE
:100500001AC009F02DEC05F007C014F008C015F072
:1005100009C016F00AC017F014C00CF015C00DF099
:1005200016C00EF017C00FF027C407F028C408F05B
:1005300029C409F02AC40AF05FEC05F007C027F4CB
:1005400008C028F409C029F40AC02AF423C40CF016
:1005500024C40DF025C40EF026C40FF027C407F004
:1005600028C408F029C409F02AC40AF074EC07F082
:10057000010A1AE127C40CF028C40DF029C40EF0BA
:100580002AC40FF023C407F024C408F025C409F0DE
:1005900026C40AF05EEC05F007C02FF408C030F462
:1005A00009C031F40AC032F427C40CF028C40DF09D
:1005B00029C40EF02AC40FF023C407F024C408F0A5
:1005C00025C409F026C40AF074EC07F0010A1AE108
:1005D00023C40CF024C40DF025C40EF026C40FF083
:1005E00027C407F028C408F029C409F02AC40AF077
:1005F0005EEC05F007C02FF408C030F409C031F4F8
:100600000AC032F433C407F034C408F035C409F02A
:1006100036C40AF02DEC07F045EC05F007C014F0E5
:1006200008C015F009C016F00AC017F00C6A0D6A70
:10063000800E0E6E3F0E0F6E14C007F015C008F04E
:1006400016C009F017C00AF05FEC05F007C033F4DC
:1006500008C034F409C035F40AC036F42BC40CF0D9
:100660002CC40DF02DC40EF02EC40FF02FC407F0D3
:1006700030C408F031C409F032C40AF074EC07F059
:10068000010A46E12FC40CF030C40DF031C40EF065
:1006900032C40FF02BC407F02CC408F02DC409F0AD
:1006A0002EC40AF05EEC05F007C014F008C015F087
:1006B00009C016F00AC017F00C6A500E0D6E430EFA
:1006C0000E6E470E0F6E14C007F015C008F016C06E
:1006D00009F017C00AF06BEC07F0010A18E137C403
:1006E00007F038C408F039C409F03AC40AF00C6ABB
:1006F0000D6A800E0E6E3F0E0F6E5FEC05F007C0A8
:1007000037F408C038F409C039F40AC03AF459D0B3
:100710002BC40CF02CC40DF02DC40EF02EC40FF021
:100720002FC407F030C408F031C409F032C40AF015
:100730006BEC07F0010A45E12BC40CF02CC40DF062
:100740002DC40EF02EC40FF02FC407F030C408F0F3
:1007500031C409F032C40AF05EEC05F007C014F0B1
:1007600008C015F009C016F00AC017F00C6A500E48
:100770000D6E430E0E6E470E0F6E14C007F015C0BF
:1007800008F016C009F017C00AF06BEC07F0010A78
:1007900018E137C407F038C408F039C409F03AC486
:1007A0000AF00C6A0D6A800E0E6E3F0E0F6E5FEC43
:1007B00005F007C037F408C038F409C039F40AC09E
:1007C0003AF400000401276B286B296B2A6B0401A3
:1007D000236B246B256B266B04011F6B206B216B35
:1007E000226B04012B6B2C6B2D6B2E6B04012F6B7A
:1007F000306B316B326BA190E55200EE20F0020EAF
:10080000E80403E3E5CFEDFFFBD700EE13F0140E91
:10081000E80403E3E5CFEDFFFBD7E5CFFAFFE5CF33
:10082000F4FFE5CFF3FFE5CFF5FFE5CFF7FFE5CF29
:10083000F6FFE5CFEAFFE5CFE9FFE5CFDAFF1100EC
:10084000DACFE4FFE2CFDAFFE9CFE4FFEACFE4FF5B
:10085000F6CFE4FFF7CFE4FFF5CFE4FFF3CFE4FFFB
:10086000F4CFE4FFFACFE4FF00EE00F0140EE8044A
:1008700003E3EECFE4FFFBD700EE1FF0020EE80427
:1008800003E3EECFE4FFFBD7E6529EA083D00BC478
:100890001BF00CC41CF0130E0D6E0E6A0BC408F096
:1008A0000CC409F093EC0BF004C01BF005C01CF065
:1008B0000450051063E10C6A0D6A0E6A0F6A37C4B2
:1008C00007F038C408F039C409F03AC40AF06BECF8
:1008D00007F0010A53E133C40CF034C40DF035C401
:1008E0000EF036C40FF037C407F038C408F039C42E
:1008F00009F03AC40AF0F5EC05F007C01BF008C097
:100900001CF009C01DF00AC01EF00C6A0D6AC80E6A
:100910000E6E420E0F6E48EC06F007C03BF408C0A6
:100920003CF409C03DF40AC03EF4FEEC06F008C0F9
:100930003FF409C040F4490EE66E040EE66E08C0AE
:10094000E6FF09C0E6FF58EC08F0E552E552E55233
:10095000E55261EC0BF00009FCE1400EE66ED7ECCD
:1009600009F0E55261EC0BF00009FCE1490EE66E7E
:10097000040EE66E98EC0AF0E552E55204010B2BEA
:10098000000E0C23DC0EE66E0B0EE66E45EC0BF053
:10099000E552E5529E90E55200EE20F0020EE8048A
:1009A00003E3E5CFEDFFFBD700EE13F0140EE804F0
:1009B00003E3E5CFEDFFFBD7E5CFFAFFE5CFF4FF8B
:1009C000E5CFF3FFE5CFF5FFE5CFF7FFE5CFF6FF86
:1009D000E5CFEAFFE5CFE9FFE5CFDAFF1100280E0A
:1009E000E66EF2EC08F0E55261EC0BF00009FCE178
:1009F000280EE66E72EC0AF0E55261EC0BF000098D
:100A0000FCE10F0EE66E72EC0AF0E55261EC0BF0C1
:100A10000009FCE1060EE66E72EC0AF0E55261ECAC
:100A20000BF00009FCE1E66AD7EC09F0E55261EC55
:100A30000BF00009FCE1AE0EE66E170EE66E25EC3B
:100A40000AF0E552E5521200CADF45EC00F0F28EE2
:060A5000D08EF28CFFD7EE
:0A0A5600019E0AD0019E09AE07D0F0
:100A6000076C081E091EE86A08220922018E09C0C7
:100A700003F008C002F007C013F0126A960E046E6D
:100A8000056AEEEF07F0019E0CD0019E09AE09D079
:100A9000066C071E081E091EE86A072208220922A2
:100AA000018E09C003F008C002F007C013F006C0B1
:100AB00012F09E0E046E056AEEEF07F00F7E016ADB
:100AC0002AEC08F042EC08F001B6D2EF07F001A2E0
:100AD0000AD001AA03D001BED2EF07F001A4DEEFD5
:100AE00007F0DBEF07F001AA05D001ACDEEF07F05D
:100AF000DBEF07F001A00AD001A808D001BE04D0A6
:100B000001A402D0E7EF07F0EBEF07F0126A056AE5
:100B10000F500A5C116E10E307C013F008C002F01A
:100B200009C003F00AC010F00CC007F00DC008F0B7
:100B30000EC009F0013A09D00CC013F00DC002F04C
:100B40000EC003F00FC010F0116C019E01BC018EAD
:100B500010C004F001B01AEF08F01A0E11601AEF7D
:100B600008F0046A0A6A01A408D0076C081E091E6E
:100B70000A1EE86A082209220A2201AC08D0136C76
:100B8000021E031E041EE86A022203220422066AD1
:100B9000115207E00A340932083207320632112EA8
:100BA000F9D70750132608500222095003220A5091
:100BB000042206C012F0019E04AE0BD0126C131E6C
:100BC000021E031E041EE86A1322022203220422CC
:100BD000018E04A006D0D8800332023213321232C2
:100BE000102A10C004F0EEEF07F0016A2AEC08F0BA
:100BF00042EC08F001B6D2EF07F001A205D001BA2D
:100C0000D2EF07F0D9EF07F001BAE5EF07F001A046
:100C100005D001B8D2EF07F0E5EF07F001B8D9EF42
:100C200007F0056A7F0E0A24046EE86A05220F5059
:100C3000045EE86A055A1A0E106E0A6A126A136A8E
:100C4000026A036A0C50075E0D50085A0E50095A8A
:100C5000000E0A5A09E70C5007260D5008220E50C4
:100C60000922000E0A2201D0128AD89007360836CF
:100C700009360A36D8901236133602360336102E4D
:100C8000E1D7095008100710D8A4128AEEEF07F038
:100C9000016A2AEC08F042EC08F001B6D2EF07F046
:100CA00001A205D001B8D2EF07F0D9EF07F001AAF1
:100CB00005D001B0D2EF07F0D9EF07F001B002D0B4
:100CC00001A802D0E5EF07F0056A0F500A24046E70
:100CD000E86A05227E0E045EE86A055A126A136A03
:100CE000026A036A0E500902F4CF03F0F3CF02F058
:100CF0000D500902F3501326F4500222000E032275
:100D00000E500802F3501326F4500222000E032264
:100D10000C500902F3501226F4501322000E022246
:100D200003220D500802F3501226F4501322000E35
:100D3000022203220E500702F3501226F45013220F
:100D4000000E022203220C500802F4501226000E5C
:100D50001322022203220D500702F4501226000E25
:100D6000132202220322EEEF07F009C013F008C09D
:100D700012F007C011F007500C02F4CF05F0F3CFCA
:100D800004F008500D02F4CF07F0F3CF06F00C0288
:100D9000F3500526F4500622E86A072211500D028E
:100DA000F3500526F4500622E86A072209500C0287
:100DB000F3500626F450072209500D02086AE86A2B
:100DC0000822F3500726F450082211500E02F35067
:100DD0000626F4500722096AE86A082209221250FE
:100DE0000E02F3500726F4500822E86A0922135035
:100DF0000E02F3500826F4500922000C016A2AEC76
:100E000008F001B608EF07F001A20ED001B405D03A
:100E10007F0E096EFF0E086E1FD0800E096E086AE5
:100E20001BD0096A086A18D001B0FBD78F0E0A6080
:100E3000EDD77E0E0A64F5D78E0E0A5C05E0D890D9
:100E4000093208320A2AF8D701A406D0086C091E14
:100E5000E86A092209AEE5D71200016A2AEC08F017
:100E600001B637EF07F001A20FD001B407D07F0E13
:100E7000096EFF0E086E076E066E25D0800E096E95
:100E800001D0096A000EF6D701B0FBD7066A9F0EA3
:100E90000A60EBD77E0E0A64F4D79E0E0A5C07E068
:100EA000D89009320832073206320A2AF6D701A44E
:100EB0000AD0066C071E081E091EE86A07220822CF
:100EC000092209AEDED712007DEC07F001B6000C56
:100ED00001B0010C000C7DEC07F001B6000C01B074
:100EE000000C01B4000C010C7DEC07F001B6000C05
:100EF00001B0000C01A4000C010C016A2AEC08F0FE
:100F000042EC08F001B6120001AE08D001A004D0F6
:100F100001A802D001801200019012000F500A5C5B
:100F20000BE10E50095C08E10D50085C05E10C5026
:100F3000075C02E101801200D8A002D0018E10D01F
:100F40000A500FC00AF00F6E09500EC009F00E6E65
:100F500008500DC008F00D6E07500CC007F00C6E65
:100F60000F500A5C10E0FF0F09E0019001B403D0BC
:100F700001AE0184120001AE019412000F2AD89034
:100F80000E320D320C320C50075E0D50085A0E50C6
:100F9000095A09BEEAD7D8900736083609360A2E0C
:100FA000F8D7C8D77F0E0A6EFF0E096E086E076E5F
:100FB00012007F0E01BEFF0E0A6E02D07F0E0A6E77
:100FC000800E096E086A076AF3D701AE04D0800E5E
:100FD0000A6E096AF7D70A6A096AF4D70350021041
:100FE00013101210F8E005BEF0D703BE0CD0045069
:100FF0000510EBE0D890123613360236033604069D
:10100000D8A00506F2D70550D4E10428D2E012AEEC
:1010100011D07F0E121402E113A00CD0132AE86A3B
:101020000222032207E3D880033202321332042A59
:101030000428BFE00450C9E013C007F002C008F064
:101040000334096E04300A6E09320A9E01BE0A8E0C
:10105000D8EF07F009360A3602E30184017E06E183
:1010600001800A6A096A086A076A12000A2803E00E
:10107000D88009321200D890093202E101821200B0
:10108000018612000E360F3602E3018C017E06E166
:1010900001880F6A0E6A0D6A0C6A12000F2803E0BD
:1010A000D8800E321200D8900E32EAE1018A120086
:1010B000D9CFE6FFDACFE6FFFA0EE3CFD9FFFB0E7A
:1010C000E3CFDAFFFD0EE35209E72D0EDE6EFC0ED4
:1010D000E31EE32AFD0ED8B4E306E31EE652E65211
:1010E000E652FD0EE124E76EFF0EE220E46EE652CA
:1010F000F70EE3CFE6FFF70EE3CFE6FFC8EC08F00C
:10110000F90EE124E96EFF0EE220EA6EB8EC08F079
:101110000AE1B5EC08F009E1B8EC08F008E1B5EC3B
:1011200008F007E108D0C3EC08F0BEEC08F0C3EC0F
:1011300008F0BEEC08F0C3EC08F0DE6AF90EE12618
:10114000FF0EE222FF0EE3CFDAFFE552FF0EE3CF00
:10115000D9FFE552FC0EE124E96EFF0EE220EA6EB3
:10116000EECFF3FFEFCFF4FF1200EF380F0B1200BA
:10117000EF500F0B02E1EE52D8841200EF380F0B44
:10118000300FDE6E1200EE500F0B300FDE6E1200CD
:10119000FC0EE3CFE9FFFD0EE3CFEAFF100EE66E93
:1011A000EE6AEE6AEF6AD890FD0EE336FE0EE33685
:1011B000ED36ED36EF36FF0EE30609E0E9EC08F018
:1011C000EE52E9EC08F0EE52E9EC08F0EDD7E56EEE
:1011D0001200030EEF24E8B6EF6E300EEF24E8BEE7
:0411E000EF6E000CA2
:0C11E400D9CFE6FFE1CFD9FF0F0E831634
:1011F00095169594959295908C948C928C902DEC5C
:1012000000F0300EE66E72EC0AF0E552050EE66E66
:101210007CEC0BF0E552300EE66E72EC0AF0E55213
:10122000010EE66E7CEC0BF0E552320EE66E72ECCF
:101230000AF0E55261EC0BF00009FCE161EC0BF007
:101240000009FCE1FE0EDBCFE6FF72EC0AF0E5528E
:1012500061EC0BF00009FCE1080EE66E72EC0AF09E
:10126000E55261EC0BF00009FCE10F0EE66E72EC4A
:101270000AF0E55261EC0BF00009FCE1010EE66EAC
:1012800072EC0AF0E55261EC0BF00009FCE1040E8F
:10129000E66E72EC0AF0E55261EC0BF00009FCE13D
:1012A000800EE66ED7EC09F0E552E552E7CFD9FFA4
:0212B00012002A
:0E12B2001E0EF66E000EF76E000EF86E0401B2
:1012C0000900F5505D6F0900F5505E6F03E15D6741
:1012D00001D03DD00900F550586F0900F550596F05
:1012E0000900F5505A6F09000900F550E96E090030
:1012F000F550EA6E090009000900F5505B6F09001E
:10130000F5505C6F09000900F6CF5FF4F7CF60F489
:10131000F8CF61F458C4F6FF59C4F7FF5AC4F8FF78
:1013200004015B5302E15C5307E00900F550EE6EE7
:101330005B07F8E25C07F9D75FC4F6FF60C4F7FF0C
:1013400061C4F8FF04015D07000E5E5BBFD71200A9
:10135000D9CFE6FFDACFE6FFE1CFD9FFE2CFDAFF60
:10136000E652E652FD0EDB500F0BBA6E050EF66E1E
:10137000F76A300EF86E0800F550010B03E0010E1D
:10138000DB6802D0010EDB6AFD0EDBAE02D0A1905D
:10139000A080010EDB5002E0948201D09386E552DA
:0E13A000E552E552E5CFDAFFE7CFD9FF1200A4
:0213AE00D9CF95
:1013B000E6FFE1CFD9FF0F0E95168316FE0EDB5028
:1013C0008009F00B83128C948C9216EC00F08C80C8
:1013D00016EC00F08C900F0E8316FE0EDB38F00B2F
:1013E000F00B831216EC00F08C8016EC00F08C9061
:0C13F000F00E9512E552E7CFD9FF120075
:0413FC00D9CFE6FF60
:10140000E1CFD9FF0F0E95168316FE0EDB50400973
:10141000F00B83128C948C9216EC00F08C8016ECFE
:1014200000F08C900F0E8316FE0EDB38F00BF00BE5
:10143000831216EC00F08C8016EC00F08C90F00E0D
:0A1440009512E552E7CFD9FF120024
:06144A00D9CFE6FFE1CF5F
:10145000D9FFFD0EDBCFF6FFFE0EDBCFF7FF080056
:10146000F55016E061EC0BF00009FCE1FD0EDBCF5E
:10147000F6FFFE0EDBCFF7FF0800F550E66E4CECF2
:101480000AF0E552FD0EDB2AFE0EE3E3DB2AE1D78C
:08149000E552E7CFD9FF12007D
:08149800D9CFE6FFE1CFD9FF37
:1014A0000F0E95168316FE0EDB50F00B83128C8206
:1014B0008C9416EC00F08C8016EC00F08C900F0EE3
:1014C0008316FE0EDB38F00BF00B831216EC00F0E7
:1014D0008C8016EC00F08C90F00E9512E552E7CF60
:0414E000D9FF12001E
:0C14E400D9CFE6FFE1CFD9FF0F0E95161F
:1014F0008316FE0EDB50F00B83128C948C9216EC4C
:1015000000F08C8016EC00F08C900F0E8316FE0E0F
:10151000DB38F00BF00B831216EC00F08C8016EC2D
:1015200000F08C90F00E9512E552E7CFD9FF120033
:10153000D9CFE6FFE1CFD9FFFD0EDBCFE9FFFE0EED
:10154000DBCFEAFFEF5015E061EC0BF00009FCE1A6
:10155000FD0EDBCFE9FFFE0EDBCFEAFFEF50E66EBC
:101560004CEC0AF0E552FD0EDB2AFE0EE5E3DB2A29
:0A157000E3D7E552E7CFD9FF1200E0
:06157A00D9CFE6FFDACF35
:10158000E6FFE1CFD9FFE2CFDAFFE652E6520401EF
:101590006293A1B06283BB50DF6E010EBCCFDBFF54
:1015A000DECF1FF0DDCF20F01FC0F3FF20C0F4FF1F
:1015B000E552E552E552E5CFDAFFE7CFD9FF120059
:1015C000D9CFE6FFE1CFD9FFE6528C848C8216ECAE
:1015D00000F08C8016EC00F0F00E8314DF6E8C901F
:1015E00016EC00F08C8016EC00F083380F0B0F0B1C
:1015F000DF128C908C928C94DF50E552E552E7CF4D
:04160000D9FF1200FC
:0C160400D9CFE6FFE1CFD9FFE6528C847D
:101610008C9216EC00F08C8016EC00F0F00E831427
:10162000DF6E8C9016EC00F08C8016EC00F08338A6
:101630000F0B0F0BDF128C908C947F0EDF14E55292
:08164000E552E7CFD9FF1200CB
:08164800D9CFE6FFDACFE6FF7F
:10165000E1CFD9FFE2CFDAFFFD0EDB507E0BCD6E7E
:10166000FD0EDBAC02D0CD8E01D0CD9ECF6ACE6A0E
:101670009E90DBAE02D09D8001D09D90CD80E55242
:0A168000E5CFDAFFE7CFD9FF120033
:06168A00D9CFE6FFDACF24
:10169000E6FFE1CFD9FFE2CFDAFFE652E652FC0ED9
:1016A000DBCFDEFFDBCFDDFF010EDB50CF6EDF5087
:1016B000CE6EE552E552E552E5CFDAFFE7CFD9FF2E
:0216C000120016
:0E16C2008C848C9216EC00F08C8016EC00F0FC
:1016D00083AE09D08C9016EC00F08C8016EC00F0F4
:1016E0008C908C94010C8C9016EC00F08C8016EC95
:0816F00000F08C908C94000CBA
:0816F800FF0EE350226EEF0E1D
:1017000001D0F30EE76EE72E83EF0BF00C0E216E87
:10171000E76AE72E89EF0BF0212E88EF0BF0222EDF
:0617200081EF0BF0120046
:0A172600056A046A100EE76ED89001
:1017300008360936043605360D50045C0E5005583F
:1017400005E30D50045E0E50055A082AE72EF0D727
:02175000120085
:0E175200FF0EE350226E480E01D04C0EE76EE3
:10176000E72EFED7E76AE72EFED7222EF7D7000036
:02177000120065
:0E177200000EF36E00EE00F0060E01D812001D
:10178000EA6002D0EE6AFCD7F350E9601200EE6A1C
:02179000FCD784
:0E17920013EE81F023EE81F0F86A019C59EC11
:0E17A00009F003EC00F024EC05F0FBD712007A
:0217AE00546580
:0A17B0007374696E672048525600FA
:0617BA0000000000000029
:1017C0000000000000000000000000000000000019
:1017D0000000000000000000000000000000000009
:1017E00000000000000000000000000000000000F9
:1017F00000000000000000000000190000000000D0
:020000040030CA
:0100010022DC
:010003000EEE
:010006008178
:00000001FF
