:020000040000FA
:060000005DEF05F01200A7
:020006001200E6
:0600080000EF01F0120000
:02000E00D59E7D
:04001000F29A12004E
:0600180054EF01F012009C
:02001E000100DF
:0C002000EF0A00000B04000008000000C4
:04002C0000000000D0
:1000300000000000000000000000000000000000C0
:100040000000000000000000000000001200050E8B
:10005000E66E3DEC05F0E55212000F0EE66E3DEC4B
:1000600005F0E55212003C0E086E096A0BC40DF053
:100070000CC40EF0FDEC02F006C00DF407C00EF447
:100080000A0E0D6E0E6A06C008F007C009F0D7EC24
:1000900002F008C00DF409C00EF4130EE66E040E53
:1000A000E66E08C0E6FF09C0E6FFD6EC01F0E552B7
:1000B000E552E552E552010EE66E14EC04F0E5520D
:1000C000DBEC04F00009FCE1E66A79EC03F0E552B0
:1000D000E70EE66E0A0EE66EC7EC03F0E552E55257
:1000E000DBEC04F00009FCE1080EE66E79EC03F0AD
:1000F000E552DBEC04F00009FCE1130EE66E040EA1
:10010000E66E3AEC04F0E552E552DBEC04F000094F
:10011000FCE10D0EE66E79EC03F0E552DBEC04F049
:100120000009FCE1E30EE66E0A0EE66EC7EC03F092
:10013000E552E55204010D6B0E6B0B6B0C6B030E5D
:10014000E66EE66AE66A130EE66E040EE66EF6ECFE
:1001500004F0166E050EE15E16506A0EE66E670E2E
:10016000E66EA3EC04F0E552E5521200280EE66EAE
:1001700070EC02F0E552DBEC04F00009FCE1E66A09
:1001800079EC03F0E552DBEC04F00009FCE10F0E22
:10019000E66E14EC04F0E552DBEC04F00009FCE13F
:1001A000060EE66E14EC04F0E552DBEC04F00009F8
:1001B000FCE1D60EE66E0A0EE66EC7EC03F0E552E1
:1001C000E5521200F086F09CF090F18A958E958CA5
:1001D000958A95881200F088F092F09EF1889384B9
:1001E0001200870EE66EBFEC04F0E552F28AF1844D
:1001F000F2941200120004010B2B000E0C231200CB
:10020000DACFE4FFE2CFDAFFE9CFE4FFEACFE4FFA1
:10021000F6CFE4FFF7CFE4FFF5CFE4FFF3CFE4FF41
:10022000F4CFE4FFFACFE4FF00EE00F0140EE80490
:1002300003E3EECFE4FFFBD700EE16F0010EE80477
:1002400003E3EECFE4FFFBD7E652F250040B08E0E5
:100250000401010E0F1904E1105102E104DFF294D0
:10026000E55200EE16F0010EE80403E3E5CFEDFFE2
:10027000FBD700EE13F0140EE80403E3E5CFEDFF27
:10028000FBD7E5CFFAFFE5CFF4FFE5CFF3FFE5CFEE
:10029000F5FFE5CFF7FFE5CFF6FFE5CFEAFFE5CFC6
:1002A000E9FFE5CFDAFF1100DACFE4FFE2CFDAFFB2
:1002B000E9CFE4FFEACFE4FFF6CFE4FFF7CFE4FFB6
:1002C000F5CFE4FFF3CFE4FFF4CFE4FFFACFE4FF90
:1002D00000EE00F0140EE80403E3EECFE4FFFBD7DA
:1002E00000EE16F0010EE80403E3EECFE4FFFBD7C7
:1002F000E652F0B280DFF0A02CD08250800B1BE0E1
:100300008250400B18E18250200B15E18250100BF7
:1003100012E1010E04010F6F106B63DF010EE66E38
:1003200014EC04F0E5526A0EE66E670EE66EA3EC7E
:1003300004F0E552E5528250800B0BE08250400BF6
:1003400008E18250200B05E08250100B02E007EC20
:1003500000F0F092F090E55200EE16F0010EE80485
:1003600003E3E5CFEDFFFBD700EE13F0140EE80436
:1003700003E3E5CFEDFFFBD7E5CFFAFFE5CFF4FFD1
:10038000E5CFF3FFE5CFF5FFE5CFF7FFE5CFF6FFCC
:10039000E5CFEAFFE5CFE9FFE5CFDAFF1100E6DEC2
:0C03A00011DF19DFF28ED08EF28CFFD737
:0403AC00D9CFE6FFC0
:1003B000DACFE6FFFA0EE3CFD9FFFB0EE3CFDAFF89
:1003C000FD0EE35209E72D0EDE6EFC0EE31EE32A5E
:1003D000FD0ED8B4E306E31EE652E652E652FD0EE9
:1003E000E124E76EFF0EE220E46EE652F70EE3CF63
:1003F000E6FFF70EE3CFE6FF46EC02F0F90EE1244C
:10040000E96EFF0EE220EA6E36EC02F00AE133EC10
:1004100002F009E136EC02F008E133EC02F007E10A
:1004200008D041EC02F03CEC02F041EC02F03CEC74
:1004300002F041EC02F0DE6AF90EE126FF0EE22244
:10044000FF0EE3CFDAFFE552FF0EE3CFD9FFE5520F
:10045000FC0EE124E96EFF0EE220EA6EEECFF3FF20
:10046000EFCFF4FF1200EF380F0B1200EF500F0B1D
:1004700002E1EE52D8841200EF380F0B300FDE6E1F
:100480001200EE500F0B300FDE6E1200FC0EE3CFA9
:10049000E9FFFD0EE3CFEAFF100EE66EEE6AEE6AAC
:1004A000EF6AD890FD0EE336FE0EE336ED36ED36FC
:1004B000EF36FF0EE30609E067EC02F0EE5267EC60
:1004C00002F0EE5267EC02F0EDD7E56E1200030E7B
:1004D000EF24E8B6EF6E300EEF24E8BEEF6E000CAE
:1004E000D9CFE6FFE1CFD9FF0F0E8316951695946D
:1004F000959295908C948C928C902DEC00F0300E0F
:10050000E66E14EC04F0E552050EE66E10EC05F014
:10051000E552300EE66E14EC04F0E552010EE66E84
:1005200010EC05F0E552320EE66E14EC04F0E552E4
:10053000DBEC04F00009FCE1DBEC04F00009FCE179
:10054000FE0EDBCFE6FF14EC04F0E552DBEC04F02A
:100550000009FCE1080EE66E14EC04F0E552DBEC59
:1005600004F00009FCE10F0EE66E14EC04F0E55215
:10057000DBEC04F00009FCE1010EE66E14EC04F083
:10058000E552DBEC04F00009FCE1040EE66E14EC2D
:1005900004F0E552DBEC04F00009FCE1800EE66EAD
:0E05A00079EC03F0E552E552E7CFD9FF1200E7
:0205AE00006AE1
:1005B0000EAEE0EF02F00D6C0E1EE86A0E22001E79
:1005C00009AEE8EF02F0086C091EE86A0922001E75
:1005D00027EC05F009BEF8EF02F000AE000C086C45
:1005E000091EE86A0922046C051EE86A0522000C4F
:1005F00000BEEFEF02F00188FF0C09C013F008C045
:1006000012F008500D02F4CF07F0F3CF06F00950B6
:100610000E02F4CF09F0F3CF08F00D02F3500726D5
:10062000F4500822E86A092212500E02F3500726FD
:10063000F4500822E86A09220EAE23EF03F01250AC
:10064000085E1350095A13AE000C0D50085E0E5090
:04065000095A000C37
:0C0654001E0EF66E000EF76E000EF86E23
:1006600004010900F550066F0900F550076F03E11A
:10067000066701D03DD00900F550016F0900F55023
:10068000026F0900F550036F09000900F550E96E8B
:100690000900F550EA6E090009000900F550046FE1
:1006A0000900F550056F09000900F6CF08F4F7CFEF
:1006B00009F4F8CF0AF401C4F6FF02C4F7FF03C43B
:1006C000F8FF0401045302E1055307E00900F55067
:1006D000EE6E0407F8E20507F9D708C4F6FF09C46F
:1006E000F7FF0AC4F8FF04010607000E075BBFD737
:0206F0001200F6
:0E06F200D9CFE6FFE1CFD9FF0F0E9516831684
:10070000FE0EDB508009F00B83128C948C9216EC59
:1007100000F08C8016EC00F08C900F0E8316FE0E0D
:10072000DB38F00BF00B831216EC00F08C8016EC2B
:1007300000F08C90F00E9512E552E7CFD9FF120031
:10074000D9CFE6FFE1CFD9FF0F0E95168316FE0E27
:10075000DB504009F00B83128C948C9216EC00F065
:100760008C8016EC00F08C900F0E8316FE0EDB389A
:10077000F00BF00B831216EC00F08C8016EC00F0FE
:0E0780008C90F00E9512E552E7CFD9FF1200D3
:02078E00D9CFC1
:10079000E6FFE1CFD9FFFD0EDBCFF6FFFE0EDBCF8C
:1007A000F7FF0800F55016E0DBEC04F00009FCE16F
:1007B000FD0EDBCFF6FFFE0EDBCFF7FF0800F55096
:1007C000E66EEEEC03F0E552FD0EDB2AFE0EE3E3EF
:0C07D000DB2AE1D7E552E7CFD9FF120089
:0407DC00D9CFE6FF8C
:1007E000E1CFD9FF0F0E95168316FE0EDB50F00BEE
:1007F00083128C828C9416EC00F08C8016EC00F046
:100800008C900F0E8316FE0EDB38F00BF00B83126C
:1008100016EC00F08C8016EC00F08C90F00E951227
:08082000E552E7CFD9FF1200F9
:08082800D9CFE6FFE1CFD9FFB3
:100830000F0E95168316FE0EDB50F00B83128C9470
:100840008C9216EC00F08C8016EC00F08C900F0E61
:100850008316FE0EDB38F00BF00B831216EC00F063
:100860008C8016EC00F08C90F00E9512E552E7CFDC
:04087000D9FF12009A
:0C087400D9CFE6FFE1CFD9FFFD0EDBCFAE
:10088000E9FFFE0EDBCFEAFFEF5015E0DBEC04F0F2
:100890000009FCE1FD0EDBCFE9FFFE0EDBCFEAFF36
:1008A000EF50E66EEEEC03F0E552FD0EDB2AFE0E95
:0E08B000E5E3DB2AE3D7E552E7CFD9FF1200DC
:0208BE00D9CF90
:1008C000E6FFE1CFD9FFE6528C848C8216EC00F073
:1008D0008C8016EC00F0F00E8314DF6E8C9016EC1A
:1008E00000F08C8016EC00F083380F0B0F0BDF123A
:1008F0008C908C928C94DF50E552E552E7CFD9FF73
:020900001200E3
:0E090200D9CFE6FFE1CFD9FFE6528C848C926C
:1009100016EC00F08C8016EC00F0F00E8314DF6E05
:100920008C9016EC00F08C8016EC00F083380F0BE6
:100930000F0BDF128C908C947F0EDF14E552E55282
:06094000E7CFD9FF120011
:0A094600D9CFE6FFDACFE6FFE1CFDC
:10095000D9FFE2CFDAFFE652E652FC0EDBCFDEFF34
:10096000DBCFDDFF010EDB50D76EDF50D66EE552D8
:0E097000E552E552E5CFDAFFE7CFD9FF1200DE
:02097E00D9CFCF
:10098000E6FFDACFE6FFE1CFD9FFE2CFDAFFFD0ED7
:10099000DB507F0BD56ED76AD66AF294FD0EDBAEC4
:1009A00002D0F28A01D0F29AD58EE552E5CFDAFF75
:0609B000E7CFD9FF1200A1
:0A09B6008C848C9216EC00F08C800B
:1009C00016EC00F083AE09D08C9016EC00F08C8011
:1009D00016EC00F08C908C94010C8C9016EC00F0CE
:0C09E0008C8016EC00F08C908C94000CC5
:0409EC00FE0EE3CF49
:1009F000E9FFFF0EE3CFEAFFE9CFF3FFEACFF4FF11
:100A0000FB0EE35003E1FC0EE35009E0FB0EE306AE
:100A100002E2FC0EE306FD0EE350EE6EF1D712008B
:100A2000FF0EE350156EEF0E01D0F30EE76EE72ECA
:100A300017EF05F00C0E146EE76AE72E1DEF05F0B8
:0E0A4000142E1CEF05F0152E15EF05F0120018
:020A4E00056A37
:100A5000046A100EE76ED89008360936043605365B
:100A60000D50045C0E50055805E30D50045E0E5009
:0A0A7000055A082AE72EF0D71200FD
:060A7A00FF0EE350156EB3
:100A8000480E01D04C0EE76EE72EFED7E76AE72E40
:0A0A9000FED7152EF7D70000120064
:060A9A00000EF36E00EEF9
:100AA00000F0060E01D81200EA6002D0EE6AFCD710
:0A0AB000F350E9601200EE6AFCD773
:060ABA0013EE81F023EEB3
:100AC00081F0F86A019C2AEC03F003EC00F0CFEC13
:060AD00001F0FBD712004B
:0A0AD60050726573732041205465CF
:0F0AE00073740062706D00505F526174653A006C
:010AEF000006
:070AF00000000000000000FF
:020000040030CA
:0100010022DC
:010003000EEE
:010006008178
:00000001FF
