:020000040000FA
:0600000001EF04F0120004
:020006000000F8
:020008001200E4
:060018000FEF00F01200E2
:02001E00D8CF39
:10002000E4FFE0CFE4FFE46EDACFE4FFE2CFDAFFF3
:10003000E9CFE4FFEACFE4FFF6CFE4FFF7CFE4FF38
:10004000F5CFE4FFF3CFE4FFF4CFE4FFFACFE4FF12
:1000500000EE00F0020EE80403E3EECFE4FFFBD76E
:1000600000EE04F0000EE80403E3EECFE4FFFBD75C
:10007000E652010EACD92AD8F090E55200EE03F01A
:10008000000EE80403E3E5CFEDFFFBD700EE01F03F
:10009000020EE80403E3E5CFEDFFFBD7E5CFFAFF5F
:1000A000E5CFF4FFE5CFF3FFE5CFF5FFE5CFF7FFB1
:1000B000E5CFF6FFE5CFEAFFE5CFE9FFE5CFDAFFD1
:1000C000E550E5CFE0FFE5CFD8FF10008250800B70
:1000D0000BE18250400B08E18250200B05E1825079
:1000E000100B02E1010E0DD08250800B0EE0825009
:1000F000400B0BE08250200B08E18250100B05E111
:10010000020E00018A6F8B6B12008250800B10E18F
:100110008250400B0DE08250200B0AE18250100B00
:1001200007E151D9FEE14AD9940EE66E070E40D997
:100130008250800B10E18250400B0DE18250200B69
:100140000AE08250100B07E13ED9FEE137D9920E4A
:10015000E66E070E2DD98250800B10E08250400BC6
:100160000DE08250200B0AE08250100B07E12BD9E2
:10017000FEE124D9900EE66E070E1AD98250800B4C
:1001800010E18250400B0DE08250200B0AE08250BB
:10019000100B07E118D9FEE111D98E0EE66E070E9D
:1001A00007D98250800B10E18250400B0DE1825044
:1001B000200B0AE18250100B07E005D9FEE1FED8C2
:1001C0008C0EE66E070EF4D88250800B10E0825041
:1001D000400B0DE08250200B0AE18250100B07E02B
:1001E000F2D8FEE1EBD88A0EE66E070EE1D8825017
:1001F000800B10E18250400B0DE08250200B0AE191
:100200008250100B07E0DFD8FEE1D8D8880EE66EEA
:10021000070ECED88250800B10E18250400B0DE1CA
:100220008250200B0AE08250100B07E0CCD8FEE190
:10023000C5D8860EE66E070EBBD88250800B10E044
:100240008250400B0DE18250200B0AE18250100BCE
:1002500007E1B9D8FEE1B2D8840EE66E070EA8D841
:100260008250800B10E08250400B0DE18250200B39
:100270000AE08250100B07E1A6D8FEE19FD8820E5B
:10028000E66E070E95D88250800B10E08250400B2E
:100290000DE18250200B0AE18250100B07E093D849
:1002A000FEE18CD8800EE66E070E82D88250800B5D
:1002B00010E08250400B0DE18250200B0AE082508A
:1002C000100B07E080D8FEE179D87E0EE66E070EAF
:1002D0006FD88250800B10E18250400B0DE08250AD
:1002E000200B0AE08250100B07E06DD8FEE166D8C3
:1002F0007C0EE66E070E5CD88250800B10E08250B8
:10030000400B0DE08250200B0AE08250100B07E0FA
:100310005AD8FEE153D87A0EE66E070E49D812007D
:1003200000000000000000000000000000000000CD
:1003300000000000000000000000000000D01200DB
:10034000050EE66EE1EC03F0E55212000F0EE66ECC
:10035000E1EC03F0E5521200280EE66E3BEC02F0F1
:10036000E55231D8FEE12AD82ED8FEE10F0E2FD863
:100370002AD8FEE1060E2BD826D8FEE11200F08620
:10038000F090F18AD08EF28CF28EF09C1200948E56
:10039000948C948A94881200F2DFF9DFDDDF13D8A1
:1003A000FEE1680EE66E070E03D80DD8FEE1FFD71A
:1003B000E66E5AEC03F0E552E5521200E66A88EC6C
:1003C00002F0E5521200CBEC03F000091200E66ED9
:0803D000F3EC02F0E55212000B
:0803D800060EF66E000EF76E32
:1003E000000EF86E00010900F550856F0900F55008
:1003F000866F03E1856701D03DD00900F550806F1D
:100400000900F550816F0900F550826F090009005D
:10041000F550E96E0900F550EA6E0900090009007F
:10042000F550836F0900F550846F09000900F6CF7D
:1004300087F0F7CF88F0F8CF89F080C0F6FF81C051
:10044000F7FF82C0F8FF0001835302E1845307E005
:100450000900F550EE6E8307F8E28407F9D787C0EC
:10046000F6FF88C0F7FF89C0F8FF00018507000E7E
:06047000865BBFD71200FD
:0A047600D9CFE6FFE1CFD9FF0F0E4A
:10048000831695169594959295908C948C928C9059
:10049000A6EC01F0300E33D8050EE66E9DEC03F0AD
:1004A000E552300E2CD8010EE66E9DEC03F0E552BD
:1004B000320E25D829D8FEE127D8FEE1FE0EDBCF8B
:1004C000E6FFF3EC02F0E5521FD8FEE1080E17D864
:1004D0001BD8FEE10F0E13D817D8FEE1010E0FD87E
:1004E00013D8FEE1040E0BD80FD8FEE1800EE66EA5
:1004F00088EC02F0E552E552E7CFD9FF1200E66E34
:10050000F3EC02F0E5521200CBEC03F0000912000C
:10051000D9CFE6FFE1CFD9FF0F0E95168316FE0E59
:10052000DB508009F00B83128C948C920ED80F0E46
:100530008316FE0EDB38F00BF00B831206D8F00E9C
:100540009512E552E7CFD9FF120090EC01F08C80B4
:0805500090EC01F08C90120008
:08055800D9CFE6FFE1CFD9FF86
:100560000F0E95168316FE0EDB504009F00B83121A
:100570008C948C920ED80F0E8316FE0EDB38F00B87
:10058000F00B831206D8F00E9512E552E7CFD9FF93
:10059000120090EC01F08C8090EC01F08C90120035
:1005A000D9CFE6FFE1CFD9FF0F0E95168316FE0EC9
:1005B000DB50F00B83128C828C940ED80F0E8316B6
:1005C000FE0EDB38F00BF00B831206D8F00E9512FE
:1005D000E552E7CFD9FF120090EC01F08C8090EC4F
:0605E00001F08C901200F6
:0A05E600D9CFE6FFE1CFD9FF0F0ED9
:1005F00095168316FE0EDB50F00B83128C948C92B2
:100600000ED80F0E8316FE0EDB38F00BF00B8312A4
:1006100006D8F00E9512E552E7CFD9FF120090EC04
:0C06200001F08C8090EC01F08C90120036
:04062C00D9CFE6FF3D
:10063000E1CFD9FFE6528C848C8290EC01F08C8063
:1006400090EC01F0F00E8314DF6E8C9090EC01F0D2
:100650008C8090EC01F083380F0B0F0BDF128C9025
:100660008C928C94DF50E552E552E7CFD9FF12000F
:10067000D9CFE6FFE1CFD9FFE6528C848C9290EC83
:1006800001F08C8090EC01F0F00E8314DF6E8C9002
:1006900090EC01F08C8090EC01F083380F0B0F0B85
:1006A000DF128C908C947F0EDF14E552E552E7CF79
:0406B000D9FF12005C
:0C06B400D9CFE6FFE1CFD9FF14D80FE04A
:1006C000CBEC03F00009FCE10ED8E66ED0EC02F0B2
:1006D000E552FD0EDB2AFE0EF1E3DB2AEFD7E552F1
:1006E000E7CFD9FF1200FD0EDBCFF6FFFE0EDBCF0A
:0806F000F7FF0800F5501200AD
:0806F800D9CFE6FFE1CFD9FFE5
:1007000014D80FE0CBEC03F00009FCE10ED8E66E44
:10071000D0EC02F0E552FD0EDB2AFE0EF1E3DB2AFF
:10072000EFD7E552E7CFD9FF1200FD0EDBCFE9FF8F
:0A073000FE0EDBCFEAFFEF501200CF
:06073A00FF0EE350036E08
:10074000EF0E01D0F30EE76EE72EA4EF03F00C0ED0
:10075000026EE76AE72EAAEF03F0022EA9EF03F07C
:08076000032EA2EF03F01200CA
:08076800496E7465677261744B
:10077000696F6E2074657374330046004500440051
:100780004300420041003000390038003700360095
:06079000350034003300C7
:0A0796008C848C9290EC01F08C80B2
:1007A00090EC01F083AE02D003D8010C01D8000C0C
:1007B0008C9090EC01F08C8090EC01F08C908C94FB
:0207C000120025
:0E07C200FF0EE350036E480E01D04C0EE76EA2
:1007D000E72EFED7E76AE72EFED7032EF7D70000F5
:0207E000120005
:0E07E200000EF36E00EE00F0060E01D81200BD
:1007F000EA6002D0EE6AFCD7F350E9601200EE6ABC
:02080000FCD723
:0E08020015EE00F025EE00F0F86A019CECEC1B
:0E08100001F004EC00F0CCEC01F0FBD712007C
:020000040030CA
:0100010022DC
:010003000EEE
:010006008178
:00000001FF
