:020000040000FA
:0600000081EF13F0120075
:06002A0001003C2700006C
:08003000B00000001A010000FD
:08003800D9CFE6FFE1CFD9FFAB
:10004000020EE126DE6ADD6A948E8B9E949E300E4F
:10005000E66E8FEC13F0E552948E0A0EE66E8FEC8E
:1000600013F0E5528250800B800A01E0010E146EFD
:10007000156A14BE156814C0DEFF15C0DDFF020E40
:10008000E15C02E2E16AE552E16EE552E7CFD9FFB9
:100090001200D9CFE6FFE1CFD9FFE652DF6ADFCF0A
:1000A00014F0080EE76E1418E8AE02D0E73402D060
:1000B000E750145C22E28B9E949E010EE66E8FEC5C
:1000C00013F0E552FE0EDB50010BE8B0948EE8A071
:1000D000949E050EE66E8FEC13F0E552948E020EA0
:1000E000E66E8FEC13F0E552FE0EDB407F0BE76E01
:1000F000FE0EE7CFDBFFDF2AD2D7E552E552E7CF8E
:10010000D9FF1200D9CFE6FFE1CFD9FF030EE126D8
:10011000DE6ADD6A020EDB6A020EDBCF14F0080E27
:10012000E76E1418E8AE02D0E73402D0E750145C52
:100130002EE28B9E949E00000000948E0000000032
:100140000000000000000000000000008250800B52
:1001500001E0010EF36E020EDB5004E0D890F3369E
:10016000E806FCE1F350166E176ADE501610146EA6
:10017000DD501710156E14C0DEFF15C0DDFF050E33
:10018000E66E8FEC13F0E552020EDB2AC5D7DECF08
:1001900014F0DDCF15F014C0F3FF15C0F4FF00D04C
:1001A000030EE15C02E2E16AE552E16EE552E7CF5F
:1001B000D9FF120000000000000000000000000055
:1001C000000000000000000000000000000000002F
:1001D00000D01200050EE66E51EC13F0E55212004D
:1001E0000F0EE66E51EC13F0E5521200836A956A29
:1001F000280EE66EC5EC10F0E55261EC13F0000934
:10020000FCE1E66AC2EC11F0E552060EE66E5DEC2A
:1002100012F0E55261EC13F00009FCE10F0EE66EFE
:100220005DEC12F0E55261EC13F00009FCE1120004
:10023000D7DF61EC13F00009FCE1E66AC2EC11F0D3
:10024000E55261EC13F00009FCE1720EE66E230E3C
:10025000E66E10EC12F0E552E55261EC13F0000985
:10026000FCE1BEDF400EE66EC2EC11F0E55261EC3F
:1002700013F00009FCE1720EE66E230EE66E10EC40
:1002800012F0E552E55261EC13F00009FCE1A8DF41
:10029000100EE66EC2EC11F0E55261EC13F00009AD
:1002A000FCE1720EE66E230EE66E10EC12F0E552E3
:1002B000E55296DF500EE66EC2EC11F0E55261ECAD
:1002C00013F00009FCE1720EE66E230EE66E10ECF0
:1002D00012F0E552E5521200970EE66E08EC13F0AC
:1002E000E5521200010E0001B06FB16BF0969AEC6E
:1002F00013F00001010EB01956E1B15154E161EC67
:1003000013F00009FCE1E66AC2EC11F0E55261EC81
:1003100013F00009FCE16E0EE66E51EC13F0E552AD
:1003200061EC13F00009FCE1060E086E096AB6C024
:100330000DF0B7C00EF049EC0FF006C0B6F007C0E4
:10034000B7F006C0E6FF07C0E6FFCC0EE66E010E72
:10035000E66E2BEC10F0E552E552E552E55261EC09
:1003600013F00009FCE16D0EE66E230EE66E10EC54
:1003700012F0E552E552CC0EE66E010EE66E83EC0D
:1003800012F0E552E55261EC13F00009FCE1690E50
:10039000E66E230EE66E10EC12F0E552E55220DF19
:1003A0000001B66BB76B12000001B051B1113AE118
:1003B000B62B000EB72361EC13F00009FCE1E66AEE
:1003C000C2EC11F0E55261EC13F00009FCE16E0E95
:1003D000E66E51EC13F0E55261EC13F00009FCE11C
:1003E000B6C0E6FFB7C0E6FFCC0EE66E010EE66EC5
:1003F0002BEC10F0E552E552E552E55261EC13F0BA
:100400000009FCE1630EE66E230EE66E10EC12F0BE
:10041000E552E552CC0EE66E010EE66E83EC12F06C
:10042000E552E5521200F28AF294F1846A0EE66E09
:10043000670EE66EECEC12F0E552E552F298F29699
:100440000001B06BB16BF2B402D0AEDFFCD7F2A406
:1004500002D048DFFCD71200EFDD0C0EE66E19DE8D
:10046000E552E66A16DEE552E7DDAC0EE66E11DE19
:10047000E5521CEF00F0D9CFE6FFE1CFD9FF0A0E1D
:10048000E126DE6ADD6A020EDB6A030EDB6A040E19
:10049000DB6A050EDB6A080EDB6A090EDB6ADECF5B
:1004A00014F0DDCF15F0D890155004E6960E145CCC
:1004B000000E15582EE2EE0EE66EEBDDE552220E32
:1004C000E66EE7DDE552B8DDAA0EE66EE2DDE55246
:1004D00019DE060EF3CFDBFF070EF4CFDBFFACDD3A
:1004E000060EDBCF16F0070EDBCF17F0080EDB5041
:1004F0001624146E090EDB501720156E080E14C05A
:10050000DBFF090E15C0DBFFDF2A010EC8E3DB2A83
:10051000C6D7080EDBCF08F0090EDBCF09F0B9EC27
:100520000DF007C014F008C015F009C016F00AC09D
:1005300017F00C6A0D6A160E0E6E430E0F6ECCECA1
:100540000DF0020E07C0DBFF030E08C0DBFF040E38
:1005500009C0DBFF050E0AC0DBFF020EDBCF14F083
:10056000030EDBCF15F0040EDBCF16F0050EDBCF4C
:1005700017F014C006F015C007F016C008F017C039
:1005800009F00A0EE15C02E2E16AE552E16EE55231
:10059000E7CFD9FF1200D9CFE6FFE1CFD9FF060E92
:1005A000E126DE6ADD6AFB0EDBCF14F0FC0EDBCF4A
:1005B00015F01406000E155A020E14C0DBFF030ED0
:1005C00015C0DBFFDECF14F0DDCF15F0020EDBCF60
:1005D00016F0030EDBCF17F015501718E8AE02D057
:1005E000173404D01650145C1750155851E2FD0E04
:1005F000DBCF16F0FE0EDBCF17F0DE501624E96ECF
:10060000DD501720EA6EEFCF14F0156A14BE15689E
:10061000040E14C0DBFF050E15C0DBFF020EDBCF9E
:1006200016F0030EDBCF17F0FD0EDB501624E96E3B
:10063000FE0EDB501720EA6EEF50E66EFD0EDBCFAC
:1006400014F0FE0EDBCF15F0DE501424E96EDD5001
:100650001520EA6EE552E750EF6E020EDBCF14F084
:10066000030EDBCF15F0FD0EDB501424E96EFE0EF9
:10067000DB501520EA6E040EDBCFEFFFDF2A010E00
:1006800001E3DB2A020EDB06030E9CE2DB069AD7AF
:10069000060EE15C02E2E16AE552E16EE552E7CF67
:1006A000D9FF1200D9CFE6FFE1CFD9FF020EE12634
:1006B000DE6ADD6AD950FD0FE96EFF0EDA20EA6EC0
:1006C000EE50ED103FE0FD0EDBCF16F0FE0EDBCF5F
:1006D00017F00A0E0D6E0E6A16C008F017C009F06A
:1006E00023EC0FF004C016F005C017F0300E1626EC
:1006F000000E1722DFCF14F0DF2A010EDBCF15F03A
:1007000001E3DB2AFB0EDB501424E96EFC0EDB5008
:100710001520EA6E16C0EFFF0A0E146E156AFD0E64
:10072000DBCF08F0FE0EDBCF09F014C00DF015C0D2
:100730000EF023EC0FF0FD0E08C0DBFFFE0E09C02B
:10074000DBFFB8D7DECF14F0DDCF15F0F90EDBCF2D
:1007500016F0FA0EDBCF17F015501718E8AE02D0DE
:10076000173404D01650145C1750155813E2DFCF1D
:1007700014F0DF2A010EDBCF15F001E3DB2AFB0EBC
:10078000DB501424E96EFC0EDB501520EA6E300EAF
:10079000EF6ED8D7DECFE6FFDDCFE6FFFB0EDBCF77
:1007A000E6FFFC0EDBCFE6FFF6DEE552E552E55252
:1007B000E552FB0EDBCF14F0FC0EDBCF15F0DE5064
:1007C0001424E96EDD501520EA6EEF6ADECF14F0D6
:1007D000DDCF15F014C0F3FF15C0F4FF020EE15C8D
:1007E00002E2E16AE552E16EE552E7CFD9FF12007D
:1007F000D9CFE6FFE1CFD9FF080EE126FB0EDBCF14
:1008000007F0FC0EDBCF08F0FD0EDBCF09F0FE0E8B
:10081000DBCF0AF076EC0FF008C0DEFF09C0DDFF89
:10082000FB0EDBCF14F0FC0EDBCF15F0FD0EDBCFA3
:1008300016F0FE0EDBCF17F0000EDFCF08F0010E32
:10084000DBCF09F0B9EC0DF007C018F008C019F0C3
:1008500009C01AF00AC01BF007C00CF008C00DF068
:1008600009C00EF00AC00FF014C007F015C008F060
:1008700016C009F017C00AF08CEC0EF0020E07C08B
:10088000DBFF030E08C0DBFF040E09C0DBFF050E13
:100890000AC0DBFF000EE66EE66AF90EDBCFE6FF6C
:1008A000FA0EDBCFE6FFDECFE6FFDDCFE6FFFADEB6
:1008B000146E060EE15E1450060EF3CFDBFF070E3A
:1008C000F4CFDBFFD950F70FE96EFF0EDA20EA6EA6
:1008D000EE50ED106CE0060EDBCF14F0070EDBCF10
:1008E00015F0F90EDB501424E96EFA0EDB501520DA
:1008F000EA6E2E0EEF6E020EDBCF14F0030EDBCF8E
:1009000015F0040EDBCF16F0050EDBCF17F00C6AE6
:100910000D6A200E0E6E410E0F6E14C007F015C04A
:1009200008F016C009F017C00AF01FEC0EF0020E16
:1009300007C0DBFF030E08C0DBFF040E09C0DBFFAE
:10094000050E0AC0DBFF010EE66EE66A060EDBCF7F
:1009500016F0070EDBCF17F0F90EDB501624146EDD
:10096000FA0EDB501720156E010E1426000E15220C
:1009700014C0E6FF15C0E6FF020EDBCF07F0030E42
:10098000DBCF08F0040EDBCF09F0050EDBCF0AF059
:1009900076EC0FF008C018F009C019F008C0E6FFA7
:1009A00009C0E6FF7FDE1A6E060EE15E1A50080EE1
:1009B000E15C02E2E16AE552E16EE552E7CFD9FF80
:1009C0001200F00EC1140E09C16E96989294929284
:1009D00094969396939A94941200D9CFE6FFE1CF20
:1009E000D9FFFD0EDB50E8B09480E8A09490FD0E96
:1009F000DB50E8B09684E8A09694FD0EDB50E8B09A
:100A00009682E8A09692FD0EDB50E8B09680E8A0B2
:100A10009690FD0EDB50E8B09384E8A09394FD0E11
:100A2000DB50E8B0928AE8A0929AFD0EDB50E8B065
:100A30009388E8A09398FD0EDB50E8B09286E8A07A
:100A40009296E552E7CFD9FF1200D9CFE6FFE1CF6A
:100A5000D9FF020EE126DE6ADD6AB3DF899200006B
:100A6000000000008994DECF14F0DDCF15F0D8909F
:100A7000155004E6130E145C000E155810E28B9608
:100A8000000000008984000000000000899400003C
:100A900000000000DF2A010E01E3DB2AE4D789828F
:100AA0000000000000008992020EE15C02E2E16AAF
:100AB000E552E16EE552E7CFD9FF1200D9CFE6FF4C
:100AC000E1CFD9FF020EE126DE6ADD6A7ADFBDDF03
:100AD00089928994DECF14F0DDCF15F0D8901550AF
:100AE00004E6130E145C000E155836E2D950FB0FC5
:100AF000E96EFF0EDA20EA6EDF501F0BEECF14F026
:100B0000EECF15F0EECF16F0EECF17F007E0D8904D
:100B10001732163215321432E806F9E1010E1416B6
:100B2000156A166A176A1450E8B08B86E8A08B968F
:100B3000000000008984000000000000899400008B
:100B400000000000DF2A010E01E3DB2A8982000099
:100B5000000000008992BED7020EE15C02E2E16A69
:100B6000E552E16EE552E7CFD9FF1200D9CFE6FF9B
:100B7000E1CFD9FF000EE66EE66A2FDFE552E552BF
:100B80008186818A82808494848284908184809A00
:100B900081888096550EE66E550EE66EE66AE66A28
:100BA0008DDFE552E552E552E552819A0000818AD7
:100BB000000082908484849284808194808A8198C9
:100BC0008086AA0EE66E2A0EE66EE66AE66A76DF92
:100BD000E552E552E552E552819A0000818A828011
:100BE0008494849284908194809A81988096550E02
:100BF000E66E550EE66EE66AE66A60DFE552E5529D
:100C0000E552E552819A0000818A82808494848230
:100C100084908184809A81888096550EE66E550E68
:100C2000E66EE66AE66A4ADFE552E552E552E552CB
:100C3000819A0000818A8290848484928480819445
:100C4000808A81988086AA0EE66E2A0EE66EE66A93
:100C5000E66A34DFE552E552E552E552819A00003A
:100C6000818A82908494848284808194809A8198FD
:100C70008096D950FB0FE96EFF0EDA20EA6EEECFB8
:100C8000E6FFEECFE6FFEECFE6FFEFCFE6FF16DFA3
:100C9000E552E552E552E552819A0000818A190E2B
:100CA000E66E51EC13F0E55200D0E552E7CFD9FFE4
:100CB0001200000EE66EE66A90DEE552E55281868D
:100CC000818A82808494848284908184809A8188BD
:100CD0008096550EE66E550EE66EE66AE66AEEDE24
:100CE000E552E552E552E552819A0000818A000002
:100CF00082908484849284808194808A8198808682
:100D0000AA0EE66E2A0EE66EE66AE66AD7DEE552BF
:100D1000E552E552E552819A0000818A82808494EE
:100D2000849284908194809A81988096550EE66E84
:100D3000550EE66EE66AE66AC1DEE552E552E55218
:100D4000E552819A0000818A828084948482849012
:100D50008184809A81888096550EE66E550EE66EE7
:100D6000E66AE66AABDEE552E552E552E552819A63
:100D70000000818A82908484849284808194808A15
:100D800081988086AA0EE66E2A0EE66EE66AE66A0C
:100D900095DEE552E552E552E552819A0000818ADE
:100DA00082908494849284808194809A81988096A1
:100DB000550EE66E550EE66EE66AE66A7FDEE55291
:100DC000E552E552E552819A0000818A640EE66E92
:100DD00051EC13F0E55200D01200D9CFE6FFE1CF7D
:100DE000D9FF020EE126DE6ADD6A818A8186010E64
:100DF000E66EE66AF2DDE552E552D950FB0FE96E88
:100E0000FF0EDA20EA6EEECFE6FFEECFE6FFEECF82
:100E1000E6FFEFCFE6FF52DEE552E552E552E5523E
:100E2000819600008450040B01E0010E400DF3CFC9
:100E30001DF08450020B01E0010E200DF3CF1CF0D9
:100E40008450010B100DF3CF1BF08150040B01E017
:100E5000010E080DF3CF1AF08050200B01E0010EB7
:100E6000040DF3CF19F08150100B01E0010EE824BE
:100E7000186E8050080B01E0010E182419241A2462
:100E80001B241C241D24166E176A8250010B800D32
:100E90001650F324146E1750F420156E14C0DEFFA4
:100EA00015C0DDFFDECF14F0DDCF15F014C0F3FF69
:100EB00015C0F4FF00D0020EE15C02E2E16AE552E7
:100EC000E16EE552E7CFD9FF1200D9CFE6FFE1CFBF
:100ED000D9FF000EE66EE66A80DDE552E552818AB2
:100EE0008186550EE66E550EE66EE66AE66AE6DD2A
:100EF000E552E552E552E5528280849484828490E2
:100F00008184809A81888096819A0000818AAA0EC5
:100F1000E66E2A0EE66EE66AE66AD0DDE552E55236
:100F2000E552E55282908484849284808194808A00
:100F300081988086819A0000818A8280849484824C
:100F400084908194809A81988096550EE66E550E15
:100F5000E66EE66AE66AB2DDE552E552E552E55232
:100F6000819A0000818AF90EDB50800B02E1000EAD
:100F700001D0010EE8B08280E8A08290F90EDB502B
:100F8000400B02E1000E01D0010EE8B08484E8A01D
:100F90008494F90EDB50200B02E1000E01D0010E0B
:100FA000E8B08482E8A08492F90EDB50100B02E1D5
:100FB000000E01D0010EE8B08480E8A08490F90E04
:100FC000DB50080B02E1000E01D0010EE8B0818475
:100FD000E8A08194F90EDB50040B02E1000E01D071
:100FE000010EE8B0808AE8A0809AF90EDB50020B6F
:100FF00002E1000E01D0010EE8B08188E8A08198DE
:10100000010EE76EF90EDBCF14F0FA0EDBCF15F010
:10101000E7501416156A1450E8B08086E8A0809650
:10102000D950FB0FE96EFF0EDA20EA6EEECFE6FF35
:10103000EECFE6FFEECFE6FFEFCFE6FF3FDDE55276
:10104000E552E552E552819A0000818A020EE66E71
:1010500024EC13F0E55200D0E552E7CFD9FF12009F
:101060000101CA6B18EC01F061EC13F00009FCE11E
:10107000E66AC2EC11F0E55261EC13F00009FCE104
:10108000590EE66E230EE66E10EC12F0E552E552B4
:1010900061EC13F00009FCE1400EE66EC2EC11F0C9
:1010A000E55261EC13F00009FCE14A0EE66E230EF6
:1010B000E66E10EC12F0E552E55261EC13F0000917
:1010C000FCE1100EE66EC2EC11F0E55261EC13F09B
:1010D0000009FCE13B0EE66E230EE66E10EC12F00A
:1010E000E552E552F0EF00F00101010ECA6F18EC75
:1010F00001F013EC02F0F0EF00F00101020ECA6FF4
:1011000018EC01F0020E0101E06FE16B640EF26F6A
:10111000F36BF46BF56BF535000EF51909E6D88025
:10112000E80EF255030EF355000EF455000EF5557A
:1011300018E3E0C1E6FFE1C1E6FFF2C1E6FFF3C15B
:10114000E6FFF4C1E6FFF5C1E6FFBFDE146E060E52
:10115000E15E14500101F22B000EF323F423F5237A
:10116000DAD761EC13F00009FCE1E66AC2EC11F099
:10117000E552F0EC00F061EC13F00009FCE12C0EFC
:10118000E66E230EE66E10EC12F0E552E552F0EF3B
:1011900000F00101030ECA6F18EC01F061EC13F0CE
:1011A0000009FCE1E66AC2EC11F0E552F0EC00F057
:1011B00061EC13F00009FCE1230EE66E230EE66EEF
:1011C00010EC12F0E552E55261EC13F00009FCE17D
:1011D000400EE66EC2EC11F0E55261EC13F000092E
:1011E000FCE1120EE66E230EE66E10EC12F0E552F4
:1011F000E55261EC13F00009FCE1100EE66EC2EC62
:1012000011F0E55261EC13F00009FCE1020EE66E0C
:10121000230EE66E10EC12F0E552E552F0EC00F011
:10122000F0EF00F00101040ECA6F18EC01F00101AB
:10123000EA6BEB6BEC6BED6BEE6BEF6BF06BF16BEA
:10124000640EF66FF76BF86BF96BE66EF7C1E6FFAD
:10125000F8C1E6FFF9C1E6FFC0DDE552E552E5520F
:10126000E552F3CFEAF1F4CFEBF1F6C114F0F7C198
:1012700015F0F8C116F0F9C117F0142A000E152266
:101280001622172214C0E6FF15C0E6FF16C0E6FFBF
:1012900017C0E6FFA2DDE552E552E552E552F3CF75
:1012A000ECF1F4CFEDF1F6C114F0F7C115F0F8C18F
:1012B00016F0F9C117F0020E1426000E15221622A0
:1012C000172214C0E6FF15C0E6FF16C0E6FF17C0E0
:1012D000E6FF83DDE552E552E552E552F3CFEEF14C
:1012E000F4CFEFF1F6C114F0F7C115F0F8C116F024
:1012F000F9C117F0030E1426000E1522162217222C
:1013000014C0E6FF15C0E6FF16C0E6FF17C0E6FFF3
:1013100064DDE552E552E552E552F3CFF0F1F4CF4A
:10132000F1F1FA0EE66E010EE66EEAC1E6FFEBC1E0
:10133000E6FF2BEC10F0E552E552E552E552FE0EC9
:10134000E66E010EE66EECC1E6FFEDC1E6FF2BECAA
:1013500010F0E552E552E552E552020EE66E020E3D
:10136000E66EEEC1E6FFEFC1E6FF2BEC10F0E552B2
:10137000E552E552E552060EE66E020EE66EF0C14B
:10138000E6FFF1C1E6FF2BEC10F0E552E552E55225
:10139000E552F0EC00F061EC13F00009FCE1E66AC4
:1013A000C2EC11F0E552F0EC00F061EC13F0000932
:1013B000FCE1FA0EE66E010EE66E83EC12F0E552E9
:1013C000E552F0EC00F061EC13F00009FCE1400E96
:1013D000E66EC2EC11F0E552F0EC00F0FE0EE66EA7
:1013E000010EE66E83EC12F0E552E552F0EC00F0EF
:1013F00061EC13F00009FCE1100EE66EC2EC11F096
:10140000E552F0EC00F0020EE66E020EE66E83ECA2
:1014100012F0E552E552F0EC00F061EC13F0000937
:10142000FCE1500EE66EC2EC11F0E552F0EC00F07B
:10143000060EE66E020EE66E83EC12F0E552E55201
:10144000F0EF00F00101050ECA6F18EC01F031DC7D
:1014500061EC13F00009FCE1E66AC2EC11F0E55220
:10146000F0EC00F061EC13F00009FCE1F60EE66E22
:10147000220EE66E10EC12F0E552E552F0EF00F0AD
:101480000101040ECA6F18EC01F0040E0101F627E9
:10149000000EF723F823F923F6C1E6FFF7C1E6FFB4
:1014A000F8C1E6FFF9C1E6FF98DCE552E552E552E6
:1014B000E552F3CFEAF1F4CFEBF1F6C114F0F7C146
:1014C00015F0F8C116F0F9C117F0142A000E152214
:1014D0001622172214C0E6FF15C0E6FF16C0E6FF6D
:1014E00017C0E6FF7ADCE552E552E552E552F3CF4C
:1014F000ECF1F4CFEDF1F6C114F0F7C115F0F8C13D
:1015000016F0F9C117F0020E1426000E152216224D
:10151000172214C0E6FF15C0E6FF16C0E6FF17C08D
:10152000E6FF5BDCE552E552E552E552F3CFEEF122
:10153000F4CFEFF1F6C114F0F7C115F0F8C116F0D1
:10154000F9C117F0030E1426000E152216221722D9
:1015500014C0E6FF15C0E6FF16C0E6FF17C0E6FFA1
:101560003CDCE552E552E552E552F3CFF0F1F4CF21
:10157000F1F1FA0EE66E010EE66EEAC1E6FFEBC18E
:10158000E6FF2BEC10F0E552E552E552E552FE0E77
:10159000E66E010EE66EECC1E6FFEDC1E6FF2BEC58
:1015A00010F0E552E552E552E552020EE66E020EEB
:1015B000E66EEEC1E6FFEFC1E6FF2BEC10F0E55260
:1015C000E552E552E552060EE66E020EE66EF0C1F9
:1015D000E6FFF1C1E6FF2BEC10F0E552E552E552D3
:1015E000E552F0EC00F061EC13F00009FCE1E66A72
:1015F000C2EC11F0E552F0EC00F061EC13F00009E0
:10160000FCE1FA0EE66E010EE66E83EC12F0E55296
:10161000E552F0EC00F061EC13F00009FCE1400E43
:10162000E66EC2EC11F0E552F0EC00F0FE0EE66E54
:10163000010EE66E83EC12F0E552E552F0EC00F09C
:1016400061EC13F00009FCE1100EE66EC2EC11F043
:10165000E552F0EC00F0020EE66E020EE66E83EC50
:1016600012F0E552E552F0EC00F061EC13F00009E5
:10167000FCE1500EE66EC2EC11F0E552F0EC00F029
:10168000060EE66E020EE66E83EC12F0E552E552AF
:10169000F0EF00F00101040ECA6F18EC01F0040E27
:1016A0000101F65F000EF75BF85BF95BF6C1E6FF40
:1016B000F7C1E6FFF8C1E6FFF9C1E6FFEDEC06F081
:1016C000E552E552E552E552F3CFEAF1F4CFEBF102
:1016D000F6C114F0F7C115F0F8C116F0F9C117F012
:1016E000142A000E15221622172214C0E6FF15C078
:1016F000E6FF16C0E6FF17C0E6FFEDEC06F0E55288
:10170000E552E552E552F3CFECF1F4CFEDF1F6C13D
:1017100014F0F7C115F0F8C116F0F9C117F0020E78
:101720001426000E15221622172214C0E6FF15C03B
:10173000E6FF16C0E6FF17C0E6FFEDEC06F0E55247
:10174000E552E552E552F3CFEEF1F4CFEFF1F6C1F9
:1017500014F0F7C115F0F8C116F0F9C117F0030E37
:101760001426000E15221622172214C0E6FF15C0FB
:10177000E6FF16C0E6FF17C0E6FFEDEC06F0E55207
:10178000E552E552E552F3CFF0F1F4CFF1F1FA0E64
:10179000E66E010EE66EEAC1E6FFEBC1E6FF2BEC5A
:1017A00010F0E552E552E552E552FE0EE66E010EEE
:1017B000E66EECC1E6FFEDC1E6FF2BEC10F0E55262
:1017C000E552E552E552020EE66E020EE66EEEC1FD
:1017D000E6FFEFC1E6FF2BEC10F0E552E552E552D3
:1017E000E552060EE66E020EE66EF0C1E6FFF1C1AE
:1017F000E6FF2BEC10F0E552E552E552E552F0EC35
:1018000000F061EC13F00009FCE1E66AC2EC11F0B3
:10181000E552F0EC00F061EC13F00009FCE1FA0E87
:10182000E66E010EE66E83EC12F0E552E552F0EC46
:1018300000F061EC13F00009FCE1400EE66EC2EC32
:1018400011F0E552F0EC00F0FE0EE66E010EE66ED1
:1018500083EC12F0E552E552F0EC00F061EC13F08D
:101860000009FCE1100EE66EC2EC11F0E552F0EC5E
:1018700000F0020EE66E020EE66E83EC12F0E55208
:10188000E552F0EC00F061EC13F00009FCE1500EC1
:10189000E66EC2EC11F0E552F0EC00F0060EE66EDA
:1018A000020EE66E83EC12F0E552E552F0EF00F026
:1018B0001200D9CFE6FFE1CFD9FFFD0EDBCF08F054
:1018C000FE0EDBCF09F00F0E081801E109506AE0A7
:1018D0000E0E081801E1095063E00D0E081801E131
:1018E00009505CE00C0E081801E1095055E00B0EA0
:1018F000081801E109504EE00A0E081801E10950EC
:1019000047E0070E081801E1095040E0030E0818EF
:1019100001E1095039E0090E081801E1095032E0EF
:10192000080E081801E109502BE0060E081801E125
:10193000095024E0050E081801E109501DE0040ECD
:10194000081801E1095016E0020E081801E10950DB
:101950000FE0010E081801E1095008E0085029E1E4
:10196000095027E1FD0EDB6AFE0E22D0010E1BD0CE
:10197000020E19D0030E17D0040E15D0050E13D089
:10198000060E11D0070E0FD00A0E0DD00B0E0BD085
:10199000090E09D00C0E07D0100E05D00F0E03D083
:1019A0000E0E01D00D0EF36EFD0EF3CFDBFFFE0E1B
:1019B000DB6AFD0EDBCF14F0FE0EDBCF15F014C09A
:1019C000F3FF15C0F4FFE552E7CFD9FF1200F6ECA4
:1019D00000F0E1EC04F02CEC02F00101CB6B948CF4
:1019E000948A94889586F28EF296F298F08CF19A09
:1019F000F086938230EC08F081A0FED78350080B6C
:101A000001E0010E080DF3CF16F08250100B01E03B
:101A1000010E156E8250200B01E0010EE824146EB9
:101A20008250400B01E0010E040DF35014241524E4
:101A30001624E66EE66A3DDFE552E552F3CFCBF1C0
:101A4000080E0101E76EF318E8AE02D0E73402D0C9
:101A5000E750CB5DD1E2CBC114F0156A14BE156816
:101A60001E0E1502F3CF15F01402F3CF14F0F4504C
:101A70001526DA0E1426000E1522CAC116F0176AB2
:101A800016BE1768050E1702F3CF17F01602F3CF34
:101A900016F0F45017261450F324E96E1550172051
:101AA000EA6E010EEE18A8E1ED50A6E1CBC116F0EA
:101AB000176A16BE17681E0E1702F3CF17F016022C
:101AC000F3CF16F0F4501726DA0E1626000E172262
:101AD000CAC118F0196A18BE1968050E1902F3CFA9
:101AE00019F01802F3CF18F0F45019261650F32409
:101AF000E96E17501920EA6E030EE926000EEA225D
:101B0000EECF14F0EFCF15F004D015C0FAFF14504B
:101B1000F96EFBDFCBC114F0156A14BE15681E0EFA
:101B20001502F3CF15F01402F3CF14F0F45015267C
:101B3000DA0E1426000E1522CAC116F0176A16BE58
:101B40001768050E1702F3CF17F01602F3CF16F041
:101B5000F45017261450F324E96E15501720EA6E3E
:0E1B6000020EE926000EEA22EFCFCAF145D7A9
:021B6E00019ED6
:101B700008D0019E09AE05D0086C091EE86A09224A
:101B8000018E09C003F008C002F0136A126A8E0EBB
:101B9000046E056AC1EF0FF0016AFDEC0FF015EC61
:101BA00010F001B6A5EF0FF001A205D001BAA5EF24
:101BB0000FF0ACEF0FF001BAB8EF0FF001A005D0B5
:101BC00001B8A5EF0FF0B8EF0FF001B8ACEF0FF0D0
:101BD000056A7F0E0A24046EE86A05220F50045E2F
:101BE000E86A055A1A0E106E0A6A126A136A026AC5
:101BF000036A0C50075E0D50085A0E50095A000E29
:101C00000A5A09E70C5007260D5008220E500922E7
:101C1000000E0A2201D0128AD890073608360936FB
:101C20000A36D8901236133602360336102EE1D714
:101C3000095008100710D8A4128AC1EF0FF0016AEA
:101C4000FDEC0FF015EC10F001B6A5EF0FF001A2BE
:101C500005D001B8A5EF0FF0ACEF0FF001AA05D049
:101C600001B0A5EF0FF0ACEF0FF001B002D001A86A
:101C700002D0B8EF0FF0056A0F500A24046EE86A2C
:101C800005227E0E045EE86A055A126A136A026A29
:101C9000036A0E500902F4CF03F0F3CF02F00D50A7
:101CA0000902F3501326F4500222000E03220E50B4
:101CB0000802F3501326F4500222000E03220C50A7
:101CC0000902F3501226F4501322000E02220322BE
:101CD0000D500802F3501226F4501322000E022277
:101CE00003220E500702F3501226F4501322000E66
:101CF000022203220C500802F4501226000E132276
:101D0000022203220D500702F4501226000E132265
:101D100002220322C1EF0FF00F7E016AFDEC0FF0EB
:101D200015EC10F001B6A5EF0FF001A20AD001AA40
:101D300003D001BEA5EF0FF001A4B1EF0FF0AEEF9D
:101D40000FF001AA05D001ACB1EF0FF0AEEF0FF02C
:101D500001A00AD001A808D001BE04D001A402D07D
:101D6000BAEF0FF0BEEF0FF0126A056A0F500A5C6F
:101D7000116E10E307C013F008C002F009C003F0B1
:101D80000AC010F00CC007F00DC008F00EC009F03A
:101D9000013A09D00CC013F00DC002F00EC003F0E0
:101DA0000FC010F0116C019E01BC018E10C004F038
:101DB00001B0EDEF0FF01A0E1160EDEF0FF0046AB5
:101DC0000A6A01A408D0076C081E091E0A1EE86AE8
:101DD000082209220A2201AC08D0136C021E031E3D
:101DE000041EE86A022203220422066A115207E056
:101DF0000A340932083207320632112EF9D7075059
:101E0000132608500222095003220A50042206C059
:101E100012F0019E04AE0BD0126C131E021E031EA4
:101E2000041EE86A1322022203220422018E04A067
:101E300006D0D8800332023213321232102A10C078
:101E400004F0C1EF0FF0006A0EAE2CEF0FF00D6C36
:101E50000E1EE86A0E22001E09AE34EF0FF0086C69
:101E6000091EE86A0922001E3BEC13F009BE44EF8C
:101E70000FF000AE000C086C091EE86A0922046C21
:101E8000051EE86A0522000C00BE3BEF0FF001883A
:101E9000FF0C09C013F008C012F008500D02F4CF77
:101EA00007F0F3CF06F009500E02F4CF09F0F3CF9C
:101EB00008F00D02F3500726F4500822E86A0922C0
:101EC00012500E02F3500726F4500822E86A092245
:101ED0000EAE6FEF0FF01250085E1350095A13AE9A
:101EE000000C0D50085E0E50095A000C016AFDEC02
:101EF0000FF001B680EF0FF001A20ED001B405D0B3
:101F00007F0E096EFF0E086E1FD0800E096E086AE4
:101F10001BD0096A086A18D001B0FBD78F0E0A607F
:101F2000EDD77E0E0A64F5D78E0E0A5C05E0D890D8
:101F3000093208320A2AF8D701A406D0086C091E13
:101F4000E86A092209AEE5D712007F0E0A6EFF0E7D
:101F5000096E086E076E12007F0E01BEFF0E0A6E3C
:101F600002D07F0E0A6E800E096E086A076AF3D7E8
:101F700001AE04D0800E0A6E096AF7D70A6A096AB0
:101F8000F4D70350021013101210F8E005BEF0D77A
:101F900003BE0CD004500510EBE0D8901236133677
:101FA000023603360406D8A00506F2D70550D4E160
:101FB0000428D2E012AE11D07F0E121402E113A059
:101FC0000CD0132AE86A0222032207E3D8800332E6
:101FD00002321332042A0428BFE00450C9E013C0BF
:101FE00007F002C008F00334096E04300A6E0932AB
:101FF0000A9E01BE0A8EABEF0FF009360A3602E3E5
:102000000184017E06E101800A6A096A086A076A9A
:1020100012000A2803E0D88009321200D890093251
:1020200002E101821200018612000E360F3602E331
:10203000018C017E06E101880F6A0E6A0D6A0C6A46
:1020400012000F2803E0D8800E321200D8900E3212
:06205000EAE1018A120022
:0A205600D9CFE6FFDACFE6FFFA0E5D
:10206000E3CFD9FFFB0EE3CFDAFFFD0EE35209E722
:102070002D0EDE6EFC0EE31EE32AFD0ED8B4E30641
:10208000E31EE652E652E652FD0EE124E76EFF0E35
:10209000E220E46EE652F70EE3CFE6FFF70EE3CF61
:1020A000E6FF9BEC10F0F90EE124E96EFF0EE22052
:1020B000EA6E8BEC10F00AE188EC10F009E18BEC91
:1020C00010F008E188EC10F007E108D096EC10F071
:1020D00091EC10F096EC10F091EC10F096EC10F002
:1020E000DE6AF90EE126FF0EE222FF0EE3CFDAFFF1
:1020F000E552FF0EE3CFD9FFE552FC0EE124E96E75
:10210000FF0EE220EA6EEECFF3FFEFCFF4FF1200F6
:10211000EF380F0B1200EF500F0B02E1EE52D88494
:102120001200EF380F0B300FDE6E1200EE500F0B67
:10213000300FDE6E1200FC0EE3CFE9FFFD0EE3CFA1
:10214000EAFF100EE66EEE6AEE6AEF6AD890FD0EB8
:10215000E336FE0EE336ED36ED36EF36FF0EE306E0
:1021600009E0BCEC10F0EE52BCEC10F0EE52BCEC0E
:1021700010F0EDD7E56E1200030EEF24E8B6EF6E17
:0A218000300EEF24E8BEEF6E000CF5
:06218A00D9CFE6FFE1CF12
:10219000D9FF0F0E831695169594959295908C9471
:1021A0008C928C90F0EC00F0300EE66E5DEC12F04C
:1021B000E552050EE66E24EC13F0E552300EE66EA5
:1021C0005DEC12F0E552010EE66E24EC13F0E552E0
:1021D000320EE66E5DEC12F0E55261EC13F0000990
:1021E000FCE161EC13F00009FCE1FE0EDBCFE6FF41
:1021F0005DEC12F0E55261EC13F00009FCE1080E11
:10220000E66E5DEC12F0E55261EC13F00009FCE1C2
:102210000F0EE66E5DEC12F0E55261EC13F0000972
:10222000FCE1010EE66E5DEC12F0E55261EC13F09C
:102230000009FCE1040EE66E5DEC12F0E55261EC83
:1022400013F00009FCE1800EE66EC2EC11F0E552DD
:08225000E552E7CFD9FF1200AF
:082258002A0EF66E000EF76E6F
:10226000000EF86E02010900F550536F0900F55099
:10227000546F03E1536701D03DD00900F5504E6F14
:102280000900F5504F6F0900F550506F0900090023
:10229000F550E96E0900F550EA6E090009000900E1
:1022A000F550516F0900F550526F09000900F6CF43
:1022B00055F2F7CF56F2F8CF57F24EC2F6FF4FC2A3
:1022C000F7FF50C2F8FF0201515302E1525307E0F9
:1022D0000900F550EE6E5107F8E25207F9D755C2E2
:1022E000F6FF56C2F7FF57C2F8FF02015307000E70
:0622F000545BBFD7120091
:0A22F60052414D20636C6561726572
:1023000064004B4559363A20436C65617220524156
:102310004D004B4559353A20566965772053617613
:1023200065640052414D204D656E750052656164D3
:10233000696E672053746F726564004B4559343A77
:102340002052414D204D656E75004B4559323A2063
:102350006D65736173757265004D61696E204D65C1
:102360006E75004852433A200042504D0048523AA0
:10237000200020202020202020202020202020207D
:032380002020001A
:0C238400D9CFE6FFE1CFD9FF0F0E951670
:102390008316FE0EDB508009F00B83128C948C9216
:1023A000DAEC00F08C80DAEC00F08C900F0E8316E3
:1023B000FE0EDB38F00BF00B8312DAEC00F08C80B1
:1023C000DAEC00F08C90F00E9512E552E7CFD9FFD1
:0223D0001200F9
:0E23D200D9CFE6FFE1CFD9FF0F0E9516831687
:1023E000FE0EDB504009F00B83128C948C92DAECD9
:1023F00000F08C80DAEC00F08C900F0E8316FE0E4D
:10240000DB38F00BF00B8312DAEC00F08C80DAECA6
:1024100000F08C90F00E9512E552E7CFD9FF120034
:10242000D9CFE6FFE1CFD9FFFD0EDBCFF6FFFE0EE1
:10243000DBCFF7FF0800F55016E061EC13F0000960
:10244000FCE1FD0EDBCFF6FFFE0EDBCFF7FF080051
:10245000F550E66E37EC12F0E552FD0EDB2AFE0E6B
:0E246000E3E3DB2AE1D7E552E7CFD9FF120014
:02246E00D9CFC4
:10247000E6FFE1CFD9FF0F0E95168316FE0EDB5057
:10248000F00B83128C828C94DAEC00F08C80DAEC06
:1024900000F08C900F0E8316FE0EDB38F00BF00B65
:1024A0008312DAEC00F08C80DAEC00F08C90F00E05
:0A24B0009512E552E7CFD9FF1200A4
:0624BA00D9CFE6FFE1CFDF
:1024C000D9FF0F0E95168316FE0EDB50F00B83120C
:1024D0008C948C92DAEC00F08C80DAEC00F08C902A
:1024E0000F0E8316FE0EDB38F00BF00B8312DAECC6
:1024F00000F08C80DAEC00F08C90F00E9512E55232
:06250000E7CFD9FF120035
:0A250600D9CFE6FFE1CFD9FFFD0EAB
:10251000DBCFE9FFFE0EDBCFEAFFEF5015E061EC09
:1025200013F00009FCE1FD0EDBCFE9FFFE0EDBCF6F
:10253000EAFFEF50E66E37EC12F0E552FD0EDB2AB3
:10254000FE0EE5E3DB2AE3D7E552E7CFD9FF120021
:10255000D9CFE6FFE1CFD9FFE6528C848C82DAEC4A
:1025600000F08C80DAEC00F0F00E8314DF6E8C90BB
:10257000DAEC00F08C80DAEC00F083380F0B0F0BF4
:10258000DF128C908C928C94DF50E552E552E7CFAD
:04259000D9FF12005D
:0C259400D9CFE6FFE1CFD9FFE6528C84DE
:1025A0008C92DAEC00F08C80DAEC00F0F00E831400
:1025B000DF6E8C90DAEC00F08C80DAEC00F083387F
:1025C0000F0B0F0BDF128C908C947F0EDF14E552F3
:0825D000E552E7CFD9FF12002C
:0825D800D9CFE6FFDACFE6FFE0
:1025E000E1CFD9FFE2CFDAFFE652E652FC0EDBCFB5
:1025F000DEFFDBCFDDFF010EDB50D76EDF50D66E86
:10260000E552E552E552E5CFDAFFE7CFD9FF1200F8
:10261000D9CFE6FFDACFE6FFE1CFD9FFE2CFDAFF8D
:10262000FD0EDB507F0BD56ED76AD66AF294FD0E95
:10263000DBAE02D0F28A01D0F29AD58EE552E5CF18
:08264000DAFFE7CFD9FF120019
:08264800FF0EE3501F6EEF0EC0
:1026500001D0F30EE76EE72E2BEF13F00C0E1E6E7B
:10266000E76AE72E31EF13F01E2E30EF13F01F2E26
:0626700029EF13F0120037
:0A267600056A046A100EE76ED890A2
:1026800008360936043605360D50045C0E500558E0
:1026900005E30D50045E0E50055A082AE72EF0D7C8
:0226A000120026
:0E26A200FF0EE3501F6E480E01D04C0EE76E87
:1026B000E72EFED7E76AE72EFED71F2EF7D70000DA
:0226C000120006
:0E26C2008C848C92DAEC00F08C80DAEC00F064
:1026D0008C90DAEC00F08C80DAEC00F08C908C942A
:0226E000000CEC
:0E26E200000EF36E00EE00F0060E01D812009E
:1026F000EA6002D0EE6AFCD7F350E9601200EE6A9D
:02270000FCD704
:0E27020010EE80F020EE80F0F86A019C2CECC6
:0E27100011F09DEC13F0E7EC0CF0FBD712007B
:02271E00FF0EAC
:10272000E350E84E1200000000D000D000D0E82EA8
:04273000FAD71200C2
:06273400D59EF29A12008E
:02273A0012008B
:04273C000000000099
:102740000000000000000000000000000000000089
:102750000000000000000000000000000000000079
:102760000000000000000100006010010000601087
:102770000100006010010000601001000060100105
:1027800000006010010001E810010001E8100100E4
:1027900001E810000003B018000003B018000003A7
:1027A000B018000000B018010002FA10000002B0DA
:1027B00018000003B018000004B018000005B0189D
:1027C0000100039211000001B018000002B01801CE
:1027D0000003921101000392110100039211000005
:1027E00000B018000001B018000002B01801000489
:1027F00024120100042412000005B018000000B0EB
:1028000018000001B018000002B0180100054414BF
:10281000000004B018000005B018000000B0180057
:102820000001B018000002B018000003B018010049
:10283000048014000005B018000000B0180000016A
:10284000B018000002B018000003B0180100049492
:0628500016000005B0189F
:020000040030CA
:0100010022DC
:010003000EEE
:010006008178
:00000001FF
