:020000040000FA
:06000000FCEF29F01200E4
:06002A0001005C5400001F
:08003000B0000000F400000024
:08003800D9CFE6FFE1CFD9FFAB
:10004000020EE126DE6ADD6A948E8B9E949E300E4F
:10005000E66E18EC2AF0E552948E0A0EE66E18EC65
:100060002AF0E5528250800B800A01E0010E006EFA
:10007000016A00BE016800C0DEFF01C0DDFF020EA4
:10008000E15C02E2E16AE552E16EE552E7CFD9FFB9
:100090001200D9CFE6FFE1CFD9FFE652DF6ADFCF0A
:1000A00000F0080EE76E0018E8AE02D0E73402D088
:1000B000E750005C22E28B9E949E010EE66E18ECE7
:1000C0002AF0E552FE0EDB50010BE8B0948EE8A05A
:1000D000949E050EE66E18EC2AF0E552948E020E00
:1000E000E66E18EC2AF0E552FE0EDB407F0BE76E61
:1000F000FE0EE7CFDBFFDF2AD2D7E552E552E7CF8E
:10010000D9FF1200D9CFE6FFE1CFD9FF030EE126D8
:10011000DE6ADD6A020EDB6A020EDBCF00F0080E3B
:10012000E76E0018E8AE02D0E73402D0E750005C7A
:100130002EE28B9E949E00000000948E0000000032
:100140000000000000000000000000008250800B52
:1001500001E0010EF36E020EDB5004E0D890F3369E
:10016000E806FCE1F350026E036ADE500210006EF6
:10017000DD500310016E00C0DEFF01C0DDFF050E83
:10018000E66E18EC2AF0E552020EDB2AC5D7DECF68
:1001900000F0DDCF01F000C0F3FF01C0F4FF00D09C
:1001A000030EE15C02E2E16AE552E16EE552E7CF5F
:1001B000D9FF120000000000000000000000000055
:1001C000000000000000000000000000000000002F
:1001D00000D01200050EE66ECCEC29F0E5521200BC
:1001E0000F0EE66ECCEC29F0E5521200836A956A98
:1001F000280EE66E09EC26F0E552DCEC29F0000949
:10020000FCE1E66A3FEC28F0E552060EE66EDAEC19
:1002100028F0E552DCEC29F00009FCE10F0EE66E57
:10022000DAEC28F0E552DCEC29F00009FCE11200E0
:10023000D7DFDCEC29F00009FCE1E66A3FEC28F0AE
:10024000E552DCEC29F00009FCE1AC0EE66E4E0E46
:10025000E66E8DEC28F0E552E552DCEC29F0000961
:10026000FCE1BEDF400EE66E3FEC28F0E552DCEC30
:1002700029F00009FCE1AC0EE66E4E0EE66E8DEC48
:1002800028F0E552E552DCEC29F00009FCE1A8DF9A
:10029000100EE66E3FEC28F0E552DCEC29F0000988
:1002A000FCE1AC0EE66E4E0EE66E8DEC28F0E552EB
:1002B000E55296DF500EE66E3FEC28F0E552DCEC9E
:1002C00029F00009FCE1AC0EE66E4E0EE66E8DECF8
:1002D00028F0E552E5521200AFDE0C0EE66ED9DED4
:1002E000E552E66AD6DEE552A7DEAC0EE66ED1DE5A
:1002F000E5521CEF00F0D9CFE6FFE1CFD9FF0A0E9F
:10030000E126DE6ADD6A020EDB6A030EDB6A040E9A
:10031000DB6A050EDB6A080EDB6A090EDB6ADECFDC
:1003200000F0DDCF01F0D890015004E6960E005C9D
:10033000000E01582EE2EE0EE66EABDEE552220E06
:10034000E66EA7DEE55278DEAA0EE66EA2DEE55284
:10035000D9DE060EF3CFDBFF070EF4CFDBFF6CDE3A
:10036000060EDBCF02F0070EDBCF03F0080EDB50EA
:100370000224006E090EDB500320016E080E00C03F
:10038000DBFF090E01C0DBFFDF2A010EC8E3DB2A19
:10039000C6D7080EDBCF28F0090EDBCF29F066ECBC
:1003A00019F027C000F028C001F029C002F02AC0CF
:1003B00003F02C6A2D6A160E2E6E430E2F6E79EC0A
:1003C00019F0020E27C0DBFF030E28C0DBFF040E6E
:1003D00029C0DBFF050E2AC0DBFF020EDBCF00F0D9
:1003E000030EDBCF01F0040EDBCF02F0050EDBCFF6
:1003F00003F000C026F001C027F002C028F003C0BF
:1004000029F00A0EE15C02E2E16AE552E16EE55292
:10041000E7CFD9FF1200D9CFE6FFE1CFD9FF060E13
:10042000E126DE6ADD6AFB0EDBCF00F0FC0EDBCFDF
:1004300001F00006000E015A020E00C0DBFF030EA1
:1004400001C0DBFFDECF00F0DDCF01F0020EDBCF1D
:1004500002F0030EDBCF03F001500318E8AE02D028
:10046000033404D00250005C0350015851E2FD0EE9
:10047000DBCF02F0FE0EDBCF03F0DE500224E96E8C
:10048000DD500320EA6EEFCF00F0016A00BE016884
:10049000040E00C0DBFF050E01C0DBFF020EDBCF48
:1004A00002F0030EDBCF03F0FD0EDB500224E96EF9
:1004B000FE0EDB500320EA6EEF50E66EFD0EDBCF42
:1004C00000F0FE0EDBCF01F0DE500024E96EDD50BF
:1004D0000120EA6EE552E750EF6E020EDBCF00F02E
:1004E000030EDBCF01F0FD0EDB500024E96EFE0EA3
:1004F000DB500120EA6E040EDBCFEFFFDF2A010E96
:1005000001E3DB2A020EDB06030E9CE2DB069AD730
:10051000060EE15C02E2E16AE552E16EE552E7CFE8
:10052000D9FF1200D9CFE6FFE1CFD9FF020EE126B5
:10053000DE6ADD6AD950FD0FE96EFF0EDA20EA6E41
:10054000EE50ED103FE0FD0EDBCF02F0FE0EDBCFF4
:1005500003F00A0E2D6E2E6A02C028F003C029F0A7
:10056000D0EC1AF024C002F025C003F0300E0226B1
:10057000000E0322DFCF00F0DF2A010EDBCF01F0F7
:1005800001E3DB2AFB0EDB500024E96EFC0EDB509E
:100590000120EA6E02C0EFFF0A0E006E016AFD0E36
:1005A000DBCF28F0FE0EDBCF29F000C02DF001C01C
:1005B0002EF0D0EC1AF0FD0E28C0DBFFFE0E29C095
:1005C000DBFFB8D7DECF00F0DDCF01F0F90EDBCFD7
:1005D00002F0FA0EDBCF03F001500318E8AE02D0B0
:1005E000033404D00250005C0350015813E2DFCF03
:1005F00000F0DF2A010EDBCF01F001E3DB2AFB0E66
:10060000DB500024E96EFC0EDB500120EA6E300E58
:10061000EF6ED8D7DECFE6FFDDCFE6FFFB0EDBCFF8
:10062000E6FFFC0EDBCFE6FFF6DEE552E552E552D3
:10063000E552FB0EDBCF00F0FC0EDBCF01F0DE500D
:100640000024E96EDD500120EA6EEF6ADECF00F093
:10065000DDCF01F000C0F3FF01C0F4FF020EE15C4A
:1006600002E2E16AE552E16EE552E7CFD9FF1200FE
:10067000D9CFE6FFE1CFD9FF080EE126FB0EDBCF95
:1006800027F0FC0EDBCF28F0FD0EDBCF29F0FE0EAD
:10069000DBCF2AF0F6EC1AF028C0DEFF29C0DDFF20
:1006A000FB0EDBCF00F0FC0EDBCF01F0FD0EDBCF4D
:1006B00002F0FE0EDBCF03F0000EDFCF28F0010EBC
:1006C000DBCF29F066EC19F027C004F028C005F054
:1006D00029C006F02AC007F027C02CF028C02DF052
:1006E00029C02EF02AC02FF000C027F001C028F04A
:1006F00002C029F003C02AF039EC1AF0020E27C01C
:10070000DBFF030E28C0DBFF040E29C0DBFF050E54
:100710002AC0DBFF000EE66EE66AF90EDBCFE6FFCD
:10072000FA0EDBCFE6FFDECFE6FFDDCFE6FFFADE37
:10073000006E060EE15E0050060EF3CFDBFF070EE3
:10074000F4CFDBFFD950F70FE96EFF0EDA20EA6E27
:10075000EE50ED1001E1B1D0060EDBCF00F0070E38
:10076000DBCF01F0F90EDB500024E96EFA0EDB500E
:100770000120EA6E2E0EEF6E020EDBCF00F0030EAC
:10078000DBCF01F0040EDBCF02F0050EDBCF03F070
:1007900000C0E6FF01C0E6FF02C0E6FF03C0E6FFBF
:1007A000F70EDBCF28F0F80EDBCF29F066EC19F05E
:1007B00027C008F028C009F029C00AF02AC00BF0B1
:1007C00027C0E6FF28C0E6FF29C0E6FF2AC0E6FFF3
:1007D000E66AE66A200EE66E410EE66ED5EC13F090
:1007E0000C6E080EE15E0C50E552E7CF03F0E552C7
:1007F000E7CF02F0E552E7CF01F0E552E7CF00F096
:1008000026C004F027C005F028C006F029C007F074
:1008100026C02CF027C02DF028C02EF029C02FF0C4
:1008200000C027F001C028F002C029F003C02AF060
:10083000CCEC19F0020E27C0DBFF030E28C0DBFF53
:10084000040E29C0DBFF050E2AC0DBFFF70EDBCF4D
:10085000E6FFF80EDBCFE6FF060EDBCF02F0070E59
:10086000DBCF03F0F90EDB500224006EFA0EDB50F2
:100870000320016E010E0026000E012200C0E6FFDB
:1008800001C0E6FF020EDBCF27F0030EDBCF28F01E
:10089000040EDBCF29F0050EDBCF2AF0F6EC1AF0C0
:1008A00028C004F029C005F028C0E6FF29C0E6FFF3
:1008B00039DE066E060EE15E0650080EE15C02E2CD
:1008C000E16AE552E16EE552E7CFD9FF1200D9CFD8
:1008D000E6FFE1CFD9FF010EE66EE66AE40EE66EB2
:1008E000010EE66ED950FB0FE96EFF0EDA20EA6EBC
:1008F000EECFE6FFEECFE6FFEECFE6FFEFCFE6FF6F
:10090000B7DE006E080EE15E0050DCEC29F0000955
:10091000FCE1500EE66E3FEC28F0E552DCEC29F0ED
:100920000009FCE1E40EE66E010EE66EA30E006E19
:100930004E0E016E026A00C0E6FFE66E02C0E6FFE0
:10094000D00EE66E010EE66E70EC26F0036E070E1A
:10095000E15E0350D00EE66E010EE66E00EC29F06B
:10096000E552E5523DDCE552E7CFD9FF1200F00E2B
:10097000C1140E09C16E9698929492929496939691
:10098000939A94941200D9CFE6FFE1CFD9FFFD0EE0
:10099000DB50E8B09480E8A09490FD0EDB50E8B006
:1009A0009684E8A09694FD0EDB50E8B09682E8A00D
:1009B0009692FD0EDB50E8B09680E8A09690FD0E72
:1009C000DB50E8B09384E8A09394FD0EDB50E8B0D0
:1009D000928AE8A0929AFD0EDB50E8B09388E8A0D6
:1009E0009398FD0EDB50E8B09286E8A09296E5520F
:1009F000E7CFD9FF1200D9CFE6FFE1CFD9FF020E32
:100A0000E126DE6ADD6AB3DF8992000000000000A3
:100A10008994DECF00F0DDCF01F0D890015004E6DC
:100A2000130E005C000E015810E28B9600000000CF
:100A3000898400000000000089940000000000008C
:100A4000DF2A010E01E3DB2AE4D7898200000000DF
:100A500000008992020EE15C02E2E16AE552E16E79
:100A6000E552E7CFD9FF1200D9CFE6FFE1CFD9FF9A
:100A7000020EE126DE6ADD6A7ADFBDDF89928994A3
:100A8000DECF00F0DDCF01F0D890015004E6130E68
:100A9000005C000E015836E2D950FB0FE96EFF0EE4
:100AA000DA20EA6EDF501F0BEECF00F0EECF01F040
:100AB000EECF02F0EECF03F007E0D890033202321F
:100AC00001320032E806F9E1010E0016016A026AFD
:100AD000036A0050E8B08B86E8A08B960000000007
:100AE00089840000000000008994000000000000DC
:100AF000DF2A010E01E3DB2A8982000000000000EA
:100B00008992BED7020EE15C02E2E16AE552E16E33
:100B1000E552E7CFD9FF1200D9CFE6FFE1CFD9FFE9
:100B2000000EE66EE66A2FDFE552E5528186818A85
:100B300082808494848284908184809A8188809643
:100B4000550EE66E550EE66EE66AE66A8DDFE552F4
:100B5000E552E552E552819A0000818A00008290B8
:100B60008484849284808194808A81988086AA0E6D
:100B7000E66E2A0EE66EE66AE66A76DFE552E55232
:100B8000E552E552819A0000818A828084948492A1
:100B900084908194809A81988096550EE66E550EC9
:100BA000E66EE66AE66A60DFE552E552E552E55236
:100BB000819A0000818A82808494848284908184D6
:100BC000809A81888096550EE66E550EE66EE66A2E
:100BD000E66A4ADFE552E552E552E552819A0000A5
:100BE000818A82908484849284808194808A81988E
:100BF0008086AA0EE66E2A0EE66EE66AE66A34DFA4
:100C0000E552E552E552E552819A0000818A8290D0
:100C10008494848284808194809A81988096D9502B
:100C2000FB0FE96EFF0EDA20EA6EEECFE6FFEECFA5
:100C3000E6FFEECFE6FFEFCFE6FF16DFE552E55227
:100C4000E552E552819A0000818A190EE66ECCECDD
:100C500029F0E55200D0E552E7CFD9FF1200000E8F
:100C6000E66EE66A90DEE552E5528186818A8280F0
:100C70008494848284908184809A81888096550EA1
:100C8000E66E550EE66EE66AE66AEEDEE552E5527F
:100C9000E552E552819A0000818A000082908484A6
:100CA000849284808194808A81988086AA0EE66EE0
:100CB0002A0EE66EE66AE66AD7DEE552E552E552AE
:100CC000E552819A0000818A828084948492849083
:100CD0008194809A81988096550EE66E550EE66E48
:100CE000E66AE66AC1DEE552E552E552E552819ACE
:100CF0000000818A82808494848284908184809A96
:100D000081888096550EE66E550EE66EE66AE66AB6
:100D1000ABDEE552E552E552E552819A0000818A48
:100D200082908484849284808194808A8198808651
:100D3000AA0EE66E2A0EE66EE66AE66A95DEE552D1
:100D4000E552E552E552819A0000818A82908494AE
:100D5000849284808194809A81988096550EE66E64
:100D6000550EE66EE66AE66A7FDEE552E552E5522A
:100D7000E552819A0000818A640EE66ECCEC29F07F
:100D8000E55200D01200D9CFE6FFE1CFD9FF020E25
:100D9000E126DE6ADD6A818A8186010EE66EE66AF8
:100DA000F2DDE552E552D950FB0FE96EFF0EDA2075
:100DB000EA6EEECFE6FFEECFE6FFEECFE6FFEFCF37
:100DC000E6FF52DEE552E552E552E552819600001B
:100DD0008450040B01E0010E400DF3CF09F0845064
:100DE000020B01E0010E200DF3CF08F08450010B3F
:100DF000100DF3CF07F08150040B01E0010E080D38
:100E0000F3CF06F08050200B01E0010E040DF3CF6C
:100E100005F08150100B01E0010EE824046E8050B3
:100E2000080B01E0010E04240524062407240824ED
:100E30000924026E036A8250010B800D0250F324D4
:100E4000006E0350F420016E00C0DEFF01C0DDFF24
:100E5000DECF00F0DDCF01F000C0F3FF01C0F4FFF2
:100E600000D0020EE15C02E2E16AE552E16EE55279
:100E7000E7CFD9FF1200D9CFE6FFE1CFD9FF000EAF
:100E8000E66EE66A80DDE552E552818A8186550E7E
:100E9000E66E550EE66EE66AE66AE6DDE552E55276
:100EA000E552E55282808494848284908184809A81
:100EB00081888096819A0000818AAA0EE66E2A0EA9
:100EC000E66EE66AE66AD0DDE552E552E552E552A5
:100ED00082908484849284808194808A81988086A0
:100EE000819A0000818A8280849484828490819493
:100EF000809A81988096550EE66E550EE66EE66AEB
:100F0000E66AB2DDE552E552E552E552819A00000B
:100F1000818AF90EDB50800B02E1000E01D0010E38
:100F2000E8B08280E8A08290F90EDB50400B02E12D
:100F3000000E01D0010EE8B08484E8A08494F90E7C
:100F4000DB50200B02E1000E01D0010EE8B08482DC
:100F5000E8A08492F90EDB50100B02E1000E01D0E4
:100F6000010EE8B08480E8A08490F90EDB50080BF5
:100F700002E1000E01D0010EE8B08184E8A0819466
:100F8000F90EDB50040B02E1000E01D0010EE8B0B7
:100F9000808AE8A0809AF90EDB50020B02E1000E75
:100FA00001D0010EE8B08188E8A08198010EE76EBB
:100FB000F90EDBCF00F0FA0EDBCF01F0E7500016A0
:100FC000016A0050E8B08086E8A08096D950FB0FF7
:100FD000E96EFF0EDA20EA6EEECFE6FFEECFE6FF17
:100FE000EECFE6FFEFCFE6FF3FDDE552E552E552FB
:100FF000E552819A0000818A020EE66E8DEC29F09E
:10100000E55200D0E552E7CFD9FF12000101A46BF1
:1010100018EC01F0DCEC29F00009FCE1E66A3FEC99
:1010200028F0E552DCEC29F00009FCE1990EE66EAF
:101030004E0EE66E8DEC28F0E552E552DCEC29F020
:101040000009FCE1400EE66E3FEC28F0E552DCECD6
:1010500029F00009FCE18A0EE66E4E0EE66E8DEC7C
:1010600028F0E552E552DCEC29F00009FCE1100E15
:10107000E66E3FEC28F0E552DCEC29F00009FCE1DB
:101080007B0EE66E4E0EE66E8DEC28F0E552E552D4
:10109000F0EF00F00101010EA46F18EC01F07BEC01
:1010A00001F026C0B0F027C0B1F028C0B2F029C0CE
:1010B000B3F0DCEC29F00009FCE1E66A3FEC28F033
:1010C000E552F0EC00F0DCEC29F00009FCE16F0ED9
:1010D000E66E4E0EE66E8DEC28F0E552E552B0C09D
:1010E000E6FFB1C0E6FFB2C0E6FFB3C0E6FF67ECC3
:1010F00004F0E552E552E552E552F0EF00F001014F
:10110000020EA46F18EC01F0020E0101A66FA76B8E
:10111000640EB86FB96BBA6BBB6BBB35000EBB19F5
:1011200009E6D880E80EB855030EB955000EBA5539
:10113000000EBB5518E3A6C1E6FFA7C1E6FFB8C184
:10114000E6FFB9C1E6FFBAC1E6FFBBC1E6FF93DE29
:10115000006E060EE15E00500101B82B000EB923AF
:10116000BA23BB23DAD7DCEC29F00009FCE1E66AFC
:101170003FEC28F0E552F0EC00F0DCEC29F000093F
:10118000FCE1600EE66E4E0EE66E8DEC28F0E55248
:10119000E552F0EF00F00101030EA46F18EC01F02E
:1011A000DCEC29F00009FCE1E66A3FEC28F0E552AE
:1011B000F0EC00F0DCEC29F00009FCE1570EE66EE3
:1011C0004E0EE66E8DEC28F0E552E552DCEC29F08F
:1011D0000009FCE1400EE66E3FEC28F0E552DCEC45
:1011E00029F00009FCE1460EE66E4E0EE66E8DEC2F
:1011F00028F0E552E552DCEC29F00009FCE1100E84
:10120000E66E3FEC28F0E552DCEC29F00009FCE149
:10121000360EE66E4E0EE66E8DEC28F0E552E55287
:10122000F0EC00F0F0EF00F00101040EA46F18ECF8
:1012300001F00101B06BB16BB26BB36BB46BB56B0A
:10124000B66BB76B640EBC6FBD6BBE6BBF6BE66EEF
:10125000BDC1E6FFBEC1E6FFBFC1E6FF94DDE552BA
:10126000E552E552E552F3CFB0F1F4CFB1F1BCC194
:1012700000F0BDC101F0BEC102F0BFC103F0002A01
:10128000000E01220222032200C0E6FF01C0E6FF99
:1012900002C0E6FF03C0E6FF76DDE552E552E55207
:1012A000E552F3CFB2F1F4CFB3F1BCC100F0BDC150
:1012B00001F0BEC102F0BFC103F0020E0026000E15
:1012C00001220222032200C0E6FF01C0E6FF02C0A5
:1012D000E6FF03C0E6FF57DDE552E552E552E55271
:1012E000F3CFB4F1F4CFB5F1BCC100F0BDC101F052
:1012F000BEC102F0BFC103F0030E0026000E0122A2
:101300000222032200C0E6FF01C0E6FF02C0E6FFA2
:1013100003C0E6FF38DDE552E552E552E552F3CF72
:10132000B6F1F4CFB7F1C00EE66E010EE66EB0C1B5
:10133000E6FFB1C1E6FFC2EC23F0E552E552E5520B
:10134000E552C40EE66E010EE66EB2C1E6FFB3C111
:10135000E6FFC2EC23F0E552E552E552E552C80E35
:10136000E66E010EE66EB4C1E6FFB5C1E6FFC2EC63
:1013700023F0E552E552E552E552CC0EE66E010E41
:10138000E66EB6C1E6FFB7C1E6FFC2EC23F0E55258
:10139000E552E552E552F0EC00F0DCEC29F00009F2
:1013A000FCE1E66A3FEC28F0E552F0EC00F0DCEC02
:1013B00029F00009FCE1C00EE66E010EE66E00ECBD
:1013C00029F0E552E552F0EC00F0DCEC29F00009E0
:1013D000FCE1400EE66E3FEC28F0E552F0EC00F048
:1013E000C40EE66E010EE66E00EC29F0E552E55201
:1013F000F0EC00F0DCEC29F00009FCE1100EE66EE8
:101400003FEC28F0E552F0EC00F0C80EE66E010E5D
:10141000E66E00EC29F0E552E552F0EC00F0DCEC71
:1014200029F00009FCE1500EE66E3FEC28F0E55291
:10143000F0EC00F0CC0EE66E010EE66E00EC29F04A
:10144000E552E552F0EF00F00101050EA46F18EC33
:1014500001F005DCDCEC29F00009FCE1E66A3FEC78
:1014600028F0E552F0EC00F0DCEC29F00009FCE19A
:101470002A0EE66E4E0EE66E8DEC28F0E552E55231
:10148000F0EF00F00101040EA46F18EC01F0040E5F
:101490000101BC27000EBD23BE23BF23BCC1E6FF54
:1014A000BDC1E6FFBEC1E6FFBFC1E6FF6CDCE55291
:1014B000E552E552E552F3CFB0F1F4CFB1F1BCC142
:1014C00000F0BDC101F0BEC102F0BFC103F0002AAF
:1014D000000E01220222032200C0E6FF01C0E6FF47
:1014E00002C0E6FF03C0E6FF4EDCE552E552E552DE
:1014F000E552F3CFB2F1F4CFB3F1BCC100F0BDC1FE
:1015000001F0BEC102F0BFC103F0020E0026000EC2
:1015100001220222032200C0E6FF01C0E6FF02C052
:10152000E6FF03C0E6FF2FDCE552E552E552E55247
:10153000F3CFB4F1F4CFB5F1BCC100F0BDC101F0FF
:10154000BEC102F0BFC103F0030E0026000E01224F
:101550000222032200C0E6FF01C0E6FF02C0E6FF50
:1015600003C0E6FF10DCE552E552E552E552F3CF49
:10157000B6F1F4CFB7F1C00EE66E010EE66EB0C163
:10158000E6FFB1C1E6FFC2EC23F0E552E552E552B9
:10159000E552C40EE66E010EE66EB2C1E6FFB3C1BF
:1015A000E6FFC2EC23F0E552E552E552E552C80EE3
:1015B000E66E010EE66EB4C1E6FFB5C1E6FFC2EC11
:1015C00023F0E552E552E552E552CC0EE66E010EEF
:1015D000E66EB6C1E6FFB7C1E6FFC2EC23F0E55206
:1015E000E552E552E552F0EC00F0DCEC29F00009A0
:1015F000FCE1E66A3FEC28F0E552F0EC00F0DCECB0
:1016000029F00009FCE1C00EE66E010EE66E00EC6A
:1016100029F0E552E552F0EC00F0DCEC29F000098D
:10162000FCE1400EE66E3FEC28F0E552F0EC00F0F5
:10163000C40EE66E010EE66E00EC29F0E552E552AE
:10164000F0EC00F0DCEC29F00009FCE1100EE66E95
:101650003FEC28F0E552F0EC00F0C80EE66E010E0B
:10166000E66E00EC29F0E552E552F0EC00F0DCEC1F
:1016700029F00009FCE1500EE66E3FEC28F0E5523F
:10168000F0EC00F0CC0EE66E010EE66E00EC29F0F8
:10169000E552E552F0EF00F00101040EA46F18ECE2
:1016A00001F0040E0101BC5F000EBD5BBE5BBF5BC1
:1016B000BCC1E6FFBDC1E6FFBEC1E6FFBFC1E6FF9C
:1016C000C3EC06F0E552E552E552E552F3CFB0F136
:1016D000F4CFB1F1BCC100F0BDC101F0BEC102F058
:1016E000BFC103F0002A000E01220222032200C023
:1016F000E6FF01C0E6FF02C0E6FF03C0E6FFC3EC61
:1017000006F0E552E552E552E552F3CFB2F1F4CFDF
:10171000B3F1BCC100F0BDC101F0BEC102F0BFC158
:1017200003F0020E0026000E01220222032200C056
:10173000E6FF01C0E6FF02C0E6FF03C0E6FFC3EC20
:1017400006F0E552E552E552E552F3CFB4F1F4CF9D
:10175000B5F1BCC100F0BDC101F0BEC102F0BFC116
:1017600003F0030E0026000E01220222032200C015
:10177000E6FF01C0E6FF02C0E6FF03C0E6FFC3ECE0
:1017800006F0E552E552E552E552F3CFB6F1F4CF5B
:10179000B7F1C00EE66E010EE66EB0C1E6FFB1C154
:1017A000E6FFC2EC23F0E552E552E552E552C40EE5
:1017B000E66E010EE66EB2C1E6FFB3C1E6FFC2EC13
:1017C00023F0E552E552E552E552C80EE66E010EF1
:1017D000E66EB4C1E6FFB5C1E6FFC2EC23F0E55208
:1017E000E552E552E552CC0EE66E010EE66EB6C14C
:1017F000E6FFB7C1E6FFC2EC23F0E552E552E55241
:10180000E552F0EC00F0DCEC29F00009FCE1E66ABE
:101810003FEC28F0E552F0EC00F0DCEC29F0000998
:10182000FCE1C00EE66E010EE66E00EC29F0E5521A
:10183000E552F0EC00F0DCEC29F00009FCE1400E90
:10184000E66E3FEC28F0E552F0EC00F0C40EE66ED8
:10185000010EE66E00EC29F0E552E552F0EC00F0E6
:10186000DCEC29F00009FCE1100EE66E3FEC28F0FC
:10187000E552F0EC00F0C80EE66E010EE66E00ECEC
:1018800029F0E552E552F0EC00F0DCEC29F000091B
:10189000FCE1500EE66E3FEC28F0E552F0EC00F073
:1018A000CC0EE66E010EE66E00EC29F0E552E55234
:1018B000F0EF00F01200D9CFE6FFE1CFD9FFFD0E27
:1018C000DBCF28F0FE0EDBCF29F00F0E281801E148
:1018D00029506AE00E0E281801E1295063E00D0E30
:1018E000281801E129505CE00C0E281801E129506C
:1018F00055E00B0E281801E129504EE00A0E281879
:1019000001E1295047E0070E281801E1295040E085
:10191000030E281801E1295039E0090E281801E1C9
:10192000295032E0080E281801E129502BE0060E5C
:10193000281801E1295024E0050E281801E129505A
:101940001DE0040E281801E1295016E0020E2818A7
:1019500001E129500FE0010E281801E1295008E0AB
:10196000285029E1295027E1FD0EDB6AFE0E22D026
:10197000010E1BD0020E19D0030E17D0040E15D085
:10198000050E13D0060E11D0070E0FD00A0E0DD083
:101990000B0E0BD0090E09D00C0E07D0100E05D07F
:1019A0000F0E03D00E0E01D00D0EF36EFD0EF3CF11
:1019B000DBFFFE0EDB6AFD0EDBCF00F0FE0EDBCFA1
:1019C00001F000C0F3FF01C0F4FFE552E7CFD9FFFB
:1019D0001200F6EC00F0B7EC04F06CEC01F0010141
:1019E000A56B948C948A94889586F29E06EC08F0F8
:1019F00081A0C8D08350080B01E0010E080DF3CF81
:101A000002F08250100B01E0010E016E8250200B9B
:101A100001E0010EE824006E8250400B01E0010E4F
:101A2000040DF350002401240224E66EE66A43DF2D
:101A3000E552E552F3CFA5F1080E0101E76EA519B5
:101A4000E8AE02D0E73402D0E750A55D01E397D0BD
:101A5000A5C100F0016A00BE01681E0E0102F3CFAD
:101A600001F01E0E0002F3CF00F0F4500126B40E78
:101A70000026000E0122A4C102F0036A02BE036820
:101A8000050E0302F3CF03F0050E0202F3CF02F0BE
:101A9000F450032600500224E96E01500320EA6E40
:101AA000010EEE1801E1ED5067E1A5C102F0036AF5
:101AB00002BE03681E0E0302F3CF03F01E0E0202E5
:101AC000F3CF02F0F4500326B40E0226000E0322D8
:101AD000A4C104F0056A04BE0568050E0502F3CF33
:101AE00005F0050E0402F3CF04F0F4500526025071
:101AF0000424E96E03500520EA6E030EE926000E69
:101B0000EA22EECF00F0EFCF01F004D001C0FAFFDF
:101B10000050F96EFBDFA5C100F0016A00BE01684C
:101B20001E0E0102F3CF01F01E0E0002F3CF00F0F3
:101B3000F4500126B40E0026000E0122A4C102F0CA
:101B4000036A02BE0368050E0302F3CF03F0050E1D
:101B50000202F3CF02F0F450032600500224E96E93
:101B600001500320EA6E020EE926000EEA22EFCFB2
:101B7000A4F1000007D001D0000004D001D0000083
:081B800001D036D735D7120061
:081B880000EC13F0FB0EDBCFB3
:101B9000F3FFDB06F35000090AE04EEC13F0FA0EF7
:101BA000B9EC13F0F3E1011CF1E1010E01D0000EDC
:101BB0002FEF13F000EC13F03B0EE12402E3E16899
:101BC000E652E16E010EDB6A020EDB6AF90EDBCF34
:101BD000F6FFFA0EDBCFF7FFFB0EDBCFF8FF0800B6
:101BE000F550DF6EDF5002E153EF12F0250EDF5C9F
:101BF00002E046EF12F0030EDB6A040EDB6A050E0C
:101C0000DB6A060EDB6A070EDB6A68EC12F02D0E4B
:101C1000DF5C0CE02B0EDF5C09E0200EDF5C06E0F1
:101C2000230EDF5C03E0300EDF5C1AE1DF50300A88
:101C300014E0130A0FE0030A0AE00B0A05E0060AA3
:101C4000E4E1030EDB80E1D7030EDB82DED7030E77
:101C5000DB84DBD7030EDB86D8D7030EDB88D5D732
:101C60002A0EDF5C1BE164EC12F0B2EC12F010E023
:101C7000030EDB8028682968130EDBCF2DF0140ECD
:101C8000DBCF2EF0ABEC1BF0040E26C0DBFF03D045
:101C9000130E9BEC12F068EC12F00BD0090EDB6A0D
:101CA00009EC13F003E07DEC13F0FAD7090E9BEC7E
:101CB00012F0030EDBB0DB982E0EDF5C1BE168EC4C
:101CC00012F02A0EDF5C0BE164EC12F0B2EC12F0C1
:101CD00003E1130EEDEC12F068EC12F00BD0090EDC
:101CE000DB6A09EC13F003E07DEC13F0FAD7090E80
:101CF000EDEC12F0680EDF5C07E168EC12F0680EA4
:101D0000DF5C1DE1030E18D0740EDF5C17E07A0E65
:101D1000DF5C14E0480EDF5C06E0540EDF5C03E09D
:101D20005A0EDF5C02E1020E07D06C0EDF5C03E0AE
:101D30006A0EDF5C04E1010E40EC13F0C9DBDF50FA
:101D40006E0A01E17FD31E0A01E192D1200A01E16E
:101D50008FD13F0A01E149D11A0A01E146D10D0AAA
:101D600001E143D1200A01E140D13A0A01E13DD12C
:101D7000200A01E13AD1260A01E135D10D0A01E13B
:101D800032D11A0A01E1D9D0200A4AE0300A1FE014
:101D9000460A0EE0250A01E083D3D950F90FE96E17
:101DA000FF0EDA20EA6E010EEE5E000EEE5AEE5ADB
:101DB0004EEC13F0250EE66E95DB03E1011C01E10C
:101DC00069D34AEC13F001E26BD3DB2A69D3080E26
:101DD000DB6A040EDB50010806E2040EDB0412ECA1
:101DE00013F0DB508BDB080EDB5009E0030EDB50F9
:101DF000010B05E172DB01E04DD3080EDB6A64DB09
:101E0000EFCFDFFFC2EC13F003E1011C01E142D38D
:101E10004AEC13F001E3DB2A60DB01E141D33AD362
:101E2000070EDB5002080FE18EEC13F0030E55ECA9
:101E300013F00E0EEECFDBFF0F0EEECFDBFF100E1A
:101E4000EECFDBFF20D0F70EDBCF03F0F80EDBCFB9
:101E500004F0020E035E000E045AF70E03C0DBFF0F
:101E6000F80E04C0DBFF03C0E9FF04C0EAFF45EC45
:101E700013F0026A0E0E00C0DBFF0F0E01C0DBFF85
:101E8000100E02C0DBFF0E0EDBCFE6FF0F0EDBCF26
:101E9000E6FF100EDBCFE6FFE7EC27F0E552E55258
:101EA000E552130E27C0DBFF140E28C0DBFF060E21
:101EB000DB5005E0130E89EC13F001E26ADBADECB8
:101EC00013F002E2130E37DB70EC13F006E0040EA1
:101ED00089EC13F002E2050E2EDB030EDBB005D019
:101EE000FCDA01E0D7D2080EDB6A090EDB6A0E0EBF
:101EF000DBCFF6FF0F0EDBCFF7FF100EDBCFF8FFC7
:101F00000800F550DF6EDF5014E0B3EC13F011E27F
:101F1000C2EC13F003E1011C01E1BCD2BBDB01E325
:101F2000DB2A090EDB2AD9500E0FE96E000ECBDB3F
:101F3000E7D7D3DA01E1B4D2ADD2C6DA110EEECFD3
:101F4000DBFF120EEDCFDBFF110EDBCFE6FF120E33
:101F5000DBCFE6FFD9EC27F0E552E552130EF3CFC5
:101F6000DBFF140EF4CFDBFF060EDB5004E0130E94
:101F7000D0DB01E20EDBADEC13F002E2130EDBDA94
:101F8000AFDB05E0040EC5DB02E2050ED4DA030E7A
:101F9000DBB005D0A2DA01E07DD2080EDB6A090EC3
:101FA000DB6A110EDBCFE9FF120EDBCFEAFFEFCFCA
:101FB000DFFFDF5014E0D7DB12E2E4DB03E1011CBA
:101FC00001E168D267DB01E3DB2A090EDB2A110E8F
:101FD000DB2ADBCFE9FF120EE8E3DB2AE6D77DDA66
:101FE00001E15ED257D2030EDB8E070EDB0410E157
:101FF00095DB040E5ADB0A0EEECFDBFF0B0EEECFA5
:10200000DBFF0C0EEECFDBFF0D0EEECFDBFF6CD057
:10201000070EDB5003082CE1030EDBAE0DD0B2DA65
:10202000020E76DAEFCF00F0016A026A036A00AEB0
:1020300039D00168026835D0F70EDBCF01F0F80E19
:10204000DBCF02F0020E015E000E025AF70E01C055
:10205000DBFFF80E02C0DBFF01C0E9FF02C0EAFFB0
:10206000EFCF00F00A0E00C0DBFF0B0EDB6A38D0AA
:10207000070EDB50020809E1030EDBAE04D059DB8A
:1020800002AE10D00ED055DB0DD0030EDBAE12D059
:1020900079DA020E3DDAF9DA026A036A01AE02D099
:1020A00002680368E2DA0C0E02C0DBFF0D0E03C00B
:1020B000DBFF1AD0F70EDBCF02F0F80EDBCF03F018
:1020C000020E025E000E035AF70E02C0DBFFF80E8E
:1020D00003C0DBFF02C0E9FF03C0EAFFD6DAC5DABE
:1020E0000C0EDB6A0D0EDB6A060EDB5005E1010EFD
:1020F000F36E050EF3CFDBFF150EDB6A160EDB6AFF
:10210000D950370F006E000EDA20016E390E00C074
:10211000DBFF3A0E01C0DBFF380EDB6A080EDB6A1C
:102120000A0EAEDADF50780A12E0200A10E0280A20
:102130000CE0200A0AE03F0A06E00D0A02E0200A4D
:1021400008E1020E05D0080E03D0080EDF26100E9F
:1021500097DA030EDBBE02D0DB92DB94DB50800B00
:1021600024E08ADAD890030EEB50000A08E6000E4D
:10217000EE5C000EEE58000EEE58000EEE5815E222
:1021800013DA2B682C682D682E68A1EC27F00A0E54
:1021900022C0DBFF0B0E23C0DBFF0C0E24C0DBFFD5
:1021A0000D0E25C0DBFF2D0E08D0030EDBA202D0E2
:1021B0002B0E03D0DBA408D0200EF36E170EF3CF46
:1021C000DBFF150EDB2A02D0170EDB6A050EDB5093
:1021D00003E1B7D901E189D0460E006E540E016EBD
:1021E000000E026E070EDBCF03F0046A056A066A72
:1021F00003C02BF004C02CF005C02DF006C02EF05B
:10220000D3D925EC29F000502224F36E015023206D
:10221000F46E02502420F86EF4CFF7FFF3CFF6FFF0
:102220000800090EF5CFDBFF580EDF5C0FE1610EF1
:10223000F36E090E7BD90AE3200E006E090EDBCF88
:10224000E7FF0050E75E090EE7CFDBFF070EDBCFAD
:1022500000F0016A026A036A0FDA00C02BF001C0C5
:102260002CF002C02DF003C02EF0EECF26F0EECF02
:1022700027F0EECF28F0EFCF29F025EC29F029C088
:10228000EDFF28C0EDFF27C0EDFF26C0EFFF390EA0
:10229000DBCFE9FFDB063A0EDBCFEAFF01E2DB062C
:1022A000090EDBCFEFFF150EDB2A4BD995E1030EAC
:1022B000DBA61DD06F0EDF5C06E1C1D918E3150E59
:1022C000DB285BDA14D0780EDF5C09E0580EDF5CA7
:1022D00006E0620EDF5C03E0420EDF5C08E1020E06
:1022E000F36E160EF3CFDBFF02D0150EDB6A030E82
:1022F000DB50100B0EE0040EDBCF00F0050EDB50C0
:10230000D880005406E2060EDB5003E1040EDB50D9
:1023100034DA95D90AE2050EDBCFE7FF150EDB5064
:10232000E75E050EE7CFDBFF02D0050EDB6A040E89
:10233000DBCF00F0160E45D9D880005414E2160EFB
:10234000DBCFE6FF150EDBCFE6FF040EDBCFE6FFAB
:10235000050EDB50E552E75CE552D880E754E552C4
:10236000D880E7545FD9030EDB50010B0BE1080E58
:10237000DB5008E0B2D801E08DD0080EDB50BED8AB
:10238000080EDB6A170EDB5007E088D9170EF1D96B
:1023900003E1011C01E17ED0160EDB5016E07ED970
:1023A000300EE66E9FD802E1011C74E077D9DFCFD2
:1023B000E6FF5FEC27F0E552E552E552F4CF01F07D
:1023C0000001F31C02E1011C65E0050EDBCF00F00B
:1023D000160EDB50D880005409E2050EDBCFE7FF74
:1023E000160EDB50E75E050EE7CFDBFF300EE66E24
:1023F000050ECBD94FE1390EDB2ADBCFE9FF3A0ED0
:1024000001E3DB2ADBCFEAFF090EEFCFDBFFDB5076
:102410000EE044D9090EADD902E1011C3BE0390EB2
:10242000DB2ADBCFE9FF3A0EEDE3DB2AEBD755D809
:1024300031E1160EDBCFE6FF080EC3D8E552E724E4
:102440005DD82ED0070EDB50030A1CE0010A14E011
:10245000030A07E07BD9DBCFEEFF020EDBCFEDFFF7
:102460001FD0F5D8056A03AE02D0046805682CD8E1
:10247000BCD805C0EEFF14D0EAD803BE046824D847
:10248000B4D80ED063D9DBCFEFFF0AD07BD905E1FA
:10249000011C03E1F368F46810D0FCD801E3DB2AE7
:1024A00079D9EFEF0DF0010EDBCF00F0020EDBCF9C
:1024B00001F000C0F3FF01C0F4FF3B0EE15C02E25B
:1024C000E16AE552E16ECBD029D9020E55EF13F047
:1024D00061D90800F550DF6E1200200EE66E080E7E
:1024E000C5EF13F05FEC27F0E552E552E552F3CF6C
:1024F00000F0F4CF01F00001F31C1200006E016A3D
:10250000D950010F4DD90050EE260150ED22120096
:10251000045E000E055AF70E04C0DBFFF80E05C07E
:10252000DBFF04C0E9FF05C0EAFF1200DBCFF4FFC8
:10253000F350F45C1200DB50E76E040EE7CFDBFFD4
:1025400012000A0EDBCF00F00B0EDBCF01F00C0EF9
:10255000DBCF02F00D0EDBCF03F0005001100210B4
:1025600003101200130EEECFDBFF140EEDCFDBFFD6
:10257000130EDBCF00F0140EDBCF01F00001800E54
:1025800001141200F70EDBCF04F0F80EDBCF05F0DC
:102590001200050EDB50E66ED950130F01D9E5523B
:1025A000E750EE6EED6A12000A0EDBCF26F00B0E3E
:1025B000DBCF27F00C0EDBCF28F00D0EDBCF29F0A0
:1025C0001200DBCFE6FF150EDBCFE6FF050EDB507A
:1025D000E552E724E552E7241200DB50CED8010E85
:1025E000F36E060EF3CFDBFF1200EE50EFCFEAFFE3
:1025F000E96E02C0EEFF03C0EEFF04C0EEFF120062
:10260000D9CFE6FFDACFE6FFE1CFD9FFE2CFDAFF9D
:102610001200DFCFE6FFE66ABAEC29F0E552E55298
:10262000F3501200E76E080EE7CFDBFF1200EECF8B
:1026300000F0EECF01F0EFCF02F0036A1200050EBA
:10264000DBCF00F0150EDB50D88000541200010ED5
:10265000DBCF02F0020EDBCF03F0046A1200E5527A
:10266000E5CFDAFFE7CFD9FF12000A0E00C0DBFF8B
:102670000B0E01C0DBFF1200D9500A0FD0EF13F090
:10268000F36E070EF3CFDBFF1200EECF00F0EFCFBB
:1026900001F01200010EDB2A020E1200FC0EDBCF4D
:1026A000E6FFFD0EDBCFE6FF1200005E000E015AD2
:1026B000F70E00C0DBFFF80E01C0DBFF00C0E9FF32
:1026C00001C0EAFF1200DA20EA6EEF2AEECFF6FF31
:1026D000000EEF22EECFF7FFEF22EECFF8FF120051
:1026E000040EDBCFE6FF130EDB50E552E75C9ADF0A
:1026F000DB5004DF060EDB501200090EDB500A0D22
:10270000F350DF24D00FE76E090EE7CFDBFF68EF51
:1027100012F0DB50F36E050E96EF12F0F70EDBCFE2
:1027200000F0F80EDBCF01F01200DFCFE6FF72EF12
:1027300012F028DF030EECDE17EF13F0C4EC0DF0FF
:10274000E552E552E552E55200091200BDDEEE50B9
:10275000EFCFEAFFE96E010E1200130EDB50F36EAD
:10276000040E96EF12F0040EDB50F36E090E96EF96
:1027700012F0DBCFE6FF72EF12F0E76E050EE7CF47
:10278000DBFF12008BDF95EF13F0DBCFE6FF86DF78
:102790009EEF13F0D950F90FE96EFF0E63EF13F0BF
:0A27A000E96E000EDA20EA6E120066
:0627AA00D9CFE6FFDACFF3
:1027B000E6FFE1CFD9FFE2CFDAFF4B0EE12402E3DF
:1027C000E168E652E16E71EC18F0D950060F96EC14
:1027D00018F018EC19F0E7EC18F002E2E16AE552A3
:1027E000E16E0050DF6ED9500D0F96EC18F04FECF3
:1027F00019F0E7EC18F002E2E16AE552E16E0050F0
:10280000E76E010EE7CFDBFF61EC19F04AEC18F040
:102810004BEC19F0000EE66EE66A1EEC19F002E2CF
:10282000E16AE552E16E0050190EDB5003E01A0E2A
:10283000DB6A16D04BEC19F0010EE66EE66A1EEC70
:1028400019F002E2E16AE552E16E0050190EDB5028
:1028500002E1030E01D0050EF36E1A0EF3CFDBFF7B
:10286000010EDB0455E0FA0EDBCF00F0FB0EDBCFF0
:1028700001F0FC0EDBCF02F0FD0EDBCF03F025EC08
:1028800019F046E0800EDF5C04E0010EDB508008AA
:1028900004E1FBEC18F07F0E5BD0DF040CE1130EBB
:1028A000DB500FE0EDDB7F0E02EC19F0210E010191
:1028B000F16FF26B0DD0040EDF5C22E1130EDB50E2
:1028C00003E0C6EC18F004D0DBDB7F0E02EC19F05D
:1028D0001A0EDBA469D30C0EDB5001E165D39BEC2F
:1028E00018F03BEC19F0020E27C0DBFF030E28C0E6
:1028F000DBFF040E29C0DBFF050E2AC0DBFF54D32B
:10290000010EDB50040816E173DB25EC19F003E13E
:10291000B7DB3F0E1DD0130EDB5004E02BEC19F09B
:1029200004E106D02BEC19F003E1C6EC18F03CD31F
:10293000A7DB0DD00C0EDB500EE01A0EDB50010BA6
:102940000AE1210E0101F16FF26BFBEC18F07F0E32
:1029500002EC19F029D3ABDB25EC19F002E1C1DB65
:1029600023D3D9501B0FE2DB18EC19F05CEC24F0F8
:10297000006E060EE15C02E2E16AE552E16E005093
:1029800089DB0C0EDB5003E1180EDB6A16D030DB5E
:102990003BEC19F0140E27C0DBFF150E28C0DBFF3F
:1029A000160E29C0DBFF170E2AC0DBFF1A0EDB5004
:1029B000040BE76E180EE7CFDBFF1ADBF30E2C6E6D
:1029C000040E2D6E350E2E6E3F0E2F6E0DDB1FEC9E
:1029D0001CF0010A17E1010EE66EE66AD950140FE9
:1029E00032EC19F026EC23F0006E060EE15C02E2F8
:1029F000E16AE552E16E00504DDB1B0EDB061C0E5A
:102A000001E2DB06F60EDBCF27F0F70EDBCF28F076
:102A1000F80EDBCF29F0F90EDBCF2AF0D8EC1BF053
:102A20001D0E26C0DBFF1E0E27C0DBFF1F0E28C0B9
:102A3000DBFF200E29C0DBFF1B0EDBCF28F01C0EB6
:102A4000E6DB250E27C0DBFF260E28C0DBFF270EA6
:102A500029C0DBFF280E2AC0DBFF36DBF60EDBCFFA
:102A60002CF0F70EDBCF2DF0F80EDBCF2EF0F90EA9
:102A7000D2DBD8EC1BF0210E26C0DBFF220E27C0D4
:102A8000DBFF230E28C0DBFF240E29C0DBFFD9505B
:102A9000210F85DB08E6010EEE5C800EEE58FF0E7E
:102AA000EE58FF0EEE581AE3210EDBCF27F0220E70
:102AB000DBCF28F0230EDBCF29F0240EDBCF2AF06A
:102AC0002A34000E2A1809E6D880FF0E27547F0EFC
:102AD0002854000E2954000E2A5402E266DBEED17F
:102AE000D9501D0F5CDB08E6800EEE5CFF0EEE5841
:102AF000FF0EEE58FF0EEE580CE275DB03E0800E81
:102B0000006E05D0D9501B0F3DDB1FE1006A016A42
:102B100029D01D0EDBCF27F01E0EDBCF28F01F0EB5
:102B2000DBCF29F0200EDBCF2AF02A34000E2A1842
:102B300009E6D880800E2754000E2854000E295430
:102B4000000E2A5422E24FDB04E0800E006E016882
:102B500009D0D9501B0F16DB02E1006A02D0800EAB
:102B6000006E016A390E00C0DBFF3A0E01C0DBFFC8
:102B7000370EDB6A380EDB6A2D0EDB6A2E0EDB6A3F
:102B80002F0EDB6A300EDB6ACFD01D0EDBCF28F0B4
:102B90001E0EDBCF29F0370E28C0DBFF380E29C010
:102BA000DBFF210EDBCF28F0220EDBCF29F0390E20
:102BB00028C0DBFF3A0E29C0DBFF110EDBCF00F08F
:102BC000120EDBCF01F07F0E005E000E015A080EE0
:102BD000005E000E015A350E00C0DBFF360E01C04C
:102BE000DBFF59DB350EDBCFE6FF360EDBCFE6FF32
:102BF00025DB02E2E16AE552E16E0050470E26C095
:102C0000DBFF480E27C0DBFF490E28C0DBFF4A0E62
:102C100029C0DBFF4CDA470EDBCF04F0480EDBCFD8
:102C200005F0490EDBCF06F04A0EDBCF07F004C0FB
:102C30002CF005C02DF006C02EF007C02FF0D4D91F
:102C400039EC1AF0430E27C0DBFF440E28C0DBFF2F
:102C5000450E29C0DBFF460E2AC0DBFF35DA470EE2
:102C6000DBCF2CF0480EDBCF2DF0490EDBCF2EF062
:102C70004A0ED1DAA3DA390EDBCF28F03A0EC7DAE2
:102C800027C008F028C009F029C00AF02AC00BF0BC
:102C90003BDAD7DA39EC1AF0C2DA16DA430EDBCFB8
:102CA0002CF0440EDBCF2DF0450EDBCF2EF0460E80
:102CB000B2DA27C00CF028C00DF029C00EF02AC0EF
:102CC0000FF022DA91D93AEC1AF03F0E27C0DBFF61
:102CD000400E28C0DBFF410E29C0DBFF420E2AC098
:102CE000DBFF3F0EDBCF00F0400EDBCF01F0410EEB
:102CF000DBCF02F0420EDBCF03F0180E2C6E720E0B
:102D00002D6E310E2E6E3F0E2F6E6ED9CCEC19F05B
:102D10002D0E27C0DBFF2E0E28C0DBFF2F0E29C093
:102D2000DBFF300E2AC0DBFFC2D9370EDBCF28F025
:102D3000380E6DDA43DAE8D957D939EC1AF03B0E80
:102D400027C0DBFF3C0E28C0DBFF3D0E29C0DBFFA8
:102D50003E0E2AC0DBFF3B0EDBCF04F03C0EDBCF88
:102D600005F03D0EDBCF06F03E0EF2D9140F7ADAF5
:102D700060EC1FF04AD9D9502D0F69D93AEC1AF0FE
:102D8000CCD9370EDBCF00F0380EDBCF01F00001DD
:102D9000800E011410E028682968370EDBCF2DF073
:102DA000380EDBCF2EF0ABEC1BF0370E26C0DBFF6E
:102DB000380E27C0DBFF290EDB6A2A0EDB6A800E85
:102DC000F36E2B0EF3CFDBFF3F0EF36E2C0EF3CF23
:102DD000DBFFD950370FD6D919E0370EDB50010B86
:102DE00004E006D9D950290F4ADAD950370F3EDA14
:102DF000010E0F0B06E0EC52D890ED32EF32E806F0
:102E0000FAE1F6D8D950140F3ADAE3D7130EDB50B3
:102E100021E0276A286A800E296E3F0E2A6E290E4D
:102E2000DBCF2CF02A0EDBCF2DF02B0EDBCF2EF0DC
:102E30002C0EDBCF2FF079EC19F0F1D9290E27C039
:102E4000DBFF2A0E28C0DBFF2B0E29C0DBFF2C0E78
:102E50002AC0DBFF390EDBCFE6FF3A0EDBCFE6FF01
:102E6000290EDBCF04F02A0EDBCF05F02B0EDBCFD3
:102E700006F02C0E6DD92D0FF5D97DEC1CF0C5D8C0
:102E800027C0E6FF28C0E6FF29C0E6FF2AC0E6FF0C
:102E900026EC23F00C6E060EE15C02E2E16AE552DC
:102EA000E16E0C50310E26C0DBFF320E27C0DBFF77
:102EB000330E28C0DBFF340E29C0DBFFD950060FCC
:102EC00035D9D950310FCED982D902E2E16AE55223
:102ED000E16E0050DF6E850EDF143CE0220E010132
:102EE000F16FF26BEED926C000F027C001F028C0C8
:102EF00002F029C003F0BDD826C027F0C5D91FECC9
:102F00001CF0010A03E1130EDB5014E1DAD926C0EC
:102F100004F027C005F028C006F029C007F0A9D8A2
:102F200026C027F0C2D916EC1CF0010A12E1130EDC
:102F3000DB500FE1310EDB6A320EDB6A800EF36E7E
:102F4000330EF3CFDBFF7F0EF36E340EF3CFDBFFD8
:102F500001D02BD9180EDB500FE0310EDBCF04F07F
:102F6000320EDBCF05F0330EDBCF06F0340EDBCFB5
:102F700007F001D9A1D90CD0310EDBCF00F0320E11
:102F8000DBCF01F0330EDBCF02F0340EDBCF03F0EA
:102F9000020E00C0DBFF030E01C0DBFF040E02C007
:102FA000DBFF050E03C0DBFFC6D800C026F001C062
:102FB00027F002C028F003C029F04B0EE15C02E2CA
:102FC000E16AE552E16EE552E5CFDAFFE7CFD9FFDE
:102FD0001200DA20EA6EEECFE6FFEECFE6FFEECF8C
:102FE000E6FFEFCFE6FF120000C027F044EF19F034
:102FF000140EDBCF00F0150EDBCF01F0160EDBCF89
:1030000002F0170EDBCF03F01200E552E552E55255
:10301000E552E552E7CF07F0E552E7CF06F0E5527B
:10302000E7CF05F0E552E7CF04F026C008F027C04F
:1030300009F028C00AF029C00BF026C02CF027C0E8
:103040002DF028C02EF029C02FF05CEF19F00ED91A
:10305000EECF27F0EECF28F0EECF29F0EFCF2AF019
:1030600000C02CF001C02DF002C02EF003C02FF0E4
:1030700012002C6A2D6A800E2E6E3F0E2F6E1200EB
:10308000020EDB6A030EDB6A800EF36E040EF3CFD2
:10309000DBFF1200140E26C0DBFF150E27C0DBFF7E
:1030A000160E28C0DBFF170E29C0DBFF1200F60E3C
:1030B000DBCF00F0F70EDBCF01F0F80EDBCF02F034
:1030C000F90EDBCF03F01200250EDBCF27F0260E22
:1030D000DBCF28F0270EDBCF29F0280EDBCF2AF03C
:1030E0001200D950FA0FE96EFF0EDA20EA6E020ED6
:1030F000EECFDBFF030EEECFDBFF040EEECFDBFFE8
:10310000050EEECFDBFF120027C02CF028C02DF0FB
:1031100029C02EF02AC02FF012002AC0EDFF29C0CE
:10312000EDFF28C0EDFF27C0EFFF1200E66E000E96
:10313000DA20E66E1200020EDBCF00F0030EDBCFCA
:1031400001F0040EDBCF02F0050EDBCF03F012001E
:10315000DBCF07F004C0E6FF05C0E6FF06C0E6FFD0
:1031600007C0E6FFD95012000CEC28F0E552E552FA
:10317000E552E55212002C6A2D6A800E2E6EBF0EAB
:103180002F6E120073D8EE50ED101200020EDB6AA3
:10319000030EDB6A040EDB6A050EDB6A120066D8DA
:1031A000D880030EEB50FF0A1200310EDB6A320E9C
:1031B000DB6A330EDB6A340EDB6A120027C004F0D0
:1031C00028C005F029C006F02AC007F01200EEEC76
:1031D00024F0006E060EE15C1200DDEC21F0006EC2
:1031E000080EE15C12001B0E1C0EDBCF03F0000189
:1031F000800E03141200020EDB68030EDB68040E5F
:10320000DB681200F36E050EF3CFDBFF1200DBCF9D
:1032100029F066EF19F0DBCF2FF0CCEF19F027C0C3
:1032200000F028C001F029C002F02AC003F012000B
:10323000D950FA0FE96EFF0EE9EF17F030D8EDEF35
:1032400018F004C027F055EF19F013DFCDDE0FECB6
:103250001CF0010A1200CCDE0CDFC6DE1FEC1CF0F5
:10326000010A1200E96E000EE9EF17F0E96E000E98
:10327000DA20EA6E12007FDFB7DECCEF19F0E7DE6E
:10328000CCEC19F08DEF18F001C028F002C029F045
:1032900003C02AF01200D950190F96EF18F0D95038
:1032A000F60FE96EFF0EE9EF17F005C028F006C033
:1032B00029F007C02AF01200C4DFCCEC19F00FEFA0
:0832C00019F0B6DFB4EF18F0BD
:0832C800219E08D0219E29AED1
:1032D00005D0286C291EE86A2922218E29C023F0F6
:1032E00028C022F0336A326A8E0E246E256A41EFBE
:1032F0001BF0216A7DEC1BF095EC1BF021B625EF4D
:103300001BF021A205D021BA25EF1BF02CEF1BF0FA
:1033100021BA38EF1BF021A005D021B825EF1BF012
:1033200038EF1BF021B82CEF1BF0256A7F0E2A2402
:10333000246EE86A25222F50245EE86A255A1A0E68
:10334000306E2A6A326A336A226A236A2C50275EF8
:103350002D50285A2E50295A000E2A5A09E72C506F
:1033600027262D5028222E502922000E2A2201D055
:10337000328AD8902736283629362A36D8903236DF
:10338000333622362336302EE1D729502810271025
:10339000D8A4328A41EF1BF0216A7DEC1BF095EC3A
:1033A0001BF021B625EF1BF021A205D021B825EF97
:1033B0001BF02CEF1BF021AA05D021B025EF1BF04C
:1033C0002CEF1BF021B002D021A802D038EF1BF067
:1033D000256A2F502A24246EE86A25227E0E245E58
:1033E000E86A255A326A336A226A236A2E50290211
:1033F000F4CF23F0F3CF22F02D502902F3503326DF
:10340000F4502222000E23222E502802F35033269D
:10341000F4502222000E23222C502902F35032268F
:10342000F4503322000E222223222D502802F35082
:103430003226F4503322000E222223222E5027025D
:10344000F3503226F4503322000E222223222C5035
:103450002802F4503226000E3322222223222D503D
:103460002702F4503226000E33222222232241EF7B
:103470001BF02F7E216A7DEC1BF095EC1BF021B632
:1034800025EF1BF021A20AD021AA03D021BE25EFEF
:103490001BF021A431EF1BF02EEF1BF021AA05D069
:1034A00021AC31EF1BF02EEF1BF021A00AD021A898
:1034B00008D021BE04D021A402D03AEF1BF03EEF89
:1034C0001BF0326A256A2F502A5C316E10E327C048
:1034D00033F028C022F029C023F02AC030F02CC0DD
:1034E00027F02DC028F02EC029F0213A09D02CC099
:1034F00033F02DC022F02EC023F02FC030F0316CFD
:10350000219E21BC218E30C024F021B06DEF1BF034
:103510001A0E31606DEF1BF0246A2A6A21A408D0CC
:10352000276C281E291E2A1EE86A282229222A2200
:1035300021AC08D0336C221E231E241EE86A2222EE
:1035400023222422266A315207E02A3429322832E3
:1035500027322632312EF9D72750332628502222FF
:10356000295023222A50242226C032F0219E24AE44
:103570000BD0326C331E221E231E241EE86A332217
:10358000222223222422218E24A006D0D880233276
:10359000223233323232302A30C024F041EF1BF075
:1035A000206A2EAED9EF1AF02D6C2E1EE86A2E225C
:1035B000201E29AEE1EF1AF0286C291EE86A2922A4
:1035C000201EA4EC29F029BEF1EF1AF020AE000C69
:1035D000286C291EE86A2922246C251EE86A252207
:1035E000000C20BEE8EF1AF02188FF0C216A7DEC68
:1035F0001BF021B600EF1BF021A20ED021B405D0A4
:103600007F0E296EFF0E286E1FD0800E296E286A4D
:103610001BD0296A286A18D021B0FBD78F0E2A60E8
:10362000EDD77E0E2A64F5D78E0E2A5C05E0D89081
:10363000293228322A2AF8D721A406D0286C291E3C
:10364000E86A292229AEE5D712007F0E2A6EFF0E06
:10365000296E286E276E12007F0E21BEFF0E2A6E85
:1036600002D07F0E2A6E800E296E286A276AF3D751
:1036700021AE04D0800E2A6E296AF7D72A6A296AF9
:10368000F4D72350221033103210F8E025BEF0D7C3
:1036900023BE0CD024502510EBE0D89032363336C0
:1036A000223623362406D8A02506F2D72550D4E1A9
:1036B0002428D2E032AE11D07F0E321402E133A0C2
:1036C0000CD0332AE86A2222232207E3D88023324F
:1036D00022323332242A2428BFE02450C9E033C0E8
:1036E00027F022C028F02334296E24302A6E293294
:1036F0002A9E21BE2A8E2BEF1BF029362A3602E3A2
:103700002184217E06E121802A6A296A286A276AA3
:1037100012002A2803E0D88029321200D8902932DA
:1037200002E121821200218612002E362F3602E39A
:10373000218C217E06E121882F6A2E6A2D6A2C6A4F
:1037400012002F2803E0D8802E321200D8902E329B
:10375000EAE1218A120029C033F028C032F0285053
:103760002D02F4CF27F0F3CF26F029502E02F4CF0C
:1037700029F0F3CF28F02D02F3502726F450282209
:10378000E86A292232502E02F3502726F4502822CC
:10379000E86A29222EAED1EF1BF03250285E33505A
:1037A000295A33AE000C2D50285E2E50295A000C99
:1037B000216A7DEC1BF021B6E2EF1BF021A20FD0B5
:1037C00021B407D07F0E296EFF0E286E276E266E5D
:1037D00025D0800E296E01D0296A000EF6D721B0BF
:1037E000FBD7266A9F0E2A60EBD77E0E2A64F4D799
:1037F0009E0E2A5C07E0D8902932283227322632E2
:103800002A2AF6D721A40AD0266C271E281E291E94
:10381000E86A27222822292229AEDED7120028ECC6
:103820001CF021B6000C21B0010C000C28EC1CF09F
:1038300021B6000C21B0000C21B4000C010C28ECC6
:103840001CF021B6000C21B0000C21A4000C010CCE
:10385000216A7DEC1BF095EC1BF021B6120021AE25
:1038600008D021A004D021A802D0218012002190EC
:1038700012002F502A5C0BE12E50295C08E12D50DC
:10388000285C05E12C50275C02E121801200D8A0C1
:1038900002D0218E10D02A502FC02AF02F6E29502E
:1038A0002EC029F02E6E28502DC028F02D6E2750E6
:1038B0002CC027F02C6E2F502A5C10E0FF0F09E07F
:1038C000219021B403D021AE2184120021AE219495
:1038D00012002F2AD8902E322D322C322C50275EF7
:1038E0002D50285A2E50295A29BEEAD7D89027366B
:0A38F000283629362A2EF8D7C8D74B
:0638FA00D9CFE6FFDACF92
:10390000E6FFE1CFD9FFE2CFDAFF260EE12402E3A2
:10391000E168E652E16ED950FA0FE96EFF0EDA2047
:10392000EA6E010EEECFDBFF020EEECFDBFF030EE1
:10393000EECFDBFF040EEECFDBFF050EDB6A060EDB
:10394000DB6A800EF36E070EF3CFDBFF330EF36EF0
:10395000080EF3CFDBFFD950090FE66E000EDA2018
:10396000E66E98DAEEEC24F0006E060EE15C02E200
:10397000E16AE552E16E0050DF6E800EDF5C07E128
:10398000010EDB68020EDB68030EDB681DD0DF046E
:1039900066E0040EDF5C05E10F0EDB5001E1D5D1DE
:1039A00027D007DA170E2C6E720E2D6EB10E2E6E0A
:1039B000420E2F6EEAD916EC1CF0010A07E1220E26
:1039C0000101F16FF26B4ADA7F0E4BD0F2D9D80EBB
:1039D0002C6E8E0E2D6ECE0E2E6EC20E2F6ED5D983
:1039E0001FEC1CF0010A0DE1220E0101F16FF26BD8
:1039F000010EDB6A020EDB6A030EDB6A040EDB6A71
:103A0000A4D1D950FA0FE96EFF0EF1D90CEC28F0D1
:103A1000E552E552E552E55226C000F027C001F01C
:103A200028C002F029C003F0050EDBCF04F0060E1B
:103A3000DBCF05F0070EDBCF06F0080EDBCF07F07B
:103A400004C02CF005C02DF006C02EF007C02FF0EA
:103A500026C027F025DA1FEC1CF0010A07E1FED989
:103A60003F0EF36E040EF3CFDBFF6FD1A2D93B0EF6
:103A70002C6EAA0E2D6EB80E2E6E3F0E2F6E85D9AF
:103A8000C1D987D92F6A81D91FEC1CF0010A04E142
:103A90000EDA39EC1AF003D00ADA3AEC1AF0F6EC46
:103AA0001AF01C0E28C0DBFF1D0E29C0DBFF1C0E08
:103AB000DBCF28F01D0EDBCF29F066EC19F0D8D94A
:103AC0002C6A2D6A800E2E6EBF0E2F6E9BD9FA0EB9
:103AD000DBCF04F0FB0EDBCF05F0FC0EDBCF06F0F6
:103AE000FD0EDBCF07F01E0EDBCF0CF01F0EDBCF81
:103AF0000DF0200EDBCF0EF0210EDBCF0FF02C6A85
:103B0000800E2D6E310E2E6E3F0E2F6E0CC027F0E4
:103B10000DC028F00EC029F00FC02AF0CCEC19F02F
:103B200027C008F028C009F029C00AF02AC00BF00D
:103B300055D9A7D93AEC1AF09BD91E0EDBCF14F059
:103B40001F0EDBCF15F0200EDBCF16F0210EDBCFE2
:103B500017F0830E2C6E800E2D6E5E0E2E6EB90E3B
:103B60002F6E14C027F015C028F016C029F017C01A
:103B70002AF0CCEC19F027C010F028C011F029C0B1
:103B800012F02AC013F098D9180E27C0DBFF190EC7
:103B900028C0DBFF1A0E29C0DBFF1B0E2AC0DBFF8B
:103BA000180EDBCF27F0190EDBCF28F01A0EDBCF73
:103BB00029F01B0EDBCF2AF034D9220E27C0DBFF01
:103BC000230E28C0DBFF240E29C0DBFF250E37D9CA
:103BD000080E2C6E530E2D6E880E2E6E3B0EF6D8F0
:103BE000800E2E6E3E0E2F6E3AEC1AF01AD9100E81
:103BF00027C0DBFF110E28C0DBFF120E29C0DBFF40
:103C0000130E1DD95B0E2C6EBF0E2D6E4C0E2E6E3C
:103C10003D0EDCD82E6A3F0E2F6E3AEC1AF0140ED1
:103C200027C0DBFF150E28C0DBFF160E29C0DBFF07
:103C3000170E2AC0DBFF006A016A026A3F0E036E9C
:103C4000100EDBCF08F0110EDBCF09F0120EDBCF28
:103C50000AF0130EDBCF0BF0140EDBCF10F0150EB5
:103C6000DBCF11F0160EDBCF12F0170EDBCF13F007
:103C7000100EDBCF14F0110EDBCF15F0120EDBCFE0
:103C800016F0130EDBCF17F014C02CF015C02DF07A
:103C900016C02EF017C02FF010C027F011C028F06A
:103CA00012C029F013C02AF039EC1AF027C00CF02A
:103CB00028C00DF029C00EF02AC00FF08FD808C020
:103CC00027F009C028F00AC029F00BC02AF079ECCF
:103CD00019F027C004F028C005F029C006F02AC05A
:103CE00007F0EAD8010E27C0DBFF020E28C0DBFF79
:103CF000030E29C0DBFF040E2AC0DBFF010EE76EB6
:103D00001C0EDBCF00F01D0EDBCF01F0E7500026CC
:103D1000000E012200C0E6FF01C0E6FFBBD826EC82
:103D200023F0026E060EE15C02E2E16AE552E16E0A
:103D30000250010E26C0DBFF020E27C0DBFF030E80
:103D400028C0DBFF040E29C0DBFF010EDBCF00F033
:103D5000020EDBCF01F0030EDBCF02F0040EDBCF4F
:103D600003F000C026F001C027F002C028F003C015
:103D700029F0260EE15C02E2E16AE552E16EE552CD
:103D8000E5CFDAFFE7CFD9FF120000C027F050EFF0
:103D90001FF01E0EDBCF00F01F0EDBCF01F0200E58
:103DA000DBCF02F0210EDBCF03F02C6A2D6A2E6AE6
:103DB0001200FA0EDBCF00F0FB0EDBCF01F0FC0EA1
:103DC000DBCF02F0FD0EDBCF03F012002F6E59D8CF
:103DD000CCEC19F04DD82C6A2D6A120027C02CF0BB
:103DE00028C02DF029C02EF02AC02FF01200DA20B2
:103DF000EA6EEECFE6FFEECFE6FFEECFE6FFEFCFC7
:103E0000E6FF1200CCEC19F01E0E27C0DBFF1F0EE0
:103E100028C0DBFF200E29C0DBFF210E2AC0DBFFFC
:103E20001200180EDBCF2CF0190EDBCF2DF01A0E7E
:103E3000DBCF2EF01B0EDBCF2FF0CCEF19F02AC01A
:103E4000DBFF220EDBCF04F0230EDBCF05F0240EC8
:103E5000DBCF06F0250EDBCF07F01200010EDB6A88
:103E6000020EDB6A800EF36E030EF3CFDBFF12004F
:103E700027C000F028C001F029C002F02AC003F0DA
:103E8000120004C027F005C028F006C029F007C0C2
:103E90002AF01200D950010FE96E000EF7EF1EF064
:103EA00001C028F002C029F003C02AF0120071DF1F
:103EB0003F0E2F6EC5EF1EF091DF67DF3AEF1AF06D
:103EC000D9CFE6FFDACFE6FFE1CFD9FFE2CFDAFFC5
:103ED000260EE12402E3E168E652E16ED950050FB7
:103EE000E1D9EEEC24F0006E060EE15C02E2E16A3C
:103EF000E552E16E0050DF6E800EDF5C05E00B0ED8
:103F0000DB5012E0DF0410E0210E0101F16FF26BD3
:103F1000010EDB68020EDB68030EDB687F0EF36EBA
:103F2000040EF3CFDBFF8FD1040EDF5C0EE13EDA2F
:103F3000010EEECFDBFF020EEECFDBFF030EEECF66
:103F4000DBFF040EEECFDBFF7ED1DF0410E1210E9C
:103F50000101F16FF26B010EDB6A020EDB6A800E6B
:103F6000F36E030EF3CFDBFF040EDB686CD1D95088
:103F70000C0F98D95CEC24F0006E060EE15C02E2B6
:103F8000E16AE552E16E0050FA0E26C0DBFFFB0E3F
:103F900027C0DBFFFC0E28C0DBFFFD0E29C0DBFFC6
:103FA000A6D9F30E2C6E040E2D6E350E2E6E3F0E1E
:103FB00087D916EC1CF0010A09E1B3D984D939EC90
:103FC0001AF067D9EDD984D9ACD916D00C0EDB061E
:103FD0000D0E01E2DB068BD92C6A2D6A2E6A3F0E8C
:103FE0006FD976D9160EDBCF04F0170EDBCF05F0B4
:103FF000180EDBCF06F0190E66D9CCEC19F049D9B2
:10400000CFD93AEC1AF01A0E27C0DBFF1B0E28C0DE
:10401000DBFF1C0E29C0DBFF1D0E2AC0DBFF160EC6
:10402000DBCF27F0170EDBCF28F0180EDBCF29F0FF
:10403000190EDBCF2AF01A0EDBCF2CF01B0EDBCFD4
:104040002DF01C0EDBCF2EF01D0EDBCF2FF079EC08
:1040500019F01FD9120E27C0DBFF130E28C0DBFF9B
:10406000140E29C0DBFF150E2AC0DBFF4DD9120E3E
:10407000DBCF2CF0130EDBCF2DF0140EDBCF2EF0A8
:10408000150E62D90E0E27C0DBFF0F0E28C0DBFF16
:10409000100E29C0DBFF110E2AC0DBFF3D0EF36EB0
:1040A0001E0EF3CFDBFF7E0EF36E1F0EF3CFDBFF92
:1040B0000D0EF36E200EF3CFDBFFBF0EF36E210E5D
:1040C000F3CFDBFF0E0EDBCF00F00F0EDBCF01F0E6
:1040D000100EDBCF02F0110EDBCF03F03A0E2C6E88
:1040E0003F0E2D6ED40E2E6EC00EEAD83AEC1AF0AA
:1040F000220E27C0DBFF230E28C0DBFF240E29C0C1
:10410000DBFF250E2AC0DBFF0E0EDBCF27F00F0EE4
:10411000DBCF28F0100EDBCF29F0110EDBCF2AF019
:104120001E0EDBCF2CF01F0EDBCF2DF0200EDBCFD1
:104130002EF0210E09D9220EDBCF2CF0230EDBCF7F
:104140002DF0240EDBCF2EF0250EDBCF2FF079ECF7
:1041500019F007D9120EDBCF00F0130EDBCF01F000
:10416000140EDBCF02F0150EDBCF03F0CDD8010E1D
:10417000DBCF2CF0020EDBCF2DF0030EDBCF2EF0C9
:10418000040EE2D827C004F028C005F029C006F0CC
:104190002AC007F078D8046A800E056E310E066ECC
:1041A0003F0E076EC9D827C008F028C009F029C003
:1041B0000AF02AC00BF0CCD8E1D8CCEC19F069D8C1
:1041C000830E146E800E156E5E0E166EB90E176E8F
:1041D000B3D827C018F028C019F029C01AF02AC097
:1041E0001BF0B6D814C027F015C028F016C029F06F
:1041F00017C02AF0CCEC19F027C010F028C011F03D
:1042000029C012F02AC013F0010EDBCF1CF0020E01
:10421000DBCF1DF0030EDBCF1EF0040EDBCF1FF053
:104220001CC02CF01DC02DF01EC02EF01FC02FF0A2
:104230003AEC1AF027C00CF028C00DF029C00EF09F
:104240002AC00FF020D8010EDBCF00F0020EDBCF2A
:1042500001F0030EDBCF02F0040EDBCF03F000C051
:1042600026F001C027F002C028F003C029F0260E76
:10427000E15C02E2E16AE552E16EE552E5CFDAFF88
:10428000E7CFD9FF120064D882D83AEC1AF0B1EF28
:1042900021F027C000F028C001F029C002F02AC098
:1042A00003F01200E66E000EDA20E66E7FD8EECF45
:1042B000E6FFEECFE6FFEECFE6FFEFCFE6FF120020
:1042C0002F6EC7EF21F0DBCF07F06AD8BEEF21F0E9
:1042D00039EC1AF0160E27C0DBFF170E28C0DBFFE3
:1042E000180E29C0DBFF190E2AC0DBFF1200FA0EE0
:1042F000DBCF00F0FB0EDBCF01F0FC0EDBCF02F0DA
:10430000FD0EDBCF03F01200120EDBCF27F0130EF1
:10431000DBCF28F0140EDBCF29F0150EDBCF2AF00F
:104320001200FA0EDBCF04F0FB0EDBCF05F0FC0E23
:10433000DBCF06F0FD0E12000C0EDBCF28F00D0EC9
:10434000DBCF29F066EF19F0DBCF2FF0CCEF19F0BF
:1043500027C02CF028C02DF029C02EF02AC02FF045
:104360001200010E27C0DBFF020E28C0DBFF030E88
:1043700029C0DBFF040E2AC0DBFF120004C027F0B7
:1043800005C028F006C029F007C02AF0120000C0BE
:1043900027F001C028F002C029F003C02AF0120063
:1043A0002C6A2D6A2E6A3F0E2F6E1200D950FA0F1A
:0A43B000E96EFF0EDA20EA6E12003B
:0643BA00D9CFE6FFDACFC7
:1043C000E6FFE1CFD9FFE2CFDAFF130EE12402E3EB
:1043D000E168E652E16E0C0EDB6AD950FA0FE96E25
:1043E000FF0EDA20EA6E080EEECFDBFF090EEECFED
:1043F000DBFF0A0EEECFDBFF0B0EEECFDBFF1FD98C
:10440000D950080F17D9EECFE6FFEECFE6FFEECF7B
:10441000E6FFEFCFE6FFEEEC24F0006E060EE15C67
:1044200002E2E16AE552E16E0050DF6E020EDF5CEF
:1044300001E0BCD0050EDBCF02F0060EDBCF03F0AF
:10444000F80EDB50025C006EF90EDB500358016E73
:104450007F0E005E000E015A0D0E00C0DBFF0E0E37
:1044600001C0DBFF0D0E0E0EDBCF01F00001800E50
:1044700001140AE0010EF36E0C0EF3CFDBFF070E02
:10448000DB5001E098D09DD00D0EDBCF00F00E0E7A
:10449000DBCF01F0D890015004E6170E005C000E4F
:1044A000015801E39ED0046805687F0E066E076A16
:1044B0000D0EDB501F0B04C000F005C001F006C05C
:1044C00002F007C003F007E0D89003320232013255
:1044D0000032E806F9E10F0E00C0DBFF100E01C04C
:1044E000DBFF110E02C0DBFF120E03C0DBFF0F0E5D
:1044F000DBCF00F0100EDBCF01F0110EDBCF02F0AE
:10450000120EDBCF03F0D950010F94D8EE500016F5
:10451000EE500116EE500216EE5003160050011038
:104520000210031002E1000E01D0010EE76E0C0E26
:10453000E7CFDBFFDB5055E0046A056A800E066EAC
:10454000076A010E086E096A0A6A0B6AD9500F0FD2
:1045500071D8EE500826EE500922EE500A22EE5095
:104560000B220850045C006E09500558016E0A5079
:104570000658026E0B500758036ED950010F5AD8D7
:104580000050EE160150EE160250EE160350EE16D5
:10459000D950080FE66E000EDA20E66E50D87CEC9B
:1045A00025F0E552E552E552E5521BD0DF0419E152
:1045B000070EDB5006E0006A016A026A800E036E95
:1045C00004D0006A016A026A036A080E00C0DBFFB9
:1045D000090E01C0DBFF0A0E02C0DBFF0B0E03C099
:1045E000DBFFF60EDBCFE9FFF70EDBCFEAFF0C0EA9
:1045F000DBCFEFFF080EDBCF00F0090EDBCF01F0C1
:104600000A0EDBCF02F00B0EDBCF03F000C026F06A
:1046100001C027F002C028F003C029F0130EE15CAE
:1046200002E2E16AE552E16EE552E5CFDAFFE7CF5B
:10463000D9FF1200E96E000EDA20EA6E1200D9509E
:0C464000010FE66E000EDA20E66E12009C
:04464C0096D8E1CF4C
:10465000D9FFE2CFDAFF0C0EE12402E3E168E65273
:10466000E16ED950FA0FE96EFF0EDA20EA6E080EFD
:10467000EECFDBFF090EEECFDBFF0A0EEECFDBFF46
:104680000B0EEECFDBFF79D8D950080FE96E000E84
:10469000DA20EA6EEECFE6FFEECFE6FFEECFE6FFE2
:1046A000EFCFE6FFEEEC24F0006E060EE15C02E2D6
:1046B000E16AE552E16E0050E76E070EE7CFDBFFDF
:1046C000DB50840B3AE1070EDB041AE1060EDB50E7
:1046D00006E0006A016A026A800E036E04D0006A76
:1046E000016A026A036A080E00C0DBFF090E01C0FE
:1046F000DBFF0A0E02C0DBFF0B0E03C0DBFF1DD089
:10470000F80EDBCF00F0F90EDBCF01F0D950040F2B
:10471000E96E000EDA20EA6E0050EE260150ED221E
:10472000D950080FE66E000EDA20E66E26D87CEC33
:1047300025F0E552E552E552E552080EDBCF00F0D8
:10474000090EDBCF01F00A0EDBCF02F00B0EDBCF40
:1047500003F000C026F001C027F002C028F003C01B
:1047600029F00C0EE15C02E2E16AE552E16EE552ED
:10477000E5CFDAFFE7CFD9FF1200D9CFE6FFDACFD6
:04478000E6FF12003E
:0C478400D9CFE6FFDACFE6FFFA0EE3CF54
:10479000D9FFFB0EE3CFDAFFFD0EE35209E72D0E42
:1047A000DE6EFC0EE31EE32AFD0ED8B4E306E31E24
:1047B000E652E652E652FD0EE124E76EFF0EE220DD
:1047C000E46EE652F70EE3CFE6FFF70EE3CFE6FF27
:1047D00032EC24F0F90EE124E96EFF0EE220EA6EDD
:1047E00022EC24F00AE11FEC24F009E122EC24F091
:1047F00008E11FEC24F007E108D02DEC24F028ECB0
:1048000024F02DEC24F028EC24F02DEC24F0DE6ACA
:10481000F90EE126FF0EE222FF0EE3CFDAFFE552AA
:10482000FF0EE3CFD9FFE552FC0EE124E96EFF0E47
:10483000E220EA6EEECFF3FFEFCFF4FF1200EF3885
:104840000F0B1200EF500F0B02E1EE52D884120052
:10485000EF380F0B300FDE6E1200EE500F0B300FE3
:10486000DE6E1200FC0EE3CFE9FFFD0EE3CFEAFFA0
:10487000100EE66EEE6AEE6AEF6AD890FD0EE33631
:10488000FE0EE336ED36ED36EF36FF0EE30609E0B9
:1048900053EC24F0EE5253EC24F0EE5253EC24F09F
:1048A000EDD7E56E1200030EEF24E8B6EF6E300E82
:0848B000EF24E8BEEF6E000CDE
:0848B800D9CFE6FFDACFE6FFDD
:1048C000E1CFD9FFE2CFDAFF0C0EE12402E3E16889
:1048D000E652E16ED950FA0FE96EFF0EDA20EA6E69
:1048E000010EEECFDBFF020EEECFDBFF030EEECFAD
:1048F000DBFF040EEECFDBFF63D8D950010FE96E6A
:10490000000EDA20EA6EEECFE6FFEECFE6FFEECF46
:10491000E6FFEFCFE6FFEEEC24F0006E060EE15C62
:1049200002E2E16AE552E16E0050DF6E850EDF14AF
:1049300004E04DD8EE6AED6A23D0090EDBCF00F01B
:104940000A0EDBCF01F0820E0026FF0E01223FD8B7
:1049500000C0EEFF01C0EDFF7E0EF36E090EF3CF37
:10496000DBFF0A0EDB6AD950010FE66E000EDA207B
:10497000E66E26D87CEC25F0E552E552E552E5528C
:10498000010EDBCF00F0020EDBCF01F0030EDBCF18
:1049900002F0040EDBCF03F000C026F001C027F0C8
:1049A00002C028F003C029F00C0EE15C02E2E16ACB
:1049B000E552E16EE552E5CFDAFFE7CFD9FF12000D
:1049C000D950050FE66E000EDA20E66E1200F80EE2
:0C49D000DBCFE9FFF90EDBCFEAFF12009D
:0449DC00D9CFE6FF4A
:1049E000DACFE6FFE1CFD9FFE2CFDAFFE652006887
:1049F00001687F0E026E036AD950FA0FE96EFF0E4E
:104A0000DA20EA6EEE500016EE500116EE50021655
:104A1000EE5003166AD800C0EEFF01C0EEFF02C0E0
:104A2000EEFF03C0EEFFFD0EDB50800B02E0010E37
:104A300001D0000EE66E59D8060EE926000EEA22D5
:104A4000E552E750EF6EFC0EDBCF00F0FD0EDBCF42
:104A500001F0D89000360136FC0E00C0DBFFFD0EE1
:104A600001C0DBFFDB50E66E40D8040EE926000EE5
:104A7000EA22E552E750EE6EED6AFD0EDB50006E65
:104A8000016AFF0E001818E1015016E12ED8EECF92
:104A900000F0EECF01F0EECF02F0EFCF03F00050C8
:104AA00001100210031006E0210E0101F16FF26BFC
:104AB000800E0BD0040E09D0FD0EDB5008E115D896
:104AC000EE6AEE6AEE6AEE6A010EDF6E06D0020E44
:104AD000DF6E0BD8EE52EE52EE8EDF50E552E5520D
:104AE000E5CFDAFFE7CFD9FF1200F80EDBCFE9FF01
:084AF000F90EDBCFEAFF120012
:084AF800D9CFE6FFDACFE6FF9B
:104B0000E1CFD9FFE2CFDAFF5BD8013411E20050E8
:104B1000FE08000E01540CE276D805E06CD8800E39
:104B2000EE6EEE6847D067D8800EEE6E7F0E0ED028
:104B300047D8D890015004E6010E005C000E0158E1
:104B40000BE261D805E057D8EE6A800EEE6E32D0E7
:104B500052D8EE6AEE6A2ED047D8EECF00F0EECFF4
:104B600001F0EECF02F0EFCF03F032D800C0EEFF3D
:104B700001C0EEFF02C0EEFF03C0EEFF21D80050DF
:104B8000010B05E025D8020E3AD8EF8E04D020D8CC
:104B9000020E35D8EF9E14D8D8900132003218D8C2
:104BA000030E2DD800C0EFFF1AD804E011D8030E71
:104BB00026D8EF8EE552E5CFDAFFE7CFD9FF120016
:104BC00013D8040E1CD8EECF00F0EFCF01F0120086
:104BD000FA0EDBCFE9FFFB0EDBCFEAFF120004D8B1
:104BE000060E0DD8EF501200FC0EDBCFE9FFFD0ED4
:104BF000DBCFEAFF1200ECDFEE6AEE6A1200E92674
:104C0000000EEA221200220E0101F16FF26BEFEFAB
:024C100025F08D
:0E4C1200D9CFE6FFE1CFD9FF0F0E831695161E
:104C20009594959295908C948C928C90F0EC00F0E9
:104C3000300EE66EDAEC28F0E552050EE66E8DECED
:104C400029F0E552300EE66EDAEC28F0E552010E5E
:104C5000E66E8DEC29F0E552320EE66EDAEC28F0C5
:104C6000E552DCEC29F00009FCE1DCEC29F000095C
:104C7000FCE1FE0EDBCFE6FFDAEC28F0E552DCECDF
:104C800029F00009FCE1080EE66EDAEC28F0E552A6
:104C9000DCEC29F00009FCE10F0EE66EDAEC28F0FE
:104CA000E552DCEC29F00009FCE1010EE66EDAECDD
:104CB00028F0E552DCEC29F00009FCE1040EE66E78
:104CC000DAEC28F0E552DCEC29F00009FCE1800E7A
:104CD000E66E3FEC28F0E552E552E7CFD9FF12002F
:104CE000D9CFE6FFDACFE6FFE1CFD9FFE2CFDAFF97
:104CF000E652E652E652E652D950F90F006EFF0E28
:104D0000DA20016E020E00C0DBFF030E01C0DBFFE4
:104D1000020EDBCFE6FF030EDBCFE6FFF90EDBCFA3
:104D2000E6FFFA0EDBCFE6FFFB0EDBCFE6FFD95046
:104D3000FC0FE66EFF0EDA20E66EDAEC0DF0006E88
:104D4000070EE15C02E2E16AE552E16E0050F3CF4A
:104D5000DEFFF4CFDDFFFC0EDBCFE9FFFD0EDBCF86
:104D6000EAFFEF6ADECF00F0DDCF01F000C0F3FF15
:104D700001C0F4FF040EE15C02E2E16AE552E16E7B
:0C4D8000E552E5CFDAFFE7CFD9FF1200C3
:044D8C002A0EF66E87
:104D9000000EF76E000EF86E01010900F550EC6F81
:104DA0000900F550ED6F03E1EC6701D03DD009003B
:104DB000F550E76F0900F550E86F0900F550E96F0D
:104DC00009000900F550E96E0900F550EA6E090086
:104DD00009000900F550EA6F0900F550EB6F090072
:104DE0000900F6CFEEF1F7CFEFF1F8CFF0F1E7C120
:104DF000F6FFE8C1F7FFE9C1F8FF0101EA5302E15C
:104E0000EB5307E00900F550EE6EEA07F8E2EB0716
:104E1000F9D7EEC1F6FFEFC1F7FFF0C1F8FF0101CE
:0A4E2000EC07000EED5BBFD7120097
:064E2A0052414D20636CB3
:104E30006561726564004B4559363A20436C656183
:104E4000722052414D004B4559353A2056696577DD
:104E50002053617665640052414D204D656E7500AA
:104E600052656164696E672053746F7265640048AF
:104E70005220436F6D706C657465004B4559343A30
:104E80002052414D204D656E75004B4559323A20F8
:104E90006D65736173757265004D61696E204D6556
:104EA0006E750054656D703A202573002020202017
:0D4EB0002020202020202020202020200075
:024EBE00D9CF4A
:104EC000E6FFDACFE6FFE1CFD9FFE2CFDAFFFB0E54
:104ED000DBCF00F0FC0EDBCF01F00001800E0114EF
:104EE0001AE1FB0EDBCFE9FFFC0EDBCFEAFFEECFD2
:104EF000F3FFEDCFF4FFEE2A000EEF22F3CFE9FF30
:104F0000F4CFEAFFFD0EDBCFEFFFEF50016AF36E47
:104F100001C0F4FF10D0FB0EDB50FE0806E1FD0ED1
:104F2000DBCFE6FF0AEC2AF005D0FD0EDBCFE6FF73
:104F30002CEC2AF0E552E552E5CFDAFFE7CFD9FFB6
:024F400012005D
:0E4F420026502B02F3CF22F0F4CF23F02C02E6
:104F5000F3502326000EF420246E26502D02F35029
:104F60002426000EF420256E26502E02F35025260E
:104F700027502B02F3502326F4502422000E252222
:104F800027502C02F3502426F450252227502D02BE
:104F9000F350252628502B02F3502426F4502522C6
:104FA00028502C02F350252629502B02F350252699
:024FB0001200ED
:0E4FB200FE0EE3CFE9FFFF0EE3CFEAFFF36A46
:104FC000F46AEE5203E0F34AF42AFBD71200FF0E14
:104FD000E3CFF8FFE552FF0EE3CFF7FFE552FF0EF8
:104FE000E3CFF6FFE552E66AE66AE66A0900F552A3
:104FF00009E0FD0EE32A05E1FE0EE32A02E1FF0EC1
:10500000E32AF4D7FD0EE3CF27F0FE0EE3CF28F01E
:08501000FF0EE3CF29F01200AE
:08501800D9CFE6FFDACFE6FF75
:10502000E1CFD9FFE2CFDAFFE652E652D950FD0FC9
:10503000006EFF0EDA2000C0DEFFDD6EDECFE9FF7E
:10504000DDCFEAFFEF9EFA0EDBCF00F0FB0EDBCFE9
:1050500001F0FC0EDBCF02F0FD0EDBCF03F000C051
:1050600026F001C027F002C028F003C029F0E55265
:0E507000E552E552E5CFDAFFE7CFD9FF120097
:02507E00D9CF88
:10508000E6FFE1CFD9FF0F0E95168316FE0EDB501B
:105090008009F00B83128C948C92DAEC00F08C80F7
:1050A000DAEC00F08C900F0E8316FE0EDB38F00B5E
:1050B000F00B8312DAEC00F08C80DAEC00F08C90CC
:0C50C000F00E9512E552E7CFD9FF120068
:0450CC00D9CFE6FF53
:1050D000E1CFD9FF0F0E95168316FE0EDB50400967
:1050E000F00B83128C948C92DAEC00F08C80DAEC6A
:1050F00000F08C900F0E8316FE0EDB38F00BF00BD9
:105100008312DAEC00F08C80DAEC00F08C90F00E78
:0A5110009512E552E7CFD9FF120017
:06511A00D9CFE6FFE1CF52
:10512000D9FFFD0EDBCFF6FFFE0EDBCFF7FF080049
:10513000F55016E0DCEC29F00009FCE1FD0EDBCFB8
:10514000F6FFFE0EDBCFF7FF0800F550E66EB4EC7D
:1051500028F0E552FD0EDB2AFE0EE3E3DB2AE1D761
:08516000E552E7CFD9FF120070
:08516800D9CFE6FFE1CFD9FF2A
:105170000F0E95168316FE0EDB50F00B83128C82F9
:105180008C94DAEC00F08C80DAEC00F08C900F0E4E
:105190008316FE0EDB38F00BF00B8312DAEC00F016
:1051A0008C80DAEC00F08C90F00E9512E552E7CF8F
:0451B000D9FF120011
:0C51B400D9CFE6FFE1CFD9FF0F0E951612
:1051C0008316FE0EDB50F00B83128C948C92DAEC7B
:1051D00000F08C80DAEC00F08C900F0E8316FE0E3F
:1051E000DB38F00BF00B8312DAEC00F08C80DAEC99
:1051F00000F08C90F00E9512E552E7CFD9FF120027
:10520000D9CFE6FFE1CFD9FFFD0EDBCFE9FFFE0EE0
:10521000DBCFEAFFEF5015E0DCEC29F00009FCE100
:10522000FD0EDBCFE9FFFE0EDBCFEAFFEF50E66EAF
:10523000B4EC28F0E552FD0EDB2AFE0EE5E3DB2A96
:0A524000E3D7E552E7CFD9FF1200D3
:06524A00256A246A236AB4
:10525000226A200EE76ED890263627362836293661
:1052600022362336243625362B50225C2C502358E8
:105270002D5024582E50255809E32B50225E2C50D7
:10528000235A2D50245A2E50255A262AE72EE4D789
:0252900012000A
:0E529200D9CFE6FFE1CFD9FFE6528C848C82A3
:1052A000DAEC00F08C80DAEC00F0F00E8314DF6EA4
:1052B0008C90DAEC00F08C80DAEC00F083380F0B85
:1052C0000F0BDF128C908C928C94DF50E552E552DC
:0652D000E7CFD9FF120038
:0A52D600D9CFE6FFE1CFD9FFE65281
:1052E0008C848C92DAEC00F08C80DAEC00F0F00E1A
:1052F0008314DF6E8C90DAEC00F08C80DAEC00F036
:1053000083380F0B0F0BDF128C908C947F0EDF1401
:0A531000E552E552E7CFD9FF120085
:06531A00FF0EE350356EAA
:10532000EF0E01D0F30EE76EE72E94EF29F00C0E8E
:10533000346EE76AE72E9AEF29F0342E99EF29F0C0
:08534000352E92EF29F0120056
:08534800256A246A100EE76ECD
:10535000D89028362936243625362D50245C2E50F8
:10536000255805E32D50245E2E50255A282AE72E75
:04537000F0D7120060
:0C537400F36AF46AFF0EE124E96EFF0EFC
:10538000E220EA6EED6607D02F0EEF6404D03A0EED
:08539000EF6001D0F32A1200C6
:08539800FF0EE350356E480ED4
:1053A00001D04C0EE76EE72EFED7E76AE72EFED758
:0853B000352EF7D700001200B2
:0853B8008C848C92DAEC00F009
:1053C0008C80DAEC00F08C90DAEC00F08C80DAEC77
:0853D00000F08C908C94000C9D
:0853D800000EF36E00EE00F080
:1053E000060E01D81200EA6002D0EE6AFCD7F35034
:0853F000E9601200EE6AFCD72F
:0853F80010EE80F020EE80F0C1
:10540000F86A219CC6EC26F02DEC2AF0E9EC0CF0B1
:04541000FBD71200B4
:0C541400FF0EE350ACBA04D0AF6AAB8EC0
:10542000AC8A949CACA2FED7AD6EF36EF46A120007
:10543000FF0EE350E84E1200000000D000D000D074
:06544000E82EFAD712006D
:0A544600303132333435363738394F
:075450006162636465660000
:02545800120040
:02545A0012003E
:04545C00000000004C
:105460000100000C100100000C100100000C1001E4
:1054700000000C100100000C100100000C100100D5
:105480000194100100019410010001941000000328
:10549000B418000003B418000003B418000000B4EE
:1054A00018010002FE10000002B418000003B41836
:1054B000000004B418000005B418010003961100A0
:1054C0000001B418000002B4180100039611010095
:1054D0000396110100039611000000B418000001AA
:1054E000B418000002B418010004281201000428B6
:1054F00012000005B418000000B418000001B41830
:10550000000002B4180100054814000004B418009B
:105510000005B418000000B418000001B418000021
:1055200002B418000003B41801000484140000053C
:10553000B418000000B418000001B418000002B450
:1055400018000003B4180100049816000005B418F0
:020000040030CA
:0100010022DC
:010003000EEE
:010006008178
:00000001FF
