:020000040000FA
:060000001FEF10F01200DA
:0A00060001009D200000A30000008F
:0400100004000000E8
:020014001200D8
:020016001200D6
:06001800E5EF08F0120004
:02001E004BECA9
:1000200005F0FB0EDBCFF3FFDB06F35000090AE01F
:1000300099EC05F0FA0E04EC06F0F3E1151CF1E181
:10004000010E01D0000E7AEF05F04BEC05F03B0EEF
:10005000E12402E3E168E652E16E010EDB6A020E82
:10006000DB6AF90EDBCFF6FFFA0EDBCFF7FFFB0EF4
:10007000DBCFF8FF0800F550DF6EDF5002E19EEFA6
:1000800004F0250EDF5C02E091EF04F0030EDB6A62
:10009000040EDB6A050EDB6A060EDB6A070EDB6AFE
:1000A000B3EC04F02D0EDF5C0CE02B0EDF5C09E0FE
:1000B000200EDF5C06E0230EDF5C03E0300EDF5C29
:1000C0001AE1DF50300A14E0130A0FE0030A0AE0D5
:1000D0000B0A05E0060AE4E1030EDB80E1D7030E1C
:1000E000DB82DED7030EDB84DBD7030EDB86D8D7BB
:1000F000030EDB88D5D72A0EDF5C1BE1AFEC04F0E2
:10010000FDEC04F010E0030EDB8006680768130EB8
:10011000DBCF0BF0140EDBCF0CF017EC0CF0040E61
:1001200004C0DBFF03D0130EE6EC04F0B3EC04F0E4
:100130000BD0090EDB6A54EC05F003E0C8EC05F0C7
:10014000FAD7090EE6EC04F0030EDBB0DB982E0EB6
:10015000DF5C1BE1B3EC04F02A0EDF5C0BE1AFECDB
:1001600004F0FDEC04F003E1130E38EC05F0B3EC01
:1001700004F00BD0090EDB6A54EC05F003E0C8EC88
:1001800005F0FAD7090E38EC05F0680EDF5C07E1E0
:10019000B3EC04F0680EDF5C1DE1030E18D0740EA2
:1001A000DF5C17E07A0EDF5C14E0480EDF5C06E0EF
:1001B000540EDF5C03E05A0EDF5C02E1020E07D052
:1001C0006C0EDF5C03E06A0EDF5C04E1010E8BEC79
:1001D00005F0C9DBDF506E0A01E17FD31E0A01E1A1
:1001E00092D1200A01E18FD13F0A01E149D11A0AD7
:1001F00001E146D10D0A01E143D1200A01E140D1DC
:100200003A0A01E13DD1200A01E13AD1260A01E191
:1002100035D10D0A01E132D11A0A01E1D9D0200A03
:100220004AE0300A1FE0460A0EE0250A01E083D3C7
:10023000D950F90FE96EFF0EDA20EA6E010EEE5E7C
:10024000000EEE5AEE5A99EC05F0250EE66E95DB9F
:1002500003E1151C01E169D395EC05F001E26BD3D4
:10026000DB2A69D3080EDB6A040EDB50010806E2C4
:10027000040EDB045DEC05F0DB508BDB080EDB507D
:1002800009E0030EDB50010B05E172DB01E04DD309
:10029000080EDB6A64DBEFCFDFFF0DEC06F003E155
:1002A000151C01E142D395EC05F001E3DB2A60DB8C
:1002B00001E141D33AD3070EDB5002080FE1D9EC3C
:1002C00005F0030EA0EC05F00E0EEECFDBFF0F0ED7
:1002D000EECFDBFF100EEECFDBFF20D0F70EDBCF33
:1002E00017F0F80EDBCF18F0020E175E000E185A4A
:1002F000F70E17C0DBFFF80E18C0DBFF17C0E9FFD1
:1003000018C0EAFF90EC05F0166A0E0E14C0DBFF71
:100310000F0E15C0DBFF100E16C0DBFF0E0EDBCF7D
:10032000E6FF0F0EDBCFE6FF100EDBCFE6FF22EC81
:100330000EF0E552E552E552130E05C0DBFF140E38
:1003400006C0DBFF060EDB5005E0130ED4EC05F013
:1003500001E26ADBF8EC05F002E2130E37DBBBECDE
:1003600005F006E0040ED4EC05F002E2050E2EDBEB
:10037000030EDBB005D0FCDA01E0D7D2080EDB6A51
:10038000090EDB6A0E0EDBCFF6FF0F0EDBCFF7FF99
:10039000100EDBCFF8FF0800F550DF6EDF5014E0E1
:1003A000FEEC05F011E20DEC06F003E1151C01E195
:1003B000BCD2BBDB01E3DB2A090EDB2AD9500E0FCE
:1003C000E96E000ECBDBE7D7D3DA01E1B4D2ADD2D0
:1003D000C6DA110EEECFDBFF120EEDCFDBFF110EF2
:1003E000DBCFE6FF120EDBCFE6FF14EC0EF0E5529A
:1003F000E552130EF3CFDBFF140EF4CFDBFF060E36
:10040000DB5004E0130ED0DB01E20EDBF8EC05F06C
:1004100002E2130EDBDAAFDB05E0040EC5DB02E21D
:10042000050ED4DA030EDBB005D0A2DA01E07DD2EE
:10043000080EDB6A090EDB6A110EDBCFE9FF120E34
:10044000DBCFEAFFEFCFDFFFDF5014E0D7DB12E2B4
:10045000E4DB03E1151C01E168D267DB01E3DB2A81
:10046000090EDB2A110EDB2ADBCFE9FF120EE8E3CF
:10047000DB2AE6D77DDA01E15ED257D2030EDB8EAE
:10048000070EDB0410E195DB040E5ADB0A0EEECFFB
:10049000DBFF0B0EEECFDBFF0C0EEECFDBFF0D0E06
:1004A000EECFDBFF6CD0070EDB5003082CE1030E10
:1004B000DBAE0DD0B2DA020E76DAEFCF14F0156AA9
:1004C000166A176A14AE39D01568166835D0F70E5B
:1004D000DBCF15F0F80EDBCF16F0020E155E000E26
:1004E000165AF70E15C0DBFFF80E16C0DBFF15C05D
:1004F000E9FF16C0EAFFEFCF14F00A0E14C0DBFFCD
:100500000B0EDB6A38D0070EDB50020809E1030E40
:10051000DBAE04D059DB16AE10D00ED055DB0DD0BB
:10052000030EDBAE12D079DA020E3DDAF9DA166A82
:10053000176A15AE02D016681768E2DA0C0E16C0FC
:10054000DBFF0D0E17C0DBFF1AD0F70EDBCF16F066
:10055000F80EDBCF17F0020E165E000E175AF70EDC
:1005600016C0DBFFF80E17C0DBFF16C0E9FF17C08F
:10057000EAFFD6DAC5DA0C0EDB6A0D0EDB6A060E70
:10058000DB5005E1010EF36E050EF3CFDBFF150E18
:10059000DB6A160EDB6AD950370F146E000EDA20B4
:1005A000156E390E14C0DBFF3A0E15C0DBFF380E96
:1005B000DB6A080EDB6A0A0EAEDADF50780A12E058
:1005C000200A10E0280A0CE0200A0AE03F0A06E0B0
:1005D0000D0A02E0200A08E1020E05D0080E03D041
:1005E000080EDF26100E97DA030EDBBE02D0DB9278
:1005F000DB94DB50800B24E08ADAD890030EEB50BA
:10060000000A08E6000EEE5C000EEE58000EEE58F2
:10061000000EEE5815E213DA09680A680B680C68D8
:10062000DCEC0DF00A0E00C0DBFF0B0E01C0DBFF9F
:100630000C0E02C0DBFF0D0E03C0DBFF2D0E08D039
:10064000030EDBA202D02B0E03D0DBA408D0200EB9
:10065000F36E170EF3CFDBFF150EDB2A02D0170E59
:10066000DB6A050EDB5003E1B7D901E189D08C0EBE
:10067000146E200E156E000E166E070EDBCF17F0EF
:10068000186A196A1A6A17C009F018C00AF019C066
:100690000BF01AC00CF0D3D980EC0FF014500024EA
:1006A000F36E15500120F46E16500220F86EF4CF50
:1006B000F7FFF3CFF6FF0800090EF5CFDBFF580E6A
:1006C000DF5C0FE1610EF36E090E7BD90AE3200EA9
:1006D000146E090EDBCFE7FF1450E75E090EE7CF7B
:1006E000DBFF070EDBCF14F0156A166A176A0FDA04
:1006F00014C009F015C00AF016C00BF017C00CF0BA
:10070000EECF04F0EECF05F0EECF06F0EFCF07F01E
:1007100080EC0FF007C0EDFF06C0EDFF05C0EDFF58
:1007200004C0EFFF390EDBCFE9FFDB063A0EDBCF6B
:10073000EAFF01E2DB06090EDBCFEFFF150EDB2A35
:100740004BD995E1030EDBA61DD06F0EDF5C06E1F1
:10075000C1D918E3150EDB285BDA14D0780EDF5C04
:1007600009E0580EDF5C06E0620EDF5C03E0420E3B
:10077000DF5C08E1020EF36E160EF3CFDBFF02D052
:10078000150EDB6A030EDB50100B0EE0040EDBCF00
:1007900014F0050EDB50D880145406E2060EDB5030
:1007A00003E1040EDB5034DA95D90AE2050EDBCF03
:1007B000E7FF150EDB50E75E050EE7CFDBFF02D04B
:1007C000050EDB6A040EDBCF14F0160E45D9D88077
:1007D000145414E2160EDBCFE6FF150EDBCFE6FF56
:1007E000040EDBCFE6FF050EDB50E552E75CE55279
:1007F000D880E754E552D880E7545FD9030EDB5028
:10080000010B0BE1080EDB5008E0B2D801E08DD0FF
:10081000080EDB50BED8080EDB6A170EDB5007E06F
:1008200088D9170EF1D903E1151C01E17ED0160E0F
:10083000DB5016E07ED9300EE66E9FD802E1151C23
:1008400074E077D9DFCFE6FF5FEC0DF0E552E552BB
:10085000E552F4CF15F00001F31C02E1151C65E030
:10086000050EDBCF14F0160EDB50D880145409E2CD
:10087000050EDBCFE7FF160EDB50E75E050EE7CF78
:10088000DBFF300EE66E050ECBD94FE1390EDB2AC9
:10089000DBCFE9FF3A0E01E3DB2ADBCFEAFF090EEB
:1008A000EFCFDBFFDB500EE044D9090EADD902E1FA
:1008B000151C3BE0390EDB2ADBCFE9FF3A0EEDE3F6
:1008C000DB2AEBD755D831E1160EDBCFE6FF080E59
:1008D000C3D8E552E7245DD82ED0070EDB50030ABB
:1008E0001CE0010A14E0030A07E07BD9DBCFEEFF2E
:1008F000020EDBCFEDFF1FD0F5D8196A17AE02D07C
:10090000186819682CD8BCD819C0EEFF14D0EAD8E2
:1009100017BE186824D8B4D80ED063D9DBCFEFFF48
:100920000AD07BD905E1151C03E1F368F46810D007
:10093000FCD801E3DB2A79D93AEF00F0010EDBCFD6
:1009400014F0020EDBCF15F014C0F3FF15C0F4FF56
:100950003B0EE15C02E2E16AE552E16ECBD029D9BF
:10096000020EA0EF05F061D90800F550DF6E12000D
:10097000200EE66E080E10EF06F05FEC0DF0E5526B
:10098000E552E552F3CF14F0F4CF15F00001F31C5B
:100990001200146E156AD950010F4DD91450EE266D
:1009A0001550ED221200185E000E195AF70E18C0ED
:1009B000DBFFF80E19C0DBFF18C0E9FF19C0EAFF22
:1009C0001200DBCFF4FFF350F45C1200DB50E76E53
:1009D000040EE7CFDBFF12000A0EDBCF14F00B0E84
:1009E000DBCF15F00C0EDBCF16F00D0EDBCF17F0C2
:1009F00014501510161017101200130EEECFDBFF57
:100A0000140EEDCFDBFF130EDBCF14F0140EDBCF93
:100A100015F00001800E15141200F70EDBCF18F050
:100A2000F80EDBCF19F01200050EDB50E66ED95040
:100A3000130F01D9E552E750EE6EED6A12000A0E6F
:100A4000DBCF04F00B0EDBCF05F00C0EDBCF06F096
:100A50000D0EDBCF07F01200DBCFE6FF150EDBCF6C
:100A6000E6FF050EDB50E552E724E552E7241200CD
:100A7000DB50CED8010EF36E060EF3CFDBFF120073
:100A8000EE50EFCFEAFFE96E16C0EEFF17C0EEFFA3
:100A900018C0EEFF1200D9CFE6FFDACFE6FFE1CFB4
:100AA000D9FFE2CFDAFF1200DFCFE6FFE66AEDEC16
:100AB0000FF0E552E552F3501200E76E080EE7CF53
:100AC000DBFF1200EECF14F0EECF15F0EFCF16F0F3
:100AD000176A1200050EDBCF14F0150EDB50D8801C
:100AE00014541200010EDBCF16F0020EDBCF17F00C
:100AF000186A1200E552E5CFDAFFE7CFD9FF1200FE
:100B00000A0E14C0DBFF0B0E15C0DBFF1200D9501C
:100B10000A0F1BEF06F0F36E070EF3CFDBFF120098
:100B2000EECF14F0EFCF15F01200010EDB2A020E0B
:100B30001200FC0EDBCFE6FFFD0EDBCFE6FF12005E
:100B4000145E000E155AF70E14C0DBFFF80E15C028
:100B5000DBFF14C0E9FF15C0EAFF1200DA20EA6EDD
:100B6000EF2AEECFF6FF000EEF22EECFF7FFEF22D7
:100B7000EECFF8FF1200040EDBCFE6FF130EDB50C2
:100B8000E552E75C9ADFDB5004DF060EDB50120013
:100B9000090EDB500A0DF350DF24D00FE76E090E6B
:100BA000E7CFDBFFB3EF04F0DB50F36E050EE1EFB0
:100BB00004F0F70EDBCF14F0F80EDBCF15F01200C7
:100BC000DFCFE6FFBDEF04F028DF030EECDE62EFBF
:100BD00005F00FEC00F0E552E552E552E552000950
:100BE0001200BDDEEE50EFCFEAFFE96E010E1200FB
:100BF000130EDB50F36E040EE1EF04F0040EDB5035
:100C0000F36E090EE1EF04F0DBCFE6FFBDEF04F079
:100C1000E76E050EE7CFDBFF12008BDFE0EF05F09C
:100C2000DBCFE6FF86DFE9EF05F0D950F90FE96E7B
:100C3000FF0EAEEF05F0E96E000EDA20EA6E12004C
:100C4000D9CFE6FFDACFE6FFE1CFD9FFE2CFDAFF77
:100C5000E652E652DE6ADD6A938A8A9A939A300EE9
:100C6000E66E3BEC10F0E552938A0A0EE66E3BEC22
:100C700010F0E5528150200B200A01E0010E146EA5
:100C8000156A14BE156814C0DEFF15C0DDFFE552FD
:100C9000E552E552E5CFDAFFE7CFD9FF1200D9CF11
:100CA000E6FFDACFE6FFE1CFD9FFE2CFDAFFE65287
:100CB000DF6ADFCF14F0080EE76E1418E8AE02D03A
:100CC000E73402D0E750145C22E28A9A939A010E2C
:100CD000E66E3BEC10F0E552FD0EDB50010BE8B088
:100CE000938AE8A0939A050EE66E3BEC10F0E5526D
:100CF000938A020EE66E3BEC10F0E552FD0EDB40EF
:100D00007F0BE76EFD0EE7CFDBFFDF2AD2D7E55280
:100D1000E552E5CFDAFFE7CFD9FF1200D9CFE6FFE2
:100D2000DACFE6FFE1CFD9FFE2CFDAFFE652E652B3
:100D3000E652DE6ADD6A020EDB6A020EDBCF14F0D9
:100D4000080EE76E1418E8AE02D0E73402D0E75080
:100D5000145C2EE28A9A939A00000000938A0000A5
:100D600000000000000000000000000000008150B2
:100D7000200B01E0010EF36E020EDB5004E0D89070
:100D8000F336E806FCE1F350166E176ADE501610D3
:100D9000146EDD501710156E14C0DEFF15C0DDFF98
:100DA000050EE66E3BEC10F0E552020EDB2AC5D7CD
:100DB000DECF14F0DDCF15F014C0F3FF15C0F4FF43
:100DC00000D0E552E552E552E552E5CFDAFFE7CF34
:100DD000D9FF120035DF0C0EE66E61DFE552E66AE0
:100DE0005EDFE5522DDFAC0EE66E59DFE55228DFFF
:100DF0001200D9CFE6FFDACFE6FFE1CFD9FFE2CF8D
:100E0000DAFF0A0EE12402E3E168E652E16EDE6AEF
:100E1000DD6A020EDB6A030EDB6A040EDB6A050E76
:100E2000DB6A060EDB6A070EDB6A080EDB6A090E58
:100E3000DB6A080EDBCF14F0090EDBCF15F0D8907B
:100E4000155004E6C80E145C000E15582BE2EE0E89
:100E5000E66E25DFE552220EE66E21DFE552F0DE7A
:100E6000AA0EE66E1CDFE55259DFF3CFDEFFF4CFAA
:100E7000DDFFE6DE020EDBCF16F0030EDBCF17F050
:100E8000DE501624146EDD501720156E020E14C0AD
:100E9000DBFF030E15C0DBFF080EDB2A090E01E3A2
:100EA000DB2AC7D7020EDBCF06F0030EDBCF07F03D
:100EB000F8EC09F005C014F006C015F007C016F0F4
:100EC00008C017F00A6A0B6A480E0C6E430E0D6ECE
:100ED00014C005F015C006F016C007F017C008F0E2
:100EE0000BEC0AF0040E05C0DBFF050E06C0DBFFAD
:100EF000060E07C0DBFF070E08C0DBFF040EDBCFCA
:100F000014F0050EDBCF15F0060EDBCF16F0070E42
:100F1000DBCF17F014C004F015C005F016C006F0C2
:100F200017C007F000D00A0EE15C02E2E16AE55268
:100F3000E16EE552E5CFDAFFE7CFD9FF12000000FE
:100F400000000000000000000000000000000000A1
:100F50000000000000000000000000D01200050E9C
:100F6000E66EFFEC0FF0E55200D012000F0EE66EB9
:100F7000FFEC0FF0E55200D01200280EE66E44ECB4
:100F80000CF0E552A4EC0FF0000901E0FBD7E66A93
:100F900047EC0EF0E552A4EC0FF0000901E0FBD79E
:100FA0000F0EE66ED3EC0EF0E552A4EC0FF0000944
:100FB00001E0FBD7060EE66ED3EC0EF0E552A4EC92
:100FC0000FF0000901E0FBD712008250100B0DE07A
:100FD0008250200B0AE08250400B07E08250800BC9
:100FE00004E00001460E806FEFD08250100B0DE13F
:100FF0008250200B0AE18250400B07E18250800BA7
:1010000004E10001310E806FDFD08250100B0DE142
:101010008250200B0AE18250400B07E18250800B86
:1010200004E00001410E806FCFD08250100B0DE123
:101030008250200B0AE18250400B07E08250800B67
:1010400004E00001320E806FBFD08250100B0DE122
:101050008250200B0AE18250400B07E08250800B47
:1010600004E10001330E806FAFD08250100B0DE110
:101070008250200B0AE08250400B07E18250800B27
:1010800004E10001340E806F9FD08250100B0DE1FF
:101090008250200B0AE08250400B07E18250800B07
:1010A00004E00001420E806F8FD08250100B0DE1E2
:1010B0008250200B0AE08250400B07E08250800BE8
:1010C00004E10001360E806F7FD08250100B0DE1DD
:1010D0008250200B0AE08250400B07E08250800BC8
:1010E00004E00001350E806F6FD08250100B0DE0D0
:1010F0008250200B0AE18250400B07E18250800BA6
:1011000004E10001370E806F5FD08250100B0DE0BC
:101110008250200B0AE18250400B07E18250800B85
:1011200004E00001430E806F4FD08250100B0DE0A1
:101130008250200B0AE18250400B07E08250800B66
:1011400004E10001390E806F3FD08250100B0DE09A
:101150008250200B0AE18250400B07E08250800B46
:1011600004E00001380E806F2FD08250100B0DE08C
:101170008250200B0AE08250400B07E18250800B26
:1011800004E10001300E806F1FD08250100B0DE083
:101190008250200B0AE08250400B07E18250800B06
:1011A00004E00001440E806F0FD08250100B0CE061
:1011B0008250200B09E08250400B06E08250800BE9
:1011C00003E10001450E806F1200D8CFE4FFE0CFAD
:1011D000E4FFE46EE9CFE4FFEACFE4FFF6CFE4FFFB
:1011E000F7CFE4FFF8CFE4FFF5CFE4FFF3CFE4FF60
:1011F000F4CFE4FFFACFE4FFFBCFE4FF00EE00F012
:10120000140EE80403E3EECFE4FFFBD700EE14F086
:10121000080EE80403E3EECFE4FFFBD7E652F29EAC
:10122000D4DEF090F28EF086E55200EE1BF0080E50
:10123000E80403E3E5CFEDFFFBD700EE13F0140E57
:10124000E80403E3E5CFEDFFFBD7E5CFFBFFE5CFF8
:10125000FAFFE5CFF4FFE5CFF3FFE5CFF5FFE5CFEC
:10126000F8FFE5CFF7FFE5CFF6FFE5CFEAFFE5CFE3
:10127000E9FFE550E5CFE0FFE5CFD8FF1000AADD9C
:10128000B8DD04C0A3F005C0A4F006C0A5F007C0F7
:10129000A6F0A3C005F0A4C006F0A5C007F0A6C044
:1012A00008F062EC0BF006C081F007C082F081C04C
:1012B00006F082C007F0F8EC09F005C018F006C08F
:1012C00019F007C01AF008C01BF018C00AF019C0C6
:1012D0000BF01AC00CF01BC00DF0A3C005F0A4C0A9
:1012E00006F0A5C007F0A6C008F0CBEC0AF005C0D8
:1012F00014F006C015F007C016F008C017F00A6A0F
:101300000B6AC80E0C6E420E0D6E14C005F015C0AF
:1013100006F016C007F017C008F05EEC0AF062ECA9
:101320000BF006C083F007C084F083C0E6FF84C0E2
:10133000E6FF81C0E6FF82C0E6FFD10EE66E1F0E1B
:10134000E66E000EE66E850EE66E000EE66EBAECF8
:101350000CF0146E090EE15C02E2E16AE552E16E06
:101360001450948E948C948A94889382F086F09092
:10137000F18AD08EF28CF28EF09CFFDDA4EC0FF09F
:10138000000901E0FBD7E66A47EC0EF0E552C10E1A
:10139000E66E1F0EE66E000EE66EA1EC0DF0E55255
:1013A000E552E552400EE66E47EC0EF0E552B40E03
:1013B000E66E1F0EE66E000EE66EA1EC0DF0E55235
:1013C000E552E552140EE66E47EC0EF0E552850E3E
:1013D000E66E000EE66E01EC0FF0E552E552A4EC6D
:0C13E0000FF0000901E0FBD7FFD712005E
:0413EC000F9E08D078
:1013F0000F9E07AE05D0066C071EE86A07220F8E07
:1014000007C001F006C000F0136A126A8E0E026E69
:10141000036AADEF0BF00F6AE9EC0BF001EC0CF096
:101420000FB691EF0BF00FA205D00FBA91EF0BF0B2
:1014300098EF0BF00FBAA4EF0BF00FA005D00FB888
:1014400091EF0BF0A4EF0BF00FB898EF0BF0036ADD
:101450007F0E0824026EE86A03220D50025EE86ADD
:10146000035A1A0E106E086A126A136A006A016A39
:101470000A50055E0B50065A0C50075A000E085AC7
:1014800009E70A5005260B5006220C500722000ED1
:10149000082201D0128AD89005360636073608365B
:1014A000D8901236133600360136102EE1D7075089
:1014B00006100510D8A4128AADEF0BF00F6AE9EC04
:1014C0000BF001EC0CF00FB691EF0BF00FA205D072
:1014D0000FB891EF0BF098EF0BF00FAA05D00FB0FB
:1014E00091EF0BF098EF0BF00FB002D00FA802D0E5
:1014F000A4EF0BF0036A0D500824026EE86A032281
:101500007E0E025EE86A035A126A136A006A016A72
:101510000C500702F4CF01F0F3CF00F00B5007029C
:10152000F3501326F4500022000E01220C50060244
:10153000F3501326F4500022000E01220A50070235
:10154000F3501226F4501322000E002201220B50F9
:101550000602F3501226F4501322000E002201223C
:101560000C500502F3501226F4501322000E0022F4
:1015700001220A500602F4501226000E1322002205
:1015800001220B500502F4501226000E13220022F5
:101590000122ADEF0BF00D7E0F6AE9EC0BF001ECD0
:1015A0000CF00FB691EF0BF00FA20AD00FAA03D0E8
:1015B0000FBE91EF0BF00FA49DEF0BF09AEF0BF025
:1015C0000FAA05D00FAC9DEF0BF09AEF0BF00FA018
:1015D0000AD00FA808D00FBE04D00FA402D0A6EFE7
:1015E0000BF0AAEF0BF0126A036A0D50085C116E43
:1015F00010E305C013F006C000F007C001F008C0FA
:1016000010F00AC005F00BC006F00CC007F00F3A4E
:1016100009D00AC013F00BC000F00CC001F00DC0DF
:1016200010F0116C0F9E0FBC0F8E10C002F00FB0A7
:10163000D9EF0BF01A0E1160D9EF0BF0026A086AAD
:101640000FA408D0056C061E071E081EE86A0622B5
:10165000072208220FAC08D0136C001E011E021EC8
:10166000E86A002201220222046A115207E00834CB
:101670000732063205320432112EF9D705501326EF
:1016800006500022075001220850022204C012F026
:101690000F9E02AE0BD0126C131E001E011E021E06
:1016A000E86A13220022012202220F8E02A006D035
:1016B000D8800132003213321232102A10C002F0E8
:1016C000ADEF0BF00F6AE9EC0BF00FB66CEF0BF01F
:1016D0000FA20ED00FB405D07F0E076EFF0E066E60
:1016E0001FD0800E076E066A1BD0076A066A18D0E4
:1016F0000FB0FBD78F0E0860EDD77E0E0864F5D7CC
:101700008E0E085C05E0D89007320632082AF8D71A
:101710000FA406D0066C071EE86A072207AEE5D7BD
:1017200012007F0E086EFF0E076E066E056E120029
:101730007F0E0FBEFF0E086E02D07F0E086E800E69
:10174000076E066A056AF3D70FAE04D0800E086EE6
:10175000076AF7D7086A076AF4D701500010131018
:101760001210F8E003BEF0D701BE0CD002500310F7
:10177000EBE0D89012361336003601360206D8A0B8
:101780000306F2D70350D4E10228D2E012AE11D002
:101790007F0E121402E113A00CD0132AE86A002273
:1017A000012207E3D880013200321332022A0228D4
:1017B000BFE00250C9E013C005F000C006F00134DC
:1017C000076E0230086E0732089E0FBE088E97EF34
:1017D0000BF00736083602E30F840F7E06E10F8018
:1017E000086A076A066A056A1200082803E0D880BA
:1017F00007321200D890073202E10F8212000F86E2
:1018000012000C360D3602E30F8C0F7E06E10F88B6
:101810000D6A0C6A0B6A0A6A12000D2803E0D88070
:101820000C321200D8900C32EAE10F8A120007C085
:1018300013F006C012F006500B02F4CF05F0F3CF00
:1018400004F007500C02F4CF07F0F3CF06F00B02C0
:10185000F3500526F4500622E86A072212500C02C3
:10186000F3500526F4500622E86A07220CAE3DEF3D
:101870000CF01250065E1350075A13AE000C0B50BA
:08188000065E0C50075A000C33
:08188800D9CFE6FFDACFE6FF3D
:10189000E1CFD9FFE2CFDAFF0F0E83160F0E9516B8
:1018A0009594959295908C948C928C90B6EC07F0D0
:1018B000300EE66ED3EC0EF0E552050EE66EC3EC8C
:1018C0000FF0E552300EE66ED3EC0EF0E552010E4D
:1018D000E66EC3EC0FF0E552320EE66ED3EC0EF07E
:1018E000E552A4EC0FF0000901E0FBD7A4EC0FF0E7
:1018F000000901E0FBD7FD0EDBCFE6FFD3EC0EF0D5
:10190000E552A4EC0FF0000901E0FBD7080EE66EEB
:10191000D3EC0EF0E552A4EC0FF0000901E0FBD788
:101920000F0EE66ED3EC0EF0E552A4EC0FF00009BA
:1019300001E0FBD7010EE66ED3EC0EF0E552A4EC0D
:101940000FF0000901E0FBD7040EE66ED3EC0EF0B9
:10195000E552A4EC0FF0000901E0FBD7800EE66E23
:1019600047EC0EF0E55200D0E552E5CFDAFFE7CFC5
:04197000D9FF120089
:0C197400D9CFE6FFDACFE6FFE1CFD9FFC4
:10198000E2CFDAFFE652E652E652E652D950F90FBC
:10199000146EFF0EDA20156E020E14C0DBFF030E6C
:1019A00015C0DBFF020EDBCFE6FF030EDBCFE6FF49
:1019B000F90EDBCFE6FFFA0EDBCFE6FFFB0EDBCF47
:1019C000E6FFD950FC0FE66EFF0EDA20E66E25EC3E
:1019D00000F0146E070EE15C02E2E16AE552E16E8E
:1019E0001450F3CFDEFFF4CFDDFFFC0EDBCFE9FFB9
:1019F000FD0EDBCFEAFFEF6ADECF14F0DDCF15F08E
:101A000014C0F3FF15C0F4FF040EE15C02E2E16ACA
:101A1000E552E16EE552E5CFDAFFE7CFD9FF1200DC
:101A2000060EF66E000EF76E000EF86E000109004D
:101A3000F5509E6F0900F5509F6F03E19E6701D03E
:101A40003DD00900F550996F0900F5509A6F0900D3
:101A5000F5509B6F09000900F550E96E0900F5503B
:101A6000EA6E090009000900F5509C6F0900F55065
:101A70009D6F09000900F6CFA0F0F7CFA1F0F8CFD5
:101A8000A2F099C0F6FF9AC0F7FF9BC0F8FF0001D3
:101A90009C5302E19D5307E00900F550EE6E9C0750
:101AA000F8E29D07F9D7A0C0F6FFA1C0F7FFA2C0DA
:0E1AB000F8FF00019E07000E9F5BBFD71200DB
:021ABE00D9CF7E
:101AC000E6FFDACFE6FFE1CFD9FFE2CFDAFFFB0E88
:101AD000DBCF14F0FC0EDBCF15F00001800E1514E7
:101AE0001AE1FB0EDBCFE9FFFC0EDBCFEAFFEECF06
:101AF000F3FFEDCFF4FFEE2A000EEF22F3CFE9FF64
:101B0000F4CFEAFFFD0EDBCFEFFFEF50156AF36E67
:101B100015C0F4FF10D0FB0EDB50FE0806E1FD0EF1
:101B2000DBCFE6FF2DEC10F005D0FD0EDBCFE6FF9E
:101B30000AEC00F0E552E552E5CFDAFFE7CFD9FF36
:021B4000120091
:0E1B4200D9CFE6FFDACFE6FFE1CFD9FFE2CF41
:101B5000DAFFFB0EDBCFF6FFFC0EDBCFF7FFFD0E4F
:101B6000DBCFF8FF0800F55020E0A4EC0FF00009EF
:101B700001E0FBD7FB0EDBCFF6FFFC0EDBCFF7FF60
:101B8000FD0EDBCFF8FF0800F550E66EA5EC0EF079
:101B9000E552D950FB0FE96EFF0EDA20EA6EEE2A0D
:101BA000000EEE22000EEE22D4D700D0E552E5CF93
:081BB000DAFFE7CFD9FF1200B4
:081BB80004500902F3CF00F014
:101BC000F4CF01F00A02F3500126000EF420026E59
:101BD00004500B02F3500226000EF420036E045052
:101BE0000C02F350032605500902F3500126F4506D
:101BF0000222000E032205500A02F3500226F4507E
:101C0000032205500B02F350032606500902F3503D
:101C10000226F450032206500A02F350032607500E
:081C20000902F3500326120033
:081C2800FE0EE3CFE9FFFF0E01
:101C3000E3CFEAFFF36AF46AEE5203E0F34AF42AD0
:101C4000FBD71200FF0EE3CFF8FFE552FF0EE3CF04
:101C5000F7FFE552FF0EE3CFF6FFE552E66AE66ACC
:101C6000E66A0900F55209E0FD0EE32A05E1FE0EE1
:101C7000E32A02E1FF0EE32AF4D7FD0EE3CF05F0DD
:0E1C8000FE0EE3CF06F0FF0EE3CF07F01200DA
:021C8E00D9CFAC
:101C9000E6FFDACFE6FFE1CFD9FFE2CFDAFF0F0EA2
:101CA00095160F0E8316FD0EDB508009F00B831284
:101CB0008C948C929FEC07F08C809FEC07F08C90BA
:101CC0000F0E8316FD0EDB38F00BF00B83129FEC2A
:101CD00007F08C809FEC07F08C90F00E951200D0EE
:0C1CE000E552E5CFDAFFE7CFD9FF120094
:041CEC00D9CFE6FF67
:101CF000DACFE6FFE1CFD9FFE2CFDAFF0F0E95167C
:101D00000F0E8316FD0EDB504009F00B83128C94EE
:101D10008C929FEC07F08C809FEC07F08C900F0E5C
:101D20008316FD0EDB38F00BF00B83129FEC07F0EF
:101D30008C809FEC07F08C90F00E951200D0E5524D
:0A1D4000E5CFDAFFE7CFD9FF12006C
:061D4A00D9CFE6FFDACF5D
:101D5000E6FFE1CFD9FFE2CFDAFF0F0E95160F0EA7
:101D60008316FD0EDB50F00B83128C828C949FEC5B
:101D700007F08C809FEC07F08C900F0E8316FD0E01
:101D8000DB38F00BF00B83129FEC07F08C809FEC9C
:101D900007F08C90F00E951200D0E552E5CFDAFFF7
:061DA000E7CFD9FF12009D
:0A1DA600D9CFE6FFDACFE6FFE1CF68
:101DB000D9FFE2CFDAFF0F0E95160F0E8316FD0E38
:101DC000DB50F00B83128C948C929FEC07F08C808C
:101DD0009FEC07F08C900F0E8316FD0EDB38F00B96
:101DE000F00B83129FEC07F08C809FEC07F08C9037
:101DF000F00E951200D0E552E5CFDAFFE7CFD9FF1C
:021E00001200CE
:0E1E0200D9CFE6FFDACFE6FFE1CFD9FFE2CF7E
:101E1000DAFFFC0EDBCFE9FFFD0EDBCFEAFFEF5070
:101E200016E0A4EC0FF0000901E0FBD7FC0EDBCFBD
:101E3000E9FFFD0EDBCFEAFFEF50E66EA5EC0EF0FA
:101E4000E552FC0EDB2AFD0E01E3DB2AE2D700D0CF
:0C1E5000E552E5CFDAFFE7CFD9FF120022
:041E5C00D9CFE6FFF5
:101E6000DACFE6FFE1CFD9FFE2CFDAFFE6528C848A
:101E70008C829FEC07F08C809FEC07F0F00E8314AF
:101E8000DF6E8C909FEC07F08C809FEC07F083381E
:101E90000F0B0F0BDF128C908C928C94DF5000D0C4
:0E1EA000E552E552E5CFDAFFE7CFD9FF120099
:021EAE00D9CF8A
:101EB000E6FFDACFE6FFE1CFD9FFE2CFDAFFE65265
:101EC0008C848C929FEC07F08C809FEC07F0F00ED6
:101ED0008314DF6E8C909FEC07F08C809FEC07F0F2
:101EE00083380F0B0F0BDF128C908C947F0EDF1456
:101EF00000D0E552E552E5CFDAFFE7CFD9FF120077
:101F0000036A026A016A006A200EE76ED8900436FE
:101F100005360636073600360136023603360950D6
:101F2000005C0A5001580B5002580C50035809E34A
:101F30000950005E0A50015A0B50025A0C50035AC5
:081F4000042AE72EE4D7120089
:081F48008C848C929FEC07F0E1
:101F50008C809FEC07F083AE0BD08C909FEC07F049
:101F60008C809FEC07F08C908C94010E0BD00AD0E3
:101F70008C909FEC07F08C809FEC07F08C908C94F9
:061F8000000E00D012006B
:0A1F8600FF0EE3501D6EEF0E01D0B8
:101F9000F30EE76EE72ECAEF0FF00C0E1C6EE76A29
:101FA000E72ED0EF0FF01C2ECFEF0FF01D2EC8EF55
:041FB0000FF012001C
:0C1FB40054656D70657261747572653A59
:101FC0000047524F555020443A204441454D4F4E12
:0A1FD000002533642E253034640030
:061FDA00F36AF46AFF0E39
:101FE000E124E96EFF0EE220EA6EED6607D02F0EC7
:0E1FF000EF6404D03A0EEF6001D0F32A120025
:021FFE00FF0ED4
:10200000E3501D6E480E01D04C0EE76EE72EFED752
:0E201000E76AE72EFED71D2EF7D7000012005C
:02201E00000EB2
:10202000F36E00EE00F0060E01D81200EA6002D056
:0E203000EE6AFCD7F350E9601200EE6AFCD7AE
:02203E0015EE9D
:1020400000F025EE00F0F86A0F9C10EC0DF00BECA0
:0A20500000F03FEC09F0FBD712008E
:06205A00FF0EE350ACBADA
:1020600004D0AF6AAB8EAC8A949CACA2FED7AD6EA6
:06207000F36EF46A120099
:0A207600FF0EE350E84E12000000D8
:0C20800000D000D000D0E82EFAD71200EB
:04208C00303132338A
:0D20900034353637383961626364656600A7
:03209D0000000040
:0120A000003F
:020000040030CA
:0100010022DC
:010003000EEE
:010006008178
:00000001FF
