:020000040000FA
:06000000DDEF02F012002A
:0A0006000100D8050000010400000D
:0400100014000000D8
:0C001400D9CFE6FFDACFE6FFE1CFD9FF3D
:10002000E2CFDAFF0F0E83160F0E95169594959278
:1000300095908C948C928C90E5EC00F0300EE66EEE
:10004000DAEC01F0E552050EE66EA6EC02F0E552A0
:10005000300EE66EDAEC01F0E552010EE66EA6EC2B
:1000600002F0E552320EE66EDAEC01F0E55287EC72
:1000700002F0000901E0FBD787EC02F0000901E083
:10008000FBD7FD0EDBCFE6FFDAEC01F0E55287ECA3
:1000900002F0000901E0FBD7080EE66EDAEC01F091
:1000A000E55287EC02F0000901E0FBD70F0EE66E87
:1000B000DAEC01F0E55287EC02F0000901E0FBD731
:1000C000010EE66EDAEC01F0E55287EC02F0000971
:1000D00001E0FBD7040EE66EDAEC01F0E55287ECA6
:1000E00002F0000901E0FBD7800EE66E4EEC01F055
:1000F000E55200D0E552E5CFDAFFE7CFD9FF120095
:10010000060EF66E000EF76E000EF86E0401090082
:10011000F5501A6F0900F5501B6F03E11A6701D003
:100120003DD00900F550156F0900F550166F090014
:10013000F550176F09000900F550E96E0900F550F8
:10014000EA6E090009000900F550186F0900F55022
:10015000196F09000900F6CF1CF4F7CF1DF4F8CF92
:100160001EF415C4F6FF16C4F7FF17C4F8FF040108
:10017000185302E1195307E00900F550EE6E180715
:10018000F8E21907F9D71CC4F6FF1DC4F7FF1EC417
:0E019000F8FF04011A07000E1B5BBFD7120018
:02019E0000005F
:1001A000000000000000000000000000000000004F
:1001B000000000000000000000001200050EE66EC6
:1001C000BDEC02F0E55200D012000F0EE66EBDEC61
:1001D00002F0E55200D01200F8DF87EC02F00009CF
:1001E00001E0FBD7280EE66E0AEC00F0E552EDDFE9
:1001F00087EC02F0000901E0FBD7E66A4EEC01F063
:10020000E5521200E9DFE1DF87EC02F0000901E0CE
:10021000FBD7010EE66E040EE66E08EC02F0E55226
:06022000E552FFD71200B9
:0A022600D9CFE6FFDACFE6FFE1CF03
:10023000D9FFE2CFDAFFFB0EDBCFF6FFFC0EDBCF00
:10024000F7FFFD0EDBCFF8FF0800F55020E087EC4C
:1002500002F0000901E0FBD7FB0EDBCFF6FFFC0E3E
:10026000DBCFF7FFFD0EDBCFF8FF0800F550E66EA1
:10027000ACEC01F0E552D950FB0FE96EFF0EDA202D
:10028000EA6EEE2A000EEE22000EEE22D4D700D047
:0C029000E552E5CFDAFFE7CFD9FF1200FE
:04029C00D9CFE6FFD1
:1002A000DACFE6FFE1CFD9FFE2CFDAFF0F0E9516E6
:1002B0000F0E8316FD0EDB508009F00B83128C9419
:1002C0008C92CFEC00F08C80CFEC00F08C900F0E75
:1002D0008316FD0EDB38F00BF00B8312CFEC00F031
:1002E0008C80CFEC00F08C90F00E951200D0E5528F
:0A02F000E5CFDAFFE7CFD9FF1200D7
:0602FA00D9CFE6FFDACFC8
:10030000E6FFE1CFD9FFE2CFDAFF0F0E95160F0E11
:100310008316FD0EDB504009F00B83128C948C92F7
:10032000CFEC00F08C80CFEC00F08C900F0E831699
:10033000FD0EDB38F00BF00B8312CFEC00F08C805D
:10034000CFEC00F08C90F00E951200D0E552E5CF86
:08035000DAFFE7CFD9FF12002C
:08035800D9CFE6FFDACFE6FF82
:10036000E1CFD9FFE2CFDAFF0F0E95160F0E8316FD
:10037000FD0EDB50F00B83128C828C94CFEC00F0DE
:100380008C80CFEC00F08C900F0E8316FD0EDB38C6
:10039000F00BF00B8312CFEC00F08C80CFEC00F070
:1003A0008C90F00E951200D0E552E5CFDAFFE7CF42
:0403B000D9FF12005F
:0C03B400D9CFE6FFDACFE6FFE1CFD9FF9A
:1003C000E2CFDAFF0F0E95160F0E8316FD0EDB50EF
:1003D000F00B83128C948C92CFEC00F08C80CFECDD
:1003E00000F08C900F0E8316FD0EDB38F00BF00B37
:1003F0008312CFEC00F08C80CFEC00F08C90F00EEC
:10040000951200D0E552E5CFDAFFE7CFD9FF120011
:10041000D9CFE6FFDACFE6FFE1CFD9FFE2CFDAFFAF
:10042000FC0EDBCFE9FFFD0EDBCFEAFFEF5016E05D
:1004300087EC02F0000901E0FBD7FC0EDBCFE9FFFF
:10044000FD0EDBCFEAFFEF50E66EACEC01F0E552BB
:10045000FC0EDB2AFD0E01E3DB2AE2D700D0E552D9
:0A046000E5CFDAFFE7CFD9FF120065
:06046A00D9CFE6FFDACF56
:10047000E6FFE1CFD9FFE2CFDAFFE6528C848C822F
:10048000CFEC00F08C80CFEC00F0F00E8314DF6E28
:100490008C90CFEC00F08C80CFEC00F083380F0B09
:1004A0000F0BDF128C908C928C94DF5000D0E552B1
:0C04B000E552E5CFDAFFE7CFD9FF1200DC
:0404BC00D9CFE6FFAF
:1004C000DACFE6FFE1CFD9FFE2CFDAFFE6528C8444
:1004D0008C92CFEC00F08C80CFEC00F0F00E831407
:1004E000DF6E8C90CFEC00F08C80CFEC00F0833886
:1004F0000F0B0F0BDF128C908C947F0EDF1400D04B
:0E050000E552E552E5CFDAFFE7CFD9FF120052
:02050E008C84DB
:100510008C92CFEC00F08C80CFEC00F083AE0BD04F
:100520008C90CFEC00F08C80CFEC00F08C908C9411
:10053000000E0BD00AD08C90CFEC00F08C80CFEC6A
:0C05400000F08C908C94000E00D0120093
:04054C00FF0EE3506B
:10055000036EEF0E01D0F30EE76EE72EADEF02F063
:100560000C0E026EE76AE72EB3EF02F0022EB2EF36
:0A05700002F0032EABEF02F01200C0
:06057A00FF0EE350036ECA
:10058000480E01D04C0EE76EE72EFED7E76AE72E45
:0A059000FED7032EF7D7000012007B
:06059A00000EF36E00EEFE
:1005A00000F0060E01D81200EA6002D0EE6AFCD715
:0A05B000F350E9601200EE6AFCD778
:0605BA0013EE81F023EEB8
:1005C00081F0F86A019C80EC00F0EBEC02F002ECA8
:0605D00001F0FBD7120050
:0205D600120011
:0805D80048656C6C6F20576F41
:0C05E000726C64000000000000000000CD
:020000040030CA
:0100010022DC
:010003000EEE
:010006008178
:00000001FF
