:020000040000FA
:06000000AAEF26F0120039
:020006001200E6
:06000800A6EF08F0120053
:02000E000100EF
:0C001000C84D0000C600000024000000E5
:04001C00D9CFE6FF53
:10002000DACFE6FFE1CFD9FFE2CFDAFFE652E652C0
:10003000DE6ADD6A948E8B9E949E300EE66EC6EC70
:1000400026F0E552948E0A0EE66EC6EC26F0E552D6
:100050008250800B800A01E0010E006E016A00BE32
:10006000016800C0DEFF01C0DDFFE552E552E55248
:10007000E5CFDAFFE7CFD9FF1200D9CFE6FFDACF1D
:10008000E6FFE1CFD9FFE2CFDAFFE652DF6ADFCF4A
:1000900000F0080EE76E0018E8AE02D0E73402D098
:1000A000E750005C22E28B9E949E010EE66EC6EC49
:1000B00026F0E552FD0EDB50010BE8B0948EE8A06F
:1000C000949E050EE66EC6EC26F0E552948E020E66
:1000D000E66EC6EC26F0E552FD0EDB407F0BE76EC8
:1000E000FD0EE7CFDBFFDF2AD2D7E552E552E5CFA1
:1000F000DAFFE7CFD9FF1200D9CFE6FFDACFE6FF6C
:10010000E1CFD9FFE2CFDAFFE652E652E652DE6AED
:10011000DD6A020EDB6A020EDBCF00F0080EE76E2E
:100120000018E8AE02D0E73402D0E750005C2EE2BF
:100130008B9E949E00000000948E00000000000042
:10014000000000000000000000008250800B01E071
:10015000010EF36E020EDB5004E0D890F336E80691
:10016000FCE1F350026E036ADE500210006EDD50B7
:100170000310016E00C0DEFF01C0DDFF050EE66E5C
:10018000C6EC26F0E552020EDB2AC5D7DECF00F022
:10019000DDCF01F000C0F3FF01C0F4FF00D0E55255
:1001A000E552E552E552E5CFDAFFE7CFD9FF12007D
:1001B000000000000000000000000000000000003F
:1001C00000000000000000000000000000D012004D
:1001D000050EE66E8AEC26F0E55200D012000F0EF6
:1001E000E66E8AEC26F0E55200D01200836A956A2A
:1001F000280EE66E47EC21F0E552C1EC25F000092F
:1002000001E0FBD7E66A7DEC23F0E552060EE66ED0
:1002100067EC24F0E552C1EC25F0000901E0FBD7C2
:100220000F0EE66E67EC24F0E552C1EC25F00009F4
:1002300001E0FBD700D01200970EE66EFCEC25F033
:10024000E552850EE66E80EC25F0E552850EE66EF1
:100250000AEC24F0E55212009494050EE66EE66A6C
:10026000DBEC23F0E552E552060EE66E18EC26F0C4
:10027000E552850EE66E33EC26F0E552900EE66E02
:100280008AEC26F0E552F5D71200D6DFF28AF29416
:10029000F1846A0EE66E670EE66EE0EC25F0E5523C
:1002A000E552949682860001C86BC96B120097DFF5
:1002B000C1EC25F0000901E0FBD7100EE66E7DECE5
:1002C00023F0E552C1EC25F0000901E0FBD7630EF5
:1002D000E66E4A0EE66EA4EC22F0E552E5521200FC
:1002E000010E0001C86FC96B8296F096DDEC26F016
:1002F000DEDF12000001C66BC76B0001C851C911D7
:1003000043E10001030E811901E182513DE1000149
:10031000C62B000EC723C1EC25F0000901E0FBD776
:10032000400EE66E7DEC23F0E552C1EC25F00009AD
:1003300001E0FBD76E0EE66E8AEC26F0E552C1ECCA
:1003400025F0000901E0FBD7C6C0E6FFC7C0E6FF05
:100350005B0EE66E4A0EE66E000EE66E830EE66EED
:10036000000EE66EBDEC21F0006E070EE15C02E2CD
:10037000E16AE552E16E0050830EE66E000EE66E15
:1003800095EC24F0E552E55212000001010EC81967
:1003900001E1C9515EE1C1EC25F0000901E0FBD7A4
:1003A000400EE66E7DEC23F0E552C1EC25F000092D
:1003B00001E0FBD76E0EE66E8AEC26F0E552C1EC4A
:1003C00025F0000901E0FBD7060E286E296AC6C099
:1003D0002DF0C7C02EF085EC16F026C0C6F027C061
:1003E000C7F0C6C0E6FFC7C0E6FF510EE66E4A0E74
:1003F000E66E000EE66E830EE66E000EE66EBDEC57
:1004000021F0006E070EE15C02E2E16AE552E16E66
:100410000050830EE66E000EE66E95EC24F0E55279
:10042000E5526E0EE66E8AEC26F0E552780E00017B
:10043000C7AF02D0D89003D0C65D000EC75908E2FE
:100440000001C73504E2C6512808000EC75501E374
:1004500003DF1200E3DD0C0EE66E0FDEE552E66A06
:100460000CDEE552DBDDAC0EE66E07DEE552D6DDD6
:100470001200D9CFE6FFDACFE6FFE1CFD9FFE2CF16
:10048000DAFF0A0EE12402E3E168E652E16EDE6A79
:10049000DD6A020EDB6A030EDB6A040EDB6A050E00
:1004A000DB6A080EDB6A090EDB6ADECF00F0DDCF07
:1004B00001F0D890015004E6960E005C000E015841
:1004C0002EE2EE0EE66ED9DDE552220EE66ED5DDA9
:1004D000E552A4DDAA0EE66ED0DDE5520DDE060E75
:1004E000F3CFDBFF070EF4CFDBFF98DD060EDBCF8B
:1004F00002F0070EDBCF03F0080EDB500224006E83
:10050000090EDB500320016E080E00C0DBFF090E50
:1005100001C0DBFFDF2A010E01E3DB2AC6D7080E8C
:10052000DBCF28F0090EDBCF29F0F5EC14F027C063
:1005300000F028C001F029C002F02AC003F02C6AA4
:100540002D6A160E2E6E430E2F6E00C027F001C0CE
:1005500028F002C029F003C02AF008EC15F0020EC2
:1005600027C0DBFF030E28C0DBFF040E29C0DBFF22
:10057000050E2AC0DBFF020EDBCF00F0030EDBCF3F
:1005800001F0040EDBCF02F0050EDBCF03F000C05C
:1005900026F001C027F002C028F003C029F000D0E7
:1005A0000A0EE15C02E2E16AE552E16EE552E5CF56
:1005B000DAFFE7CFD9FF1200D9CFE6FFDACFE6FFA7
:1005C000E1CFD9FFE2CFDAFF060EE12402E3E168D2
:1005D000E652E16EDE6ADD6AFA0EDBCF00F0FB0E5A
:1005E000DBCF01F00006000E015A020E00C0DBFF57
:1005F000030E01C0DBFFDECF00F0DDCF01F0020E05
:10060000DBCF02F0030EDBCF03F001500318E8AE9E
:1006100002D0033404D00250005C0350015851E270
:10062000FC0EDBCF02F0FD0EDBCF03F0DE50022428
:10063000E96EDD500320EA6EEFCF00F0016A00BEE4
:100640000168040E00C0DBFF050E01C0DBFF020ED7
:10065000DBCF02F0030EDBCF03F0FC0EDB500224F5
:10066000E96EFD0EDB500320EA6EEF50E66EFC0EE5
:10067000DBCF00F0FD0EDBCF01F0DE500024E96E91
:10068000DD500120EA6EE552E750EF6E020EDBCF3F
:1006900000F0030EDBCF01F0FC0EDB500024E96E0E
:1006A000FD0EDB500120EA6E040EDBCFEFFFDF2AE8
:1006B000010E01E3DB2A020EDB06030E01E2DB067C
:1006C0009AD7060EE15C02E2E16AE552E16EE5527C
:1006D000E5CFDAFFE7CFD9FF1200D9CFE6FFDACFB7
:1006E000E6FFE1CFD9FFE2CFDAFFD950FC0FE96E88
:1006F000FF0EDA20EA6EEE50ED103FE0FC0EDBCF8D
:1007000002F0FD0EDBCF03F00A0E2D6E2E6A02C042
:1007100028F003C029F05FEC16F024C002F025C0D9
:1007200003F0300E0226000E03220001E8C000F0A4
:10073000E9C001F0E82B000EE923FA0EDB5000249B
:10074000E96EFB0EDB500120EA6E02C0EFFF0A0EDD
:10075000006E016AFC0EDBCF28F0FD0EDBCF29F026
:1007600000C02DF001C02EF05FEC16F0FC0E28C08A
:10077000DBFFFD0E29C0DBFFB8D7F80EDBCF00F0A2
:10078000F90EDBCF01F00001E9510118E8AE02D00B
:10079000013404D00050E85D0150E95913E2000132
:1007A000E8C000F0E9C001F0E82B000EE923FA0EE2
:1007B000DB500024E96EFB0EDB500120EA6E300EA8
:1007C000EF6EDBD7E8C0E6FFE9C0E6FFFA0EDBCF4D
:1007D000E6FFFB0EDBCFE6FFEFDEE552E552E5522A
:1007E000E552FA0EDB500001E8250F01E96EFB0E21
:1007F000DB500001E9210F01EA6EEF6AE8C0F3FF68
:10080000E9C0F4FF00D0E552E5CFDAFFE7CFD9FF2A
:100810001200D9CFE6FFDACFE6FFE1CFD9FFE2CF72
:10082000DAFF080EE12402E3E168E652E16EFA0E17
:10083000DBCF27F0FB0EDBCF28F0FC0EDBCF29F05F
:10084000FD0EDBCF2AF0FBEC16F028C0DEFF29C03E
:10085000DDFFFA0EDBCF00F0FB0EDBCF01F0FC0E6C
:10086000DBCF02F0FD0EDBCF03F0000EDBCF28F074
:10087000010EDBCF29F0F5EC14F027C004F028C0FE
:1008800005F029C006F02AC007F004C02CF005C00E
:100890002DF006C02EF007C02FF000C027F001C0D9
:1008A00028F002C029F003C02AF0C8EC15F0020EAF
:1008B00027C0DBFF030E28C0DBFF040E29C0DBFFCF
:1008C000050E2AC0DBFF000EE66EE66AF80EDBCFEF
:1008D000E6FFF90EDBCFE6FFDECFE6FFDDCFE6FF7A
:1008E000FCDE006E060EE15C02E2E16AE552E16EBA
:1008F0000050060EF3CFDBFF070EF4CFDBFFD9501D
:10090000F60FE96EFF0EDA20EA6EEE50ED1001E10F
:10091000B9D0060EDBCF00F0070EDBCF01F0F80EEA
:10092000DB500024E96EF90EDB500120EA6E2E0E3A
:10093000EF6E020EDBCF00F0030EDBCF01F0040EF2
:10094000DBCF02F0050EDBCF03F000C0E6FF01C0F5
:10095000E6FF02C0E6FF03C0E6FFF60EDBCF28F09D
:10096000F70EDBCF29F0F5EC14F027C008F028C013
:1009700009F029C00AF02AC00BF008C0E6FF09C040
:10098000E6FF0AC0E6FF0BC0E6FFE66AE66A200E55
:10099000E66E410EE66E64EC0FF00C6E080EE15C44
:1009A00002E2E16AE552E16E0C50E552E7CF03F056
:1009B000E552E7CF02F0E552E7CF01F0E552E7CF8D
:1009C00000F026C004F027C005F028C006F029C0BA
:1009D00007F004C02CF005C02DF006C02EF007C0B3
:1009E0002FF000C027F001C028F002C029F003C09A
:1009F0002AF05BEC15F0020E27C0DBFF030E28C0C7
:100A0000DBFF040E29C0DBFF050E2AC0DBFFF60E5C
:100A1000DBCFE6FFF70EDBCFE6FF060EDBCF02F003
:100A2000070EDBCF03F0F80EDB500224006EF90E48
:100A3000DB500320016E010E0026000E012200C0D3
:100A4000E6FF01C0E6FF020EDBCF27F0030EDBCF8F
:100A500028F0040EDBCF29F0050EDBCF2AF0FBECEB
:100A600016F028C004F029C005F004C0E6FF05C058
:100A7000E6FF33DE066E060EE15C02E2E16AE55255
:100A8000E16E0650080EE15C02E2E16AE552E16EB9
:100A9000E552E5CFDAFFE7CFD9FF1200EFEC00F027
:100AA000C1EC25F0000901E0FBD7500EE66E7DECAD
:100AB00023F0E552C1EC25F0000901E0FBD7AB0EB5
:100AC000E66E000EE66E480EE66E4A0EE66E000E0C
:100AD000E66E970EE66E000EE66EBDEC21F0006E3F
:100AE000070EE15C02E2E16AE552E16E0050970E0A
:100AF000E66E000EE66E95EC24F0E552E55212002B
:100B00000001CE51CF1112E10001D851D91107E1F6
:100B10005DEC25F0F3CFCAF0F4CFCBF006D05DEC5E
:100B200025F0F3CFCCF0F4CFCDF010D00001010EC2
:100B3000CE1901E1CF510AE10001D851D91106E1E6
:100B40005DEC25F0F3CFCCF0F4CFCDF00001CE2B4F
:100B5000000ECF230001010ED880CE55000ECF55D8
:100B600007E30001010ED81901E1D95101E0D2D00B
:100B7000010E0001D86FD96BD2C006F0D3C007F0C8
:100B8000086A2C682D682E6A06C027F007C028F076
:100B900008C029F0B2EC16F024C006F025C007F01A
:100BA00026C008F0CCC009F0CDC00AF00B6A065090
:100BB0000924036E07500A20046E08500B20056EAE
:100BC000CAC00CF0CBC00DF00E6A0C50035C006E76
:100BD0000D500458016E0E500558026E00C0D0F042
:100BE00001C0D1F00001DC2B000EDD23CCC0D6F01B
:100BF000CDC0D7F0D6C0CAF0D7C0CBF0D0C028F057
:100C0000D1C029F0F3EC14F027C000F028C001F0A7
:100C100029C002F02AC003F02C6A2D6A7A0E2E6ECB
:100C2000440E2F6E00C027F001C028F002C029F04A
:100C300003C02AF008EC15F027C0E4F028C0E5F066
:100C400029C0E6F02AC0E7F02C6A2D6A480E2E6E05
:100C5000420E2F6EE4C027F0E5C028F0E6C029F070
:100C6000E7C02AF02AEC17F0010A04E10001DE2BAC
:100C7000000EDF230001CE6BCF6B00010A0ED8807F
:100C8000DC55000EDD5546E2DEC028F0DFC029F05D
:100C9000F3EC14F027C000F028C001F029C002F0E6
:100CA0002AC003F02C6A2D6A200E2E6E410E2F6E84
:100CB00000C027F001C028F002C029F003C02AF0CC
:100CC00008EC15F027C0E0F028C0E1F029C0E2F000
:100CD0002AC0E3F02C6A2D6AC80E2E6E420E2F6ECB
:100CE000E0C027F0E1C028F0E2C029F0E3C02AF01C
:100CF0005BEC15F027C0E0F028C0E1F029C0E2F07D
:100D00002AC0E3F0010E0001DA6FDB6BE0EC26F0A5
:100D1000DAEC26F01200D9CFE6FFDACFE6FFE1CF1A
:100D2000D9FFE2CFDAFFE652E652DE6ADD6AE0C0C2
:100D300027F0E1C028F0E2C029F0E3C02AF0FBEC84
:100D400016F028C0DEFF29C0DDFF2C6A2D6A480E90
:100D50002E6E420E2F6EE0C027F0E1C028F0E2C0F8
:100D600029F0E3C02AF033EC17F0010A02E02CEC82
:100D700001F0EFEC00F0C1EC25F0000901E0FBD739
:100D8000DECFE6FFDDCFE6FF3F0EE66E4A0EE66EF3
:100D9000000EE66EB20EE66E000EE66EBDEC21F0C1
:100DA000006E070EE15C02E2E16AE552E16E00507E
:100DB000C1EC25F0000901E0FBD7100EE66E7DECDA
:100DC00023F0E552C1EC25F0000901E0FBD7B20E9B
:100DD000E66E000EE66E95EC24F0E552E552000159
:100DE000DC6BDD6B0001DE6BDF6BE552E552E5523B
:100DF000E5CFDAFFE7CFD9FF12008350080B01E0FF
:100E0000010E080DF3CF02F08250100B01E0010E2D
:100E1000040DF3CF01F08250200B01E0010EE82415
:100E2000006E8250400B01E0010E002401240224D8
:100E30000001816F826B0F0E0001811901E1825167
:100E400001E120D10E0E0001811901E1825101E181
:100E500018D10D0E0001811901E1825101E103D188
:100E60000C0E0001811901E1825101E1F1D00B0E5C
:100E70000001811901E1825101E1DFD00A0E000178
:100E8000811901E1825101E1CAD0090E00018119E5
:100E900001E1825101E1B5D0080E0001811901E1A3
:100EA000825101E1A0D0070E0001811901E18251B8
:100EB00001E18ED0060E0001811901E1825101E1AC
:100EC00079D0050E0001811901E1825165E0040E1F
:100ED0000001811901E1825151E0030E00018119E5
:100EE00001E182513CE0020E0001811901E18251D1
:100EF00028E0010E0001811901E1825114E0000196
:100F0000815101E1825101E0CBD0C1EC25F0000913
:100F100001E0FBD7010EE66E67EC24F0E55200011C
:100F2000310E806FCBD0C1EC25F0000901E0FBD77A
:100F3000010EE66E67EC24F0E5520001320E806F80
:100F4000BDD0C1EC25F0000901E0FBD7010EE66E33
:100F500067EC24F0E5520001330E806FAFD0C1EC96
:100F600025F0000901E0FBD7010EE66E67EC24F0E6
:100F7000E5529382948245EC01F0A0D0C1EC25F0BB
:100F8000000901E0FBD7010EE66E67EC24F0E552A4
:100F90000001340E806F92D0C1EC25F0000901E011
:100FA000FBD7010EE66E67EC24F0E5520001350E2A
:100FB000806F84D0C1EC25F0000901E0FBD7010E61
:100FC000E66E67EC24F0E5520001360E806F76D0B5
:100FD0000001010EDA1901E1DB5101E19CDE5EDD69
:100FE000C5EC01F06BD0C1EC25F0000901E0FBD7A6
:100FF000010EE66E67EC24F0E5520001370E806FBB
:101000005DD0C1EC25F0000901E0FBD7010EE66ED2
:1010100067EC24F0E5520001380E806F4FD0C1EC30
:1010200025F0000901E0FBD7010EE66E67EC24F025
:10103000E5520001390E806F41D0C1EC25F0000966
:1010400001E0FBD7010EE66E67EC24F0E55236D0E6
:10105000C1EC25F0000901E0FBD7010EE66E67EC5C
:1010600024F0E5522BD0C1EC25F0000901E0FBD7BC
:10107000010EE66E67EC24F0E5520001300E806F41
:101080001DD01CD0C1EC25F0000901E0FBD7010EFA
:10109000E66E67EC24F0E5520001440E806F0ED03E
:1010A000C1EC25F0000901E0FBD7010EE66E67EC0C
:1010B00024F0E55200013F0E806F00D0EFEC00F00D
:1010C000C1EC25F0000901E0FBD7E66A7DEC23F0D6
:1010D000E552C1EC25F0000901E0FBD780C0E6FF36
:1010E00039EC24F0E5521200EFEC00F0C1EC25F0F1
:1010F000000901E0FBD7E66A7DEC23F0E552C1EC84
:1011000025F0000901E0FBD7330EE66E4A0EE66ECD
:10111000A4EC22F0E552E5521200EFEC00F0C1EC35
:1011200025F0000901E0FBD7E66A7DEC23F0E552EB
:10113000C1EC25F0000901E0FBD7280EE66E4A0E4F
:10114000E66EA4EC22F0E552E5521200E9CFE4FF8E
:10115000EACFE4FFF6CFE4FFF7CFE4FFF8CFE4FFF8
:10116000F5CFE4FFF3CFE4FFF4CFE4FFFACFE4FFE1
:10117000FBCFE4FF00EE20F0140EE80403E3EECF13
:10118000E4FFFBD700EE00F0200EE80403E3EECF0F
:10119000E4FFFBD7E652F29EF0A204D0F0982DDED9
:1011A000F092F088F0A005D0F0967AEC01F0F09083
:1011B000F086F2A409D0F29A70EC01F0F250040B20
:1011C00002E0000E01D0010E9EA005D09E9000010D
:1011D000D22B000ED323A1A002D092DCA190F28EDC
:1011E00000D0E55200EE1FF0200EE80403E3E5CF47
:1011F000EDFFFBD700EE33F0140EE80403E3E5CF78
:10120000EDFFFBD7E5CFFBFFE5CFFAFFE5CFF4FF1E
:10121000E5CFF3FFE5CFF5FFE5CFF8FFE5CFF7FF2B
:10122000E5CFF6FFE5CFEAFFE5CFE9FF1100F6ECE9
:1012300000F0F184F188F19AF088F08EF08CF0865D
:10124000D08EF28EA190A2809F809D809E909384EC
:10125000948C948A948895862AEC02F039EC02F0FA
:1012600026C0AEF027C0AFF028C0B0F029C0B1F062
:10127000010EE66EE66AAB0EE66E000EE66EAEC0DE
:10128000E6FFAFC0E6FFB0C0E6FFB1C0E6FF09EC85
:1012900004F0006E080EE15C02E2E16AE552E16EE4
:0612A0000050DCD7120033
:0A12A6008FEC0EF0FB0EDBCFF3FF20
:1012B000DB06F35000090AE0DDEC0EF0FA0E48EC14
:1012C0000FF0F3E1011CF1E1010E01D0000EBEEFC1
:1012D0000EF08FEC0EF03B0EE12402E3E168E652E3
:1012E000E16E010EDB6A020EDB6AF90EDBCFF6FF60
:1012F000FA0EDBCFF7FFFB0EDBCFF8FF0800F5504F
:10130000DF6EDF5002E1E2EF0DF0250EDF5C02E060
:10131000D5EF0DF0030EDB6A040EDB6A050EDB6A07
:10132000060EDB6A070EDB6AF7EC0DF02D0EDF5CB4
:101330000CE02B0EDF5C09E0200EDF5C06E0230EE4
:10134000DF5C03E0300EDF5C1AE1DF50300A14E0AE
:10135000130A0FE0030A0AE00B0A05E0060AE4E1BB
:10136000030EDB80E1D7030EDB82DED7030EDB84C6
:10137000DBD7030EDB86D8D7030EDB88D5D72A0E42
:10138000DF5C1BE1F3EC0DF041EC0EF010E0030E1E
:10139000DB8028682968130EDBCF2DF0140EDBCF1D
:1013A0002EF085EC16F0040E26C0DBFF03D0130EE2
:1013B0002AEC0EF0F7EC0DF00BD0090EDB6A98EC7E
:1013C0000EF003E00CEC0FF0FAD7090E2AEC0EF049
:1013D000030EDBB0DB982E0EDF5C1BE1F7EC0DF0AB
:1013E0002A0EDF5C0BE1F3EC0DF041EC0EF003E1B3
:1013F000130E7CEC0EF0F7EC0DF00BD0090EDB6A4F
:1014000098EC0EF003E00CEC0FF0FAD7090E7CEC30
:101410000EF0680EDF5C07E1F7EC0DF0680EDF5CA4
:101420001DE1030E18D0740EDF5C17E07A0EDF5C4E
:1014300014E0480EDF5C06E0540EDF5C03E05A0E59
:10144000DF5C02E1020E07D06C0EDF5C03E06A0E87
:10145000DF5C04E1010ECFEC0EF0C9DBDF506E0A59
:1014600001E17FD31E0A01E192D1200A01E18FD16F
:101470003F0A01E149D11A0A01E146D10D0A01E111
:1014800043D1200A01E140D13A0A01E13DD1200ACD
:1014900001E13AD1260A01E135D10D0A01E132D14B
:1014A0001A0A01E1D9D0200A4AE0300A1FE0460AB0
:1014B0000EE0250A01E083D3D950F90FE96EFF0E43
:1014C000DA20EA6E010EEE5E000EEE5AEE5ADDEC08
:1014D0000EF0250EE66E95DB03E1011C01E169D3F8
:1014E000D9EC0EF001E26BD3DB2A69D3080EDB6A7C
:1014F000040EDB50010806E2040EDB04A1EC0EF042
:10150000DB508BDB080EDB5009E0030EDB50010BD8
:1015100005E172DB01E04DD3080EDB6A64DBEFCF3F
:10152000DFFF51EC0FF003E1011C01E142D3D9ECE4
:101530000EF001E3DB2A60DB01E141D33AD3070E71
:10154000DB5002080FE11DEC0FF0030EE4EC0EF08F
:101550000E0EEECFDBFF0F0EEECFDBFF100EEECF49
:10156000DBFF20D0F70EDBCF03F0F80EDBCF04F06B
:10157000020E035E000E045AF70E03C0DBFFF80EE6
:1015800004C0DBFF03C0E9FF04C0EAFFD4EC0EF0A7
:10159000026A0E0E00C0DBFF0F0E01C0DBFF100E53
:1015A00002C0DBFF0E0EDBCFE6FF0F0EDBCFE6FF48
:1015B000100EDBCFE6FF25EC23F0E552E552E552B5
:1015C000130E27C0DBFF140E28C0DBFF060EDB5016
:1015D00005E0130E18EC0FF001E26ADB3CEC0FF0B3
:1015E00002E2130E37DBFFEC0EF006E0040E18ECFF
:1015F0000FF002E2050E2EDB030EDBB005D0FCDAA5
:1016000001E0D7D2080EDB6A090EDB6A0E0EDBCFD3
:10161000F6FF0F0EDBCFF7FF100EDBCFF8FF080051
:10162000F550DF6EDF5014E042EC0FF011E251ECA8
:101630000FF003E1011C01E1BCD2BBDB01E3DB2ABB
:10164000090EDB2AD9500E0FE96E000ECBDBE7D76F
:10165000D3DA01E1B4D2ADD2C6DA110EEECFDBFFA0
:10166000120EEDCFDBFF110EDBCFE6FF120EDBCF4C
:10167000E6FF17EC23F0E552E552130EF3CFDBFF44
:10168000140EF4CFDBFF060EDB5004E0130ED0DBAC
:1016900001E20EDB3CEC0FF002E2130EDBDAAFDB13
:1016A00005E0040EC5DB02E2050ED4DA030EDBB062
:1016B00005D0A2DA01E07DD2080EDB6A090EDB6AF2
:1016C000110EDBCFE9FF120EDBCFEAFFEFCFDFFF1A
:1016D000DF5014E0D7DB12E2E4DB03E1011C01E19F
:1016E00068D267DB01E3DB2A090EDB2A110EDB2A55
:1016F000DBCFE9FF120EE8E3DB2AE6D77DDA01E172
:101700005ED257D2030EDB8E070EDB0410E195DBB1
:10171000040E5ADB0A0EEECFDBFF0B0EEECFDBFF23
:101720000C0EEECFDBFF0D0EEECFDBFF6CD0070E05
:10173000DB5003082CE1030EDBAE0DD0B2DA020E53
:1017400076DAEFCF00F0016A026A036A00AE39D0A0
:101750000168026835D0F70EDBCF01F0F80EDBCF61
:1017600002F0020E015E000E025AF70E01C0DBFF0E
:10177000F80E02C0DBFF01C0E9FF02C0EAFFEFCFB5
:1017800000F00A0E00C0DBFF0B0EDB6A38D0070E3C
:10179000DB50020809E1030EDBAE04D059DB02AED8
:1017A00010D00ED055DB0DD0030EDBAE12D079DA9F
:1017B000020E3DDAF9DA026A036A01AE02D002686B
:1017C0000368E2DA0C0E02C0DBFF0D0E03C0DBFF84
:1017D0001AD0F70EDBCF02F0F80EDBCF03F0020ECB
:1017E000025E000E035AF70E02C0DBFFF80E03C0C4
:1017F000DBFF02C0E9FF03C0EAFFD6DAC5DA0C0E50
:10180000DB6A0D0EDB6A060EDB5005E1010EF36E9E
:10181000050EF3CFDBFF150EDB6A160EDB6AD9501F
:10182000370F006E000EDA20016E390E00C0DBFFAC
:101830003A0E01C0DBFF380EDB6A080EDB6A0A0EC7
:10184000AEDADF50780A12E0200A10E0280A0CE035
:10185000200A0AE03F0A06E00D0A02E0200A08E139
:10186000020E05D0080E03D0080EDF26100E97DA00
:10187000030EDBBE02D0DB92DB94DB50800B24E056
:101880008ADAD890030EEB50000A08E6000EEE5CF0
:10189000000EEE58000EEE58000EEE5815E213DA68
:1018A0002B682C682D682E68DFEC22F00A0E22C00F
:1018B000DBFF0B0E23C0DBFF0C0E24C0DBFF0D0E85
:1018C00025C0DBFF2D0E08D0030EDBA202D02B0EAD
:1018D00003D0DBA408D0200EF36E170EF3CFDBFF8E
:1018E000150EDB2A02D0170EDB6A050EDB5003E172
:1018F000B7D901E189D0A20E006E4D0E016E000E27
:10190000026E070EDBCF03F0046A056A066A03C0A5
:101910002BF004C02CF005C02DF006C02EF0D3D95A
:1019200039EC25F000502224F36E01502320F46E90
:1019300002502420F86EF4CFF7FFF3CFF6FF080033
:10194000090EF5CFDBFF580EDF5C0FE1610EF36E81
:10195000090E7BD90AE3200E006E090EDBCFE7FFEC
:101960000050E75E090EE7CFDBFF070EDBCF00F08C
:10197000016A026A036A0FDA00C02BF001C02CF082
:1019800002C02DF003C02EF0EECF26F0EECF27F0F0
:10199000EECF28F0EFCF29F039EC25F029C0EDFF8C
:1019A00028C0EDFF27C0EDFF26C0EFFF390EDBCFCB
:1019B000E9FFDB063A0EDBCFEAFF01E2DB06090EA8
:1019C000DBCFEFFF150EDB2A4BD995E1030EDBA62B
:1019D0001DD06F0EDF5C06E1C1D918E3150EDB28C0
:1019E0005BDA14D0780EDF5C09E0580EDF5C06E0AD
:1019F000620EDF5C03E0420EDF5C08E1020EF36E74
:101A0000160EF3CFDBFF02D0150EDB6A030EDB50A0
:101A1000100B0EE0040EDBCF00F0050EDB50D8807B
:101A2000005406E2060EDB5003E1040EDB5034DA0C
:101A300095D90AE2050EDBCFE7FF150EDB50E75E16
:101A4000050EE7CFDBFF02D0050EDB6A040EDBCF0D
:101A500000F0160E45D9D880005414E2160EDBCFE4
:101A6000E6FF150EDBCFE6FF040EDBCFE6FF050E2B
:101A7000DB50E552E75CE552D880E754E552D88068
:101A8000E7545FD9030EDB50010B0BE1080EDB506E
:101A900008E0B2D801E08DD0080EDB50BED8080EA9
:101AA000DB6A170EDB5007E088D9170EF1D903E186
:101AB000011C01E17ED0160EDB5016E07ED9300EFF
:101AC000E66E9FD802E1011C74E077D9DFCFE6FF14
:101AD00062EC22F0E552E552E552F4CF01F000014C
:101AE000F31C02E1011C65E0050EDBCF00F0160ED1
:101AF000DB50D880005409E2050EDBCFE7FF160E5D
:101B0000DB50E75E050EE7CFDBFF300EE66E050E1D
:101B1000CBD94FE1390EDB2ADBCFE9FF3A0E01E3E7
:101B2000DB2ADBCFEAFF090EEFCFDBFFDB500EE055
:101B300044D9090EADD902E1011C3BE0390EDB2A84
:101B4000DBCFE9FF3A0EEDE3DB2AEBD755D831E1E5
:101B5000160EDBCFE6FF080EC3D8E552E7245DD8AA
:101B60002ED0070EDB50030A1CE0010A14E0030A22
:101B700007E07BD9DBCFEEFF020EDBCFEDFF1FD0FE
:101B8000F5D8056A03AE02D0046805682CD8BCD825
:101B900005C0EEFF14D0EAD803BE046824D8B4D838
:101BA0000ED063D9DBCFEFFF0AD07BD905E1011C52
:101BB00003E1F368F46810D0FCD801E3DB2A79D99B
:101BC0007EEF09F0010EDBCF00F0020EDBCF01F05B
:101BD00000C0F3FF01C0F4FF3B0EE15C02E2E16AEA
:101BE000E552E16ECBD029D9020EE4EF0EF061D9B7
:101BF0000800F550DF6E1200200EE66E080E54EF5E
:101C00000FF062EC22F0E552E552E552F3CF00F01E
:101C1000F4CF01F00001F31C1200006E016AD950EC
:101C2000010F4DD90050EE260150ED221200045E46
:101C3000000E055AF70E04C0DBFFF80E05C0DBFFEF
:101C400004C0E9FF05C0EAFF1200DBCFF4FFF35048
:101C5000F45C1200DB50E76E040EE7CFDBFF1200EE
:101C60000A0EDBCF00F00B0EDBCF01F00C0EDBCF4A
:101C700002F00D0EDBCF03F0005001100210031034
:101C80001200130EEECFDBFF140EEDCFDBFF130EB1
:101C9000DBCF00F0140EDBCF01F00001800E011449
:101CA0001200F70EDBCF04F0F80EDBCF05F01200C8
:101CB000050EDB50E66ED950130F01D9E552E750FF
:101CC000EE6EED6A12000A0EDBCF26F00B0EDBCFB4
:101CD00027F00C0EDBCF28F00D0EDBCF29F0120021
:101CE000DBCFE6FF150EDBCFE6FF050EDB50E5523E
:101CF000E724E552E7241200DB50CED8010EF36E44
:101D0000060EF3CFDBFF1200EE50EFCFEAFFE96ED5
:101D100002C0EEFF03C0EEFF04C0EEFF1200D9CFF9
:101D2000E6FFDACFE6FFE1CFD9FFE2CFDAFF12001C
:101D3000DFCFE6FFE66A78EC26F0E552E552F35095
:101D40001200E76E080EE7CFDBFF1200EECF00F0C7
:101D5000EECF01F0EFCF02F0036A1200050EDBCFE9
:101D600000F0150EDB50D88000541200010EDBCFBE
:101D700002F0020EDBCF03F0046A1200E552E5CF59
:101D8000DAFFE7CFD9FF12000A0E00C0DBFF0B0E0F
:101D900001C0DBFF1200D9500A0F5FEF0FF0F36EA6
:101DA000070EF3CFDBFF1200EECF00F0EFCF01F014
:101DB0001200010EDB2A020E1200FC0EDBCFE6FF42
:101DC000FD0EDBCFE6FF1200005E000E015AF70E9B
:101DD00000C0DBFFF80E01C0DBFF00C0E9FF01C05F
:101DE000EAFF1200DA20EA6EEF2AEECFF6FF000ECD
:101DF000EF22EECFF7FFEF22EECFF8FF1200040E36
:101E0000DBCFE6FF130EDB50E552E75C9ADFDB50D9
:101E100004DF060EDB501200090EDB500A0DF350F2
:101E2000DF24D00FE76E090EE7CFDBFFF7EF0DF0F1
:101E3000DB50F36E050E25EF0EF0F70EDBCF00F052
:101E4000F80EDBCF01F01200DFCFE6FF01EF0EF05E
:101E500028DF030EECDEA6EF0EF053EC09F0E5529E
:101E6000E552E552E55200091200BDDEEE50EFCF1B
:101E7000EAFFE96E010E1200130EDB50F36E040E42
:101E800025EF0EF0040EDB50F36E090E25EF0EF079
:101E9000DBCFE6FF01EF0EF0E76E050EE7CFDBFFCD
:101EA00012008BDF24EF0FF0DBCFE6FF86DF2DEF94
:101EB0000FF0D950F90FE96EFF0EF2EF0EF0E96E58
:081EC000000EDA20EA6E1200A8
:081EC800D9CFE6FFDACFE6FFF7
:101ED000E1CFD9FFE2CFDAFF4B0EE12402E3E16864
:101EE000E652E16E00EC14F0D950060F25EC14F028
:101EF000A7EC14F076EC14F002E2E16AE552E16E30
:101F00000050DF6ED9500D0F25EC14F0DEEC14F00C
:101F100076EC14F002E2E16AE552E16E0050E76E01
:101F2000010EE7CFDBFFF0EC14F0D9EC13F0DAECA4
:101F300014F0000EE66EE66AADEC14F002E2E16A1F
:101F4000E552E16E0050190EDB5003E01A0EDB6A19
:101F500016D0DAEC14F0010EE66EE66AADEC14F081
:101F600002E2E16AE552E16E0050190EDB5002E137
:101F7000030E01D0050EF36E1A0EF3CFDBFF010E38
:101F8000DB0455E0FA0EDBCF00F0FB0EDBCF01F0F7
:101F9000FC0EDBCF02F0FD0EDBCF03F0B4EC14F04F
:101FA00046E0800EDF5C04E0010EDB50800804E1B7
:101FB0008AEC14F07F0E5BD0DF040CE1130EDB50D3
:101FC0000FE0EDDB7F0E91EC14F0210E0001F46FB9
:101FD000F56B0DD0040EDF5C22E1130EDB5003E045
:101FE00055EC14F004D0DBDB7F0E91EC14F01A0EEC
:101FF000DBA469D30C0EDB5001E165D32AEC14F0AD
:10200000CAEC14F0020E27C0DBFF030E28C0DBFF72
:10201000040E29C0DBFF050E2AC0DBFF54D3010EDE
:10202000DB50040816E173DBB4EC14F003E1B7DB1A
:102030003F0E1DD0130EDB5004E0BAEC14F004E1A7
:1020400006D0BAEC14F003E155EC14F03CD3A7DB56
:102050000DD00C0EDB500EE01A0EDB50010B0AE126
:10206000210E0001F46FF56B8AEC14F07F0E91ECF9
:1020700014F029D3ABDBB4EC14F002E1C1DB23D3C1
:10208000D9501B0FE2DBA7EC14F09AEC1FF0006EA6
:10209000060EE15C02E2E16AE552E16E005089DB86
:1020A0000C0EDB5003E1180EDB6A16D030DBCAECF5
:1020B00014F0140E27C0DBFF150E28C0DBFF160E30
:1020C00029C0DBFF170E2AC0DBFF1A0EDB50040B02
:1020D000E76E180EE7CFDBFF1ADBF30E2C6E040E53
:1020E0002D6E350E2E6E3F0E2F6E0DDB33EC17F07E
:1020F000010A17E1010EE66EE66AD950140FC1EC31
:1021000014F0FEEC1EF0006E060EE15C02E2E16AE5
:10211000E552E16E00504DDB1B0EDB061C0E01E2AA
:10212000DB06F60EDBCF27F0F70EDBCF28F0F80E3C
:10213000DBCF29F0F90EDBCF2AF017EC18F01D0EDB
:1021400026C0DBFF1E0E27C0DBFF1F0E28C0DBFFF3
:10215000200E29C0DBFF1B0EDBCF28F01C0EE6DBB8
:10216000250E27C0DBFF260E28C0DBFF270E29C067
:10217000DBFF280E2AC0DBFF36DBF60EDBCF2CF0B0
:10218000F70EDBCF2DF0F80EDBCF2EF0F90ED2DB01
:1021900017EC18F0210E26C0DBFF220E27C0DBFF54
:1021A000230E28C0DBFF240E29C0DBFFD950210FEE
:1021B00085DB08E6010EEE5C800EEE58FF0EEE5851
:1021C000FF0EEE581AE3210EDBCF27F0220EDBCFF5
:1021D00028F0230EDBCF29F0240EDBCF2AF02A349F
:1021E000000E2A1809E6D880FF0E27547F0E2854C7
:1021F000000E2954000E2A5402E266DBEED1D950BB
:102200001D0F5CDB08E6800EEE5CFF0EEE58FF0E45
:10221000EE58FF0EEE580CE275DB03E0800E006E08
:1022200005D0D9501B0F3DDB1FE1006A016A29D0A0
:102230001D0EDBCF27F01E0EDBCF28F01F0EDBCFED
:1022400029F0200EDBCF2AF02A34000E2A1809E6E6
:10225000D880800E2754000E2854000E2954000EFA
:102260002A5422E24FDB04E0800E006E016809D0A0
:10227000D9501B0F16DB02E1006A02D0800E006EFF
:10228000016A390E00C0DBFF3A0E01C0DBFF370EDA
:10229000DB6A380EDB6A2D0EDB6A2E0EDB6A2F0E30
:1022A000DB6A300EDB6ACFD01D0EDBCF28F01E0EAE
:1022B000DBCF29F0370E28C0DBFF380E29C0DBFF4B
:1022C000210EDBCF28F0220EDBCF29F0390E28C0FB
:1022D000DBFF3A0E29C0DBFF110EDBCF00F0120E40
:1022E000DBCF01F07F0E005E000E015A080E005E8B
:1022F000000E015A350E00C0DBFF360E01C0DBFFB9
:1023000059DB350EDBCFE6FF360EDBCFE6FF25DBF4
:1023100002E2E16AE552E16E0050470E26C0DBFFA3
:10232000480E27C0DBFF490E28C0DBFF4A0E29C03C
:10233000DBFF4CDA470EDBCF04F0480EDBCF05F0B5
:10234000490EDBCF06F04A0EDBCF07F004C02CF0BD
:1023500005C02DF006C02EF007C02FF0D4D9C8EC70
:1023600015F0430E27C0DBFF440E28C0DBFF450EEF
:1023700029C0DBFF460E2AC0DBFF35DA470EDBCF74
:102380002CF0480EDBCF2DF0490EDBCF2EF04A0E9D
:10239000D1DAA3DA390EDBCF28F03A0EC7DA27C03C
:1023A00008F028C009F029C00AF02AC00BF03BDA77
:1023B000D7DAC8EC15F0C2DA16DA430EDBCF2CF010
:1023C000440EDBCF2DF0450EDBCF2EF0460EB2DAF9
:1023D00027C00CF028C00DF029C00EF02AC00FF065
:1023E00022DA91D9C9EC15F03F0E27C0DBFF400E71
:1023F00028C0DBFF410E29C0DBFF420E2AC0DBFFF5
:102400003F0EDBCF00F0400EDBCF01F0410EDBCF03
:1024100002F0420EDBCF03F0180E2C6E720E2D6E02
:10242000310E2E6E3F0E2F6E6ED95BEC15F02D0E19
:1024300027C0DBFF2E0E28C0DBFF2F0E29C0DBFFDD
:10244000300E2AC0DBFFC2D9370EDBCF28F0380EA2
:102450006DDA43DAE8D957D9C8EC15F03B0E27C03E
:10246000DBFF3C0E28C0DBFF3D0E29C0DBFF3E0E2C
:102470002AC0DBFF3B0EDBCF04F03C0EDBCF05F0C8
:102480003D0EDBCF06F03E0EF2D9140F7ADA38ECAF
:102490001BF04AD9D9502D0F69D9C9EC15F0CCD908
:1024A000370EDBCF00F0380EDBCF01F00001800EDD
:1024B000011410E028682968370EDBCF2DF0380EA4
:1024C000DBCF2EF085EC16F0370E26C0DBFF380E82
:1024D00027C0DBFF290EDB6A2A0EDB6A800EF36E53
:1024E0002B0EF3CFDBFF3F0EF36E2C0EF3CFDBFF93
:1024F000D950370FD6D919E0370EDB50010B04E065
:1025000006D9D950290F4ADAD950370F3EDA010ED1
:102510000F0B06E0EC52D890ED32EF32E806FAE10C
:10252000F6D8D950140F3ADAE3D7130EDB5021E076
:10253000276A286A800E296E3F0E2A6E290EDBCF8D
:102540002CF02A0EDBCF2DF02B0EDBCF2EF02C0E35
:10255000DBCF2FF008EC15F0F1D9290E27C0DBFFF7
:102560002A0E28C0DBFF2B0E29C0DBFF2C0E2AC051
:10257000DBFF390EDBCFE6FF3A0EDBCFE6FF290E9D
:10258000DBCF04F02A0EDBCF05F02B0EDBCF06F0FD
:102590002C0E6DD92D0FF5D955EC18F0C5D827C0E4
:1025A000E6FF28C0E6FF29C0E6FF2AC0E6FFFEECF2
:1025B0001EF00C6E060EE15C02E2E16AE552E16E8D
:1025C0000C50310E26C0DBFF320E27C0DBFF330E6E
:1025D00028C0DBFF340E29C0DBFFD950060F35D9E8
:1025E000D950310FCED982D902E2E16AE552E16ECB
:1025F0000050DF6E850EDF143CE0220E0001F46F08
:10260000F56BEED926C000F027C001F028C002F01B
:1026100029C003F0BDD826C027F0C5D933EC17F088
:10262000010A03E1130EDB5014E1DAD926C004F0ED
:1026300027C005F028C006F029C007F0A9D826C099
:1026400027F0C2D92AEC17F0010A12E1130EDB5071
:102650000FE1310EDB6A320EDB6A800EF36E330E51
:10266000F3CFDBFF7F0EF36E340EF3CFDBFF01D031
:102670002BD9180EDB500FE0310EDBCF04F0320EF9
:10268000DBCF05F0330EDBCF06F0340EDBCF07F0E7
:1026900001D9A1D90CD0310EDBCF00F0320EDBCF47
:1026A00001F0330EDBCF02F0340EDBCF03F0020E6D
:1026B00000C0DBFF030E01C0DBFF040E02C0DBFF26
:1026C000050E03C0DBFFC6D800C026F001C027F00E
:1026D00002C028F003C029F04B0EE15C02E2E16A7F
:1026E000E552E16EE552E5CFDAFFE7CFD9FF120000
:1026F000DA20EA6EEECFE6FFEECFE6FFEECFE6FFA2
:10270000EFCFE6FF120000C027F0D3EF14F0140E55
:10271000DBCF00F0150EDBCF01F0160EDBCF02F0A1
:10272000170EDBCF03F01200E552E552E552E552F9
:10273000E552E7CF07F0E552E7CF06F0E552E7CFE5
:1027400005F0E552E7CF04F026C008F027C009F0F5
:1027500028C00AF029C00BF026C02CF027C02DF0AD
:1027600028C02EF029C02FF0EBEF14F00ED9EECFD9
:1027700027F0EECF28F0EECF29F0EFCF2AF000C0FF
:102780002CF001C02DF002C02EF003C02FF012007B
:102790002C6A2D6A800E2E6E3F0E2F6E1200020ED6
:1027A000DB6A030EDB6A800EF36E040EF3CFDBFFF1
:1027B0001200140E26C0DBFF150E27C0DBFF160E1D
:1027C00028C0DBFF170E29C0DBFF1200F60EDBCF9F
:1027D00000F0F70EDBCF01F0F80EDBCF02F0F90EC0
:1027E000DBCF03F01200250EDBCF27F0260EDBCF68
:1027F00028F0270EDBCF29F0280EDBCF2AF01200BD
:10280000D950FA0FE96EFF0EDA20EA6E020EEECF13
:10281000DBFF030EEECFDBFF040EEECFDBFF050E7A
:10282000EECFDBFF120027C02CF028C02DF029C00E
:102830002EF02AC02FF012002AC0EDFF29C0EDFFB4
:1028400028C0EDFF27C0EFFF1200E66E000EDA2071
:10285000E66E1200020EDBCF00F0030EDBCF01F0BC
:10286000040EDBCF02F0050EDBCF03F01200DBCF4E
:1028700007F004C0E6FF05C0E6FF06C0E6FF07C09C
:10288000E6FFD95012004AEC23F0E552E552E5523A
:10289000E55212002C6A2D6A800E2E6EBF0E2F6E2E
:1028A000120073D8EE50ED101200020EDB6A030E18
:1028B000DB6A040EDB6A050EDB6A120066D8D8807C
:1028C000030EEB50FF0A1200310EDB6A320EDB6A98
:1028D000330EDB6A340EDB6A120027C004F028C016
:1028E00005F029C006F02AC007F012002CEC20F0F9
:1028F000006E060EE15C1200B5EC1DF0006E080ED5
:10290000E15C12001B0E1C0EDBCF03F00001800EF9
:1029100003141200020EDB68030EDB68040EDB6892
:102920001200F36E050EF3CFDBFF1200DBCF29F0B0
:10293000F5EF14F0DBCF2FF05BEF15F027C000F0C0
:1029400028C001F029C002F02AC003F01200D950BB
:10295000FA0FE96EFF0E78EF13F030D87CEF14F029
:1029600004C027F0E4EF14F013DFCDDE4EEC18F0D6
:10297000010A1200CCDE0CDFC6DE33EC17F0010AD0
:102980001200E96E000E78EF13F0E96E000EDA2007
:10299000EA6E12007FDFB7DE5BEF15F0E7DE5BEC7F
:1029A00015F01CEF14F001C028F002C029F003C09C
:1029B0002AF01200D950190F25EF14F0D950F60F54
:1029C000E96EFF0E78EF13F005C028F006C029F07D
:1029D00007C02AF01200C4DF5BEC15F09EEF14F084
:0629E000B6DF43EF14F026
:0A29E600219E08D0219E29AE05D0E5
:1029F000286C291EE86A2922218E29C023F028C0CC
:102A000022F0336A326A8E0E246E256AADEF17F01B
:102A1000216AE9EC17F001EC18F021B691EF17F0FC
:102A200021A205D021BA91EF17F098EF17F021BA43
:102A3000A4EF17F021A005D021B891EF17F0A4EF73
:102A400017F021B898EF17F0256A7F0E2A24246E1C
:102A5000E86A25222F50245EE86A255A1A0E306E45
:102A60002A6A326A336A226A236A2C50275E2D5002
:102A7000285A2E50295A000E2A5A09E72C50272688
:102A80002D5028222E502922000E2A2201D0328ACF
:102A9000D8902736283629362A36D890323633361B
:102AA00022362336302EE1D7295028102710D8A4FB
:102AB000328AADEF17F0216AE9EC17F001EC18F05B
:102AC00021B691EF17F021A205D021B891EF17F0B0
:102AD00098EF17F021AA05D021B091EF17F098EFE9
:102AE00017F021B002D021A802D0A4EF17F0256A78
:102AF0002F502A24246EE86A25227E0E245EE86A7E
:102B0000255A326A336A226A236A2E502902F4CF88
:102B100023F0F3CF22F02D502902F3503326F45046
:102B20002222000E23222E502802F3503326F45086
:102B30002222000E23222C502902F3503226F45078
:102B40003322000E222223222D502802F350322657
:102B5000F4503322000E222223222E502702F3505B
:102B60003226F4503322000E222223222C50280237
:102B7000F4503226000E3322222223222D50270227
:102B8000F4503226000E332222222322ADEF17F01A
:102B90002F7E216AE9EC17F001EC18F021B691EFD5
:102BA00017F021A20AD021AA03D021BE91EF17F07D
:102BB00021A49DEF17F09AEF17F021AA05D021ACC0
:102BC0009DEF17F09AEF17F021A00AD021A808D0A6
:102BD00021BE04D021A402D0A6EF17F0AAEF17F06F
:102BE000326A256A2F502A5C316E10E327C033F019
:102BF00028C022F029C023F02AC030F02CC027F0D2
:102C00002DC028F02EC029F0213A09D02CC033F075
:102C10002DC022F02EC023F02FC030F0316C219E49
:102C200021BC218E30C024F021B0D9EF17F01A0E4C
:102C30003160D9EF17F0246A2A6A21A408D0276CE2
:102C4000281E291E2A1EE86A282229222A2221ACAF
:102C500008D0336C221E231E241EE86A222223225F
:102C60002422266A315207E02A34293228322732B8
:102C70002632312EF9D727503326285022222950C8
:102C800023222A50242226C032F0219E24AE0BD0CB
:102C9000326C331E221E231E241EE86A3322222297
:102CA00023222422218E24A006D0D880233222324F
:102CB00033323232302A30C024F0ADEF17F0206AC0
:102CC0002EAE68EF16F02D6C2E1EE86A2E22201E06
:102CD00029AE70EF16F0286C291EE86A2922201E02
:102CE00062EC26F029BE80EF16F020AE000C286CB6
:102CF000291EE86A2922246C251EE86A2522000C78
:102D000020BE77EF16F02188FF0C29C033F028C0D1
:102D100032F028502D02F4CF27F0F3CF26F02950BF
:102D20002E02F4CF29F0F3CF28F02D02F3502726FE
:102D3000F4502822E86A292232502E02F350272626
:102D4000F4502822E86A29222EAEABEF16F032505A
:102D5000285E3350295A33AE000C2D50285E2E5079
:102D6000295A000C29C033F028C032F027C031F0B6
:102D700027502C02F4CF25F0F3CF24F028502D0259
:102D8000F4CF27F0F3CF26F02C02F3502526F45091
:102D90002622E86A272231502D02F3502526F450CE
:102DA0002622E86A272229502C02F3502626F450C6
:102DB000272229502D02286AE86A2822F350272664
:102DC000F450282231502E02F3502626F4502722A8
:102DD000296AE86A2822292232502E02F350272637
:102DE000F4502822E86A292233502E02F350282674
:102DF000F4502922000C216AE9EC17F021B605EF06
:102E000017F021A20ED021B405D07F0E296EFF0E3F
:102E1000286E1FD0800E296E286A1BD0296A286A66
:102E200018D021B0FBD78F0E2A60EDD77E0E2A6412
:102E3000F5D78E0E2A5C05E0D890293228322A2A4E
:102E4000F8D721A406D0286C291EE86A292229AEC9
:102E5000E5D712003CEC17F021B6000C21B0000CB5
:102E600021B4000C010C3CEC17F021B6000C21B091
:102E7000000C21A4000C010C216AE9EC17F001EC14
:102E800018F021B6120021AE08D021A004D021A84C
:102E900002D021801200219012002F502A5C0BE1F9
:102EA0002E50295C08E12D50285C05E12C50275C50
:102EB00002E121801200D8A002D0218E10D02A5029
:102EC0002FC02AF02F6E29502EC029F02E6E2850C8
:102ED0002DC028F02D6E27502CC027F02C6E2F50BF
:102EE0002A5C10E0FF0F09E0219021B403D021AE4D
:102EF0002184120021AE219412002F2AD8902E3264
:102F00002D322C322C50275E2D50285A2E50295A03
:102F100029BEEAD7D8902736283629362A2EF8D760
:102F2000C8D77F0E2A6EFF0E296E286E276E1200FC
:102F30007F0E21BEFF0E2A6E02D07F0E2A6E800EFB
:102F4000296E286A276AF3D721AE04D0800E2A6E34
:102F5000296AF7D72A6A296AF4D723502210331036
:102F60003210F8E025BEF0D723BE0CD02450251037
:102F7000EBE0D89032363336223623362406D8A0FA
:102F80002506F2D72550D4E12428D2E032AE11D064
:102F90007F0E321402E133A00CD0332AE86A2222D9
:102FA000232207E3D880233222323332242A2428F2
:102FB000BFE02450C9E033C027F022C028F02334FA
:102FC000296E24302A6E29322A9E21BE2A8E97EF3E
:102FD00017F029362A3602E32184217E06E121807A
:102FE0002A6A296A286A276A12002A2803E0D880F8
:102FF00029321200D890293202E121821200218662
:1030000012002E362F3602E3218C217E06E1218824
:103010002F6A2E6A2D6A2C6A12002F2803E0D880AE
:103020002E321200D8902E32EAE1218A1200216A53
:10303000E9EC17F021B621EF18F021A20FD021B44E
:1030400007D07F0E296EFF0E286E276E266E25D0C4
:10305000800E296E01D0296A000EF6D721B0FBD769
:10306000266A9F0E2A60EBD77E0E2A64F4D79E0E46
:103070002A5C07E0D89029322832273226322A2AC1
:10308000F6D721A40AD0266C271E281E291EE86A1E
:1030900027222822292229AEDED712003CEC17F085
:0A30A00021B6000C21B0010C000C59
:0630AA00D9CFE6FFDACFEA
:1030B000E6FFE1CFD9FFE2CFDAFF260EE12402E3FB
:1030C000E168E652E16ED950FA0FE96EFF0EDA20A0
:1030D000EA6E010EEECFDBFF020EEECFDBFF030E3A
:1030E000EECFDBFF040EEECFDBFF050EDB6A060E34
:1030F000DB6A800EF36E070EF3CFDBFF330EF36E49
:10310000080EF3CFDBFFD950090FE66E000EDA2070
:10311000E66E98DA2CEC20F0006E060EE15C02E21E
:10312000E16AE552E16E0050DF6E800EDF5C07E180
:10313000010EDB68020EDB68030EDB681DD0DF04C6
:1031400066E0040EDF5C05E10F0EDB5001E1D5D136
:1031500027D007DA170E2C6E720E2D6EB10E2E6E62
:10316000420E2F6EEAD92AEC17F0010A07E1220E6F
:103170000001F46FF56B4ADA7F0E4BD0F2D9D80E0E
:103180002C6E8E0E2D6ECE0E2E6EC20E2F6ED5D9DB
:1031900033EC17F0010A0DE1220E0001F46FF56B1C
:1031A000010EDB6A020EDB6A030EDB6A040EDB6AC9
:1031B000A4D1D950FA0FE96EFF0EF1D94AEC23F0F1
:1031C000E552E552E552E55226C000F027C001F075
:1031D00028C002F029C003F0050EDBCF04F0060E74
:1031E000DBCF05F0070EDBCF06F0080EDBCF07F0D4
:1031F00004C02CF005C02DF006C02EF007C02FF043
:1032000026C027F025DA33EC17F0010A07E1FED9D2
:103210003F0EF36E040EF3CFDBFF6FD1A2D93B0E4E
:103220002C6EAA0E2D6EB80E2E6E3F0E2F6E85D907
:10323000C1D987D92F6A81D933EC17F0010A04E18B
:103240000EDAC8EC15F003D00ADAC9EC15F0FBEC85
:1032500016F01C0E28C0DBFF1D0E29C0DBFF1C0E64
:10326000DBCF28F01D0EDBCF29F0F5EC14F0D8D918
:103270002C6A2D6A800E2E6EBF0E2F6E9BD9FA0E11
:10328000DBCF04F0FB0EDBCF05F0FC0EDBCF06F04E
:10329000FD0EDBCF07F01E0EDBCF0CF01F0EDBCFD9
:1032A0000DF0200EDBCF0EF0210EDBCF0FF02C6ADD
:1032B000800E2D6E310E2E6E3F0E2F6E0CC027F03D
:1032C0000DC028F00EC029F00FC02AF05BEC15F0FD
:1032D00027C008F028C009F029C00AF02AC00BF066
:1032E00055D9A7D9C9EC15F09BD91E0EDBCF14F028
:1032F0001F0EDBCF15F0200EDBCF16F0210EDBCF3B
:1033000017F0830E2C6E800E2D6E5E0E2E6EB90E93
:103310002F6E14C027F015C028F016C029F017C072
:103320002AF05BEC15F027C010F028C011F029C07E
:1033300012F02AC013F098D9180E27C0DBFF190E1F
:1033400028C0DBFF1A0E29C0DBFF1B0E2AC0DBFFE3
:10335000180EDBCF27F0190EDBCF28F01A0EDBCFCB
:1033600029F01B0EDBCF2AF034D9220E27C0DBFF59
:10337000230E28C0DBFF240E29C0DBFF250E37D922
:10338000080E2C6E530E2D6E880E2E6E3B0EF6D848
:10339000800E2E6E3E0E2F6EC9EC15F01AD9100E4F
:1033A00027C0DBFF110E28C0DBFF120E29C0DBFF98
:1033B000130E1DD95B0E2C6EBF0E2D6E4C0E2E6E95
:1033C0003D0EDCD82E6A3F0E2F6EC9EC15F0140EA0
:1033D00027C0DBFF150E28C0DBFF160E29C0DBFF60
:1033E000170E2AC0DBFF006A016A026A3F0E036EF5
:1033F000100EDBCF08F0110EDBCF09F0120EDBCF81
:103400000AF0130EDBCF0BF0140EDBCF10F0150E0D
:10341000DBCF11F0160EDBCF12F0170EDBCF13F05F
:10342000100EDBCF14F0110EDBCF15F0120EDBCF38
:1034300016F0130EDBCF17F014C02CF015C02DF0D2
:1034400016C02EF017C02FF010C027F011C028F0C2
:1034500012C029F013C02AF0C8EC15F027C00CF0F8
:1034600028C00DF029C00EF02AC00FF08FD808C078
:1034700027F009C028F00AC029F00BC02AF008EC98
:1034800015F027C004F028C005F029C006F02AC0B6
:1034900007F0EAD8010E27C0DBFF020E28C0DBFFD1
:1034A000030E29C0DBFF040E2AC0DBFF010EE76E0E
:1034B0001C0EDBCF00F01D0EDBCF01F0E750002625
:1034C000000E012200C0E6FF01C0E6FFBBD8FEEC03
:1034D0001EF0026E060EE15C02E2E16AE552E16E68
:1034E0000250010E26C0DBFF020E27C0DBFF030ED9
:1034F00028C0DBFF040E29C0DBFF010EDBCF00F08C
:10350000020EDBCF01F0030EDBCF02F0040EDBCFA7
:1035100003F000C026F001C027F002C028F003C06D
:1035200029F0260EE15C02E2E16AE552E16EE55225
:10353000E5CFDAFFE7CFD9FF120000C027F028EF70
:103540001BF01E0EDBCF00F01F0EDBCF01F0200EB4
:10355000DBCF02F0210EDBCF03F02C6A2D6A2E6A3E
:103560001200FA0EDBCF00F0FB0EDBCF01F0FC0EF9
:10357000DBCF02F0FD0EDBCF03F012002F6E59D827
:103580005BEC15F04DD82C6A2D6A120027C02CF088
:1035900028C02DF029C02EF02AC02FF01200DA200A
:1035A000EA6EEECFE6FFEECFE6FFEECFE6FFEFCF1F
:1035B000E6FF12005BEC15F01E0E27C0DBFF1F0EAE
:1035C00028C0DBFF200E29C0DBFF210E2AC0DBFF55
:1035D0001200180EDBCF2CF0190EDBCF2DF01A0ED7
:1035E000DBCF2EF01B0EDBCF2FF05BEF15F02AC0E8
:1035F000DBFF220EDBCF04F0230EDBCF05F0240E21
:10360000DBCF06F0250EDBCF07F01200010EDB6AE0
:10361000020EDB6A800EF36E030EF3CFDBFF1200A7
:1036200027C000F028C001F029C002F02AC003F032
:10363000120004C027F005C028F006C029F007C01A
:103640002AF01200D950010FE96E000ECFEF1AF0E8
:1036500001C028F002C029F003C02AF0120071DF77
:103660003F0E2F6E9DEF1AF091DF67DFC9EF15F067
:10367000D9CFE6FFDACFE6FFE1CFD9FFE2CFDAFF1D
:10368000260EE12402E3E168E652E16ED950050F0F
:10369000E1D92CEC20F0006E060EE15C02E2E16A5A
:1036A000E552E16E0050DF6E800EDF5C05E00B0E30
:1036B000DB5012E0DF0410E0210E0001F46FF56B27
:1036C000010EDB68020EDB68030EDB687F0EF36E13
:1036D000040EF3CFDBFF8FD1040EDF5C0EE13EDA88
:1036E000010EEECFDBFF020EEECFDBFF030EEECFBF
:1036F000DBFF040EEECFDBFF7ED1DF0410E1210EF5
:103700000001F46FF56B010EDB6A020EDB6A800EBE
:10371000F36E030EF3CFDBFF040EDB686CD1D950E0
:103720000C0F98D99AEC1FF0006E060EE15C02E2D5
:10373000E16AE552E16E0050FA0E26C0DBFFFB0E97
:1037400027C0DBFFFC0E28C0DBFFFD0E29C0DBFF1E
:10375000A6D9F30E2C6E040E2D6E350E2E6E3F0E76
:1037600087D92AEC17F0010A09E1B3D984D9C8EC4A
:1037700015F067D9EDD984D9ACD916D00C0EDB067B
:103780000D0E01E2DB068BD92C6A2D6A2E6A3F0EE4
:103790006FD976D9160EDBCF04F0170EDBCF05F00C
:1037A000180EDBCF06F0190E66D95BEC15F049D97F
:1037B000CFD9C9EC15F01A0E27C0DBFF1B0E28C0AD
:1037C000DBFF1C0E29C0DBFF1D0E2AC0DBFF160E1F
:1037D000DBCF27F0170EDBCF28F0180EDBCF29F058
:1037E000190EDBCF2AF01A0EDBCF2CF01B0EDBCF2D
:1037F0002DF01C0EDBCF2EF01D0EDBCF2FF008ECD2
:1038000015F01FD9120E27C0DBFF130E28C0DBFFF7
:10381000140E29C0DBFF150E2AC0DBFF4DD9120E96
:10382000DBCF2CF0130EDBCF2DF0140EDBCF2EF000
:10383000150E62D90E0E27C0DBFF0F0E28C0DBFF6E
:10384000100E29C0DBFF110E2AC0DBFF3D0EF36E08
:103850001E0EF3CFDBFF7E0EF36E1F0EF3CFDBFFEA
:103860000D0EF36E200EF3CFDBFFBF0EF36E210EB5
:10387000F3CFDBFF0E0EDBCF00F00F0EDBCF01F03E
:10388000100EDBCF02F0110EDBCF03F03A0E2C6EE0
:103890003F0E2D6ED40E2E6EC00EEAD8C9EC15F078
:1038A000220E27C0DBFF230E28C0DBFF240E29C019
:1038B000DBFF250E2AC0DBFF0E0EDBCF27F00F0E3D
:1038C000DBCF28F0100EDBCF29F0110EDBCF2AF072
:1038D0001E0EDBCF2CF01F0EDBCF2DF0200EDBCF2A
:1038E0002EF0210E09D9220EDBCF2CF0230EDBCFD8
:1038F0002DF0240EDBCF2EF0250EDBCF2FF008ECC1
:1039000015F007D9120EDBCF00F0130EDBCF01F05C
:10391000140EDBCF02F0150EDBCF03F0CDD8010E75
:10392000DBCF2CF0020EDBCF2DF0030EDBCF2EF021
:10393000040EE2D827C004F028C005F029C006F024
:103940002AC007F078D8046A800E056E310E066E24
:103950003F0E076EC9D827C008F028C009F029C05B
:103960000AF02AC00BF0CCD8E1D85BEC15F069D88E
:10397000830E146E800E156E5E0E166EB90E176EE7
:10398000B3D827C018F028C019F029C01AF02AC0EF
:103990001BF0B6D814C027F015C028F016C029F0C7
:1039A00017C02AF05BEC15F027C010F028C011F00A
:1039B00029C012F02AC013F0010EDBCF1CF0020E5A
:1039C000DBCF1DF0030EDBCF1EF0040EDBCF1FF0AC
:1039D0001CC02CF01DC02DF01EC02EF01FC02FF0FB
:1039E000C9EC15F027C00CF028C00DF029C00EF06E
:1039F0002AC00FF020D8010EDBCF00F0020EDBCF83
:103A000001F0030EDBCF02F0040EDBCF03F000C0A9
:103A100026F001C027F002C028F003C029F0260ECE
:103A2000E15C02E2E16AE552E16EE552E5CFDAFFE0
:103A3000E7CFD9FF120064D882D8C9EC15F089EF1E
:103A40001DF027C000F028C001F029C002F02AC0F4
:103A500003F01200E66E000EDA20E66E7FD8EECF9D
:103A6000E6FFEECFE6FFEECFE6FFEFCFE6FF120078
:103A70002F6E9FEF1DF0DBCF07F06AD896EF1DF099
:103A8000C8EC15F0160E27C0DBFF170E28C0DBFFB1
:103A9000180E29C0DBFF190E2AC0DBFF1200FA0E38
:103AA000DBCF00F0FB0EDBCF01F0FC0EDBCF02F032
:103AB000FD0EDBCF03F01200120EDBCF27F0130E4A
:103AC000DBCF28F0140EDBCF29F0150EDBCF2AF068
:103AD0001200FA0EDBCF04F0FB0EDBCF05F0FC0E7C
:103AE000DBCF06F0FD0E12000C0EDBCF28F00D0E22
:103AF000DBCF29F0F5EF14F0DBCF2FF05BEF15F003
:103B000027C02CF028C02DF029C02EF02AC02FF09D
:103B10001200010E27C0DBFF020E28C0DBFF030EE0
:103B200029C0DBFF040E2AC0DBFF120004C027F00F
:103B300005C028F006C029F007C02AF0120000C016
:103B400027F001C028F002C029F003C02AF01200BB
:103B50002C6A2D6A2E6A3F0E2F6E1200D950FA0F72
:0A3B6000E96EFF0EDA20EA6E120093
:063B6A00D9CFE6FFDACF1F
:103B7000E6FFE1CFD9FFE2CFDAFF130EE12402E343
:103B8000E168E652E16E0C0EDB6AD950FA0FE96E7D
:103B9000FF0EDA20EA6E080EEECFDBFF090EEECF45
:103BA000DBFF0A0EEECFDBFF0B0EEECFDBFF1FD9E4
:103BB000D950080F17D9EECFE6FFEECFE6FFEECFD4
:103BC000E6FFEFCFE6FF2CEC20F0006E060EE15C86
:103BD00002E2E16AE552E16E0050DF6E020EDF5C48
:103BE00001E0BCD0050EDBCF02F0060EDBCF03F008
:103BF000F80EDB50025C006EF90EDB500358016ECC
:103C00007F0E005E000E015A0D0E00C0DBFF0E0E8F
:103C100001C0DBFF0D0E0E0EDBCF01F00001800EA8
:103C200001140AE0010EF36E0C0EF3CFDBFF070E5A
:103C3000DB5001E098D09DD00D0EDBCF00F00E0ED2
:103C4000DBCF01F0D890015004E6170E005C000EA7
:103C5000015801E39ED0046805687F0E066E076A6E
:103C60000D0EDB501F0B04C000F005C001F006C0B4
:103C700002F007C003F007E0D890033202320132AD
:103C80000032E806F9E10F0E00C0DBFF100E01C0A4
:103C9000DBFF110E02C0DBFF120E03C0DBFF0F0EB5
:103CA000DBCF00F0100EDBCF01F0110EDBCF02F006
:103CB000120EDBCF03F0D950010F94D8EE5000164E
:103CC000EE500116EE500216EE5003160050011091
:103CD0000210031002E1000E01D0010EE76E0C0E7F
:103CE000E7CFDBFFDB5055E0046A056A800E066E05
:103CF000076A010E086E096A0A6A0B6AD9500F0F2B
:103D000071D8EE500826EE500922EE500A22EE50ED
:103D10000B220850045C006E09500558016E0A50D1
:103D20000658026E0B500758036ED950010F5AD82F
:103D30000050EE160150EE160250EE160350EE162D
:103D4000D950080FE66E000EDA20E66E50D8BAECB5
:103D500020F0E552E552E552E5521BD0DF0419E1AF
:103D6000070EDB5006E0006A016A026A800E036EED
:103D700004D0006A016A026A036A080E00C0DBFF11
:103D8000090E01C0DBFF0A0E02C0DBFF0B0E03C0F1
:103D9000DBFFF60EDBCFE9FFF70EDBCFEAFF0C0E01
:103DA000DBCFEFFF080EDBCF00F0090EDBCF01F019
:103DB0000A0EDBCF02F00B0EDBCF03F000C026F0C3
:103DC00001C027F002C028F003C029F0130EE15C07
:103DD00002E2E16AE552E16EE552E5CFDAFFE7CFB4
:103DE000D9FF1200E96E000EDA20EA6E1200D950F7
:0C3DF000010FE66E000EDA20E66E1200F5
:043DFC0096D8E1CFA5
:103E0000D9FFE2CFDAFF0C0EE12402E3E168E652CB
:103E1000E16ED950FA0FE96EFF0EDA20EA6E080E55
:103E2000EECFDBFF090EEECFDBFF0A0EEECFDBFF9E
:103E30000B0EEECFDBFF79D8D950080FE96E000EDC
:103E4000DA20EA6EEECFE6FFEECFE6FFEECFE6FF3A
:103E5000EFCFE6FF2CEC20F0006E060EE15C02E2F4
:103E6000E16AE552E16E0050E76E070EE7CFDBFF37
:103E7000DB50840B3AE1070EDB041AE1060EDB503F
:103E800006E0006A016A026A800E036E04D0006ACE
:103E9000016A026A036A080E00C0DBFF090E01C056
:103EA000DBFF0A0E02C0DBFF0B0E03C0DBFF1DD0E1
:103EB000F80EDBCF00F0F90EDBCF01F0D950040F84
:103EC000E96E000EDA20EA6E0050EE260150ED2277
:103ED000D950080FE66E000EDA20E66E26D8BAEC4E
:103EE00020F0E552E552E552E552080EDBCF00F036
:103EF000090EDBCF01F00A0EDBCF02F00B0EDBCF99
:103F000003F000C026F001C027F002C028F003C073
:103F100029F00C0EE15C02E2E16AE552E16EE55245
:103F2000E5CFDAFFE7CFD9FF1200D9CFE6FFDACF2E
:043F3000E6FF120096
:0C3F3400D9CFE6FFDACFE6FFE1CFD9FFDE
:103F4000E2CFDAFF0C0EE12402E3E168E652E16E13
:103F5000D950FA0FE96EFF0EDA20EA6E010EEECFAD
:103F6000DBFF020EEECFDBFF030EEECFDBFF040E16
:103F7000EECFDBFF63D8D950010FE96E000EDA20D7
:103F8000EA6EEECFE6FFEECFE6FFEECFE6FFEFCF35
:103F9000E6FF2CEC20F0006E060EE15C02E2E16A26
:103FA000E552E16E0050DF6E850EDF1404E04DD85F
:103FB000EE6AED6A23D0090EDBCF00F00A0EDBCFEC
:103FC00001F0820E0026FF0E01223FD800C0EEFF56
:103FD00001C0EDFF7E0EF36E090EF3CFDBFF0A0E7C
:103FE000DB6AD950010FE66E000EDA20E66E26D8A5
:103FF000BAEC20F0E552E552E552E552010EDBCF76
:1040000000F0020EDBCF01F0030EDBCF02F0040E56
:10401000DBCF03F000C026F001C027F002C028F07B
:1040200003C029F00C0EE15C02E2E16AE552E16EA8
:10403000E552E5CFDAFFE7CFD9FF1200D950050FDF
:10404000E66E000EDA20E66E1200F80EDBCFE9FF16
:08405000F90EDBCFEAFF1200BC
:08405800D9CFE6FFDACFE6FF45
:10406000E1CFD9FFE2CFDAFFE652006801687F0EA8
:10407000026E036AD950FA0FE96EFF0EDA20EA6E7B
:10408000EE500016EE500116EE500216EE500316DA
:104090006AD800C0EEFF01C0EEFF02C0EEFF03C011
:1040A000EEFFFD0EDB50800B02E0010E01D0000E92
:1040B000E66E59D8060EE926000EEA22E552E750D0
:1040C000EF6EFC0EDBCF00F0FD0EDBCF01F0D890E1
:1040D00000360136FC0E00C0DBFFFD0E01C0DBFF29
:1040E000DB50E66E40D8040EE926000EEA22E552C7
:1040F000E750EE6EED6AFD0EDB50006E016AFF0EBA
:10410000001818E1015016E12ED8EECF00F0EECFE6
:1041100001F0EECF02F0EFCF03F0005001100210DB
:10412000031006E0210E0001F46FF56B800E0BD03A
:10413000040E09D0FD0EDB5008E115D8EE6AEE6AD8
:10414000EE6AEE6A010EDF6E06D0020EDF6E0BD84D
:10415000EE52EE52EE8EDF50E552E552E5CFDAFF39
:10416000E7CFD9FF1200F80EDBCFE9FFF90EDBCF66
:04417000EAFF120050
:0C417400D9CFE6FFDACFE6FFE1CFD9FF9C
:10418000E2CFDAFF5BD8013411E20050FE08000EE6
:1041900001540CE276D805E06CD8800EEE6EEE6825
:1041A00047D067D8800EEE6E7F0E0ED047D8D890DD
:1041B000015004E6010E005C000E01580BE261D8CC
:1041C00005E057D8EE6A800EEE6E32D052D8EE6A15
:1041D000EE6A2ED047D8EECF00F0EECF01F0EECF52
:1041E00002F0EFCF03F032D800C0EEFF01C0EEFFC7
:1041F00002C0EEFF03C0EEFF21D80050010B05E026
:1042000025D8020E3AD8EF8E04D020D8020E35D829
:10421000EF9E14D8D8900132003218D8030E2DD852
:1042200000C0EFFF1AD804E011D8030E26D8EF8E95
:10423000E552E5CFDAFFE7CFD9FF120013D8040E1D
:104240001CD8EECF00F0EFCF01F01200FA0EDBCF5A
:10425000E9FFFB0EDBCFEAFF120004D8060E0DD8F3
:10426000EF501200FC0EDBCFE9FFFD0EDBCFEAFFC3
:104270001200ECDFEE6AEE6A1200E926000EEA2276
:0E4280001200220E0001F46FF56B2DEF21F0FD
:02428E00D9CF86
:10429000E6FFDACFE6FFE1CFD9FFE2CFDAFF0F0E7C
:1042A00083160F0E95169594959295908C948C92FA
:1042B0008C90EFEC00F0300EE66E67EC24F0E552E7
:1042C000050EE66E4BEC26F0E552300EE66E67EC1E
:1042D00024F0E552010EE66E4BEC26F0E552320E6C
:1042E000E66E67EC24F0E552C1EC25F0000901E030
:1042F000FBD7C1EC25F0000901E0FBD7FD0EDBCFB9
:10430000E6FF67EC24F0E552C1EC25F0000901E07E
:10431000FBD7080EE66E67EC24F0E552C1EC25F001
:10432000000901E0FBD70F0EE66E67EC24F0E552C2
:10433000C1EC25F0000901E0FBD7010EE66E67EC49
:1043400024F0E552C1EC25F0000901E0FBD7040E92
:10435000E66E67EC24F0E552C1EC25F0000901E0BF
:10436000FBD7800EE66E7DEC23F0E55200D0E552DF
:0A437000E5CFDAFFE7CFD9FF120016
:06437A00D9CFE6FFDACF07
:10438000E6FFE1CFD9FFE2CFDAFFE652E652E6528E
:10439000E652D950F90F006EFF0EDA20016E020EC0
:1043A00000C0DBFF030E01C0DBFF020EDBCFE6FF28
:1043B000030EDBCFE6FFF90EDBCFE6FFFA0EDBCF15
:1043C000E6FFFB0EDBCFE6FFD950FC0FE66EFF0EDB
:1043D000DA20E66E69EC09F0006E070EE15C02E29D
:1043E000E16AE552E16E0050F3CFDEFFF4CFDDFF6E
:1043F000FC0EDBCFE9FFFD0EDBCFEAFFEF6ADECF7D
:1044000000F0DDCF01F000C0F3FF01C0F4FF040EA7
:10441000E15C02E2E16AE552E16EE552E5CFDAFFE6
:06442000E7CFD9FF1200F6
:0A4426000E0EF66E000EF76E000E8B
:10443000F86E00010900F550EF6F0900F550F06FBC
:1044400003E1EF6701D03DD00900F550EA6F0900A4
:10445000F550EB6F0900F550EC6F09000900F550BD
:10446000E96E0900F550EA6E090009000900F550EF
:10447000ED6F0900F550EE6F09000900F6CFF1F07D
:10448000F7CFF2F0F8CFF3F0EAC0F6FFEBC0F7FF9A
:10449000ECC0F8FF0001ED5302E1EE5307E0090024
:1044A000F550EE6EED07F8E2EE07F9D7F1C0F6FF32
:1044B000F2C0F7FFF3C0F8FF0001EF07000EF05B5A
:0444C000BFD7120050
:0C44C400D9CFE6FFDACFE6FFE1CFD9FF49
:1044D000E2CFDAFFFB0EDBCF00F0FC0EDBCF01F00A
:1044E0000001800E01141AE1FB0EDBCFE9FFFC0E88
:1044F000DBCFEAFFEECFF3FFEDCFF4FFEE2A000EA5
:10450000EF22F3CFE9FFF4CFEAFFFD0EDBCFEFFFA1
:10451000EF50016AF36E01C0F4FF10D0FB0EDB50C8
:10452000FE0806E1FD0EDBCFE6FFB8EC26F005D075
:10453000FD0EDBCFE6FF03EC00F0E552E552E5CFE0
:08454000DAFFE7CFD9FF1200FA
:08454800D9CFE6FFDACFE6FF50
:10455000E1CFD9FFE2CFDAFFFB0EDBCFF6FFFC0E97
:10456000DBCFF7FFFD0EDBCFF8FF0800F55020E0B2
:10457000C1EC25F0000901E0FBD7FB0EDBCFF6FF15
:10458000FC0EDBCFF7FFFD0EDBCFF8FF0800F55088
:10459000E66E39EC24F0E552D950FB0FE96EFF0EC0
:1045A000DA20EA6EEE2A000EEE22000EEE22D4D7BA
:0E45B00000D0E552E5CFDAFFE7CFD9FF1200C9
:0245BE00265085
:1045C0002B02F3CF22F0F4CF23F02C02F35023265A
:1045D000000EF420246E26502D02F3502426000EE7
:1045E000F420256E26502E02F350252627502B024C
:1045F000F3502326F4502422000E252227502C02AB
:10460000F3502426F450252227502D02F35025265E
:1046100028502B02F3502426F450252228502C0237
:0E462000F350252629502B02F35025261200B8
:02462E00FE0E7E
:10463000E3CFE9FFFF0EE3CFEAFFF36AF46AEE523D
:1046400003E0F34AF42AFBD71200FF0EE3CFF8FF92
:10465000E552FF0EE3CFF7FFE552FF0EE3CFF6FF83
:10466000E552E66AE66AE66A0900F55209E0FD0EDF
:10467000E32A05E1FE0EE32A02E1FF0EE32AF4D766
:10468000FD0EE3CF27F0FE0EE3CF28F0FF0EE3CFC1
:0446900029F01200FB
:0C469400D9CFE6FFDACFE6FFE1CFD9FF77
:1046A000E2CFDAFFE652E652D950FD0F006EFF0E60
:1046B000DA2000C0DEFFDD6EDECFE9FFDDCFEAFFEE
:1046C000EF9EFA0EDBCF00F0FB0EDBCF01F0FC0E0D
:1046D000DBCF02F0FD0EDBCF03F000C026F001C0FF
:1046E00027F002C028F003C029F0E552E552E55258
:0A46F000E5CFDAFFE7CFD9FF120093
:0646FA00D9CFE6FFDACF84
:10470000E6FFE1CFD9FFE2CFDAFF0F0E95160F0ECD
:104710008316FD0EDB508009F00B83128C948C9273
:10472000D8EC00F08C80D8EC00F08C900F0E831643
:10473000FD0EDB38F00BF00B8312D8EC00F08C8010
:10474000D8EC00F08C90F00E951200D0E552E5CF39
:08475000DAFFE7CFD9FF1200E8
:08475800D9CFE6FFDACFE6FF3E
:10476000E1CFD9FFE2CFDAFF0F0E95160F0E8316B9
:10477000FD0EDB504009F00B83128C948C92D8EC28
:1047800000F08C80D8EC00F08C900F0E8316FD0E9C
:10479000DB38F00BF00B8312D8EC00F08C80D8ECF7
:1047A00000F08C90F00E951200D0E552E5CFDAFFC4
:0647B000E7CFD9FF120063
:0A47B600D9CFE6FFDACFE6FFE1CF2E
:1047C000D9FFE2CFDAFFE652E652FC0EDBCF00F073
:1047D000FD0EDBCF01F0060ED89000360136E8045E
:1047E000FBE100C0DEFF01C0DDFF010EDB50BE6E4D
:1047F000DF50E840E8403F0B300B006ECF0EBD1499
:104800000010BD6EE552E552E552E5CFDAFFE7CF85
:04481000D9FF1200BA
:0C481400D9CFE6FFDACFE6FFE1CFD9FFF5
:10482000E2CFDAFFE652E652FD0EDB500F0BBA6E16
:10483000050EF66EF76A300EF86E0800F550010BA3
:1048400003E0010EDB6802D0010EDB6AFD0EDBAE79
:1048500002D0A190A080010EDB5002E0948201D032
:104860009386E552E552E552E5CFDAFFE7CFD9FF6F
:02487000120034
:0E487200D9CFE6FFDACFE6FFE1CFD9FFE2CFE4
:10488000DAFF0F0E95160F0E8316FD0EDB50F00BA0
:1048900083128C828C94D8EC00F08C80D8EC00F0E1
:1048A0008C900F0E8316FD0EDB38F00BF00B83128D
:1048B000D8EC00F08C80D8EC00F08C90F00E9512C3
:0E48C00000D0E552E5CFDAFFE7CFD9FF1200B6
:0248CE00D9CF40
:1048D000E6FFDACFE6FFE1CFD9FFE2CFDAFF0F0E36
:1048E00095160F0E8316FD0EDB50F00B83128C9481
:1048F0008C92D8EC00F08C80D8EC00F08C900F0EED
:104900008316FD0EDB38F00BF00B8312D8EC00F0B1
:104910008C80D8EC00F08C90F00E951200D0E5520F
:0A492000E5CFDAFFE7CFD9FF120060
:06492A00D9CFE6FFDACF51
:10493000E6FFE1CFD9FFE2CFDAFFFC0EDBCFE9FFE4
:10494000FD0EDBCFEAFFEF5016E0C1EC25F00009C9
:1049500001E0FBD7FC0EDBCFE9FFFD0EDBCFEAFF6A
:10496000EF50E66E39EC24F0E552FC0EDB2AFD0E2A
:1049700001E3DB2AE2D700D0E552E5CFDAFFE7CF4B
:04498000D9FF120049
:0C498400D9CFE6FFDACFE6FFE1CFD9FF84
:10499000E2CFDAFFE6528C848C82D8EC00F08C8077
:1049A000D8EC00F0F00E8314DF6E8C90D8EC00F0A1
:1049B0008C80D8EC00F083380F0B0F0BDF128C903B
:1049C0008C928C94DF5000D0E552E552E5CFDAFFAF
:0649D000E7CFD9FF120041
:0A49D600D9CFE6FFDACFE6FFE1CF0C
:1049E000D9FFE2CFDAFFE6528C848C92D8EC00F04B
:1049F0008C80D8EC00F0F00E8314DF6E8C90D8EC35
:104A000000F08C80D8EC00F083380F0B0F0BDF1216
:104A10008C908C947F0EDF1400D0E552E552E5CFE8
:084A2000DAFFE7CFD9FF120015
:084A28005072657373204B65A9
:104A30007920004772702041206A6170616E0048E1
:104A400052563A202564250054656D703A2025732E
:104A50000048523A25642042504D004852433A20C3
:104A600025640052656164696E677320446F6E65EA
:024A7000200024
:0E4A7200256A246A236A226A200EE76ED89015
:104A8000263627362836293622362336243625364A
:104A90002B50225C2C5023582D5024582E50255832
:104AA00009E32B50225E2C50235A2D50245A2E50AD
:0A4AB000255A262AE72EE4D712004B
:064ABA00D9CFE6FFDACFC0
:104AC000E6FFE1CFD9FFE2CFDAFFE652E65200017E
:104AD000F693A1B0F683BB50DF6E010EBCCFDBFFB7
:104AE000DECF00F0DDCF01F000C0F3FF01C0F4FF26
:104AF000E552E552E552E5CFDAFFE7CFD9FF1200E4
:104B0000D9CFE6FFDACFE6FFE1CFD9FFE2CFDAFF78
:104B1000FD0EDB507E0BCD6EFD0EDBAC02D0CD8EDC
:104B200001D0CD9ECF6ACE6A9E90DBAE02D09D8032
:104B300001D09D90CD80E552E5CFDAFFE7CFD9FFD8
:024B4000120061
:0E4B4200D9CFE6FFDACFE6FFE1CFD9FFE2CF11
:104B5000DAFFE652E652D650DF6E010ED7CFDBFF0A
:104B6000DECF00F0DDCF01F000C0F3FF01C0F4FFA5
:104B700000D0E552E552E552E5CFDAFFE7CFD9FFA5
:024B8000120021
:0E4B82008C848C92D8EC00F08C80D8EC00F083
:104B900083AE0BD08C90D8EC00F08C80D8EC00F079
:104BA0008C908C94010E0BD00AD08C90D8EC00F035
:104BB0008C80D8EC00F08C908C94000E00D0120009
:104BC000D9CFE6FFDACFE6FFE1CFD9FFE2CFDAFFB8
:104BD000E652E652FC0EDBCFDEFFDBCFDDFF010E3F
:104BE000DB50D76EDF50D66EE552E552E552E5CF89
:084BF000DAFFE7CFD9FF120044
:084BF800D9CFE6FFDACFE6FF9A
:104C0000E1CFD9FFE2CFDAFFFD0EDB507F0BD56E8F
:104C1000D76AD66AF294FD0EDBAE02D0F28A01D0DA
:104C2000F29AD58EE552E5CFDAFFE7CFD9FF120031
:104C3000D9CFE6FFDACFE6FFE1CFD9FFE2CFDAFF47
:104C4000FD0EDB50FB0BCA6ECC6A9E92FD0EDBAEF6
:104C500002D09D8201D09D92CA84E552E5CFDAFF51
:064C6000E7CFD9FF1200AE
:0A4C6600D9CFE6FFDACFE6FFE1CF79
:104C7000D9FFE2CFDAFF0C0EBD129494CA94FD0E58
:104C8000DB50CB6ECA84E552E5CFDAFFE7CFD9FF20
:064C9000120094941200D2
:0A4C9600FF0EE350356EEF0E01D063
:104CA000F30EE76EE72E52EF26F00C0E346EE76A35
:104CB000E72E58EF26F0342E57EF26F0352E50EF22
:044CC00026F01200C8
:0C4CC400256A246A100EE76ED89028368E
:104CD0002936243625362D50245C2E50255805E3E0
:104CE0002D50245E2E50255A282AE72EF0D7120088
:104CF000F36AF46AFF0EE124E96EFF0EE220EA6E29
:104D0000ED6607D02F0EEF6404D03A0EEF6001D0AD
:044D1000F32A120070
:0C4D1400FF0EE350356E480E01D04C0E2F
:104D2000E76EE72EFED7E76AE72EFED7352EF7D7D8
:044D3000000012006D
:0C4D3400000EF36E00EE00F0060E01D839
:104D40001200EA6002D0EE6AFCD7F350E96012006C
:044D5000EE6AFCD734
:0C4D540015EE00F025EE00F0F86A219C3E
:104D600013EC22F0E3EC26F017EC09F0FBD712006D
:104D7000FF0EE350ACBA04D0AF6AAB8EAC8A949C01
:0C4D8000ACA2FED7AD6EF36EF46A120018
:044D8C00FF0EE350E3
:104D9000E84E1200000000D000D000D0E82EFAD774
:024DA0001200FF
:0E4DA20030313233343536373839616263646C
:034DB00065660035
:064DB400CD909D9012005D
:064DBA00D59EF29A1200E2
:064DC000A090BA6A120087
:024DC6001200D9
:084DC8000000000000000000E3
:104DD00000000000000000000000000000000000D3
:0C4DE000000000000000000000000000C7
:020000040030CA
:0100010022DC
:010002000FEE
:010003000EEE
:010006008178
:00000001FF
