:020000040000FA
:0600000005EF3BF01200C9
:08000800D0BEDCEF3AF038EF46
:0400100031F01200B9
:0600180038EF31F0120088
:06002A0001005076000009
:08003000110300007201000041
:08003800D9CFE6FFE1CFD9FFAB
:10004000020EE126010EDB6A01017E5100080AE280
:10005000F90EDBCFE9FFFA0EDBCFEAFF110EEF6EF0
:10006000000E58D0FD0EDBCFE9FFFE0EDBCFEAFF1E
:10007000EF50030A07E0070A05E0050A03E0030A58
:1000800001E001D00AD0F90EDBCFE9FFFA0EDBCF99
:10009000EAFF010EEF6E000E3DD0C00EF214E76EC7
:1000A000010EE7CFDBFF800ED0143F09F216FD0EE4
:1000B000DBCFE9FFFE0EDBCFEAFF070EE926000EDD
:1000C000EA22EECF00F0EFCF01F0FB0EDBCFE9FF2D
:1000D000FC0EDBCFEAFF00C0EEFF01C0EDFFFB0E20
:1000E000DBCFE9FFFC0EDBCFEAFFEECFE6FFEFCF81
:1000F000E6FFCDEC0BF0E552E552DF6E010EDB5072
:10010000F212F90EDBCFE9FFFA0EDBCFEAFFEF6A5E
:10011000DF5000D0006E020EE15C02E2E16AE552BF
:10012000E16E0050E552E7CFD9FF1200D9CFE6FFCC
:10013000E1CFD9FFE652DF6A01017E51000809E2F2
:10014000F90EDBCFE9FFFA0EDBCFEAFF120EEF6EFE
:100150003AD0FD0EDBCFE9FFFE0EDBCFEAFFEF501A
:10016000030A07E0070A05E0050A03E0030A01E0C5
:1001700001D009D0F90EDBCFE9FFFA0EDBCFEAFFA1
:10018000010EEF6E20D0C00EF214DF6E800ED01480
:100190003F09F216FD0EDBCFE9FFFE0EDBCFEAFFD3
:1001A000070EE926000EEA22FB0EDBCFEEFFFC0E67
:1001B000DBCFEDFFDF50F212F90EDBCFE9FFFA0ED5
:1001C000DBCFEAFFEF6AE552E552E7CFD9FF120035
:1001D000D9CFE6FFE1CFD9FF090EE126080EDB6A91
:1001E000FB0EDBCFE9FFFC0EDBCFEAFFEE6AED6A28
:1001F000FD0EDBCFDEFFDBCFDDFFDECFE9FFDDCFA6
:10020000EAFF020EEECFDBFF030EEDCFDBFFD9508E
:10021000020FE96EDACFEAFFEE50ED102DE0020E8C
:10022000DBCFE9FF030EDBCFEAFFEF50040A06E065
:10023000010A04E0060A01E001D00BD0F30EDBCF87
:10024000E9FFF40EDBCFEAFF010EEF6EF36AF46A0A
:100250008AD2D9CFE9FFDACFEAFF020EEE26000EEE
:10026000EF22DECFE9FFDDCFEAFF020EEECFDBFFAC
:10027000030EEDCFDBFFCBD701017E5100080BE26F
:10028000F30EDBCFE9FFF40EDBCFEAFF020EEF6ED9
:10029000F36AF46A68D201017F5100080BE2F30EA1
:1002A000DBCFE9FFF40EDBCFEAFF0D0EEF6EF36A52
:1002B000F46A59D2C00EF214E76E080EE7CFDBFFE6
:1002C000800ED0143F09F216040EDB6A050EDB6ABD
:1002D000060EDB6A070EDB6AFD0EDBCFDEFFDBCF2F
:1002E000DDFFDECFE9FFDDCFEAFF020EEECFDBFF61
:1002F000030EEDCFDBFFD950020FE96EDACFEAFF34
:10030000EE50ED1001E196D0020EDBCFE9FF030EB7
:10031000DBCFEAFFEF50040A5CE0010A5AE0060A6C
:1003200001E057D0020EDBCFE9FF030EDBCFEAFF7F
:10033000030EE926000EEA22000ED880EE54000ECD
:10034000ED5444E2020EDBCFE9FF030EDBCFEAFF00
:10035000030EE926000EEA22EE06000EEF5AD950EF
:10036000FB0FE96EFF0EDA20EA6EEECFF3FFEDCF62
:10037000F4FF020EEE26000EEF22F3CFE9FFF4CFDA
:10038000EAFF020EDBCFEEFF030EDBCFEDFF010E27
:10039000F36E040EF3CFDBFFD950F90FE96EFF0EB9
:1003A000DA20EA6EEECFF3FFEDCFF4FF020EEE2679
:1003B000000EEF22F3CFE9FFF4CFEAFFEE6AED6A19
:1003C000050EDB2A060E01E3DB2A02D0070EDB80D6
:1003D0001ED0080EDB50F212FB0EDBCFE9FFFC0E45
:1003E000DBCFEAFFEE6AED6AF30EDBCFE9FFF40E36
:1003F000DBCFEAFF010EEF6E050EDBCF00F0060E3D
:10040000DBCF01F000C0F3FF01C0F4FFACD1D9CFC6
:10041000E9FFDACFEAFF020EEE26000EEF22DECF72
:10042000E9FFDDCFEAFF020EEECFDBFF030EEDCFDB
:10043000DBFF61D7040EDB041DE1FB0EDBCFE9FF20
:10044000FC0EDBCFEAFFEE6AED6A080EDB50F2121B
:10045000F30EDBCFE9FFF40EDBCFEAFFEF6A050E08
:10046000DBCF00F0060EDBCF01F000C0F3FF01C0D0
:10047000F4FF79D1070EDB508009006EEEC1E9FF71
:10048000EFC1EAFF0E0EE926000EEA220050EF123D
:10049000EEC1E9FFEFC1EAFF0F0EE926000EEA22E6
:1004A000EF6AEEC1E9FFEFC1EAFF0A0EE926000E8E
:1004B000EA22F50EDBCFEEFFF60EDBCFEEFFF70EF6
:1004C000DBCFEEFFF80EDBCFEEFFFD0EDBCFE6FF5E
:1004D000FE0EDBCFE6FF5AEC07F0E552E552080EC0
:1004E000DB50F21262EC0BF0C00EF214E76E080E55
:1004F000E7CFDBFF800ED0143F09F216EEC1E9FF13
:10050000EFC1EAFF0F0EEB50010A5CE0010A03E0C5
:10051000020A01E057D0EEC1E9FFEFC1EAFF060E83
:10052000E926000EEA22020EEECFDBFF030EEDCF2E
:10053000DBFFD950020FE96EDACFEAFFEE50ED1083
:1005400026E0D950FB0FE96EFF0EDA20EA6EEECFFF
:10055000F3FFEDCFF4FF020EEE26000EEF22F3CFF5
:10056000E9FFF4CFEAFF020EDBCFEEFF030EDBCF95
:10057000EDFFFB0EDBCFE9FFFC0EDBCFEAFFEE6AFF
:10058000ED6A050EDB2A060E01E3DB2A1AD0EEC166
:10059000E9FFEFC1EAFF0F0EE926000EEA22010E85
:1005A000EF6EFD0EDBCFE6FFFE0EDBCFE6FFEEC10A
:1005B000E6FFEFC1E6FF75EC08F0E552E552E552C3
:1005C000E55211D0FD0EDBCFE6FFFE0EDBCFE6FFDE
:1005D000EEC1E6FFEFC1E6FF75EC08F0E552E5522B
:1005E000E552E55200D0EEC1E9FFEFC1EAFF0F0E80
:1005F000EB50010A6BE0030A4CE0020A01E066D00E
:10060000020EDBCFE9FF030EDBCFEAFFEF50040A57
:100610001AE0010A18E0060A01E015D0D950F90FD6
:10062000E96EFF0EDA20EA6EEECFF3FFEDCFF4FFB6
:10063000020EEE26000EEF22F3CFE9FFF4CFEAFF21
:10064000EE6AED6A1ED0080EDB50F212FB0EDBCF15
:10065000E9FFFC0EDBCFEAFFEE6AED6AF30EDBCFBB
:10066000E9FFF40EDBCFEAFF010EEF6E050EDBCFE4
:1006700000F0060EDBCF01F000C0F3FF01C0F4FF75
:1006800072D0F30EDBCFE9FFF40EDBCFEAFFEF6AA7
:100690003AD0D950F90FE96EFF0EDA20EA6EEECFAC
:1006A000F3FFEDCFF4FF020EEE26000EEF22F3CFA4
:1006B000E9FFF4CFEAFFEE6AED6AF30EDBCFE9FF64
:1006C000F40EDBCFEAFF0E0EEF6E1DD0D950F90FFE
:1006D000E96EFF0EDA20EA6EEECFF3FFEDCFF4FF06
:1006E000020EEE26000EEF22F3CFE9FFF4CFEAFF71
:1006F000EE6AED6AF30EDBCFE9FFF40EDBCFEAFF23
:100700000A0EEF6E00D0EEC1E9FFEFC1EAFF0E0E58
:10071000E926000EEA22EF6AEEC1E9FFEFC1EAFF27
:100720000F0EE926000EEA22EF6AEEC1E9FFEFC1E3
:10073000EAFF060EEB6A070EEB6AEEC1E9FFEFC1B6
:10074000EAFF080EEB6A090EEB6A080EDB50F212A4
:10075000050EDBCF00F0060EDBCF01F000C0F3FF8B
:1007600001C0F4FF00D0090EE15C02E2E16AE5524B
:10077000E16EE552E7CFD9FF120079EC30F013ECCF
:100780000AF037EC0AF086EC0AF049EC09F05AEC72
:100790000AF070EC0AF07AEC30F06DEC1EF012000A
:1007A0000101840506E1FF0E01017E5D02E2010107
:1007B0007E2B1200D9CFE6FFE1CFD9FFE652DF6AE8
:1007C0000101840540E1C00EF214DF6E800ED014EA
:1007D0003F09F21601017E51000802E201017E0785
:1007E00001017E512EE101017F512BE1A6EC0BF0BE
:1007F00001018151E96EEA6AD890E936EA36F60ECF
:10080000E926010EEA22EECFF2F1EDCFF3F101017C
:1008100080510101815D15E0F2C1E9FFF3C1EAFFFA
:10082000160EE926000EEA22EE2A000EEE22EE2235
:10083000EE220001B02B000EB123B223B32381ECD2
:1008400031F0DF50F212E552E552E7CFD9FF120046
:10085000D9CFE6FFE1CFD9FFE652DF6A0101840577
:1008600012E1C00EF214DF6E800ED0143F09F216B2
:1008700001017E5106E1FF0E01017F5D02E20101EF
:100880007F2BDF50F212E552E552E7CFD9FF12007D
:10089000D9CFE6FFE1CFD9FFE652DF6A0101840537
:1008A00020E1C00EF214DF6E800ED0143F09F21664
:1008B00001017F51000813E201017F0701017F510F
:1008C0000BE101017E5105E1DF50F21262EC0BF009
:1008D00002D0DF50F21202D0DF50F21202D0DF500D
:1008E000F212E552E552E7CFD9FF1200010184511F
:1008F00019E1A6EC0BF081C180F101018151E96E93
:10090000EA6AD890E936EA36F60EE926010EEA22BE
:10091000EECFF2F1EDCFF3F1F2C1EEF1F3C1EFF171
:100920007BEC30F01200D9CFE6FFE1CFD9FFE652E1
:10093000DF6A020EE66EE66AE66AE66AD6EC1BF04D
:10094000E552E552E552E552C00EF214DF6E800E1C
:10095000D0143F09F2160101866B876B886B896B97
:10096000DF50F2120A0EE66EE66AE66AE66AD6EC36
:100970001BF0E552E552E552E552C00EF214DF6E6F
:10098000800ED0143F09F21686C111F187C112F111
:1009900088C113F189C114F10101010E196FDF50F3
:1009A000F212E552E552E7CFD9FF1200D9CFE6FFA8
:1009B000E1CFD9FF040EE126030EDB6A67EC30F0CD
:1009C000C00EF214E76E030EE7CFDBFF800ED014EB
:1009D0003F09F21603010D2B000E0E230F231023E7
:1009E000030EDB50F2120101840501E0E4D00301A3
:1009F0000C51020A0EE0030A09E0010A01E012D0DC
:100A0000010EF36E020EF3CFDBFF14D0020EDB6A91
:100A100011D0010EF36E020EF3CFDBFF0301010EC6
:100A20000C6F08D0010EF36E020EF3CFDBFF030153
:100A30000C6B00D0020EDB5001E1BDD0F4C1DEFF33
:100A4000F5C1DDFFDECFE9FFDDCFEAFF100EE926BD
:100A5000000EEA22EF50060801E1ADD0C00EF214FC
:100A6000E76E030EE7CFDBFF800ED0143F09F216CE
:100A7000DECFE9FFDDCFEAFF0A0EE926000EEA220B
:100A8000EECF00F0EECF01F0EECF02F0EFCF03F0AB
:100A9000005001100210031001E17DD0DECFE9FF0C
:100AA000DDCFEAFF0A0EE926000EEA22EE06000E6E
:100AB000EE5AEE5AEE5ADECFE9FFDDCFEAFF0A0E1C
:100AC000E926000EEA22EECF00F0EECF01F0EECFE5
:100AD00002F0EFCF03F000500110021003105BE1B1
:100AE000DECFE9FFDDCFEAFF0E0EE926000EEA2297
:100AF000EF50370B17E0C80E006EDECFE9FFDDCFF9
:100B0000EAFF0E0EE926000EEA220050EF16DECFB5
:100B1000E9FFDDCFEAFF0F0EE926000EEA22010E03
:100B2000EF6E09D0DECFE9FFDDCFEAFF0F0EE92639
:100B3000000EEA22EF6ADECFE9FFDDCFEAFF0E0EFC
:100B4000E926000EEA22EF50080B25E1DECFE9FF8F
:100B5000DDCFEAFF140EE926000EEA22EF50010174
:100B60008213DECFE9FFDDCFEAFF130EE926000E88
:100B7000EA22EFCF00F0DECFE9FFDDCFEAFF120E71
:100B8000E926000EEA22EF50EA6A830FE96E010EB1
:100B9000EA220050EF12DECFE9FFDDCFEAFF020EBE
:100BA000E926000EEA22EECFDEFFEDCFDDFF030ED9
:100BB000DB50F21247D7040EE15C02E2E16AE55233
:100BC000E16EE552E7CFD9FF1200230EF36E010E5E
:100BD000F46E00D012001200D9CFE6FFE1CFD9FFAA
:100BE000050EE126FD0EDBCFE9FFFE0EDBCFEAFFAF
:100BF000050EE926000EEA22EF50EA6A110FE96EAF
:100C0000030EEA22020EEFCFDBFFFD0EDBCFE9FF82
:100C1000FE0EDBCFEAFF060EE926000EEA22E9CF40
:100C200000F0EACF01F0020EDB500F010024E96E64
:100C3000000E0120EA6EEF50EA6A110FE96E030E12
:100C4000EA22030EEFCFDBFF030EDBCFE6FF020E3F
:100C5000DB50080DF350E552E724E76E040EE7CFB2
:100C6000DBFF040EEA6ADB34FE0BEA36E96EF60EB1
:100C7000E926010EEA22EECFDEFFEDCFDDFFDECF6B
:100C8000E9FFDDCFEAFF0A0EE926000EEA22EE6A4E
:100C9000EE6AEE6AEE6AFB0EDBCF28F0FC0EDBCFCD
:100CA00029F0FB0E28C0DBFFFC0E29C0DBFFFA0E8B
:100CB000DB1C006EDECFE9FFDDCFEAFF0E0EE9267A
:100CC000000EEA220050EF16DECFE9FFDDCFEAFF8B
:100CD0000F0EE926000EEA22F90EDBCFEFFFDECF82
:100CE000E9FFDDCFEAFF0E0EE926000EEA22EF5003
:100CF000080B1EE1DECFE9FFDDCFEAFF140EE92687
:100D0000000EEA22EF5001018213DECFE9FFDDCFB2
:100D1000EAFF130EE926000EEA22EFCF00F0020EE2
:100D2000DB50EA6A830FE96E010EEA220050EF12EF
:100D3000FD0EDBCFE6FFFE0EDBCFE6FFDECFE6FFEC
:100D4000DDCFE6FF6AD9E552E552E552E552DECF46
:100D5000E9FFDDCFEAFF080EE926000EEA22EE5099
:100D6000ED1023E0DECFE9FFDDCFEAFF080EE92634
:100D7000000EEA22EECFE6FFEFCFE6FFDECFE6FF82
:100D8000DDCFE6FFB2D9E552E552E552E552DECFBE
:100D9000E9FFDDCFEAFF060EE926000EEA22FD0E8E
:100DA000DBCFEEFFFE0EDBCFEDFF040EDB5000D0FD
:100DB000006E050EE15C02E2E16AE552E16E005070
:100DC000E552E7CFD9FF1200D9CFE6FFE1CFD9FF37
:100DD000E652EEC1E9FFEFC1EAFF060EE926000E7A
:100DE000EA22FD0EDBCFEEFFFE0EDBCFEDFFEEC104
:100DF000E9FFEFC1EAFF130EEB50026EFD0EDBCFF1
:100E0000E9FFFE0EDBCFEAFF060EE926000EEA221E
:100E1000E9CF00F0EACF01F0EEC1E9FFEFC1EAFF50
:100E2000120EEB500F010024E96E000E0120EA6E55
:100E30000250EF12EEC1E9FFEFC1EAFF140EEB50D2
:100E4000006EFD0EDBCFE9FFFE0EDBCFEAFF050EE5
:100E5000E926000EEA220050EF12EEC1E9FFEFC1D1
:100E6000EAFF120EEB50DF6EEEC1E9FFEFC1EAFFC1
:100E7000130EEB50E81C006EDF50EA6A830FE96E38
:100E8000010EEA220050EF16DF50EA6A830FE96E86
:100E9000010EEA22EF5009E1EEC1E9FFEFC1EAFFDE
:100EA000140EEB50E81C01018217E552E552E7CF22
:100EB000D9FF1200D9CFE6FFE1CFD9FF050EE12619
:100EC000EEC1E9FFEFC1EAFF060EEB6A070EEB6A1F
:100ED000EEC1E9FFEFC1EAFF080EE926000EEA22A3
:100EE000FD0EDBCFEEFFFE0EDBCFEDFFFD0EDBCF09
:100EF000DEFFDBCFDDFFDECFE9FFDDCFEAFF020E55
:100F0000EECFDBFF030EEDCFDBFFD950020FE96E12
:100F1000DACFEAFFEE50ED1049E0EEC1E9FFEFC194
:100F2000EAFF130EEB50026E020EDBCFE9FF030E59
:100F3000DBCFEAFF060EE926000EEA22E9CF00F039
:100F4000EACF01F0EEC1E9FFEFC1EAFF120EEB506C
:100F50000F010024E96E000E0120EA6E0250EF122C
:100F6000EEC1E9FFEFC1EAFF140EEB50006E020E76
:100F7000DBCFE9FF030EDBCFEAFF050EE926000E0B
:100F8000EA220050EF12D9CFE9FFDACFEAFF020ED2
:100F9000EE26000EEF22DECFE9FFDDCFEAFF020EE4
:100FA000EECFDBFF030EEDCFDBFFAFD7EEC1E9FFE6
:100FB000EFC1EAFF120EEB50E76E040EE7CFDBFF46
:100FC000EEC1E9FFEFC1EAFF130EEB50E81C006E23
:100FD000040EDB50EA6A830FE96E010EEA2200502C
:100FE000EF16040EDB50EA6A830FE96E010EEA2267
:100FF000EF5009E1EEC1E9FFEFC1EAFF140EEB503B
:10100000E81C01018217050EE15C02E2E16AE5528B
:10101000E16EE552E7CFD9FF1200D9CFE6FFE1CF6D
:10102000D9FFE652FD0EDBCFE9FFFE0EDBCFEAFF74
:10103000120EE926000EEA22EFCFDFFFFD0EDBCF16
:10104000E9FFFE0EDBCFEAFF130EE926000EEA22CF
:10105000EF1C026EFB0EDBCFE9FFFC0EDBCFEAFFDD
:10106000060EE926000EEA22E9CF00F0EACF01F0F1
:10107000DF500F010024E96E000E0120EA6E0250DD
:10108000EF16FB0EDBCFE9FFFC0EDBCFEAFF060E0F
:10109000E926000EEA22E9CF00F0EACF01F0DF50A6
:1010A0000F010024E96E000E0120EA6EEF5018E1F6
:1010B000FD0EDBCFE9FFFE0EDBCFEAFF140EE926C3
:1010C000000EEA22EF1C006EFB0EDBCFE9FFFC0EE8
:1010D000DBCFEAFF050EE926000EEA220050EF16EC
:1010E000E552E552E7CFD9FF1200D9CFE6FFE1CFB5
:1010F000D9FF070EE126FD0EDBCFE9FFFE0EDBCFA9
:10110000EAFF120EE926000EEA22040EEFCFDBFF03
:10111000FD0EDBCFE9FFFE0EDBCFEAFF140EE92662
:10112000000EEA22050EEFCFDBFFFD0EDBCFE9FF5D
:10113000FE0EDBCFEAFF130EE926000EEA22060EB2
:10114000EFCFDBFFFB0EDBCFDEFFDBCFDDFFDECF44
:10115000E9FFDDCFEAFF020EEECFDBFF030EEDCF9E
:10116000DBFFD950020FE96EDACFEAFFEE50ED1047
:1011700055E0060EDB1C026E020EDBCFE9FF030E0C
:10118000DBCFEAFF060EE926000EEA22E9CF00F0E7
:10119000EACF01F0040EDB500F010024E96E000ECF
:1011A0000120EA6E0250EF16020EDBCFE9FF030EBC
:1011B000DBCFEAFF060EE926000EEA22E9CF00F0B7
:1011C000EACF01F0040EDB500F010024E96E000E9F
:1011D0000120EA6EEF500FE1050EDB1C006E020EDF
:1011E000DBCFE9FF030EDBCFEAFF050EE926000E99
:1011F000EA220050EF16D9CFE9FFDACFEAFF020E5C
:10120000EE26000EEF22DECFE9FFDDCFEAFF020E71
:10121000EECFDBFF030EEDCFDBFFA3D7070EE15CC4
:1012200002E2E16AE552E16EE552E7CFD9FF120032
:10123000D9CFE6FFE1CFD9FFE652FD0EDBCFE9FFC4
:10124000FE0EDBCFEAFF050EE926000EEA22EF6A6A
:10125000DF6A010EDF5C18E2FD0EDBCFE9FFFE0E58
:10126000DBCFEAFF060EE926000EEA22E9CF00F006
:10127000EACF01F0DF500F010024E96E000E0120DB
:10128000EA6EEF6ADF2AE5D7E552E552E7CFD9FFEC
:101290001200D9CFE6FFE1CFD9FF080EE1265A0EA2
:1012A000E66EE66AB60EE66E000EE66EB6D9E5525A
:1012B000E552E552E552DE6ADD6ADECF00F0DDCFB1
:1012C00001F0090E005C000E015867E2DECF00F06D
:1012D000DDCF01F0010E0026000E0122020E00C03B
:1012E000DBFF030E01C0DBFFDECF00F0DDCF01F03E
:1012F000090E0102F3CF01F0090E0002F3CF00F056
:10130000F4500126B60E0026000E0122040E00C085
:10131000DBFF050E01C0DBFF020EDBCF00F0030E8A
:10132000DBCF01F0090E0102F3CF01F0090E00023C
:10133000F3CF00F0F4500126B60E0026000E012275
:10134000060E00C0DBFF070E01C0DBFF040EDBCF83
:10135000E9FF050EDBCFEAFFEF6A040EDBCFE9FF02
:10136000050EDBCFEAFFEE52060EDBCFEEFF070ED7
:10137000DBCFEDFF040EDBCFE9FF050EDBCFEAFF8D
:10138000070EE926000EEA223C0EEE6E760EED6E9A
:10139000DF2A010E01E3DB2A90D7DECF00F0DDCF9C
:1013A00001F0090E0102F3CF01F0090E0002F3CFA4
:1013B00000F0F4500126B60E0026000E0122040EA5
:1013C00000C0DBFF050E01C0DBFF040EDBCFE9FF31
:1013D000050EDBCFEAFFEF6A040EDBCFE9FF050E57
:1013E000DBCFEAFF010EEB6A020EEB6A040EDBCFE5
:1013F000E9FF050EDBCFEAFF070EE926000EEA2221
:101400003C0EEE6E760EED6E0001B60EB46F000E61
:10141000B56F080EE15C02E2E16AE552E16EE55269
:10142000E7CFD9FF120003010D6B0E6B0F6B106B32
:1014300001017E6B01017F6B0101856B0101846BF2
:101440000001B06BB16BB26BB36B0101866B876B44
:10145000886B896B0101156B166B176B186B01019B
:10146000116B126B136B146B0101196B1200D9CF46
:10147000E6FFE1CFD9FFE6520101826BDF6A010E80
:10148000DF5C09E2DF50EA6A830FE96E010EEA22AF
:10149000EF6ADF2AF4D70101806B0101816B010142
:1014A000F26BF36B0101EE6BEF6BE552E552E7CFA8
:1014B000D9FF1200060EE66E8A0EE66E010EE66E8B
:1014C000000EE66EE66AD20EE66E170EE66E000EAF
:1014D000E66E48EC16F0006E080EE15E0050120059
:1014E000050EE66E1A0EE66E010EE66E000EE66E54
:1014F000E66A240EE66E180EE66E000EE66E48EC06
:1015000016F0006E080EE15E00501200D9CFE6FF23
:10151000E1CFD9FF060EE126080EE66E010EE66E5B
:10152000040EE66E020EE66E78D8E552E552E552FC
:10153000E5520E0EE66EE66AF60EE66E010EE66EF9
:101540006CD8E552E552E552E552DF6A050EDF5CE4
:1015500038E2DF28E76E010EE7CFDBFFDF502C0D0E
:10156000F3CF00F0F4CF01F0040E0026020E0122AA
:10157000020E00C0DBFF030E01C0DBFF010EDB50DB
:101580002C0DF3CF00F0F4CF01F0040E0026020E74
:101590000122040E00C0DBFF050E01C0DBFF020EBE
:1015A000DBCFE9FF030EDBCFEAFF020EE926000ED8
:1015B000EA22040EDBCFEEFF050EDBCFEDFFDF2AC4
:1015C000C5D7DF502C0DF3CF00F0F4CF01F0040E9F
:1015D0000026020E0122020E00C0DBFF030E01C036
:1015E000DBFF020EDBCFE9FF030EDBCFEAFF020ECB
:1015F000EB6A030EEB6A0101F46BF56B0101040E5B
:10160000F06F020EF16F060EE15C02E2E16AE55254
:10161000E16EE552E7CFD9FF1200D9CFE6FFE1CF67
:10162000D9FFD950FB0FE96EFF0EDA20EA6E000EEB
:10163000D880EE54000EED5410E2FD0EDBCFE9FF32
:10164000DB2AFE0EDBCFEAFF01E3DB2AEF6AFB0EAB
:10165000DB06FC0E01E2DB06E4D7E552E7CFD9FF5B
:101660001200D9CFE6FFE1CFD9FFD950F90FE96ECB
:10167000FF0EDA20EA6E000ED880EE54000EED5414
:101680001DE2FB0EDBCFE9FFDB2AFC0EDBCFEAFF1E
:1016900001E3DB2AEF50E66EFD0EDBCFE9FFDB2A2C
:1016A000FE0EDBCFEAFF01E3DB2AE552E750EF6EE7
:1016B000F90EDB06FA0E01E2DB06D7D7E552E7CFDB
:1016C000D9FF1200D9CFE6FFE1CFD9FFE652DF6A9A
:1016D000C00EF214DF6E800ED0143F09F216010125
:1016E0007E512DE101017F512AE130D80101815164
:1016F000E96EEA6AD890E936EA36F60EE926010E76
:10170000EA22EECFF2F1EDCFF3F1010180510101B8
:10171000815D15E0F2C1E9FFF3C1EAFF160EE9268B
:10172000000EEA22EE2A000EEE22EE22EE22000148
:10173000B02B000EB123B223B323BDEC30F0DF5049
:10174000F212E552E552E7CFD9FF1200D9CFE6FFFA
:10175000E1CFD9FFE65201018251EA6A110FE96E29
:10176000030EEA22EFCFDFFFDF50EA6A830FE96E54
:10177000010EEA22EF50EA6A110FE96E030EEA2227
:10178000EFCF00F0DF50080DF35000240101816F0E
:10179000E552E552E7CFD9FF1200D9CFE6FFE1CFFE
:1017A000D9FFE652DF6AFD0EDBCFE9FFFE0EDBCF8D
:1017B000EAFFEF5007E0FD0EDB2AFE0E01E3DB2A15
:1017C000DF2AF1D7DF5000D0E552E552E7CFD9FF4D
:1017D0001200D9CFE6FFE1CFD9FFE652DF6AFD0E56
:1017E000DBCF28F0FE0EDBCF29F0FD0E28C0DBFF9B
:1017F000FE0E29C0DBFFC00EF214DF6E800ED01487
:101800003F09F2160101862B000E872388238923C6
:10181000DF50F21270EC30F0EED7E552E552E7CF30
:10182000D9FF1200D9CFE6FFE1CFD9FFE652DF6A38
:10183000FD0EDBCF28F0FE0EDBCF29F0FD0E28C019
:10184000DBFFFE0E29C0DBFF010119510CE1140E74
:10185000E66EE66AE66AE66AD6EC1BF0E552E55209
:10186000E552E552F1D7640E2B6E2C6A2D6A2E6A72
:1018700011C126F012C127F013C128F014C129F0BC
:101880001CEC3AF026C011F127C012F128C013F168
:1018900029C014F10101115112111311141106E1A3
:1018A0000101106BE668D4EC19F0E552C00EF21499
:1018B000DF6E800ED0143F09F21686C115F187C184
:1018C00016F188C117F189C118F10101866B876B88
:1018D000886B896BDF50F212640E046E056A066A2B
:1018E000076A15C126F016C127F017C128F018C1E4
:1018F00029F011C12BF012C12CF013C12DF014C12D
:101900002EF01CEC3AF02650045C006E275005586F
:10191000016E28500658026E29500758036E00C009
:1019200010F166EC30F00A0EE66EE66AE66AE66AE8
:10193000D6EC1BF0E552E552E552E552B7D7E55239
:10194000E552E7CFD9FF1200D9CFE6FFE1CFD9FFAB
:10195000040EE126020EDB6AC00EF214E76E020EE0
:10196000E7CFDBFF800ED0143F09F216F0C1DEFF97
:10197000F1C1DDFFD9CFE9FFDACFEAFFEE50ED107C
:1019800001E1D9D1DECFE9FFDDCFEAFF020EE92682
:10199000000EEA22EECFF0F1EDCFF1F1020EDB50B6
:1019A000F212DECFE9FFDDCFEAFFFC0EDBCFEEFF68
:1019B000FD0EDBCFEDFFDECFE9FFDDCFEAFF100E3E
:1019C000E926000EEA22FE0EDBCFEFFFDECFE9FFB5
:1019D000DDCFEAFF0E0EE926000EEA22EF6ADECF27
:1019E000E9FFDDCFEAFF0F0EE926000EEA22EF6ADB
:1019F000DECFE9FFDDCFEAFF0A0EE926000EEA227C
:101A0000EE6AEE6AEE6AEE6AF20EDBCF28F0F30EB3
:101A1000DBCF29F0F20E28C0DBFFF30E29C0DBFF7D
:101A2000D950F40FE96EFF0EDA20EA6EF40EEECF15
:101A3000DBFFF50EEECFDBFFF60EEECFDBFFF70E92
:101A4000EECFDBFFFA0EDBCF28F0FB0EDBCF29F069
:101A5000FA0E28C0DBFFFB0E29C0DBFFF00EDBCF48
:101A600028F0F10EDBCF29F0F00E28C0DBFFF10EDD
:101A700029C0DBFFF80EDBCF28F0F90EDBCF29F011
:101A8000F80E28C0DBFFF90E29C0DBFFDECFE9FF2F
:101A9000DDCFEAFF150EE926000EEA22EF6AFE0E00
:101AA000DB40E840E8401F0BE66EDECFE9FFDDCF0C
:101AB000EAFF120EE926000EEA22E552E750EF6E29
:101AC000FE0EDB50070BE66EDECFE9FFDDCFEAFF4F
:101AD000110EE926000EEA22E552E750EF6E010EE4
:101AE000006E016A026A036ADECFE9FFDDCFEAFF1A
:101AF000120EE926000EEA22EF501F0B07E0D890E5
:101B00000036013602360336E806F9E1DECFE9FF9A
:101B1000DDCFEAFF140EE926000EEA2200C0EFFF37
:101B2000010E006E016A026A036ADECFE9FFDDCFB3
:101B3000EAFF110EE926000EEA22EF501F0B07E024
:101B4000D8900036013602360336E806F9E1DECFDA
:101B5000E9FFDDCFEAFF130EE926000EEA2200C0FE
:101B6000EFFFDECFE9FFDDCFEAFF060EEB6A070EDF
:101B7000EB6ADECFE9FFDDCFEAFF080EEB6A090E64
:101B8000EB6ADECFE9FFDDCFEAFF160EE926000E95
:101B9000EA22EE6AEE6AEE6AEE6ADECFE9FFDDCF98
:101BA000EAFF1E0EE926000EEA22EE6AEE6AEE6AEF
:101BB000EE6ADECFE9FFDDCFEAFF1A0EE926000E5E
:101BC000EA22EE6AEE6AEE6AEE6ADECFE9FFDDCF68
:101BD000EAFF220EEB6A230EEB6ADECFE9FFDDCFD0
:101BE000EAFF240EE926000EEA22EE6AEE6AEE6AA9
:101BF000EE6A030EDB6A010EF36E030EDBCFF4FF19
:101C0000F350F45C1CE2DECFE9FFDDCFEAFF280EE3
:101C1000E926000EEA22E9CF00F0EACF01F0030E38
:101C2000DB50040D0050F324E96E0150F420EA6EFD
:101C3000EE6AEE6AEE6AEE6A030EDB2ADCD7DECFCE
:101C4000E6FFDDCFE6FF68EC30F0E552E552DECF8F
:101C5000E6FFDDCFE6FF54EC30F0E552E552C00E72
:101C6000F214E76E020EE7CFDBFF800ED0143F09BF
:101C7000F216FE0EEA6ADB34FE0BEA36E96EF60E69
:101C8000E926010EEA22DECFEEFFDDCFEDFFDECF4B
:101C9000E9FFDDCFEAFF020EE926000EEA22F4C1D9
:101CA000EEFFF5C1EDFFDECFE9FFDDCFEAFF040E69
:101CB000EB6A050EEB6A0101F451F5110CE0F4C179
:101CC000E9FFF5C1EAFF040EE926000EEA22DECFA5
:101CD000EEFFDDCFEDFFDECFF4F1DDCFF5F1DECFAE
:101CE000E9FFDDCFEAFF140EE926000EEA22EF50ED
:101CF00001018213DECFE9FFDDCFEAFF130EE926F3
:101D0000000EEA22EFCF00F0DECFE9FFDDCFEAFFE1
:101D1000120EE926000EEA22EF50EA6A830FE96EFE
:101D2000010EEA220050EF120101852B020EDB505A
:101D3000F212000E05D0020EDB50F212420E00D05D
:101D4000006E040EE15C02E2E16AE552E16E0050D1
:101D5000E552E7CFD9FF1200D9CFE6FFE1CFD9FF97
:101D6000030EE126020EDB6AFD0EDBCFE9FFFE0E5D
:101D7000DBCFEAFFEF50030803E0F36AF46A3BD0DD
:101D8000C00EF214E76E020EE7CFDBFF800ED01418
:101D90003F09F216FD0EDBCFE9FFFE0EDBCFEAFFB7
:101DA000030EE926000EEA22EECFDEFFEDCFDDFFC7
:101DB000D9CFE9FFDACFEAFF000ED880EE54000E4B
:101DC000ED540DE2FD0EDBCFE9FFFE0EDBCFEAFFA7
:101DD000030EE926000EEA22EE06000EEF5A020E6E
:101DE000DB50F212DECF00F0DDCF01F000C0F3FFD8
:101DF00001C0F4FF00D0030EE15C02E2E16AE552AB
:101E0000E16EE552E7CFD9FF1200D9CFE6FFE1CF6F
:101E1000D9FF030EE126020EDB6A01017E510008A4
:101E200003E2F36AF46A5ED0C00EF214E76E020EAB
:101E3000E7CFDBFF800ED0143F09F216B4C0DEFFFF
:101E4000B5C0DDFF0001B451B51109E0B4C0E9FF30
:101E5000B5C0EAFFEE52EECFB4F0EDCFB5F0020E12
:101E6000DB50F212D9CFE9FFDACFEAFFEE50ED10E6
:101E700030E0DECFE9FFDDCFEAFF030EEF6EDECF0D
:101E8000E9FFDDCFEAFF030EE926000EEA22FD0E90
:101E9000DBCFEEFFFE0EDBCFEDFFDECFE9FFDDCFC8
:101EA000EAFF010EEB6A020EEB6ADECFE9FFDDCF3F
:101EB000EAFF070EE926000EEA223C0EEE6E760ED1
:101EC000ED6EDECFE6FFDDCFE6FF18EC09F0E55260
:101ED000E552DECF00F0DDCF01F000C0F3FF01C01E
:101EE000F4FF00D0030EE15C02E2E16AE552E16E2C
:101EF000E552E7CFD9FF1200D9CFE6FFE1CFD9FFF6
:101F0000040EE126030EDB6AFD0EDBCFE9FFFE0EB9
:101F1000DBCFEAFFEF50030813E0FA0EDBCFE9FF57
:101F2000FB0EDBCFEAFF010EEF6EFD0EDBCF00F004
:101F3000FE0EDBCF01F000C0F3FF01C0F4FF16D1AD
:101F400001017E51000813E2FA0EDBCFE9FFFB0E20
:101F5000DBCFEAFF0F0EEF6EFD0EDBCF00F0FE0EC3
:101F6000DBCF01F000C0F3FF01C0F4FFFFD0C00ED3
:101F7000F214E76E030EE7CFDBFF800ED0143F09AB
:101F8000F216FD0EDBCFE9FFFE0EDBCFEAFF050EFA
:101F9000E926000EEA22EF5003E0010EDF6E01D0C9
:101FA000DF6AFC0EDB50010A5CE0010A01E0BBD0F5
:101FB000DF503FE1FD0EDBCFE9FFFE0EDBCFEAFF96
:101FC000070EE926000EEA223C0EEE6E760EED6E4E
:101FD000FD0EDBCFE9FFFE0EDBCFEAFFEF6AFD0E61
:101FE000DBCFE9FFFE0EDBCFEAFFEE52B4C0EEFF1F
:101FF000B5C0EDFFFD0EDBCFE9FFFE0EDBCFEAFF44
:10200000030EEB6A040EEB6AFD0EDBCFB4F0FE0E9E
:10201000DBCFB5F0030EDB50F212FA0EDBCFE9FF97
:10202000FB0EDBCFEAFFEF6A010EDB6A020EDB6A12
:1020300017D0030EDB50F212FA0EDBCFE9FFFB0ED6
:10204000DBCFEAFF490EEF6EFD0EDBCF28F0FE0E70
:10205000DBCF29F0DE5228C0DEFF29C0DDFFDD52D4
:102060007AD0FD0EDBCFE9FFFE0EDBCFEAFF050ED7
:10207000E926000EEA22EF5013E0E66A010EE66E52
:10208000000EE66EE66AFD0EDBCFE6FFFE0EDBCF4E
:10209000E6FFECEC05F0006E060EE15E0050E1D7C5
:1020A000FD0EDBCFE9FFFE0EDBCFEAFF070EE926D0
:1020B000000EEA223C0EEE6E760EED6EFD0EDBCFCC
:1020C000E9FFFE0EDBCFEAFFEF6AFD0EDBCFE9FF93
:1020D000FE0EDBCFEAFFEE52B4C0EEFFB5C0EDFF5F
:1020E000FD0EDBCFE9FFFE0EDBCFEAFF030EEB6A4E
:1020F000040EEB6AFD0EDBCFB4F0FE0EDBCFB5F0C5
:10210000030EDB50F212DF0402E162EC0BF0FA0E78
:10211000DBCFE9FFFB0EDBCFEAFFEF6A010EDB6AE4
:10212000020EDB6A18D0030EDB50F212FA0EDBCF80
:10213000E9FFFB0EDBCFEAFF070EEF6EFD0EDBCFF4
:1021400028F0FE0EDBCF29F0DE5228C0DEFF29C0CA
:10215000DDFFDD5200D0010EDBCF00F0020EDBCF41
:1021600001F000C0F3FF01C0F4FF00D0040EE15CF9
:1021700002E2E16AE552E16EE552E7CFD9FF1200D3
:10218000D9CFE6FFE1CFD9FFE652DF6AFD0EDBCF04
:10219000E9FFFE0EDBCFEAFFEF50030809E0F70E80
:1021A000DBCFE9FFF80EDBCFEAFF010EEF6EDED0EA
:1021B00001017E51000809E2F70EDBCFE9FFF80EBE
:1021C000DBCFEAFF020EEF6ED1D001017F51000894
:1021D00009E2F70EDBCFE9FFF80EDBCFEAFF0D0EC9
:1021E000EF6EC4D0C00EF214DF6E800ED0143F0923
:1021F000F216FD0EDBCFE9FFFE0EDBCFEAFF030E8A
:10220000E926000EEA22000ED880EE54000EED54AE
:1022100017E2FD0EDBCFE9FFFE0EDBCFEAFF030E78
:10222000E926000EEA22EE06000EEF5ADF50F21207
:10223000F70EDBCFE9FFF80EDBCFEAFFEF6A96D0AF
:10224000EEC1E9FFEFC1EAFF0E0EE926000EEA2219
:10225000EF80EEC1E9FFEFC1EAFF0F0EE926000EA5
:10226000EA22EF6AEEC1E9FFEFC1EAFF0A0EE926B2
:10227000000EEA22F90EDBCFEEFFFA0EDBCFEEFF07
:10228000FB0EDBCFEEFFFC0EDBCFEEFFFD0EDBCF58
:10229000E6FFFE0EDBCFE6FFE4EC06F0E552E5528A
:1022A000DF50F21262EC0BF0C00EF214DF6E800E03
:1022B000D0143F09F216EEC1E9FFEFC1EAFF0F0E9D
:1022C000EB50010A16E0030A0BE0020A01E011D00C
:1022D000F70EDBCFE9FFF80EDBCFEAFFEF6A22D083
:1022E000F70EDBCFE9FFF80EDBCFEAFF0E0EEF6E45
:1022F00019D0FD0EDBCFE6FFFE0EDBCFE6FFEEC111
:10230000E6FFEFC1E6FF0DEC08F0E552E552E552BD
:10231000E552F70EDBCFE9FFF80EDBCFEAFF0A0E3E
:10232000EF6E00D0EEC1E9FFEFC1EAFF0E0EE92625
:10233000000EEA22EF6AEEC1E9FFEFC1EAFF0F0EDD
:10234000E926000EEA22EF6AEEC1E9FFEFC1EAFFDB
:10235000060EEB6A070EEB6AEEC1E9FFEFC1EAFF7A
:10236000080EEB6A090EEB6ADF50F212E552E552F5
:10237000E7CFD9FF1200D9CFE6FFE1CFD9FF020E98
:10238000E126010EDB6AFD0EDBCFE9FFFE0EDBCF9F
:10239000EAFFEF5003080AE0FA0EDBCFE9FFFB0E7D
:1023A000DBCFEAFF010EEF6E000E6FD0C00EF2140D
:1023B000E76E010EE7CFDBFF800ED0143F09F21667
:1023C000FD0EDBCFE9FFFE0EDBCFEAFF050EE926AF
:1023D000000EEA22EF504DE0DF6AFC0EDB5025E0F4
:1023E000010A01E022D0FD0EDBCFE9FFFE0EDBCFBC
:1023F000EAFF050EE926000EEA22EF5015E0020E74
:10240000E66E010EE66E000EE66EE66AFD0EDBCFAE
:10241000E6FFFE0EDBCFE6FFECEC05F0006E060EED
:10242000E15E0050DF2ADFD715D0020EE66E010E06
:10243000E66E000EE66EE66AFD0EDBCFE6FFFE0EF0
:10244000DBCFE6FFECEC05F0006E060EE15E00501F
:10245000DF2A00D0010EDB50F21262EC0BF0FA0E14
:10246000DBCFE9FFFB0EDBCFEAFF0E0EEF6EDF5096
:102470000CD0010EDB50F212FA0EDBCFE9FFFB0E9F
:10248000DBCFEAFFEF6A000E00D0006E020EE15CC7
:1024900002E2E16AE552E16E0050E552E7CFD9FF72
:1024A0001200D9CFE6FFE1CFD9FFE652DF6AFD0E79
:1024B000DBCFE9FFFE0EDBCFEAFFEF50030802E0BF
:1024C000010E53D0C00EF214DF6E800ED0143F09FF
:1024D000F216FD0EDBCFE9FFFE0EDBCFEAFF050EA5
:1024E000E926000EEA22EF5018E0E66A010EE66ED9
:1024F000000EE66EE66AFD0EDBCFE6FFFE0EDBCFDA
:10250000E6FFECEC05F0006E060EE15E0050DF50D9
:10251000F21262EC0BF0000E28D0FD0EDBCFE9FFCB
:10252000FE0EDBCFEAFF030EE926000EEA22EECF15
:1025300000F0EFCF01F0FF0E005CFF0E015811E23A
:10254000FD0EDBCFE9FFFE0EDBCFEAFF030EE9262F
:10255000000EEA22EE2A000EEF22DF50F212000EE9
:1025600004D0DF50F212330E00D0E552E552E7CF2F
:10257000D9FF1200D9CFE6FFE1CFD9FF060EE12641
:10258000050EDB6AFD0EDBCFE9FFFE0EDBCFEAFFB7
:10259000EF50030802E0010E85D0C00EF214E76E82
:1025A000050EE7CFDBFF800ED0143F09F216FD0EBB
:1025B000DBCFE9FFFE0EDBCFEAFF050EE926000EBA
:1025C000EA22EF50E66EFB0EDBCFE9FFFC0EDBCF1D
:1025D000EAFF030EE926000EEA22E552E750EF6E0D
:1025E000FD0EDBCFE9FFFE0EDBCFEAFF060EE9268C
:1025F000000EEA22E9CF00F0EACF01F0010E00C0A0
:10260000DBFF020E01C0DBFFFB0EDBCFE9FFFC0EA0
:10261000DBCFEAFF020EE926000EEA22E9CF00F046
:10262000EACF01F0030E00C0DBFF040E01C0DBFFA8
:10263000DF6A010EDF5C19E2010EDBCFE9FFDB2A66
:10264000020EDBCFEAFF01E3DB2AEF50E66E030E5A
:10265000DBCFE9FFDB2A040EDBCFEAFF01E3DB2A55
:10266000E552E750EF6EDF2AE4D7FD0EDBCFE9FF3E
:10267000FE0EDBCFEAFF030EE926000EEA22EECFC4
:1026800000F0EFCF01F0FB0EDBCFE9FFFC0EDBCF5C
:10269000EAFF00C0EEFF01C0EDFF050EDB50F212B5
:1026A000000E00D0006E060EE15C02E2E16AE55227
:1026B000E16E0050E552E7CFD9FF1200D9CFE6FF17
:1026C000E1CFD9FFE652DF6AFD0EDBCFE9FFFE0E58
:1026D000DBCFEAFFEF50030809E0F90EDBCFE9FF9B
:1026E000FA0EDBCFEAFF010EEF6E56D0C00EF214E9
:1026F000DF6E800ED0143F09F216F90EDBCFE9FF32
:10270000FA0EDBCFEAFFEF6AFD0EDBCFE9FFFE0E2C
:10271000DBCFEAFF030EE926000EEA22000ED88086
:10272000EE54000EED5411E2FD0EDBCFE9FFFE0E7C
:10273000DBCFEAFF030EE926000EEA22FB0EDBCF19
:10274000EEFFFC0EDBCFEDFF25D0FD0EDBCFE9FF6A
:10275000FE0EDBCFEAFF050EE926000EEA22EF505F
:1027600011E1FD0EDBCFE9FFFE0EDBCFEAFF030E2A
:10277000E926000EEA22FB0EDBCFEEFFFC0EDBCFDC
:10278000EDFF08D0F90EDBCFE9FFFA0EDBCFEAFF51
:10279000490EEF6EDF50F212E552E552E7CFD9FF56
:1027A0001200D9CFE6FFE1CFD9FF0E0EE1260D0EC4
:1027B000DB6AC00EF214E76E0D0EE7CFDBFF800E72
:1027C000D0143F09F216FD0EEA6ADB34FE0BEA363E
:1027D000E96EF60EE926010EEA22EE50ED1005E054
:1027E0000D0EDB50F212280E47D2FE0EDB50FF0812
:1027F0000AE1EEC1E9FFEFC1EAFF100EEB50E76E10
:10280000FE0EE7CFDBFFFE0EEA6ADB34FE0BEA3694
:10281000E96EF60EE926010EEA22040EEECFDBFF8A
:10282000050EEDCFDBFFD950040FE96EDACFEAFFDA
:10283000EE50ED1005E10D0EDB50F212290E1CD208
:10284000D950040FE96EDACFEAFF010EEE1801E16C
:10285000ED5005E10D0EDB50F212430E0DD2FD0ED0
:10286000DB40E840E8401F0BE76E060EE7CFDBFFDA
:10287000FD0EDB50070BE76E070EE7CFDBFF010E07
:10288000006E016A026A036A060EDB501F0B07E046
:10289000D8900036013602360336E806F9E1090E13
:1028A00000C0DBFF010E006E016A026A036A070EB8
:1028B000DB501F0B07E0D890003601360236033696
:1028C000E806F9E10A0E00C0DBFFFE0EEA6ADB341F
:1028D000FE0BEA36E96EF60EE926010EEA22EE6AF2
:1028E000ED6AFD0EEA6ADB34FE0BEA36E96EF60E9F
:1028F000E926010EEA22040EDBCFEEFF050EDBCF48
:10290000EDFF040EDBCFE9FF050EDBCFEAFF120E71
:10291000E926000EEA22080EEFCFDBFF040EDBCF24
:10292000E9FF050EDBCFEAFF140EE926000EEA22CE
:102930000B0EEFCFDBFF040EDBCFE9FF050EDBCF85
:10294000EAFF130EE926000EEA220C0EEFCFDBFFA2
:102950000C0EDBCFE6FF080EDB50EA6A830FE96E50
:10296000010EEA22EF50E552E71427E00C0EDB1CC3
:10297000006E080EDB50EA6A830FE96E010EEA2250
:102980000050EF16080EDB50EA6A830FE96E010E65
:10299000EA22EF5004E10B0EDB1C01018217090E45
:1029A000DB5001018213060EDB50EA6A830FE96EE9
:1029B000010EEA220A0EDB50EF12040EDBCFE9FF14
:1029C000050EDBCFEAFF060EE926000EEA22EECF67
:1029D000DEFFEDCFDDFFD9CFE9FFDACFEAFFEE5022
:1029E000ED105EE00C0EDB1C026EDECFE9FFDDCFEA
:1029F000EAFF060EE926000EEA22E9CF00F0EACF50
:102A000001F0080EDB500F010024E96E000E0120DA
:102A1000EA6E0250EF16DECFE9FFDDCFEAFF060EC9
:102A2000E926000EEA22E9CF00F0EACF01F0080E15
:102A3000DB500F010024E96E000E0120EA6EEF501A
:102A40000DE10B0EDB1C006EDECFE9FFDDCFEAFFF0
:102A5000050EE926000EEA220050EF16DECFE9FF50
:102A6000DDCFEAFF050EE926000EEA22090EDB5053
:102A7000EF12DECFE9FFDDCFEAFF060EE926000EFA
:102A8000EA22E9CF00F0EACF01F0060EDB500F0199
:102A90000024E96E000E0120EA6E0A0EDB50EF12F0
:102AA000040EDBCFE9FF050EDBCFEAFF080EE926B7
:102AB000000EEA22EE50ED1001E193D0040EDBCFC0
:102AC000E9FF050EDBCFEAFF080EE926000EEA2239
:102AD000020EEECFDBFF030EEDCFDBFF020EDBCFEE
:102AE000E9FF030EDBCFEAFFEECFDEFFEDCFDDFF28
:102AF000D9CFE9FFDACFEAFFEE50ED1072E00C0E0D
:102B0000DB1C026EDECFE9FFDDCFEAFF060EE92611
:102B1000000EEA22E9CF00F0EACF01F0080EDB5008
:102B20000F010024E96E000E0120EA6E0250EF163C
:102B3000DECFE9FFDDCFEAFF060EE926000EEA222E
:102B4000E9CF00F0EACF01F0080EDB500F010024BE
:102B5000E96E000E0120EA6EEF500DE10B0EDB1C5A
:102B6000006EDECFE9FFDDCFEAFF050EE926000E9D
:102B7000EA220050EF16DECFE9FFDDCFEAFF050EB7
:102B8000E926000EEA22090EDB50EF12DECFE9FF44
:102B9000DDCFEAFF060EE926000EEA22E9CF00F0BB
:102BA000EACF01F0060EDB500F010024E96E000EA3
:102BB0000120EA6E0A0EDB50EF12D950020FE96EC7
:102BC000DACFEAFF020EEE26000EEF22020EDBCF76
:102BD000E9FF030EDBCFEAFFEECFDEFFEDCFDDFF37
:102BE00087D7040EDBCFE9FF050EDBCFEAFF100E1F
:102BF000E926000EEA22FD0EDBCFEFFF040EDBCF4D
:102C0000E9FF050EDBCFEAFF120EE926000EEA22ED
:102C1000060EDBCFEFFF040EDBCFE9FF050EDBCFA7
:102C2000EAFF110EE926000EEA22070EDBCFEFFFC6
:102C3000040EDBCFE9FF050EDBCFEAFF140EE92619
:102C4000000EEA22090EDBCFEFFF040EDBCFE9FF17
:102C5000050EDBCFEAFF130EE926000EEA220A0E6C
:102C6000DBCFEFFF0D0EDB50F2120101840502E114
:102C700062EC0BF0000E00D0006E0E0EE15C02E282
:102C8000E16AE552E16E0050E552E7CFD9FF12004C
:102C9000D9CFE6FFE1CFD9FF040EE126030EDB6AB0
:102CA000C00EF214E76E030EE7CFDBFF800ED014E8
:102CB0003F09F21601017E51000805E2030EDB50C8
:102CC000F2123C0E8BD0F70EEA6ADB34FE0BEA36CA
:102CD000E96EF60EE926010EEA22EE50ED1001E053
:102CE00078D0F70EEA6ADB34FE0BEA36E96EF60EB0
:102CF000E926010EEA22010EEE6EED6A030EDB50AC
:102D0000F212000EE66EE66AF80EDBCFE6FFF90E71
:102D1000DBCFE6FFFA0EDBCFE6FFFB0EDBCFE6FFF5
:102D2000FC0EDBCFE6FFFD0EDBCFE6FFFE0EDBCFBA
:102D3000E6FF4CEC2FF0006E090EE15E0050F3CF81
:102D4000DEFFF4CFDDFF000EE66EE66A000EE66EF3
:102D5000E66AE66AE66AE66AE66A000EE66EE66A31
:102D6000000EE66EE66ADECFE6FFDDCFE6FFF70E89
:102D7000DBCFE6FFA4EC0CF0006E0F0EE15E00501E
:102D8000E76E020EE7CFDBFF020EDB5006E101012A
:102D9000840502E162EC0BF019D0C00EF214E76E6C
:102DA000030EE7CFDBFF800ED0143F09F216F70EBB
:102DB000EA6ADB34FE0BEA36E96EF60EE926010E0E
:102DC000EA22EE6AED6A030EDB50F212020EDB50CD
:102DD00005D0030EDB50F212280E00D0006E040E58
:102DE000E15C02E2E16AE552E16E0050E552E7CFB4
:102DF000D9FF1200D9CFE6FFE1CFD9FF030EE126BC
:102E0000020EDB6A01017E51000802E2400E90D101
:102E1000FE0EDB50060802E13E0E8AD1C00EF2140F
:102E2000E76E020EE7CFDBFF800ED0143F09F216EB
:102E3000FE0EDB50FF080AE1EEC1E9FFEFC1EAFF39
:102E4000100EEB50E76EFE0EE7CFDBFFFE0EEA6AD8
:102E5000DB34FE0BEA36E96EF60EE926010EEA22B5
:102E6000EECFDEFFEDCFDDFFD9CFE9FFDACFEAFF0E
:102E7000EE50ED1005E1020EDB50F212430E58D178
:102E8000D9CFE9FFDACFEAFF010EEE1801E1ED50EC
:102E900005E1020EDB50F2123D0E4AD1DECFE9FF12
:102EA000DDCFEAFF130EE926000EEA22EF1C006ECA
:102EB000DECFE9FFDDCFEAFF120EE926000EEA229F
:102EC000EF50EA6A830FE96E010EEA220050EF1616
:102ED000DECFE9FFDDCFEAFF120EE926000EEA227F
:102EE000EF50EA6A830FE96E010EEA22EF500BE120
:102EF000DECFE9FFDDCFEAFF140EE926000EEA225D
:102F0000EF1C01018217DECFE9FFDDCFEAFF060EDD
:102F1000E926000EEA22EE50ED1016E0DECFE9FFC2
:102F2000DDCFEAFF060EE926000EEA22EECFE6FF2D
:102F3000EFCFE6FFDECFE6FFDDCFE6FF0DEC08F0DA
:102F4000E552E552E552E552DECFE9FFDDCFEAFF7B
:102F5000080EE926000EEA22EE50ED1016E0DECF54
:102F6000E9FFDDCFEAFF080EE926000EEA22EECFE8
:102F7000E6FFEFCFE6FFDECFE6FFDDCFE6FF75EC45
:102F800008F0E552E552E552E552DECFE9FFDDCF2C
:102F9000EAFF0A0EE926000EEA22EE6AEE6AEE6AFF
:102FA000EE6ADECFE9FFDDCFEAFF0E0EE926000E66
:102FB000EA22EF6ADECFE9FFDDCFEAFF0F0EE92656
:102FC000000EEA22EF6AFF0E01017F5D02E20101BD
:102FD0007F2B020EDB50F212EBEC05F0C00EF21468
:102FE000E76E020EE7CFDBFF800ED0143F09F2162A
:102FF00001017F51000802E201017F07DECFE6FFF9
:10300000DDCFE6FF5CEC30F0E552E55201018507CB
:10301000FE0EEA6ADB34FE0BEA36E96EF60EE926AE
:10302000010EEA22EE6AED6ADECFE9FFDDCFEAFFAC
:10303000040EE926000EEA22EE50ED101FE1DECF6D
:10304000E9FFDDCFEAFF020EE926000EEA22EE508C
:10305000EFCFEAFFE96E040EE926000EEA22EE6ADF
:10306000ED6ADECFE9FFDDCFEAFF020EE926000EB2
:10307000EA22EECFF4F1EDCFF5F140D0DECFE9FF5B
:10308000DDCFEAFF020EE926000EEA22EECF00F0C5
:10309000EFCF01F0DECFE9FFDDCFEAFF040EE92636
:1030A000000EEA22EE50EFCFEAFFE96E020EE926AB
:1030B000000EEA2200C0EEFF01C0EDFFDECFE9FF07
:1030C000DDCFEAFF040EE926000EEA22EECF00F083
:1030D000EFCF01F0DECFE9FFDDCFEAFF020EE926F8
:1030E000000EEA22EE50EFCFEAFFE96E040EE92669
:1030F000000EEA2200C0EEFF01C0EDFFDECFE9FFC7
:10310000DDCFEAFF020EE926000EEA22F0C1EEFF53
:10311000F1C1EDFFDECFF0F1DDCFF1F1020EDB50BA
:10312000F2120101840502E162EC0BF0000E00D006
:10313000006E030EE15C02E2E16AE552E16E0050CE
:10314000E552E7CFD9FF1200D9CFE6FFE1CFD9FF93
:10315000040EE126030EDB6AFE0EDB50060802E1D8
:103160003E0E61D0FE0EDB50FF0816E1C00EF214D9
:10317000E76E030EE7CFDBFF800ED0143F09F21697
:10318000EEC1E9FFEFC1EAFF150EEB50DF6E030E53
:10319000DB50F212DF5047D0C00EF214E76E030E80
:1031A000E7CFDBFF800ED0143F09F216FE0EEA6A6D
:1031B000DB34FE0BEA36E96EF60EE926010EEA2252
:1031C000010EEECFDBFF020EEDCFDBFFD950010F7A
:1031D000E96EDACFEAFFEE50ED1005E1030EDB50A9
:1031E000F212430E20D0D950010FE96EDACFEAFF78
:1031F000010EEE1801E1ED5005E1030EDB50F21275
:103200003D0E11D0010EDBCFE9FF020EDBCFEAFF4E
:10321000150EE926000EEA223F0EEF6E030EDB507C
:10322000F212000E00D0006E040EE15C02E2E16AD0
:10323000E552E16E0050E552E7CFD9FF1200D9CF39
:10324000E6FFE1CFD9FF030EE126020EDB6AC00ED6
:10325000F214E76E020EE7CFDBFF800ED0143F09B9
:10326000F216FE0EEA6ADB34FE0BEA36E96EF60E63
:10327000E926010EEA22EECFDEFFEDCFDDFFD9CF4A
:10328000E9FFDACFEAFFEE50ED1005E1020EDB5068
:10329000F212460E7DD0D9CFE9FFDACFEAFF010E58
:1032A000EE1801E1ED5005E1020EDB50F212430E83
:1032B0006FD0DECFE9FFDDCFEAFF0E0EE926000E6C
:1032C000EA22EF50080B5FE0DECFE9FFDDCFEAFF37
:1032D0000E0EE926000EEA22EF96DECFE9FFDDCFE3
:1032E000EAFF0E0EE926000EEA22EF5047E1DECF9C
:1032F000E9FFDDCFEAFF0A0EE926000EEA22EECF53
:1033000000F0EECF01F0EECF02F0EFCF03F000506F
:103310000110021003102EE1DECFE9FFDDCFEAFF3E
:10332000140EE926000EEA22EF5001018213DECFCF
:10333000E9FFDDCFEAFF130EE926000EEA22EFCF08
:1033400000F0DECFE9FFDDCFEAFF120EE926000E26
:10335000EA22EF50EA6A830FE96E010EEA2200507A
:10336000EF12020EDB50F2120101840502E162EC61
:103370000BF003D0020EDB50F21203D0020EDB5032
:10338000F212000E05D0020EDB50F212440E00D0F5
:10339000006E030EE15C02E2E16AE552E16E00506C
:1033A000E552E7CFD9FF1200D9CFE6FFE1CFD9FF31
:1033B000050EE126040EDB6AC00EF214E76E040E61
:1033C000E7CFDBFF800ED0143F09F216FE0EDB5074
:1033D000FF080DE1EEC1E9FFEFC1EAFF100EEB506F
:1033E000E76EFE0EE7CFDBFF010EDF6E0FD0EEC102
:1033F000E9FFEFC1EAFF100EEB50F36EFE0EDB505B
:10340000F35C03E1010EDF6E01D0DF6AFE0EEA6AB3
:10341000DB34FE0BEA36E96EF60EE926010EEA22EF
:10342000010EEECFDBFF020EEDCFDBFFD950010F17
:10343000E96EDACFEAFFEE50ED1005E1040EDB5045
:10344000F212480E5BD0D950010FE96EDACFEAFFD5
:10345000010EEE1801E1ED5005E1040EDB50F21211
:10346000430E4CD0010EDBCFE9FF020EDBCFEAFFAB
:10347000120EE926000EEA22030EEFCFDBFF010E4B
:10348000DBCFE9FF020EDBCFEAFF130EE926000EC9
:10349000EA22EF1C006E030EDB50EA6A830FE96E2E
:1034A000010EEA220050EF16030EDB50EA6A830F8A
:1034B000E96E010EEA22EF500DE1010EDBCFE9FFCC
:1034C000020EDBCFEAFF140EE926000EEA22EF1C03
:1034D00001018217010EDBCFE9FF020EDBCFEAFF0D
:1034E0000E0EE926000EEA22EF86040EDB50F212E1
:1034F000DF0402E162EC0BF0000E00D0006E050E5E
:10350000E15C02E2E16AE552E16E0050E552E7CF8C
:10351000D9FF1200D9CFE6FFE1CFD9FF030EE12694
:10352000020EDB6AC00EF214E76E020EE7CFDBFF7D
:10353000800ED0143F09F216FE0EDB50FF080AE1A0
:10354000EEC1E9FFEFC1EAFF100EEB50E76EFE0E91
:10355000E7CFDBFFFE0EEA6ADB34FE0BEA36E96EEC
:10356000F60EE926010EEA22EECFDEFFEDCFDDFFFB
:10357000D9CFE9FFDACFEAFFEE50ED1005E1020EF8
:10358000DB50F212290E26D0D9CFE9FFDACFEAFFBD
:10359000010EEE1801E1ED5005E1020EDB50F212D2
:1035A000430E18D02C0EE66EE66ADECFE6FFDDCFC6
:1035B000E6FFFC0EDBCFE6FFFD0EDBCFE6FF31ECD6
:1035C0000BF0006E060EE15E0050020EDB50F212B0
:1035D000000E00D0006E030EE15C02E2E16AE552EB
:1035E000E16E0050E552E7CFD9FF1200D9CFE6FFD8
:1035F000E1CFD9FF070EE126DF6AC00EF214DF6EBD
:10360000800ED0143F09F216FE0EDB50FF0807E1D2
:10361000050EEEC1DBFF060EEFC1DBFF10D0FE0E84
:10362000EA6ADB34FE0BEA36E96EF60EE926010E95
:10363000EA22050EEECFDBFF060EEDCFDBFF050E17
:10364000DBCFE9FF060EDBCFEAFF280EE926000EEE
:10365000EA22E9CF00F0EACF01F0FD0EDB50040DC5
:103660000050F324E96E0150F420EA6E010EEECF13
:10367000DBFF020EEECFDBFF030EEECFDBFF040E0F
:10368000EECFDBFFDF50F212FB0EDBCFE9FFFC0ECB
:10369000DBCFEAFFEF6A010EDBCF00F0020EDBCFDB
:1036A00001F0030EDBCF02F0040EDBCF03F000C00D
:1036B00026F001C027F002C028F003C029F000D096
:1036C000070EE15C02E2E16AE552E16EE552E7CF06
:1036D000D9FF1200D9CFE6FFE1CFD9FF030EE126D3
:1036E000DF6AC00EF214DF6E800ED0143F09F216AE
:1036F000FE0EDB50FF0807E1010EEEC1DBFF020EFC
:10370000EFC1DBFF10D0FE0EEA6ADB34FE0BEA36B7
:10371000E96EF60EE926010EEA22010EEECFDBFF7E
:10372000020EEDCFDBFF010EDBCFE9FF020EDBCF98
:10373000EAFF280EE926000EEA22E9CF00F0EACFE0
:1037400001F0FD0EDB50040D0050F324E96E015032
:10375000F420EA6EF90EDBCFEEFFFA0EDBCFEEFFC0
:10376000FB0EDBCFEEFFFC0EDBCFEEFFDF50F212E5
:10377000F70EDBCFE9FFF80EDBCFEAFFEF6A030EAF
:10378000E15C02E2E16AE552E16EE552E7CFD9FF82
:103790001200EEC1E6FFEFC1E6FF71EC30F0E5523A
:1037A000E552E668FAEC16F0E5521200D9CFE6FFD2
:1037B000E1CFD9FF020EE126010EDB6A01017E5145
:1037C000000801E260D001017F51000801E25BD0F6
:1037D000D950FB0FE96EFF0EDA20EA6ED880000E9A
:1037E000EE54000EEE54000EEE54000EEE544BE27A
:1037F000C00EF214E76E010EE7CFDBFF800ED0148F
:103800003F09F216EEC1E9FFEFC1EAFF120EEB50DD
:10381000DF6EEEC1E9FFEFC1EAFF130EEB50E81CCB
:10382000006EDF50EA6A830FE96E010EEA22005053
:10383000EF16DF50EA6A830FE96E010EEA22EF50BD
:1038400009E1EEC1E9FFEFC1EAFF140EEB50E81CFD
:1038500001018217EEC1E9FFEFC1EAFF0A0EE92676
:10386000000EEA22FB0EDBCFEEFFFC0EDBCFEEFFFD
:10387000FD0EDBCFEEFFFE0EDBCFEEFF010EDB50C9
:10388000F21262EC0BF0020EE15C02E2E16AE55238
:10389000E16EE552E7CFD9FF1200D9CFE6FFE1CFC5
:1038A000D9FF040EE12601017E51000802E2550E07
:1038B000D7D001017F51000802E2320ED1D0FE0EB6
:1038C000DBCF04F0056A066A076A100E2B6E0E0E37
:1038D0002C6E2D6A2E6A04C026F005C027F006C0A3
:1038E00028F007C029F0B3EC38F022C004F023C060
:1038F00005F024C006F025C007F0FD0EDBCF08F070
:10390000096A0A6A0B6A3C0E2B6E2C6A2D6A2E6AB3
:1039100008C026F009C027F00AC028F00BC029F023
:10392000B3EC38F022C008F023C009F024C00AF03C
:1039300025C00BF008500426095005220A50062223
:103940000B500722FC0EDBCF0CF00D6A0E6A0F6ADB
:1039500004500C24006E05500D20016E06500E2000
:10396000026E07500F20036E640E2B6E2C6A2D6AB8
:103970002E6A00C026F001C027F002C028F003C064
:1039800029F0B3EC38F022C000F023C001F024C0CD
:1039900002F025C003F0FA0EDBCF10F0FB0EDBCFF8
:1039A00011F0126A136A050E1026000E1122000E85
:1039B0001222000E1322640E2B6E2C6A2D6A2E6AC0
:1039C00010C026F011C027F012C028F013C029F053
:1039D000B3EC38F022C010F023C011F024C012F074
:1039E00025C013F0E80E2B6E030E2C6E2D6A2E6A86
:1039F00010C026F011C027F012C028F013C029F023
:103A00001CEC3AF026C010F027C011F028C012F0CC
:103A100029C013F01050002611500122125002222A
:103A20001350032200C0DFFF010E01C0DBFF020EB6
:103A300002C0DBFF030E03C0DBFFD9CFE9FFDACF03
:103A4000EAFFEECFE6FFEECFE6FFEECFE6FFEFCFE9
:103A5000E6FFACDEE552E552E552E552000E00D03D
:103A6000006E040EE15C02E2E16AE552E16E005094
:103A7000E552E7CFD9FF1200D9CFE6FFE1CFD9FF5A
:103A8000030EE126020EDB6A060EF36EFE0EDBCF9E
:103A9000F4FFF350F45C02E32A0EBED0C00EF21421
:103AA000E76E020EE7CFDBFF800ED0143F09F2165F
:103AB000FE0EEA6ADB34FE0BEA36E96EF60EE92604
:103AC000010EEA22EECFDEFFEDCFDDFFD9CFE9FF19
:103AD000DACFEAFFEE50ED1005E1020EDB50F212F4
:103AE000430E9AD0D9CFE9FFDACFEAFF010EEE18E4
:103AF00001E1ED5005E1020EDB50F212430E8CD0D5
:103B0000DECFE9FFDDCFEAFF0A0EE926000EEA224A
:103B1000EECF00F0EECF01F0EECF02F0EFCF03F0EA
:103B2000005001100210031005E1020EDB50F212EA
:103B3000500E72D0DECFE9FFDDCFEAFF0A0EE92694
:103B4000000EEA22EE6AEE6AEE6AEE6ADECFE9FF66
:103B5000DDCFEAFF0E0EE926000EEA22EF50370B0A
:103B600017E0C80E006EDECFE9FFDDCFEAFF0E0ED4
:103B7000E926000EEA220050EF16DECFE9FFDDCF86
:103B8000EAFF0F0EE926000EEA22010EEF6E09D0C1
:103B9000DECFE9FFDDCFEAFF0F0EE926000EEA22B5
:103BA000EF6ADECFE9FFDDCFEAFF0E0EE926000E59
:103BB000EA22EF50080B2BE1DECFE9FFDDCFEAFF71
:103BC000140EE926000EEA22EF5001018213DECF27
:103BD000E9FFDDCFEAFF130EE926000EEA22EFCF60
:103BE00000F0DECFE9FFDDCFEAFF120EE926000E7E
:103BF000EA22EF50EA6A830FE96E010EEA220050D2
:103C0000EF12020EDB50F21262EC0BF003D0020E48
:103C1000DB50F212000E00D0006E030EE15C02E2F7
:103C2000E16AE552E16E0050E552E7CFD9FF12009C
:103C3000D9CFE6FFE1CFD9FF050EE126040EDB6AFE
:103C4000C00EF214E76E040EE7CFDBFF800ED01437
:103C50003F09F2160DC3DFFF010E0EC3DBFF020E9C
:103C60000FC3DBFF030E10C3DBFF040EDB50F212A9
:103C7000DECF26F0DECF27F0DECF28F0DDCF29F033
:103C8000DD52DD5200D0050EE15C02E2E16AE55250
:103C9000E16EE552E7CFD9FF1200D9CFE6FFE1CFC1
:103CA000D9FFE652DF6AC00EF214DF6E800ED01428
:103CB0003F09F216FB0EDBCF0DF3FC0EDBCF0EF34C
:103CC000FD0EDBCF0FF3FE0EDBCF10F3DF50F21251
:103CD000E552E552E7CFD9FF1200D9CFE6FFE1CF99
:103CE000D9FF020EE126110EDE6E040EDD6E130EFC
:103CF000DE6E040EDD6E190EDE6E040EDD6E1B0E22
:103D0000DE6E040EDD6E170EDE6E040EDD6E1D0E11
:103D1000DE6E040EDD6E1F0EDE6E040EDD6E210EF5
:103D2000DE6E040EDD6E230EDE6E040EDD6E250EDD
:103D3000DE6E040EDD6E270EDE6E040EDD6E290EC5
:103D4000DE6E040EDD6E2B0EDE6E040EDD6E2D0EAD
:103D5000DE6E040EDD6E2F0EDE6E040EDD6E310E95
:103D6000DE6E040EDD6E330EDE6E040EDD6E350E7D
:103D7000DE6E040EDD6E370EDE6E040EDD6E390E65
:103D8000DE6E040EDD6E3B0EDE6E040EDD6E3D0E4D
:103D9000DE6E040EDD6E3F0EDE6E040EDD6E410E35
:103DA000DE6E040EDD6E430EDE6E040EDD6E450E1D
:103DB000DE6E040EDD6E470EDE6E040EDD6E490E05
:103DC000DE6E040EDD6E4B0EDE6E040EDD6E4D0EED
:103DD000DE6E040EDD6E4F0EDE6E040EDD6E510ED5
:103DE000DE6E040EDD6E530EDE6E040EDD6E550EBD
:103DF000DE6E040EDD6E570EDE6E040EDD6E590EA5
:103E0000DE6E040EDD6E5B0EDE6E040EDD6E5D0E8C
:103E1000DE6E040EDD6E5F0EDE6E040EDD6E610E74
:103E2000DE6E040EDD6E650EDE6E040EDD6E670E58
:103E3000DE6E040EDD6E690EDE6E040EDD6E6B0E40
:103E4000DE6E040EDD6E6D0EDE6E040EDD6E810E16
:103E5000DE6E040EDD6E020EE15C02E2E16AE55206
:0A3E6000E16EE552E7CFD9FF120032
:063E6A00D9CFE6FFDACF1C
:103E7000E6FFE1CFD9FFE2CFDAFF4B0EE12402E308
:103E8000E168E652E16ED1EC23F0D950060FF6EC72
:103E900023F078EC24F047EC24F002E2E16AE552EA
:103EA000E16E0050DF6ED9500D0FF6EC23F0AFEC51
:103EB00024F047EC24F002E2E16AE552E16E0050A2
:103EC000E76E010EE7CFDBFFC1EC24F0AAEC23F094
:103ED000ABEC24F0000EE66EE66A7EEC24F002E223
:103EE000E16AE552E16E0050190EDB5003E01A0E54
:103EF000DB6A16D0ABEC24F0010EE66EE66A7EECCF
:103F000024F002E2E16AE552E16E0050190EDB5046
:103F100002E1030E01D0050EF36E1A0EF3CFDBFFA4
:103F2000010EDB0455E0FA0EDBCF00F0FB0EDBCF19
:103F300001F0FC0EDBCF02F0FD0EDBCF03F085ECD1
:103F400024F046E0800EDF5C04E0010EDB508008C8
:103F500004E15BEC24F07F0E5BD0DF040CE1130E78
:103F6000DB500FE0EDDB7F0E62EC24F0210E04014C
:103F7000F16FF26B0DD0040EDF5C22E1130EDB500B
:103F800003E026EC24F004D0DBDB7F0E62EC24F0AF
:103F90001A0EDBA469D30C0EDB5001E165D3FBECF8
:103FA00023F09BEC24F0020E27C0DBFF030E28C099
:103FB000DBFF040E29C0DBFF050E2AC0DBFF54D354
:103FC000010EDB50040816E173DB85EC24F003E1FD
:103FD000B7DB3F0E1DD0130EDB5004E08BEC24F05A
:103FE00004E106D08BEC24F003E126EC24F03CD372
:103FF000A7DB0DD00C0EDB500EE01A0EDB50010BD0
:104000000AE1210E0401F16FF26B5BEC24F07F0EEC
:1040100062EC24F029D3ABDB85EC24F002E1C1DBB8
:1040200023D3D9501B0FE2DB78EC24F047EC36F0B9
:10403000006E060EE15C02E2E16AE552E16E0050BC
:1040400089DB0C0EDB5003E1180EDB6A16D030DB87
:104050009BEC24F0140E27C0DBFF150E28C0DBFFFD
:10406000160E29C0DBFF170E2AC0DBFF1A0EDB502D
:10407000040BE76E180EE7CFDBFF1ADBF30E2C6E96
:10408000040E2D6E350E2E6E3F0E2F6E0DDB0BECDB
:104090002CF0010A17E1010EE66EE66AD950140F02
:1040A00092EC24F0ABEC35F0006E060EE15C02E21F
:1040B000E16AE552E16E00504DDB1B0EDB061C0E83
:1040C00001E2DB06F60EDBCF27F0F70EDBCF28F0A0
:1040D000F80EDBCF29F0F90EDBCF2AF0C4EC2BF081
:1040E0001D0E26C0DBFF1E0E27C0DBFF1F0E28C0E3
:1040F000DBFF200E29C0DBFF1B0EDBCF28F01C0EE0
:10410000E6DB250E27C0DBFF260E28C0DBFF270ECF
:1041100029C0DBFF280E2AC0DBFF36DBF60EDBCF23
:104120002CF0F70EDBCF2DF0F80EDBCF2EF0F90ED2
:10413000D2DBC4EC2BF0210E26C0DBFF220E27C001
:10414000DBFF230E28C0DBFF240E29C0DBFFD95084
:10415000210F85DB08E6010EEE5C800EEE58FF0EA7
:10416000EE58FF0EEE581AE3210EDBCF27F0220E99
:10417000DBCF28F0230EDBCF29F0240EDBCF2AF093
:104180002A34000E2A1809E6D880FF0E27547F0E25
:104190002854000E2954000E2A5402E266DBEED1A8
:1041A000D9501D0F5CDB08E6800EEE5CFF0EEE586A
:1041B000FF0EEE58FF0EEE580CE275DB03E0800EAA
:1041C000006E05D0D9501B0F3DDB1FE1006A016A6C
:1041D00029D01D0EDBCF27F01E0EDBCF28F01F0EDF
:1041E000DBCF29F0200EDBCF2AF02A34000E2A186C
:1041F00009E6D880800E2754000E2854000E29545A
:10420000000E2A5422E24FDB04E0800E006E0168AB
:1042100009D0D9501B0F16DB02E1006A02D0800ED4
:10422000006E016A390E00C0DBFF3A0E01C0DBFFF1
:10423000370EDB6A380EDB6A2D0EDB6A2E0EDB6A68
:104240002F0EDB6A300EDB6ACFD01D0EDBCF28F0DD
:104250001E0EDBCF29F0370E28C0DBFF380E29C039
:10426000DBFF210EDBCF28F0220EDBCF29F0390E49
:1042700028C0DBFF3A0E29C0DBFF110EDBCF00F0B8
:10428000120EDBCF01F07F0E005E000E015A080E09
:10429000005E000E015A350E00C0DBFF360E01C075
:1042A000DBFF59DB350EDBCFE6FF360EDBCFE6FF5B
:1042B00025DB02E2E16AE552E16E0050470E26C0BE
:1042C000DBFF480E27C0DBFF490E28C0DBFF4A0E8C
:1042D00029C0DBFF4CDA470EDBCF04F0480EDBCF02
:1042E00005F0490EDBCF06F04A0EDBCF07F004C025
:1042F0002CF005C02DF006C02EF007C02FF0D4D949
:1043000025EC2AF0430E27C0DBFF440E28C0DBFF5C
:10431000450E29C0DBFF460E2AC0DBFF35DA470E0B
:10432000DBCF2CF0480EDBCF2DF0490EDBCF2EF08B
:104330004A0ED1DAA3DA390EDBCF28F03A0EC7DA0B
:1043400027C008F028C009F029C00AF02AC00BF0E5
:104350003BDAD7DA25EC2AF0C2DA16DA430EDBCFE5
:104360002CF0440EDBCF2DF0450EDBCF2EF0460EA9
:10437000B2DA27C00CF028C00DF029C00EF02AC018
:104380000FF022DA91D926EC2AF03F0E27C0DBFF8E
:10439000400E28C0DBFF410E29C0DBFF420E2AC0C1
:1043A000DBFF3F0EDBCF00F0400EDBCF01F0410E14
:1043B000DBCF02F0420EDBCF03F0180E2C6E720E34
:1043C0002D6E310E2E6E3F0E2F6E6ED9B8EC29F089
:1043D0002D0E27C0DBFF2E0E28C0DBFF2F0E29C0BD
:1043E000DBFF300E2AC0DBFFC2D9370EDBCF28F04F
:1043F000380E6DDA43DAE8D957D925EC2AF03B0EAE
:1044000027C0DBFF3C0E28C0DBFF3D0E29C0DBFFD1
:104410003E0E2AC0DBFF3B0EDBCF04F03C0EDBCFB1
:1044200005F03D0EDBCF06F03E0EF2D9140F7ADA1E
:10443000E5EC31F04AD9D9502D0F69D926EC2AF094
:10444000CCD9370EDBCF00F0380EDBCF01F0000106
:10445000800E011410E028682968370EDBCF2DF09C
:10446000380EDBCF2EF097EC2BF0370E26C0DBFF9B
:10447000380E27C0DBFF290EDB6A2A0EDB6A800EAE
:10448000F36E2B0EF3CFDBFF3F0EF36E2C0EF3CF4C
:10449000DBFFD950370FD6D919E0370EDB50010BAF
:1044A00004E006D9D950290F4ADAD950370F3EDA3D
:1044B000010E0F0B06E0EC52D890ED32EF32E80619
:1044C000FAE1F6D8D950140F3ADAE3D7130EDB50DD
:1044D00021E0276A286A800E296E3F0E2A6E290E77
:1044E000DBCF2CF02A0EDBCF2DF02B0EDBCF2EF006
:1044F0002C0EDBCF2FF065EC29F0F1D9290E27C067
:10450000DBFF2A0E28C0DBFF2B0E29C0DBFF2C0EA1
:104510002AC0DBFF390EDBCFE6FF3A0EDBCFE6FF2A
:10452000290EDBCF04F02A0EDBCF05F02B0EDBCFFC
:1045300006F02C0E6DD92D0FF5D969EC2CF0C5D8ED
:1045400027C0E6FF28C0E6FF29C0E6FF2AC0E6FF35
:10455000ABEC35F00C6E060EE15C02E2E16AE5526E
:10456000E16E0C50310E26C0DBFF320E27C0DBFFA0
:10457000330E28C0DBFF340E29C0DBFFD950060FF5
:1045800035D9D950310FCED982D902E2E16AE5524C
:10459000E16E0050DF6E850EDF143CE0220E040158
:1045A000F16FF26BEED926C000F027C001F028C0F1
:1045B00002F029C003F0BDD826C027F0C5D90BEC06
:1045C0002CF0010A03E1130EDB5014E1DAD926C006
:1045D00004F027C005F028C006F029C007F0A9D8CC
:1045E00026C027F0C2D902EC2CF0010A12E1130E0A
:1045F000DB500FE1310EDB6A320EDB6A800EF36EA8
:10460000330EF3CFDBFF7F0EF36E340EF3CFDBFF01
:1046100001D02BD9180EDB500FE0310EDBCF04F0A8
:10462000320EDBCF05F0330EDBCF06F0340EDBCFDE
:1046300007F001D9A1D90CD0310EDBCF00F0320E3A
:10464000DBCF01F0330EDBCF02F0340EDBCF03F013
:10465000020E00C0DBFF030E01C0DBFF040E02C030
:10466000DBFF050E03C0DBFFC6D800C026F001C08B
:1046700027F002C028F003C029F04B0EE15C02E2F3
:10468000E16AE552E16EE552E5CFDAFFE7CFD9FF07
:104690001200DA20EA6EEECFE6FFEECFE6FFEECFB5
:1046A000E6FFEFCFE6FF120000C027F0A4EF24F0F2
:1046B000140EDBCF00F0150EDBCF01F0160EDBCFB2
:1046C00002F0170EDBCF03F01200E552E552E5527F
:1046D000E552E552E7CF07F0E552E7CF06F0E552A5
:1046E000E7CF05F0E552E7CF04F026C008F027C079
:1046F00009F028C00AF029C00BF026C02CF027C012
:104700002DF028C02EF029C02FF0BCEF24F00ED9D8
:10471000EECF27F0EECF28F0EECF29F0EFCF2AF042
:1047200000C02CF001C02DF002C02EF003C02FF00D
:1047300012002C6A2D6A800E2E6E3F0E2F6E120014
:10474000020EDB6A030EDB6A800EF36E040EF3CFFB
:10475000DBFF1200140E26C0DBFF150E27C0DBFFA7
:10476000160E28C0DBFF170E29C0DBFF1200F60E65
:10477000DBCF00F0F70EDBCF01F0F80EDBCF02F05D
:10478000F90EDBCF03F01200250EDBCF27F0260E4B
:10479000DBCF28F0270EDBCF29F0280EDBCF2AF065
:1047A0001200D950FA0FE96EFF0EDA20EA6E020EFF
:1047B000EECFDBFF030EEECFDBFF040EEECFDBFF11
:1047C000050EEECFDBFF120027C02CF028C02DF025
:1047D00029C02EF02AC02FF012002AC0EDFF29C0F8
:1047E000EDFF28C0EDFF27C0EFFF1200E66E000EC0
:1047F000DA20E66E1200020EDBCF00F0030EDBCFF4
:1048000001F0040EDBCF02F0050EDBCF03F0120047
:10481000DBCF07F004C0E6FF05C0E6FF06C0E6FFF9
:1048200007C0E6FFD950120020EC39F0E552E552FE
:10483000E552E55212002C6A2D6A800E2E6EBF0ED4
:104840002F6E120073D8EE50ED101200020EDB6ACC
:10485000030EDB6A040EDB6A050EDB6A120066D803
:10486000D880030EEB50FF0A1200310EDB6A320EC5
:10487000DB6A330EDB6A340EDB6A120027C004F0F9
:1048800028C005F029C006F02AC007F01200D9ECB4
:1048900036F0006E060EE15C120062EC34F0006E41
:1048A000080EE15C12001B0E1C0EDBCF03F00001B2
:1048B000800E03141200020EDB68030EDB68040E88
:1048C000DB681200F36E050EF3CFDBFF1200DBCFC7
:1048D00029F052EF29F0DBCF2FF0B8EF29F027C0F5
:1048E00000F028C001F029C002F02AC003F0120035
:1048F000D950FA0FE96EFF0E49EF23F030D84DEF93
:1049000024F004C027F0B5EF24F013DFCDDEFBEC7C
:104910002BF0010A1200CCDE0CDFC6DE0BEC2CF013
:10492000010A1200E96E000E49EF23F0E96E000E55
:10493000DA20EA6E12007FDFB7DEB8EF29F0E7DE9B
:10494000B8EC29F0EDEF23F001C028F002C029F007
:1049500003C02AF01200D950190FF6EF23F0D950F6
:10496000F60FE96EFF0E49EF23F005C028F006C0F0
:1049700029F007C02AF01200C4DFB8EC29F06FEF6D
:0849800024F0B6DF14EF24F06F
:08498800D9CFE6FFE1CFD9FF12
:10499000020EE126DE6ADD6A948E8B9E949E300EB6
:1049A000E66E13EC3BF0E552948E0A0EE66E13ECC5
:1049B0003BF0E5528250800B800A01E0010E006E50
:1049C000016A00BE016800C0DEFF01C0DDFF020E0B
:1049D000E15C02E2E16AE552E16EE552E7CFD9FF20
:1049E0001200D9CFE6FFE1CFD9FFE652DF6ADFCF71
:1049F00000F0080EE76E0018E8AE02D0E73402D0EF
:104A0000E750005C22E28B9E949E010EE66E13EC52
:104A10003BF0E552FE0EDB50010BE8B0948EE8A0AF
:104A2000949E050EE66E13EC3BF0E552948E020E5A
:104A3000E66E13EC3BF0E552FE0EDB407F0BE76EBB
:104A4000FE0EE7CFDBFFDF2AD2D7E552E552E7CFF4
:104A5000D9FF1200D9CFE6FFE1CFD9FF030EE1263F
:104A6000DE6ADD6A020EDB6A020EDBCF00F0080EA2
:104A7000E76E0018E8AE02D0E73402D0E750005CE1
:104A80002EE28B9E949E00000000948E0000000099
:104A90000000000000000000000000008250800BB9
:104AA00001E0010EF36E020EDB5004E0D890F33605
:104AB000E806FCE1F350026E036ADE500210006E5D
:104AC000DD500310016E00C0DEFF01C0DDFF050EEA
:104AD000E66E13EC3BF0E552020EDB2AC5D7DECFC3
:104AE00000F0DDCF01F000C0F3FF01C0F4FF00D003
:104AF000030EE15C02E2E16AE552E16EE552E7CFC6
:104B0000D9FF1200000000000000000000000000BB
:104B10000000000000000000000000000000000095
:104B200000D01200050EE66EE5EC3AF0E55200D03A
:104B300012000F0EE66EE5EC3AF0E55200D01200DE
:104B4000F8DF86EC3AF0000901E0FBD7280EE66EAC
:104B5000F4EC37F0E552EDDF86EC3AF0000901E0C5
:104B6000FBD7400EE66E53EC39F0E55212000CDF35
:104B70000C0EE66E36DFE552E66A33DFE55204DFFF
:104B8000AC0EE66E2EDFE552FFDE1200D9CFE6FF57
:104B9000E1CFD9FF0A0EE126DE6ADD6A020EDB6A8A
:104BA000030EDB6A040EDB6A050EDB6A080EDB6AA5
:104BB000090EDB6ADECF00F0DDCF01F0D8900150A6
:104BC00004E6960E005C000E01582EE2EE0EE66E34
:104BD00008DFE552220EE66E04DFE552D5DEAA0EAE
:104BE000E66EFFDEE55236DF060EF3CFDBFF070E83
:104BF000F4CFDBFFC9DE060EDBCF02F0070EDBCF02
:104C000003F0080EDB500224006E090EDB50032077
:104C1000016E080E00C0DBFF090E01C0DBFFDF2ABA
:104C2000010E01E3DB2AC6D7080EDBCF28F0090E00
:104C3000DBCF29F052EC29F027C000F028C001F0AA
:104C400029C002F02AC003F02C6A2D6A160E2E6EBF
:104C5000430E2F6E00C027F001C028F002C029F0DB
:104C600003C02AF065EC29F0020E27C0DBFF030E1B
:104C700028C0DBFF040E29C0DBFF050E2AC0DBFFC6
:104C8000020EDBCF00F0030EDBCF01F0040EDBCF12
:104C900002F0050EDBCF03F000C026F001C027F0C4
:104CA00002C028F003C029F000D00A0EE15C02E245
:104CB000E16AE552E16EE552E7CFD9FF1200D9CFA4
:104CC000E6FFE1CFD9FF060EE126DE6ADD6AFB0EC4
:104CD000DBCF00F0FC0EDBCF01F00006000E015A26
:104CE000020E00C0DBFF030E01C0DBFFDECF00F0D1
:104CF000DDCF01F0020EDBCF02F0030EDBCF03F0BD
:104D000001500318E8AE02D0033404D00250005C16
:104D10000350015851E2FD0EDBCF02F0FE0EDBCF57
:104D200003F0DE500224E96EDD500320EA6EEFCF7F
:104D300000F0016A00BE0168040E00C0DBFF050E32
:104D400001C0DBFF020EDBCF02F0030EDBCF03F06E
:104D5000FD0EDB500224E96EFE0EDB500320EA6EEE
:104D6000EF50E66EFD0EDBCF00F0FE0EDBCF01F064
:104D7000DE500024E96EDD500120EA6EE552E75076
:104D8000EF6E020EDBCF00F0030EDBCF01F0FD0E65
:104D9000DB500024E96EFE0EDB500120EA6E040EAB
:104DA000DBCFEFFFDF2A010E01E3DB2A020EDB0679
:104DB000030E01E2DB069AD7060EE15C02E2E16A2D
:104DC000E552E16EE552E7CFD9FF1200D9CFE6FFF9
:104DD000E1CFD9FF020EE126DE6ADD6AD950FD0F70
:104DE000E96EFF0EDA20EA6EEE50ED103FE0FD0EA8
:104DF000DBCF02F0FE0EDBCF03F00A0E2D6E2E6A23
:104E000002C028F003C029F0BCEC2AF024C002F054
:104E100025C003F0300E0226000E0322DFCF00F083
:104E2000DF2A010EDBCF01F001E3DB2AFB0EDB50B2
:104E30000024E96EFC0EDB500120EA6E02C0EFFF99
:104E40000A0E006E016AFD0EDBCF28F0FE0EDBCFEE
:104E500029F000C02DF001C02EF0BCEC2AF0FD0EB0
:104E600028C0DBFFFE0E29C0DBFFB8D7DECF00F085
:104E7000DDCF01F0F90EDBCF02F0FA0EDBCF03F04D
:104E800001500318E8AE02D0033404D00250005C95
:104E90000350015813E2DFCF00F0DF2A010EDBCF11
:104EA00001F001E3DB2AFB0EDB500024E96EFC0E6F
:104EB000DB500120EA6E300EEF6ED8D7DECFE6FF72
:104EC000DDCFE6FFFB0EDBCFE6FFFC0EDBCFE6FF20
:104ED000F6DEE552E552E552E552FB0EDBCF00F07F
:104EE000FC0EDBCF01F0DE500024E96EDD50012026
:104EF000EA6EEF6ADECF00F0DDCF01F000C0F3FF15
:104F000001C0F4FF00D0020EE15C02E2E16AE5526A
:104F1000E16EE552E7CFD9FF1200D9CFE6FFE1CF2E
:104F2000D9FF080EE126FB0EDBCF27F0FC0EDBCF0E
:104F300028F0FD0EDBCF29F0FE0EDBCF2AF0E2ECED
:104F40002AF028C0DEFF29C0DDFFFB0EDBCF00F01A
:104F5000FC0EDBCF01F0FD0EDBCF02F0FE0EDBCF4F
:104F600003F0000EDBCF28F0010EDBCF29F052EC6E
:104F700029F027C004F028C005F029C006F02AC097
:104F800007F004C02CF005C02DF006C02EF007C0BD
:104F90002FF000C027F001C028F002C029F003C0A4
:104FA0002AF025EC2AF0020E27C0DBFF030E28C0F2
:104FB000DBFF040E29C0DBFF050E2AC0DBFF000E5D
:104FC000E66EE66AF90EDBCFE6FFFA0EDBCFE6FF10
:104FD000DECFE6FFDDCFE6FFF9DE006E060EE15E16
:104FE0000050060EF3CFDBFF070EF4CFDBFFD950E6
:104FF000F70FE96EFF0EDA20EA6EEE50ED1001E1D8
:10500000B1D0060EDBCF00F0070EDBCF01F0F90EBA
:10501000DB500024E96EFA0EDB500120EA6E2E0E02
:10502000EF6E020EDBCF00F0030EDBCF01F0040EBB
:10503000DBCF02F0050EDBCF03F000C0E6FF01C0BE
:10504000E6FF02C0E6FF03C0E6FFF70EDBCF28F065
:10505000F80EDBCF29F052EC29F027C008F028C069
:1050600009F029C00AF02AC00BF008C0E6FF09C009
:10507000E6FF0AC0E6FF0BC0E6FFE66AE66A200E1E
:10508000E66E410EE66E35EC1FF00C6E080EE15E2A
:105090000C50E552E7CF03F0E552E7CF02F0E552BE
:1050A000E7CF01F0E552E7CF00F026C004F027C0BB
:1050B00005F028C006F029C007F004C02CF005C098
:1050C0002DF006C02EF007C02FF000C027F001C061
:1050D00028F002C029F003C02AF0B8EC29F0020E33
:1050E00027C0DBFF030E28C0DBFF040E29C0DBFF57
:1050F000050E2AC0DBFFF70EDBCFE6FFF80EDBCF95
:10510000E6FF060EDBCF02F0070EDBCF03F0F90E51
:10511000DB500224006EFA0EDB500320016E010EFC
:105120000026000E012200C0E6FF01C0E6FF020ECD
:10513000DBCF27F0030EDBCF28F0040EDBCF29F006
:10514000050EDBCF2AF0E2EC2AF028C004F029C0DB
:1051500005F004C0E6FF05C0E6FF38DE066E060E69
:10516000E15E0650080EE15C02E2E16AE552E16EA2
:10517000E552E7CFD9FF1200D9CFE6FFE1CFD9FF43
:10518000070EE126F4DC02DD26C0DEFF27C0DEFFCD
:1051900028C0DEFF29C0DDFFDD52DD52010EE66EC4
:1051A000E66AD950040FE66E000EDA20E66ED9CF1B
:1051B000E9FFDACFEAFFEECFE6FFEECFE6FFEECF74
:1051C000E6FFEFCFE6FFA9DE006E080EE15E0050BD
:1051D00086EC3AF0000901E0FBD7100EE66E53ECC6
:1051E00039F0E55286EC3AF0000901E0FBD73E0EBB
:1051F000E66E760EE66E000EE66EEBEC38F0E552EB
:10520000E552E552BFD7E668FAEC16F0E552070E14
:10521000E15C02E2E16AE552E16EE552E7CFD9FFD7
:105220001200F29EBDEC03F0E66A830EE66E040EF9
:10523000E66E000EE66EE66A780EE66E510EE66EDB
:10524000000EE66E48EC16F0006E080EE15E0050AF
:10525000836A956A280EE66EF4EC37F0E55286EC28
:105260003AF0000901E0FBD7280EE66ECDEC39F0EC
:10527000E55286EC3AF0000901E0FBD70F0EE66E2E
:10528000CDEC39F0E55286EC3AF0000901E0FBD7AD
:10529000060EE66ECDEC39F0E55276EC04F0120025
:1052A000219E08D0219E29AE05D0286C291EE86ACF
:1052B0002922218E29C023F028C022F0336A326AC5
:1052C0008E0E246E256A2DEF2BF0216A69EC2BF0EF
:1052D00081EC2BF021B611EF2BF021A205D021BAE1
:1052E00011EF2BF018EF2BF021BA24EF2BF021A0B7
:1052F00005D021B811EF2BF024EF2BF021B818EFD7
:105300002BF0256A7F0E2A24246EE86A25222F506E
:10531000245EE86A255A1A0E306E2A6A326A336AA7
:10532000226A236A2C50275E2D50285A2E50295A63
:10533000000E2A5A09E72C5027262D5028222E50DD
:105340002922000E2A2201D0328AD8902736283608
:1053500029362A36D8903236333622362336302E46
:10536000E1D7295028102710D8A4328A2DEF2BF02E
:10537000216A69EC2BF081EC2BF021B611EF2BF0B8
:1053800021A205D021B811EF2BF018EF2BF021AAA4
:1053900005D021B011EF2BF018EF2BF021B002D087
:1053A00021A802D024EF2BF0256A2F502A24246E46
:1053B000E86A25227E0E245EE86A255A326A336A3C
:1053C000226A236A2E502902F4CF23F0F3CF22F071
:1053D0002D502902F3503326F4502222000E2322AE
:1053E0002E502802F3503326F4502222000E23229E
:1053F0002C502902F3503226F4503322000E222280
:1054000023222D502802F3503226F4503322000E6E
:10541000222223222E502702F3503226F450332228
:10542000000E222223222C502802F4503226000E95
:105430003322222223222D502702F4503226000E3E
:105440003322222223222DEF2BF02F7E216A69ECBA
:105450002BF081EC2BF021B611EF2BF021A20AD01A
:1054600021AA03D021BE11EF2BF021A41DEF2BF0B8
:105470001AEF2BF021AA05D021AC1DEF2BF01AEF6B
:105480002BF021A00AD021A808D021BE04D021A44D
:1054900002D026EF2BF02AEF2BF0326A256A2F502C
:1054A0002A5C316E10E327C033F028C022F029C0F7
:1054B00023F02AC030F02CC027F02DC028F02EC0D9
:1054C00029F0213A09D02CC033F02DC022F02EC093
:1054D00023F02FC030F0316C219E21BC218E30C0D2
:1054E00024F021B059EF2BF01A0E316059EF2BF058
:1054F000246A2A6A21A408D0276C281E291E2A1E85
:10550000E86A282229222A2221AC08D0336C221EE4
:10551000231E241EE86A222223222422266A3152D4
:1055200007E02A342932283227322632312EF9D7A1
:105530002750332628502222295023222A50242261
:1055400026C032F0219E24AE0BD0326C331E221EB8
:10555000231E241EE86A3322222223222422218EA3
:1055600024A006D0D8802332223233323232302A7D
:1055700030C024F02DEF2BF0206A2EAEC5EF2AF0BC
:105580002D6C2E1EE86A2E22201E29AECDEF2AF0A9
:10559000286C291EE86A2922201EBCEC3AF029BE9C
:1055A000DDEF2AF020AE000C286C291EE86A2922C3
:1055B000246C251EE86A2522000C20BED4EF2AF0B8
:1055C0002188FF0C216A69EC2BF021B6ECEF2AF060
:1055D00021A20ED021B405D07F0E296EFF0E286EB9
:1055E0001FD0800E296E286A1BD0296A286A18D01D
:1055F00021B0FBD78F0E2A60EDD77E0E2A64F5D737
:105600008E0E2A5C05E0D890293228322A2AF8D753
:1056100021A406D0286C291EE86A292229AEE5D7E4
:1056200012007F0E2A6EFF0E296E286E276E120062
:105630007F0E21BEFF0E2A6E02D07F0E2A6E800ED4
:10564000296E286A276AF3D721AE04D0800E2A6E0D
:10565000296AF7D72A6A296AF4D72350221033100F
:105660003210F8E025BEF0D723BE0CD02450251010
:10567000EBE0D89032363336223623362406D8A0D3
:105680002506F2D72550D4E12428D2E032AE11D03D
:105690007F0E321402E133A00CD0332AE86A2222B2
:1056A000232207E3D880233222323332242A2428CB
:1056B000BFE02450C9E033C027F022C028F02334D3
:1056C000296E24302A6E29322A9E21BE2A8E17EF97
:1056D0002BF029362A3602E32184217E06E121803F
:1056E0002A6A296A286A276A12002A2803E0D880D1
:1056F00029321200D890293202E12182120021863B
:1057000012002E362F3602E3218C217E06E12188FD
:105710002F6A2E6A2D6A2C6A12002F2803E0D88087
:105720002E321200D8902E32EAE1218A120029C0CE
:1057300033F028C032F028502D02F4CF27F0F3CFF9
:1057400026F029502E02F4CF29F0F3CF28F02D02B5
:10575000F3502726F4502822E86A292232502E02DC
:10576000F3502726F4502822E86A29222EAEBDEFF6
:105770002BF03250285E3350295A33AE000C2D5096
:10578000285E2E50295A000C216A69EC2BF021B6B4
:10579000CEEF2BF021A20FD021B407D07F0E296EBF
:1057A000FF0E286E276E266E25D0800E296E01D042
:1057B000296A000EF6D721B0FBD7266A9F0E2A6011
:1057C000EBD77E0E2A64F4D79E0E2A5C07E0D890B1
:1057D00029322832273226322A2AF6D721A40AD0A3
:1057E000266C271E281E291EE86A27222822292225
:1057F00029AEDED7120014EC2CF021B6000C21B03B
:10580000010C000C14EC2CF021B6000C21B0000CA3
:1058100021B4000C010C14EC2CF021B6000C21B0CA
:10582000000C21A4000C010C216A69EC2BF081EC26
:105830002BF021B6120021AE08D021A004D021A85F
:1058400002D021801200219012002F502A5C0BE11F
:105850002E50295C08E12D50285C05E12C50275C76
:1058600002E121801200D8A002D0218E10D02A504F
:105870002FC02AF02F6E29502EC029F02E6E2850EE
:105880002DC028F02D6E27502CC027F02C6E2F50E5
:105890002A5C10E0FF0F09E0219021B403D021AE73
:1058A0002184120021AE219412002F2AD8902E328A
:1058B0002D322C322C50275E2D50285A2E50295A2A
:1058C00029BEEAD7D8902736283629362A2EF8D787
:0258D000C8D737
:0E58D200D9CFE6FFDACFE6FFE1CFD9FFE2CF74
:1058E000DAFF260EE12402E3E168E652E16ED950C8
:1058F000FA0FE96EFF0EDA20EA6E010EEECFDBFF43
:10590000020EEECFDBFF030EEECFDBFF040EEECF79
:10591000DBFF050EDB6A060EDB6A800EF36E070EF8
:10592000F3CFDBFF330EF36E080EF3CFDBFFD9505E
:10593000090FE66E000EDA20E66E98DAD9EC36F042
:10594000006E060EE15C02E2E16AE552E16E005093
:10595000DF6E800EDF5C07E1010EDB68020EDB68A4
:10596000030EDB681DD0DF0466E0040EDF5C05E19A
:105970000F0EDB5001E1D5D127D007DA170E2C6EC0
:10598000720E2D6EB10E2E6E420E2F6EEAD902EC03
:105990002CF0010A07E1220E0401F16FF26B4ADAE2
:1059A0007F0E4BD0F2D9D80E2C6E8E0E2D6ECE0EF1
:1059B0002E6EC20E2F6ED5D90BEC2CF0010A0DE124
:1059C000220E0401F16FF26B010EDB6A020EDB6A3C
:1059D000030EDB6A040EDB6AA4D1D950FA0FE96E1C
:1059E000FF0EF1D920EC39F0E552E552E552E552CF
:1059F00026C000F027C001F028C002F029C003F043
:105A0000050EDBCF04F0060EDBCF05F0070EDBCF73
:105A100006F0080EDBCF07F004C02CF005C02DF017
:105A200006C02EF007C02FF026C027F025DA0BECB9
:105A30002CF0010A07E1FED93F0EF36E040EF3CFFE
:105A4000DBFF6FD1A2D93B0E2C6EAA0E2D6EB80EC5
:105A50002E6E3F0E2F6E85D9C1D987D92F6A81D975
:105A60000BEC2CF0010A04E10EDA25EC2AF003D04D
:105A70000ADA26EC2AF0E2EC2AF01C0E28C0DBFF42
:105A80001D0E29C0DBFF1C0EDBCF28F01D0EDBCF67
:105A900029F052EC29F0D8D92C6A2D6A800E2E6E8E
:105AA000BF0E2F6E9BD9FA0EDBCF04F0FB0EDBCFBF
:105AB00005F0FC0EDBCF06F0FD0EDBCF07F01E0E6F
:105AC000DBCF0CF01F0EDBCF0DF0200EDBCF0EF086
